{
	"data": {
		"bytecode": {
			"linkReferences": {},
			"object": "6080604052600880546001600160a01b0319163317905534801561002257600080fd5b50616a0880620000336000396000f3fe6080604052600436106101cd5760003560e01c8063569af213116100f75780639d7d2e8d11610095578063b752a41611610064578063b752a416146104c3578063bcc22c9a146104d8578063bdf13851146104eb578063ea77299d1461050057600080fd5b80639d7d2e8d14610471578063a0ae3f1c14610486578063a4b2409e1461048e578063abe9f681146104ae57600080fd5b8063695c92fb116100d1578063695c92fb146103fc5780638465d6501461041157806387aee8ad1461043157806391c8d2041461045157600080fd5b8063569af213146103b257806357e425bc146103c75780635af02dfa146103e757600080fd5b8063279e56e41161016f5780633e9032701161013e5780633e9032701461032e578063429848d91461035b57806348004b9a1461037b5780634e5a05df1461039057600080fd5b8063279e56e4146102a95780632fffffbb146102cc578063329dd364146102ec5780633d9d9a5c1461030e57600080fd5b80631af37578116101ab5780631af37578146102345780632336dbe414610247578063278ecde114610267578063279a6f4d1461028757600080fd5b8063040c4be8146101d257806313278cb8146101fd5780631a3c6b5c14610207575b600080fd5b3480156101de57600080fd5b506101e7610513565b6040516101f49190615fb5565b60405180910390f35b61020561068d565b005b34801561021357600080fd5b506102276102223660046160ba565b610a21565b6040516101f491906160de565b6102056102423660046161e3565b610b52565b34801561025357600080fd5b50610205610262366004616243565b61164c565b34801561027357600080fd5b50610205610282366004616243565b6117f8565b34801561029357600080fd5b5061029c611b67565b6040516101f49190616294565b3480156102b557600080fd5b506102be611cf8565b6040519081526020016101f4565b3480156102d857600080fd5b506102056102e73660046162f7565b611d40565b3480156102f857600080fd5b506103016123c2565b6040516101f49190616363565b34801561031a57600080fd5b506102056103293660046163b0565b612424565b34801561033a57600080fd5b5061034e6103493660046160ba565b612ab4565b6040516101f491906163d4565b34801561036757600080fd5b50610205610376366004616243565b612f1d565b34801561038757600080fd5b506102be6135ab565b34801561039c57600080fd5b506103a5613609565b6040516101f49190616477565b3480156103be57600080fd5b5061030161368b565b3480156103d357600080fd5b506102056103e23660046164af565b61373c565b3480156103f357600080fd5b50610301613b0a565b34801561040857600080fd5b506102be613b95565b34801561041d57600080fd5b5061034e61042c3660046164ec565b613c49565b34801561043d57600080fd5b5061020561044c3660046160ba565b613e7e565b34801561045d57600080fd5b506103a561046c3660046164ec565b6141e8565b34801561047d57600080fd5b506103a5614757565b6102056147d8565b34801561049a57600080fd5b506102056104a9366004616243565b6149ef565b3480156104ba57600080fd5b50610301614c36565b3480156104cf57600080fd5b50610301614c96565b6102056104e6366004616243565b614d21565b3480156104f757600080fd5b50610301614e65565b61020561050e366004616243565b614f0b565b60606000805480602002602001604051908101604052809291908181526020016000905b8282101561068457600084815260209081902060408051610140810182526007860290920180546001600160a01b039081168452600182015416938301939093526002830180549293929184019161058e9061653c565b80601f01602080910402602001604051908101604052809291908181526020018280546105ba9061653c565b80156106075780601f106105dc57610100808354040283529160200191610607565b820191906000526020600020905b8154815290600101906020018083116105ea57829003601f168201915b50505091835250506003820154602080830191909152600483015460408301526005830154606083015260069092015463ffffffff8082166080840152600160201b82041660a083015260ff600160401b82048116151560c0840152600160481b90910416151560e0909101529082526001929092019101610537565b50505050905090565b6001803360009081526016602052604090205460ff1660028111156106b4576106b461625c565b146106d257604051630782484160e21b815260040160405180910390fd5b60006106dc6135ab565b9050600081116107295760405162461bcd60e51b81526020600482015260136024820152724465627473206c69737420697320656d70747960681b60448201526064015b60405180910390fd5b6000805b8281101561078057336000908152600a6020526040902080548290811061075657610756616576565b90600052602060002001548261076c91906165a2565b915080610778816165b5565b91505061072d565b50803410156107ab576040516311920a6d60e31b815234600482015260248101829052604401610720565b60006107b86001846165ce565b90505b80156108de573360009081526009602052604090208054829081106107e2576107e2616576565b6000918252602080832090910154338352600a909152604090912080546001600160a01b03909216916108fc91908490811061082057610820616576565b90600052602060002001549081150290604051600060405180830381858888f19350505050158015610856573d6000803e3d6000fd5b50336000908152600960205260409020805480610875576108756165e1565b60008281526020808220830160001990810180546001600160a01b0319169055909201909255338252600a9052604090208054806108b5576108b56165e1565b6001900381819060005260206000200160009055905580806108d6906165f7565b9150506107bb565b5033600090815260096020526040812080549091906108ff576108ff616576565b6000918252602080832090910154338352600a9091526040822080546001600160a01b03909216926108fc9261093757610937616576565b90600052602060002001549081150290604051600060405180830381858888f1935050505015801561096d573d6000803e3d6000fd5b5033600090815260096020526040902080548061098c5761098c6165e1565b60008281526020808220830160001990810180546001600160a01b0319169055909201909255338252600a9052604090208054806109cc576109cc6165e1565b60019003818190600052602060002001600090559055336001600160a01b03166108fc479081150290604051600060405180830381858888f19350505050158015610a1b573d6000803e3d6000fd5b50505050565b6001600160a01b038116600090815260106020908152604080832060169092528220546060929060ff166002811115610a5c57610a5c61625c565b6002811115610a6d57610a6d61625c565b8152602001908152602001600020805480602002602001604051908101604052809291908181526020016000905b82821015610b47578382906000526020600020018054610aba9061653c565b80601f0160208091040260200160405190810160405280929190818152602001828054610ae69061653c565b8015610b335780601f10610b0857610100808354040283529160200191610b33565b820191906000526020600020905b815481529060010190602001808311610b1657829003601f168201915b505050505081526020019060010190610a9b565b505050509050919050565b336000908152601560209081526040808320601690925282205490919060ff166002811115610b8357610b8361625c565b6002811115610b9457610b9461625c565b8152602081019190915260400160002054600160a81b900460ff16610bce5760405163089129cf60e41b8152336004820152602401610720565b3360009081526015602090815260408083206016909252822054829060ff166002811115610bfe57610bfe61625c565b6002811115610c0f57610c0f61625c565b81526020808201929092526040908101600020815160c0810190925280546001600160a01b03811683529192909190830190600160a01b900460ff166002811115610c5c57610c5c61625c565b6002811115610c6d57610c6d61625c565b8152815460ff600160a81b8204811615156020840152600160b01b820481166040840152600160b81b8204811615156060840152608090920191600160c01b909104166002811115610cc157610cc161625c565b6002811115610cd257610cd261625c565b9052506001600160a01b038616600090815260156020908152604080832060169092528220549293509091829060ff166002811115610d1357610d1361625c565b6002811115610d2457610d2461625c565b81526020808201929092526040908101600020815160c0810190925280546001600160a01b03811683529192909190830190600160a01b900460ff166002811115610d7157610d7161625c565b6002811115610d8257610d8261625c565b8152815460ff600160a81b8204811615156020840152600160b01b820481166040840152600160b81b8204811615156060840152608090920191600160c01b909104166002811115610dd657610dd661625c565b6002811115610de757610de761625c565b90525090506001600160a01b0386163303610e525760405162461bcd60e51b815260206004820152602560248201527f596f752063616e27742062757920612070726f647563742066726f6d20796f756044820152643939b2b63360d91b6064820152608401610720565b600282602001516002811115610e6a57610e6a61625c565b03610ed55760405162461bcd60e51b815260206004820152603560248201527f54686520737570706c6965722063616e6e6f74206275792070726f64756374736044820152742066726f6d2073746f726573206f7220757365727360581b6064820152608401610720565b600182602001516002811115610eed57610eed61625c565b141580610f105750600081602001516002811115610f0d57610f0d61625c565b14155b610f6d5760405162461bcd60e51b815260206004820152602860248201527f5468652073746f72652063616e6e6f74206275792070726f64756374732066726044820152676f6d20757365727360c01b6064820152608401610720565b600082602001516002811115610f8557610f8561625c565b141580610fa85750600281602001516002811115610fa557610fa561625c565b14155b6110085760405162461bcd60e51b815260206004820152602b60248201527f54686520757365722063616e6e6f74206275792070726f64756374732066726f60448201526a6d20737570706c6965727360a81b6064820152608401610720565b6001600160a01b0386166000908152600f602090815260408083206016909252822054829060ff1660028111156110415761104161625c565b60028111156110525761105261625c565b815260200190815260200160002060008681526020019081526020016000206040518060c001604052908160008201805461108c9061653c565b80601f01602080910402602001604051908101604052809291908181526020018280546110b89061653c565b80156111055780601f106110da57610100808354040283529160200191611105565b820191906000526020600020905b8154815290600101906020018083116110e857829003601f168201915b505050918352505060018201546020820152600280830154604083015260038301546060830152600483015463ffffffff8116608084015260a090920191600160201b900460ff169081111561115d5761115d61625c565b600281111561116e5761116e61625c565b815250509050600081602001511161119b578560405163ef0098d160e01b8152600401610720919061660e565b600084116111eb5760405162461bcd60e51b815260206004820152601e60248201527f596f752063616e20627579206174206c6561737420312070726f6475637400006044820152606401610720565b83816040015110156112565760405162461bcd60e51b815260206004820152602e60248201527f5468657265206973206e6f2073756368207175616e74697479206f662070726f60448201526d647563747320696e2073746f636b60901b6064820152608401610720565b6000836060015160646112699190616621565b60ff16606486846020015161127e919061663a565b6112889190616667565b611292919061663a565b9050803410156112be576040516311920a6d60e31b815234600482015260248101829052604401610720565b6040516001600160a01b0389169082156108fc029083906000818181858888f193505050501580156112f4573d6000803e3d6000fd5b5060405133904780156108fc02916000818181858888f19350505050158015611321573d6000803e3d6000fd5b5061134082600001518987856060015186608001518760200151615094565b6001846020015160028111156113585761135861625c565b0361138b57611386826000015160028460200151611376919061663a565b878560600151866080015161547f565b6113ac565b6113ac8260000151836020015184604001518560600151866080015161547f565b336000908152600b6020526040902054156113c9576113c9615903565b60006113d88360800151615a57565b90506114186040518060400160405280601281526020017129ba37b930b3b2903634b332903230bcb99d60711b815250846080015163ffffffff16615abb565b61144d6040518060400160405280600d81526020016c2930b73237b6903737b731b29d60991b8152508263ffffffff16615abb565b60408051610140810182523381526001600160a01b038b81166020808401918252875194840194855287015160608085019190915260808085018c90529088015160a085015287015163ffffffff90811660c0850152851660e08401526000610100840181905261012084018190528054600181018255908052835160079091027f290decd9548b62a8d60345a988386fc84ba6bc95484008f6362f93160ef3e563810180549285166001600160a01b031993841617815592517f290decd9548b62a8d60345a988386fc84ba6bc95484008f6362f93160ef3e564820180549190951692169190911790925592519192839290917f290decd9548b62a8d60345a988386fc84ba6bc95484008f6362f93160ef3e565019061156e90826166c6565b50606082015160038201556080820151600482015560a0820151600582015560c08201516006909101805460e0840151610100850151610120909501511515600160481b0269ff00000000000000000019951515600160401b029590951669ffff00000000000000001963ffffffff928316600160201b0267ffffffffffffffff199094169290951691909117919091179290921691909117919091179055336000908152601960205260408120905461162a906001906165ce565b8154600181018355600092835260209092209091015550505050505050505050565b6000803360009081526016602052604090205460ff1660028111156116735761167361625c565b1461169157604051630782484160e21b815260040160405180910390fd5b336000908152600b602052604090205482146116de5760405162461bcd60e51b815260206004820152600c60248201526b496e76616c696420636f646560a01b6044820152606401610720565b336000908152601660209081526040808320546015909252822060ff909116918260028111156117105761171061625c565b60028111156117215761172161625c565b8152602081019190915260400160002054600160b01b900460ff16156117955760405162461bcd60e51b8152602060048201526024808201527f596f75206861766520616c726561647920616374697661746564207468697320604482015263636f646560e01b6064820152608401610720565b336000908152601560205260408120600a918360028111156117b9576117b961625c565b60028111156117ca576117ca61625c565b815260200190815260200160002060000160166101000a81548160ff021916908360ff160217905550505050565b6008546001600160a01b031633146118225760405162461bcd60e51b815260040161072090616786565b6000818152600e602052604090205460ff1661188a5760405162461bcd60e51b815260206004820152602160248201527f546865207265717565737420686173206e6f74206265656e2073656e742079656044820152601d60fa1b6064820152608401610720565b600080828154811061189e5761189e616576565b60009182526020918290206040805161014081018252600790930290910180546001600160a01b03908116845260018201541693830193909352600283018054929392918401916118ee9061653c565b80601f016020809104026020016040519081016040528092919081815260200182805461191a9061653c565b80156119675780601f1061193c57610100808354040283529160200191611967565b820191906000526020600020905b81548152906001019060200180831161194a57829003601f168201915b505050918352505060038201546020820152600482015460408201526005820154606082015260069091015463ffffffff8082166080840152600160201b82041660a083015260ff600160401b82048116151560c0840152600160481b90910416151560e0909101526101008101519091501580156119e95750806101200151155b611a445760405162461bcd60e51b815260206004820152602660248201527f54686520726571756573742068617320616c7265616479206265656e2070726f60448201526518d95cdcd95960d21b6064820152608401610720565b8060e0015163ffffffff168160c0015163ffffffff161015611b2b5760016101008201526020808201516001600160a01b03166000908152600a9091526040902060808201516060830151611a99919061663a565b8154600180820184556000938452602080852090920192909255838101516001600160a01b0390811684526009825260408085208651815495860182559086529483902090930180546001600160a01b0319169490911693909317909255518381527fb5e697fd702daf79a1ea89f82c5aec1b019e3601c671314da084b85544c9c24591015b60405180910390a15050565b60016101208201526040518281527f19de89ea8960411ee72328ec26b63f03bae0d96bff70c5ce1934387a3ee6dc0390602001611b1f565b5050565b611b6f615e9e565b336000908152601560209081526040808320601690925282205490919060ff166002811115611ba057611ba061625c565b6002811115611bb157611bb161625c565b8152602081019190915260400160002054600160a81b900460ff16611beb5760405163089129cf60e41b8152336004820152602401610720565b336000908152601560209081526040808320601690925282205490919060ff166002811115611c1c57611c1c61625c565b6002811115611c2d57611c2d61625c565b81526020808201929092526040908101600020815160c0810190925280546001600160a01b03811683529192909190830190600160a01b900460ff166002811115611c7a57611c7a61625c565b6002811115611c8b57611c8b61625c565b8152815460ff600160a81b8204811615156020840152600160b01b820481166040840152600160b81b8204811615156060840152608090920191600160c01b909104166002811115611cdf57611cdf61625c565b6002811115611cf057611cf061625c565b905250905090565b6008546000906001600160a01b03163314611d255760405162461bcd60e51b815260040161072090616786565b600154611d3b90670de0b6b3a76400009061663a565b905090565b6002803360009081526016602052604090205460ff166002811115611d6757611d6761625c565b14611d8557604051630782484160e21b815260040160405180910390fd5b611d9d60405180602001604052806000815250615b00565b611da686615b00565b03611df35760405162461bcd60e51b815260206004820152601d60248201527f5468652070726f64756374206d75737420686176652061207469746c650000006044820152606401610720565b60008411611e585760405162461bcd60e51b815260206004820152602c60248201527f5468652070726f64756374206d7573742068617665206120707269636520677260448201526b06561746572207468616e20360a41b6064820152608401610720565b60008311611ebe5760405162461bcd60e51b815260206004820152602d60248201527f5468652070726f64756374206d7573742068617665206120616d6f756e74206760448201526c0726561746572207468616e203609c1b6064820152608401610720565b60008263ffffffff1611611f3a5760405162461bcd60e51b815260206004820152603860248201527f5468652070726f64756374206d757374206861766520612073746f726167652060448201527f6c6966652067726561746572207468616e2030206461797300000000000000006064820152608401610720565b6000611f4962015180426167b4565b611f5390426165ce565b90506000611f6387838689615b31565b336000908152600f6020908152604080832060169092528220549293509091829060ff166002811115611f9857611f9861625c565b6002811115611fa957611fa961625c565b8152602001908152602001600020600083815260200190815260200160002060010154111561205057336000908152600f60209081526040808320601690925282205487929060ff1660028111156120035761200361625c565b60028111156120145761201461625c565b81526020019081526020016000206000838152602001908152602001600020600201600082825461204591906165a2565b909155506123b99050565b600061205b88615b00565b90506040518060c001604052808981526020018881526020018781526020018481526020018663ffffffff16815260200160028081111561209e5761209e61625c565b9052336000908152600f60209081526040808320601690925282205490919060ff1660028111156120d1576120d161625c565b60028111156120e2576120e261625c565b81526020808201929092526040908101600090812086825290925290208151819061210d90826166c6565b5060208201516001820155604082015160028083019190915560608301516003830155608083015160048301805463ffffffff90921663ffffffff1983168117825560a086015193919264ffffffffff19161790600160201b9084908111156121785761217861625c565b021790555050336000908152601060209081526040808320601690925282205490925060ff1660028111156121af576121af61625c565b60028111156121c0576121c061625c565b815260208082019290925260400160009081208054600181018255908252919020016121ec89826166c6565b50336000908152601260209081526040808320601690925282205490919060ff16600281111561221e5761221e61625c565b600281111561222f5761222f61625c565b81526020808201929092526040908101600090812084825283528181208054600181018255908252838220018a90553381526013835281812060169093529081205460ff1660028111156122855761228561625c565b60028111156122965761229661625c565b81526020808201929092526040908101600090812084825283528181208054600181018255908252838220018690553381526014835281812060169093529081205460ff1660028111156122ec576122ec61625c565b60028111156122fd576122fd61625c565b815260208082019290925260409081016000908120848252835281812080546001810182559082528382206008820401805460079092166004026101000a63ffffffff81810219909316928b16029190911790553381526011835281812060169093529081205460ff1660028111156123785761237861625c565b60028111156123895761238961625c565b81526020808201929092526040908101600090812084825290925281208054916123b2836165b5565b9190505550505b50505050505050565b6060600480548060200260200160405190810160405280929190818152602001828054801561241a57602002820191906000526020600020905b81546001600160a01b031681526001909101906020018083116123fc575b5050505050905090565b6008546001600160a01b031633036124725760405162461bcd60e51b81526020600482015260116024820152702cb7ba9030b932903a34329037bbb732b960791b6044820152606401610720565b3360009081526018602052604090205460ff16156124d25760405162461bcd60e51b815260206004820152601a60248201527f596f752061726520616c726561647920726567697374657265640000000000006044820152606401610720565b6040516001600160f01b031960f083901b1660208201526000906022016040516020818303038152906040528051906020012060001c90507f68a3979302a4cb21359668e4c72dd25d994ec899c117266caacb15e75cc586e981036126fa576040805160c08101825233808252600260208084018290526001848601526000606085018190526080850181905260a085018390529283526015905292812091928152602080820192909252604001600020825181546001600160a01b039091166001600160a01b031982168117835592840151919283916001600160a81b03191617600160a01b8360028111156125cb576125cb61625c565b021790555060408201518154606084015160808501511515600160b81b0260ff60b81b1960ff92909216600160b01b0260ff60b01b19941515600160a81b029490941661ffff60a81b1990931692909217929092179182168117835560a084015191839160ff60c01b191661ffff60b81b1990911617600160c01b8360028111156126585761265861625c565b0217905550503360008181526016602090815260408083208054600260ff19909116811790915560178352908320805460018181018355918552838520938104909301805460ff601f9095166101000a948502191693830293909317909255805491820181559091527f405787fa12a823e0f2b7631cc41b3ba8828b3321ca811111fa75cd3aa3bb5ace0180546001600160a01b031916909117905550612a96565b7f3121b941577efddf5181e856378ebabeb436d6b0da310d5d74f0d334b60ab56481036128dd576040805160c08101825233808252600160208084018281528486018390526000606086018190526080860181905260a0860184905293845260158252858420928452919052929020815181546001600160a01b039091166001600160a01b03198216811783559351929391929183916001600160a81b03191617600160a01b8360028111156127b2576127b261625c565b021790555060408201518154606084015160808501511515600160b81b0260ff60b81b1960ff92909216600160b01b0260ff60b01b19941515600160a81b029490941661ffff60a81b1990931692909217929092179182168117835560a084015191839160ff60c01b191661ffff60b81b1990911617600160c01b83600281111561283f5761283f61625c565b021790555050336000818152601660209081526040808320805460ff1916600190811790915560178352908320805480830182559084528284209281049092018054601f9093166101000a60ff8102199093169092179091556003805491820181559091527fc2575a0e9e593c00f959f8c92f12db2869c3395a3b0502d05e2516446f71f85b0180546001600160a01b031916909117905550612a96565b8161ffff16600003612a96576040805160c0810182523380825260006020808401828152600185870152606085018390526080850183905260a0850183905292825260158152848220828052905292909220815181546001600160a01b039091166001600160a01b03198216811783559351929391929183916001600160a81b03191617600160a01b8360028111156129785761297861625c565b021790555060408201518154606084015160808501511515600160b81b0260ff60b81b1960ff92909216600160b01b0260ff60b01b19941515600160a81b029490941661ffff60a81b1990931692909217929092179182168117835560a084015191839160ff60c01b191661ffff60b81b1990911617600160c01b836002811115612a0557612a0561625c565b021790555050336000818152601660209081526040808320805460ff191690556017825282208054600181810183559184528284209281049092018054601f9093166101000a60ff02199092169091556004805491820181559091527f8a35acfbc15ff81a39ae7d344fd709f28e8600b4aa8c65c6b64bfe7fe36bd19b0180546001600160a01b0319169091179055505b5050336000908152601860205260409020805460ff19166001179055565b6001600160a01b038116600090815260106020908152604080832060169092528220546060929190829060ff166002811115612af257612af261625c565b6002811115612b0357612b0361625c565b8152602001908152602001600020805480602002602001604051908101604052809291908181526020016000905b82821015612bdd578382906000526020600020018054612b509061653c565b80601f0160208091040260200160405190810160405280929190818152602001828054612b7c9061653c565b8015612bc95780601f10612b9e57610100808354040283529160200191612bc9565b820191906000526020600020905b815481529060010190602001808311612bac57829003601f168201915b505050505081526020019060010190612b31565b5050505090506000815190506000808267ffffffffffffffff811115612c0557612c05616140565b604051908082528060200260200182016040528015612c3857816020015b6060815260200190600190039081612c235790505b50905060005b83811015612cae576000612c6b88878481518110612c5e57612c5e616576565b60200260200101516141e8565b9050805184612c7a91906165a2565b935080838381518110612c8f57612c8f616576565b6020026020010181905250508080612ca6906165b5565b915050612c3e565b5060008267ffffffffffffffff811115612cca57612cca616140565b604051908082528060200260200182016040528015612d0357816020015b612cf0615ed4565b815260200190600190039081612ce85790505b5090506000925060005b84811015612f12576000838281518110612d2957612d29616576565b6020026020010151905060005b8151811015612efd576001600160a01b038a166000908152600f60209081526040808320601690925282205490919060ff166002811115612d7957612d7961625c565b6002811115612d8a57612d8a61625c565b81526020019081526020016000206000838381518110612dac57612dac616576565b602002602001015181526020019081526020016000206040518060c0016040529081600082018054612ddd9061653c565b80601f0160208091040260200160405190810160405280929190818152602001828054612e099061653c565b8015612e565780601f10612e2b57610100808354040283529160200191612e56565b820191906000526020600020905b815481529060010190602001808311612e3957829003601f168201915b505050918352505060018201546020820152600280830154604083015260038301546060830152600483015463ffffffff8116608084015260a090920191600160201b900460ff1690811115612eae57612eae61625c565b6002811115612ebf57612ebf61625c565b9052508487612ecd816165b5565b985081518110612edf57612edf616576565b60200260200101819052508080612ef5906165b5565b915050612d36565b50508080612f0a906165b5565b915050612d0d565b509695505050505050565b6008546001600160a01b03163314612f475760405162461bcd60e51b815260040161072090616786565b600060058281548110612f5c57612f5c616576565b60009182526020808320909101546001600160a01b0316808352601682526040808420546015909352832090935060ff909116919081836002811115612fa457612fa461625c565b6002811115612fb557612fb561625c565b81526020808201929092526040908101600020815160c0810190925280546001600160a01b03811683529192909190830190600160a01b900460ff1660028111156130025761300261625c565b60028111156130135761301361625c565b8152815460ff600160a81b8204811615156020840152600160b01b820481166040840152600160b81b8204811615156060840152608090920191600160c01b9091041660028111156130675761306761625c565b60028111156130785761307861625c565b9052506001600160a01b0384166000908152601660209081526040808320546015909252822092935060ff1691908460028111156130b8576130b861625c565b60028111156130c9576130c961625c565b81526020810191909152604001600020805460ff60c01b1916600160c01b8360028111156130f9576130f961625c565b02179055506001600160a01b0383166000908152601560205260408120818460028111156131295761312961625c565b600281111561313a5761313a61625c565b8152602080820192909252604090810160009081208054941515600160b81b0260ff60b81b199095169490941790935560a08401516001600160a01b03871684526017835281842080548351818602810186019094528084529194939091908301828280156131f857602002820191906000526020600020906000905b82829054906101000a900460ff1660028111156131d6576131d661625c565b8152602060019283018181049485019490930390920291018084116131b75790505b5050505050905060006001905060005b82518160ff161015613274578360028111156132265761322661625c565b838260ff168151811061323b5761323b616576565b602002602001015160028111156132545761325461625c565b036132625760009150613274565b8061326c816167c8565b915050613208565b508015613523576040518060c00160405280876001600160a01b031681526020018460028111156132a7576132a761625c565b81526001602082015260006040820181905260608201526080018460028111156132d3576132d361625c565b90526001600160a01b0387166000908152601560205260408120908560028111156133005761330061625c565b60028111156133115761331161625c565b8152602080820192909252604001600020825181546001600160a01b039091166001600160a01b031982168117835592840151919283916001600160a81b03191617600160a01b83600281111561336a5761336a61625c565b021790555060408201518154606084015160808501511515600160b81b0260ff60b81b1960ff92909216600160b01b0260ff60b01b19941515600160a81b029490941661ffff60a81b1990931692909217929092179182168117835560a084015191839160ff60c01b191661ffff60b81b1990911617600160c01b8360028111156133f7576133f761625c565b0217905550600291506134079050565b8360028111156134195761341961625c565b0361346e57600280546001810182556000919091527f405787fa12a823e0f2b7631cc41b3ba8828b3321ca811111fa75cd3aa3bb5ace0180546001600160a01b0319166001600160a01b038816179055613523565b60018360028111156134825761348261625c565b036134d757600380546001810182556000919091527fc2575a0e9e593c00f959f8c92f12db2869c3395a3b0502d05e2516446f71f85b0180546001600160a01b0319166001600160a01b038816179055613523565b600480546001810182556000919091527f8a35acfbc15ff81a39ae7d344fd709f28e8600b4aa8c65c6b64bfe7fe36bd19b0180546001600160a01b0319166001600160a01b0388161790555b6001600160a01b0386166000908152601660205260409020805484919060ff191660018360028111156135585761355861625c565b021790555061356687615b6b565b6040516001600160a01b03871681527fcb9054348eeb239e4b91fd1d9120cf1f3dde30908900f73321aa901553340f499060200160405180910390a150505050505050565b60006001803360009081526016602052604090205460ff1660028111156135d4576135d461625c565b146135f257604051630782484160e21b815260040160405180910390fd5b3360009081526009602052604090205491505b5090565b6008546060906001600160a01b031633146136365760405162461bcd60e51b815260040161072090616786565b600780548060200260200160405190810160405280929190818152602001828054801561241a57602002820191906000526020600020905b81548152602001906001019080831161366e575050505050905090565b60606001803360009081526016602052604090205460ff1660028111156136b4576136b461625c565b146136d257604051630782484160e21b815260040160405180910390fd5b336000908152600960209081526040918290208054835181840281018401909452808452909183018282801561373157602002820191906000526020600020905b81546001600160a01b03168152600190910190602001808311613713575b505050505091505090565b336000908152601560209081526040808320601690925282205490919060ff16600281111561376d5761376d61625c565b600281111561377e5761377e61625c565b8152602081019190915260400160002054600160a81b900460ff166137b85760405163089129cf60e41b8152336004820152602401610720565b6008546001600160a01b031633036138065760405162461bcd60e51b81526020600482015260116024820152702cb7ba9030b932903a34329037bbb732b960791b6044820152606401610720565b336000908152601660209081526040808320546015909252822060ff909116918260028111156138385761383861625c565b60028111156138495761384961625c565b8152602081019190915260400160002054600160b81b900460ff16156138cc5760405162461bcd60e51b815260206004820152603260248201527f596f75206861766520616c72656164792073656e742061207265717565737420604482015271746f206368616e67652074686520726f6c6560701b6064820152608401610720565b60006138d783615b00565b90506138f160405180602001604052806000815250615b00565b8103613910576040516329b386c760e01b815260040160405180910390fd5b6139396040518060400160405280600881526020016729aaa8282624a2a960c11b815250615b00565b81036139ad5733600090815260156020526040812060029184838111156139625761396261625c565b60028111156139735761397361625c565b81526020810191909152604001600020805460ff60c01b1916600160c01b8360028111156139a3576139a361625c565b0217905550613a65565b6139d36040518060400160405280600581526020016453544f524560d81b815250615b00565b81036139fd573360009081526015602052604081206001918460028111156139625761396261625c565b613a22604051806040016040528060048152602001632aa9a2a960e11b815250615b00565b8103613a4a57336000908152601560205260408120818460028111156139625761396261625c565b82604051634f63f9cd60e11b8152600401610720919061660e565b336000908152601560205260408120600191846002811115613a8957613a8961625c565b6002811115613a9a57613a9a61625c565b8152602081019190915260400160009081208054921515600160b81b0260ff60b81b19909316929092179091556005805460018101825591527f036b6384b5eca791c62761152d0c79bb0604c104a5fb6f4eb0703f3154bb3db00180546001600160a01b03191633179055505050565b6008546060906001600160a01b03163314613b375760405162461bcd60e51b815260040161072090616786565b600180548060200260200160405190810160405280929190818152602001828054801561241a576020028201919060005260206000209081546001600160a01b031681526001909101906020018083116123fc575050505050905090565b60006001803360009081526016602052604090205460ff166002811115613bbe57613bbe61625c565b14613bdc57604051630782484160e21b815260040160405180910390fd5b6000805b336000908152600a6020526040902054811015613c4257336000908152600a60205260409020805482908110613c1857613c18616576565b906000526020600020015482613c2e91906165a2565b915080613c3a816165b5565b915050613be0565b5091505090565b60606000613c5784846141e8565b805190915060008167ffffffffffffffff811115613c7757613c77616140565b604051908082528060200260200182016040528015613cb057816020015b613c9d615ed4565b815260200190600190039081613c955790505b50905060005b82811015613e72576001600160a01b0387166000908152600f60209081526040808320601690925282205490919060ff166002811115613cf857613cf861625c565b6002811115613d0957613d0961625c565b81526020019081526020016000206000858381518110613d2b57613d2b616576565b602002602001015181526020019081526020016000206040518060c0016040529081600082018054613d5c9061653c565b80601f0160208091040260200160405190810160405280929190818152602001828054613d889061653c565b8015613dd55780601f10613daa57610100808354040283529160200191613dd5565b820191906000526020600020905b815481529060010190602001808311613db857829003601f168201915b505050918352505060018201546020820152600280830154604083015260038301546060830152600483015463ffffffff8116608084015260a090920191600160201b900460ff1690811115613e2d57613e2d61625c565b6002811115613e3e57613e3e61625c565b81525050828281518110613e5457613e54616576565b60200260200101819052508080613e6a906165b5565b915050613cb6565b50925050505b92915050565b336000908152601560209081526040808320601690925282205490919060ff166002811115613eaf57613eaf61625c565b6002811115613ec057613ec061625c565b8152602081019190915260400160002054600160a81b900460ff16613efa5760405163089129cf60e41b8152336004820152602401610720565b6001600160a01b0381163303613f605760405162461bcd60e51b815260206004820152602560248201527f596f752063616e27742067697665206120646973636f756e7420746f20796f756044820152643939b2b63360d91b6064820152608401610720565b6001600160a01b03811660009081526015602090815260408083206016909252822054829060ff166002811115613f9957613f9961625c565b6002811115613faa57613faa61625c565b8152602081019190915260400160002054600160a01b900460ff166002811115613fd657613fd661625c565b146140365760405162461bcd60e51b815260206004820152602a60248201527f54686520646973636f756e742063616e206f6e6c7920626520676976656e20626044820152693c903a3432903ab9b2b960b11b6064820152608401610720565b336000908152600d602090815260408083206001600160a01b038516845290915290205460ff16156140c15760405162461bcd60e51b815260206004820152602e60248201527f596f75206861766520616c726561647920676976656e206120646973636f756e60448201526d3a103a37903a3434b9903ab9b2b960911b6064820152608401610720565b6001600160a01b0381166000908152600b6020526040902054156141275760405162461bcd60e51b815260206004820181905260248201527f54686973207573657220616c726561647920686173206120646973636f756e746044820152606401610720565b6040516bffffffffffffffffffffffff19606083811b8216602084015242603484015233901b16605482015260009060680160408051601f198184030181528282528051602091820120336000818152600d84528481206001600160a01b03891682528452848120805460ff19166001179055600b8452848120839055600c845284902080546001600160a01b0319169091179055838301909252600e83526d2932b332b93930b61031b7b2329d60911b908301529150611b639082615abb565b6001600160a01b0382166000908152601060209081526040808320601690925282205460609285928592829190829060ff16600281111561422b5761422b61625c565b600281111561423c5761423c61625c565b8152602001908152602001600020805480602002602001604051908101604052809291908181526020016000905b828210156143165783829060005260206000200180546142899061653c565b80601f01602080910402602001604051908101604052809291908181526020018280546142b59061653c565b80156143025780601f106142d757610100808354040283529160200191614302565b820191906000526020600020905b8154815290600101906020018083116142e557829003601f168201915b50505050508152602001906001019061426a565b50505050905060005b81518110156143735761433184615b00565b61435383838151811061434657614346616576565b6020026020010151615b00565b036143615760019250614373565b8061436b816165b5565b91505061431f565b5081614394578260405163ef0098d160e01b8152600401610720919061660e565b600061439f87615b00565b6001600160a01b038916600090815260116020908152604080832060169092528220549293509091829060ff1660028111156143dd576143dd61625c565b60028111156143ee576143ee61625c565b8152602080820192909252604090810160009081208582528352818120546001600160a01b038d168252601284528282206016909452918120549193509190829060ff1660028111156144435761444361625c565b60028111156144545761445461625c565b815260200190815260200160002060008481526020019081526020016000208054806020026020016040519081016040528092919081815260200182805480156144bd57602002820191906000526020600020905b8154815260200190600101908083116144a9575b5050506001600160a01b038d1660009081526013602090815260408083206016909252822054949550909390925083915060ff1660028111156145025761450261625c565b60028111156145135761451361625c565b8152602001908152602001600020600085815260200190815260200160002080548060200260200160405190810160405280929190818152602001828054801561457c57602002820191906000526020600020905b815481526020019060010190808311614568575b5050506001600160a01b038e1660009081526014602090815260408083206016909252822054949550909390925083915060ff1660028111156145c1576145c161625c565b60028111156145d2576145d261625c565b8152602001908152602001600020600086815260200190815260200160002080548060200260200160405190810160405280929190818152602001828054801561466757602002820191906000526020600020906000905b82829054906101000a900463ffffffff1663ffffffff168152602001906004019060208260030104928301926001038202915080841161462a5790505b5050505050905060008467ffffffffffffffff81111561468957614689616140565b6040519080825280602002602001820160405280156146b2578160200160208202803683370190505b50905060005b85811015614746576147178d8583815181106146d6576146d6616576565b60200260200101518584815181106146f0576146f0616576565b602002602001015188858151811061470a5761470a616576565b6020026020010151615b31565b82828151811061472957614729616576565b60209081029190910101528061473e816165b5565b9150506146b8565b509c9b505050505050505050505050565b6008546060906001600160a01b031633146147845760405162461bcd60e51b815260040161072090616786565b600680548060200260200160405190810160405280929190818152602001828054801561241a576020028201919060005260206000209081548152602001906001019080831161366e575050505050905090565b6008546001600160a01b031633146148025760405162461bcd60e51b815260040161072090616786565b600061480c611cf8565b905080341015614838576040516311920a6d60e31b815234600482015260248101829052604401610720565b60015461487f5760405162461bcd60e51b815260206004820152601560248201527443726564697473206c69737420697320656d70747960581b6044820152606401610720565b6001805460009161488f916165ce565b90505b801561493457600181815481106148ab576148ab616576565b60009182526020822001546040516001600160a01b039091169190670de0b6b3a76400009082818181858883f193505050501580156148ee573d6000803e3d6000fd5b506001805480614900576149006165e1565b600082815260209020810160001990810180546001600160a01b03191690550190558061492c816165f7565b915050614892565b50600160008154811061494957614949616576565b60009182526020822001546040516001600160a01b039091169190670de0b6b3a76400009082818181858883f1935050505015801561498c573d6000803e3d6000fd5b50600180548061499e5761499e6165e1565b600082815260208120820160001990810180546001600160a01b031916905590910190915560405133914780156108fc02929091818181858888f19350505050158015611b63573d6000803e3d6000fd5b336000908152601560209081526040808320601690925282205490919060ff166002811115614a2057614a2061625c565b6002811115614a3157614a3161625c565b8152602081019190915260400160002054600160a81b900460ff16614a6b5760405163089129cf60e41b8152336004820152602401610720565b3360009081526019602052604081208054600e92919084908110614a9157614a91616576565b6000918252602080832090910154835282019290925260400190205460ff1615614b075760405162461bcd60e51b815260206004820152602160248201527f54686520726571756573742068617320616c7265616479206265656e2073656e6044820152601d60fa1b6064820152608401610720565b60023360009081526016602052604090205460ff166002811115614b2d57614b2d61625c565b03614b8a5760405162461bcd60e51b815260206004820152602760248201527f4120737570706c6965722063616e6e6f742073656e64206120726566756e64206044820152661c995c5d595cdd60ca1b6064820152608401610720565b336000908152601960205260408120805483908110614bab57614bab616576565b60009182526020808320909101546006805460018181019092557ff652222313e28459528d920b65115c16c04f3efc82aaedc97be59f3f377c0d3f01829055908352600e90915260408220805460ff191682179055600780549182018155909152427fa66cc928b5edb82af9bd49922954155ab7b0942694bea4ce44661d9a8736c688909101555050565b6060600380548060200260200160405190810160405280929190818152602001828054801561241a576020028201919060005260206000209081546001600160a01b031681526001909101906020018083116123fc575050505050905090565b6008546060906001600160a01b03163314614cc35760405162461bcd60e51b815260040161072090616786565b600580548060200260200160405190810160405280929190818152602001828054801561241a576020028201919060005260206000209081546001600160a01b031681526001909101906020018083116123fc575050505050905090565b6008546001600160a01b03163314614d4b5760405162461bcd60e51b815260040161072090616786565b670de0b6b3a7640000341015614d84576040516311920a6d60e31b8152346004820152670de0b6b3a76400006024820152604401610720565b6001548110614dd55760405162461bcd60e51b815260206004820152601960248201527f546869732063726564697420646f65736e2774206578697374000000000000006044820152606401610720565b60018181548110614de857614de8616576565b60009182526020822001546040516001600160a01b039091169190670de0b6b3a76400009082818181858883f19350505050158015614e2b573d6000803e3d6000fd5b5060405133904780156108fc02916000818181858888f19350505050158015614e58573d6000803e3d6000fd5b50614e6281615c3b565b50565b60606001803360009081526016602052604090205460ff166002811115614e8e57614e8e61625c565b14614eac57604051630782484160e21b815260040160405180910390fd5b6002805480602002602001604051908101604052809291908181526020018280548015613731576020028201919060005260206000209081546001600160a01b0316815260019091019060200180831161371357505050505091505090565b6001803360009081526016602052604090205460ff166002811115614f3257614f3261625c565b14614f5057604051630782484160e21b815260040160405180910390fd5b336000908152600960205260409020548210614fae5760405162461bcd60e51b815260206004820152601760248201527f54686973206465627420646f65736e27742065786973740000000000000000006044820152606401610720565b336000908152600a60205260408120805484908110614fcf57614fcf616576565b9060005260206000200154905080341015615006576040516311920a6d60e31b815234600482015260248101829052604401610720565b33600090815260096020526040902080548490811061502757615027616576565b60009182526020822001546040516001600160a01b039091169183156108fc02918491818181858888f19350505050158015615067573d6000803e3d6000fd5b5060405133904780156108fc02916000818181858888f19350505050158015610a1b573d6000803e3d6000fd5b60006150a287858585615b31565b6001600160a01b0387166000908152600f602090815260408083206016909252822054929350879290919060ff1660028111156150e1576150e161625c565b60028111156150f2576150f261625c565b81526020019081526020016000206000838152602001908152602001600020600201600082825461512391906165ce565b90915550506001600160a01b0386166000908152600f60209081526040808320601690925282205490919060ff1660028111156151625761516261625c565b60028111156151735761517361625c565b81526020019081526020016000206000828152602001908152602001600020600201546000036123b95760006151a888615b00565b6001600160a01b0388166000908152600f6020908152604080832060169092528220549293509160ff1660028111156151e3576151e361625c565b60028111156151f4576151f461625c565b81526020808201929092526040908101600090812085825290925281209061521c8282615f1b565b50600060018201819055600282018190556003820155600401805464ffffffffff1916905561524b8789615cdc565b6001600160a01b0387166000908152601260209081526040808320601690925282205490919060ff1660028111156152855761528561625c565b60028111156152965761529661625c565b815260200190815260200160002060008281526020019081526020016000208054806152c4576152c46165e1565b6000828152602080822083016000199081018390559092019092556001600160a01b0389168252601381526040808320601690925282205490919060ff1660028111156153135761531361625c565b60028111156153245761532461625c565b81526020019081526020016000206000828152602001908152602001600020805480615352576153526165e1565b6000828152602080822083016000199081018390559092019092556001600160a01b0389168252601481526040808320601690925282205490919060ff1660028111156153a1576153a161625c565b60028111156153b2576153b261625c565b815260200190815260200160002060008281526020019081526020016000208054806153e0576153e06165e1565b60008281526020808220600860001990940193840401805463ffffffff600460078716026101000a0219169055919092556001600160a01b0389168252601181526040808320601690925282205490919060ff1660028111156154455761544561625c565b60028111156154565761545661625c565b81526020808201929092526040908101600090812084825290925281208054916123b2836165f7565b600061548d86848488615b31565b336000908152600f6020908152604080832060169092528220549293509091829060ff1660028111156154c2576154c261625c565b60028111156154d3576154d361625c565b8152602001908152602001600020600083815260200190815260200160002060010154111561557a57336000908152600f60209081526040808320601690925282205486929060ff16600281111561552d5761552d61625c565b600281111561553e5761553e61625c565b81526020019081526020016000206000838152602001908152602001600020600201600082825461556f91906165a2565b909155506158fb9050565b600061558587615b00565b6040805160c08101825289815260208082018a90528183018990526060820188905263ffffffff87166080830152336000908152601690915291909120549192509060a082019060ff1660028111156155e0576155e061625c565b9052336000908152600f60209081526040808320601690925282205490919060ff1660028111156156135761561361625c565b60028111156156245761562461625c565b81526020808201929092526040908101600090812086825290925290208151819061564f90826166c6565b5060208201516001820155604082015160028083019190915560608301516003830155608083015160048301805463ffffffff90921663ffffffff1983168117825560a086015193919264ffffffffff19161790600160201b9084908111156156ba576156ba61625c565b021790555050336000908152601060209081526040808320601690925282205490925060ff1660028111156156f1576156f161625c565b60028111156157025761570261625c565b8152602080820192909252604001600090812080546001810182559082529190200161572e88826166c6565b50336000908152601260209081526040808320601690925282205490919060ff1660028111156157605761576061625c565b60028111156157715761577161625c565b81526020808201929092526040908101600090812084825283528181208054600181018255908252838220018990553381526013835281812060169093529081205460ff1660028111156157c7576157c761625c565b60028111156157d8576157d861625c565b81526020808201929092526040908101600090812084825283528181208054600181018255908252838220018790553381526014835281812060169093529081205460ff16600281111561582e5761582e61625c565b600281111561583f5761583f61625c565b815260208082019290925260409081016000908120848252835281812080546001810182559082528382206008820401805460079092166004026101000a63ffffffff81810219909316928916029190911790553381526011835281812060169093529081205460ff1660028111156158ba576158ba61625c565b60028111156158cb576158cb61625c565b81526020808201929092526040908101600090812084825290925281208054916158f4836165b5565b9190505550505b505050505050565b336000908152601560209081526040808320601690925282205490919060ff1660028111156159345761593461625c565b60028111156159455761594561625c565b8152602081019190915260400160002054600160a81b900460ff1661597f5760405163089129cf60e41b8152336004820152602401610720565b336000908152600b60209081526040808320839055601582528083206016909252822054829060ff1660028111156159b9576159b961625c565b60028111156159ca576159ca61625c565b815260208082019290925260409081016000908120805460ff95909516600160b01b0260ff60b01b1990951694909417909355338352600c90915281205460018054808201825592527fb10e2d527612073b26eecdfd717e6a320cf44b4afac2b0732d9fcbe2b7fa0cf690910180546001600160a01b0319166001600160a01b0392909216919091179055565b600062015180615a688360026167e7565b615a7590620151806167e7565b63ffffffff1642604051602001615a8e91815260200190565b6040516020818303038152906040528051906020012060001c615ab191906167b4565b613e789190616667565b611b638282604051602401615ad192919061680f565b60408051601f198184030181529190526020810180516001600160e01b0316632d839cb360e21b179052615e79565b600081604051602001615b139190616831565b60408051601f19818403018152919052805160209091012092915050565b600084848484604051602001615b4a949392919061684d565b60408051601f19818403018152919052805160209091012095945050505050565b600554615b7a906001906165ce565b811015615c05576005615b8e8260016165a2565b81548110615b9e57615b9e616576565b600091825260209091200154600580546001600160a01b039092169183908110615bca57615bca616576565b600091825260209091200180546001600160a01b0319166001600160a01b039290921691909117905580615bfd816165b5565b915050615b6b565b6005805480615c1657615c166165e1565b600082815260209020810160001990810180546001600160a01b031916905501905550565b805b600154811015615cca576001615c5382826165a2565b81548110615c6357615c63616576565b600091825260209091200154600180546001600160a01b039092169183908110615c8f57615c8f616576565b600091825260209091200180546001600160a01b0319166001600160a01b039290921691909117905580615cc2816165b5565b915050615c3d565b506001805480615c1657615c166165e1565b6001600160a01b03821660009081526010602090815260408083206016909252822054829190829060ff166002811115615d1857615d1861625c565b6002811115615d2957615d2961625c565b81526020019081526020016000209050600083604051602001615d4c9190616831565b6040516020818303038152906040528051906020012090505b8154831015615e725780828481548110615d8157615d81616576565b90600052602060002001604051602001615d9b9190616889565b6040516020818303038152906040528051906020012003615e60575b8154615dc5906001906165ce565b831015615e2d5781615dd88460016165a2565b81548110615de857615de8616576565b90600052602060002001828481548110615e0457615e04616576565b906000526020600020019081615e1a91906168ff565b5082615e25816165b5565b935050615db7565b81805480615e3d57615e3d6165e1565b600190038181906000526020600020016000615e599190615f1b565b9055615e72565b82615e6a816165b5565b935050615d65565b5050505050565b614e628160006a636f6e736f6c652e6c6f679050600080835160208501845afa505050565b6040805160c08101825260008082526020820181905291810182905260608101829052608081018290529060a08201905b905290565b6040518060c0016040528060608152602001600081526020016000815260200160008152602001600063ffffffff16815260200160006002811115615ecf57615ecf61625c565b508054615f279061653c565b6000825580601f10615f37575050565b601f016020900490600052602060002090810190614e6291905b808211156136055760008155600101615f51565b60005b83811015615f80578181015183820152602001615f68565b50506000910152565b60008151808452615fa1816020860160208601615f65565b601f01601f19169290920160200192915050565b60006020808301818452808551808352604092508286019150828160051b87010184880160005b8381101561609757888303603f19018552815180516001600160a01b03168452610140818901516001600160a01b038116868b01525087820151818987015261602782870182615f89565b606084810151908801526080808501519088015260a0808501519088015260c08085015163ffffffff9081169189019190915260e0808601519091169088015261010080850151151590880152610120938401511515939096019290925250509386019390860190600101615fdc565b509098975050505050505050565b6001600160a01b0381168114614e6257600080fd5b6000602082840312156160cc57600080fd5b81356160d7816160a5565b9392505050565b6000602080830181845280855180835260408601915060408160051b870101925083870160005b8281101561613357603f19888603018452616121858351615f89565b94509285019290850190600101616105565b5092979650505050505050565b634e487b7160e01b600052604160045260246000fd5b600082601f83011261616757600080fd5b813567ffffffffffffffff8082111561618257616182616140565b604051601f8301601f19908116603f011681019082821181831017156161aa576161aa616140565b816040528381528660208588010111156161c357600080fd5b836020870160208301376000602085830101528094505050505092915050565b600080600080608085870312156161f957600080fd5b8435616204816160a5565b9350602085013567ffffffffffffffff81111561622057600080fd5b61622c87828801616156565b949794965050505060408301359260600135919050565b60006020828403121561625557600080fd5b5035919050565b634e487b7160e01b600052602160045260246000fd5b6003811061629057634e487b7160e01b600052602160045260246000fd5b9052565b81516001600160a01b0316815260208083015160c08301916162b890840182616272565b5060408301511515604083015260ff606084015116606083015260808301511515608083015260a08301516162f060a0840182616272565b5092915050565b6000806000806080858703121561630d57600080fd5b843567ffffffffffffffff81111561632457600080fd5b61633087828801616156565b9450506020850135925060408501359150606085013563ffffffff8116811461635857600080fd5b939692955090935050565b6020808252825182820181905260009190848201906040850190845b818110156163a45783516001600160a01b03168352928401929184019160010161637f565b50909695505050505050565b6000602082840312156163c257600080fd5b813561ffff811681146160d757600080fd5b60006020808301818452808551808352604092508286019150828160051b87010184880160005b8381101561609757603f19898403018552815160c0815181865261642182870182615f89565b838b0151878c0152898401518a8801526060808501519088015260808085015163ffffffff169088015260a09384015193909250905061646381870184616272565b5095880195935050908601906001016163fb565b6020808252825182820181905260009190848201906040850190845b818110156163a457835183529284019291840191600101616493565b6000602082840312156164c157600080fd5b813567ffffffffffffffff8111156164d857600080fd5b6164e484828501616156565b949350505050565b600080604083850312156164ff57600080fd5b823561650a816160a5565b9150602083013567ffffffffffffffff81111561652657600080fd5b61653285828601616156565b9150509250929050565b600181811c9082168061655057607f821691505b60208210810361657057634e487b7160e01b600052602260045260246000fd5b50919050565b634e487b7160e01b600052603260045260246000fd5b634e487b7160e01b600052601160045260246000fd5b80820180821115613e7857613e7861658c565b6000600182016165c7576165c761658c565b5060010190565b81810381811115613e7857613e7861658c565b634e487b7160e01b600052603160045260246000fd5b6000816166065761660661658c565b506000190190565b6020815260006160d76020830184615f89565b60ff8281168282160390811115613e7857613e7861658c565b8082028115828204841417613e7857613e7861658c565b634e487b7160e01b600052601260045260246000fd5b60008261667657616676616651565b500490565b601f8211156166c157600081815260208120601f850160051c810160208610156166a25750805b601f850160051c820191505b818110156158fb578281556001016166ae565b505050565b815167ffffffffffffffff8111156166e0576166e0616140565b6166f4816166ee845461653c565b8461667b565b602080601f83116001811461672957600084156167115750858301515b600019600386901b1c1916600185901b1785556158fb565b600085815260208120601f198616915b8281101561675857888601518255948401946001909101908401616739565b50858210156167765787850151600019600388901b60f8161c191681555b5050505050600190811b01905550565b6020808252601490820152732cb7ba9030b932b713ba103a34329037bbb732b960611b604082015260600190565b6000826167c3576167c3616651565b500690565b600060ff821660ff81036167de576167de61658c565b60010192915050565b63ffffffff8181168382160280821691908281146168075761680761658c565b505092915050565b6040815260006168226040830185615f89565b90508260208301529392505050565b60008251616843818460208701615f65565b9190910192915050565b6000855161685f818460208a01615f65565b919091019384525060e09190911b6001600160e01b03191660208301526024820152604401919050565b60008083546168978161653c565b600182811680156168af57600181146168c4576168f3565b60ff19841687528215158302870194506168f3565b8760005260208060002060005b858110156168ea5781548a8201529084019082016168d1565b50505082870194505b50929695505050505050565b81810361690a575050565b616914825461653c565b67ffffffffffffffff81111561692c5761692c616140565b61693a816166ee845461653c565b6000601f82116001811461696e57600083156169565750848201545b600019600385901b1c1916600184901b178455615e72565b600085815260209020601f19841690600086815260209020845b838110156169a85782860154825560019586019590910190602001616988565b50858310156167765793015460001960f8600387901b161c19169092555050600190811b0190555056fea26469706673582212207fe7bcf4609bcef55d663e52ecd62bd02ce6d995b50617c785547dcca35da8d764736f6c63430008120033",
			"opcodes": "PUSH1 0x80 PUSH1 0x40 MSTORE PUSH1 0x8 DUP1 SLOAD PUSH1 0x1 PUSH1 0x1 PUSH1 0xA0 SHL SUB NOT AND CALLER OR SWAP1 SSTORE CALLVALUE DUP1 ISZERO PUSH2 0x22 JUMPI PUSH1 0x0 DUP1 REVERT JUMPDEST POP PUSH2 0x6A08 DUP1 PUSH3 0x33 PUSH1 0x0 CODECOPY PUSH1 0x0 RETURN INVALID PUSH1 0x80 PUSH1 0x40 MSTORE PUSH1 0x4 CALLDATASIZE LT PUSH2 0x1CD JUMPI PUSH1 0x0 CALLDATALOAD PUSH1 0xE0 SHR DUP1 PUSH4 0x569AF213 GT PUSH2 0xF7 JUMPI DUP1 PUSH4 0x9D7D2E8D GT PUSH2 0x95 JUMPI DUP1 PUSH4 0xB752A416 GT PUSH2 0x64 JUMPI DUP1 PUSH4 0xB752A416 EQ PUSH2 0x4C3 JUMPI DUP1 PUSH4 0xBCC22C9A EQ PUSH2 0x4D8 JUMPI DUP1 PUSH4 0xBDF13851 EQ PUSH2 0x4EB JUMPI DUP1 PUSH4 0xEA77299D EQ PUSH2 0x500 JUMPI PUSH1 0x0 DUP1 REVERT JUMPDEST DUP1 PUSH4 0x9D7D2E8D EQ PUSH2 0x471 JUMPI DUP1 PUSH4 0xA0AE3F1C EQ PUSH2 0x486 JUMPI DUP1 PUSH4 0xA4B2409E EQ PUSH2 0x48E JUMPI DUP1 PUSH4 0xABE9F681 EQ PUSH2 0x4AE JUMPI PUSH1 0x0 DUP1 REVERT JUMPDEST DUP1 PUSH4 0x695C92FB GT PUSH2 0xD1 JUMPI DUP1 PUSH4 0x695C92FB EQ PUSH2 0x3FC JUMPI DUP1 PUSH4 0x8465D650 EQ PUSH2 0x411 JUMPI DUP1 PUSH4 0x87AEE8AD EQ PUSH2 0x431 JUMPI DUP1 PUSH4 0x91C8D204 EQ PUSH2 0x451 JUMPI PUSH1 0x0 DUP1 REVERT JUMPDEST DUP1 PUSH4 0x569AF213 EQ PUSH2 0x3B2 JUMPI DUP1 PUSH4 0x57E425BC EQ PUSH2 0x3C7 JUMPI DUP1 PUSH4 0x5AF02DFA EQ PUSH2 0x3E7 JUMPI PUSH1 0x0 DUP1 REVERT JUMPDEST DUP1 PUSH4 0x279E56E4 GT PUSH2 0x16F JUMPI DUP1 PUSH4 0x3E903270 GT PUSH2 0x13E JUMPI DUP1 PUSH4 0x3E903270 EQ PUSH2 0x32E JUMPI DUP1 PUSH4 0x429848D9 EQ PUSH2 0x35B JUMPI DUP1 PUSH4 0x48004B9A EQ PUSH2 0x37B JUMPI DUP1 PUSH4 0x4E5A05DF EQ PUSH2 0x390 JUMPI PUSH1 0x0 DUP1 REVERT JUMPDEST DUP1 PUSH4 0x279E56E4 EQ PUSH2 0x2A9 JUMPI DUP1 PUSH4 0x2FFFFFBB EQ PUSH2 0x2CC JUMPI DUP1 PUSH4 0x329DD364 EQ PUSH2 0x2EC JUMPI DUP1 PUSH4 0x3D9D9A5C EQ PUSH2 0x30E JUMPI PUSH1 0x0 DUP1 REVERT JUMPDEST DUP1 PUSH4 0x1AF37578 GT PUSH2 0x1AB JUMPI DUP1 PUSH4 0x1AF37578 EQ PUSH2 0x234 JUMPI DUP1 PUSH4 0x2336DBE4 EQ PUSH2 0x247 JUMPI DUP1 PUSH4 0x278ECDE1 EQ PUSH2 0x267 JUMPI DUP1 PUSH4 0x279A6F4D EQ PUSH2 0x287 JUMPI PUSH1 0x0 DUP1 REVERT JUMPDEST DUP1 PUSH4 0x40C4BE8 EQ PUSH2 0x1D2 JUMPI DUP1 PUSH4 0x13278CB8 EQ PUSH2 0x1FD JUMPI DUP1 PUSH4 0x1A3C6B5C EQ PUSH2 0x207 JUMPI JUMPDEST PUSH1 0x0 DUP1 REVERT JUMPDEST CALLVALUE DUP1 ISZERO PUSH2 0x1DE JUMPI PUSH1 0x0 DUP1 REVERT JUMPDEST POP PUSH2 0x1E7 PUSH2 0x513 JUMP JUMPDEST PUSH1 0x40 MLOAD PUSH2 0x1F4 SWAP2 SWAP1 PUSH2 0x5FB5 JUMP JUMPDEST PUSH1 0x40 MLOAD DUP1 SWAP2 SUB SWAP1 RETURN JUMPDEST PUSH2 0x205 PUSH2 0x68D JUMP JUMPDEST STOP JUMPDEST CALLVALUE DUP1 ISZERO PUSH2 0x213 JUMPI PUSH1 0x0 DUP1 REVERT JUMPDEST POP PUSH2 0x227 PUSH2 0x222 CALLDATASIZE PUSH1 0x4 PUSH2 0x60BA JUMP JUMPDEST PUSH2 0xA21 JUMP JUMPDEST PUSH1 0x40 MLOAD PUSH2 0x1F4 SWAP2 SWAP1 PUSH2 0x60DE JUMP JUMPDEST PUSH2 0x205 PUSH2 0x242 CALLDATASIZE PUSH1 0x4 PUSH2 0x61E3 JUMP JUMPDEST PUSH2 0xB52 JUMP JUMPDEST CALLVALUE DUP1 ISZERO PUSH2 0x253 JUMPI PUSH1 0x0 DUP1 REVERT JUMPDEST POP PUSH2 0x205 PUSH2 0x262 CALLDATASIZE PUSH1 0x4 PUSH2 0x6243 JUMP JUMPDEST PUSH2 0x164C JUMP JUMPDEST CALLVALUE DUP1 ISZERO PUSH2 0x273 JUMPI PUSH1 0x0 DUP1 REVERT JUMPDEST POP PUSH2 0x205 PUSH2 0x282 CALLDATASIZE PUSH1 0x4 PUSH2 0x6243 JUMP JUMPDEST PUSH2 0x17F8 JUMP JUMPDEST CALLVALUE DUP1 ISZERO PUSH2 0x293 JUMPI PUSH1 0x0 DUP1 REVERT JUMPDEST POP PUSH2 0x29C PUSH2 0x1B67 JUMP JUMPDEST PUSH1 0x40 MLOAD PUSH2 0x1F4 SWAP2 SWAP1 PUSH2 0x6294 JUMP JUMPDEST CALLVALUE DUP1 ISZERO PUSH2 0x2B5 JUMPI PUSH1 0x0 DUP1 REVERT JUMPDEST POP PUSH2 0x2BE PUSH2 0x1CF8 JUMP JUMPDEST PUSH1 0x40 MLOAD SWAP1 DUP2 MSTORE PUSH1 0x20 ADD PUSH2 0x1F4 JUMP JUMPDEST CALLVALUE DUP1 ISZERO PUSH2 0x2D8 JUMPI PUSH1 0x0 DUP1 REVERT JUMPDEST POP PUSH2 0x205 PUSH2 0x2E7 CALLDATASIZE PUSH1 0x4 PUSH2 0x62F7 JUMP JUMPDEST PUSH2 0x1D40 JUMP JUMPDEST CALLVALUE DUP1 ISZERO PUSH2 0x2F8 JUMPI PUSH1 0x0 DUP1 REVERT JUMPDEST POP PUSH2 0x301 PUSH2 0x23C2 JUMP JUMPDEST PUSH1 0x40 MLOAD PUSH2 0x1F4 SWAP2 SWAP1 PUSH2 0x6363 JUMP JUMPDEST CALLVALUE DUP1 ISZERO PUSH2 0x31A JUMPI PUSH1 0x0 DUP1 REVERT JUMPDEST POP PUSH2 0x205 PUSH2 0x329 CALLDATASIZE PUSH1 0x4 PUSH2 0x63B0 JUMP JUMPDEST PUSH2 0x2424 JUMP JUMPDEST CALLVALUE DUP1 ISZERO PUSH2 0x33A JUMPI PUSH1 0x0 DUP1 REVERT JUMPDEST POP PUSH2 0x34E PUSH2 0x349 CALLDATASIZE PUSH1 0x4 PUSH2 0x60BA JUMP JUMPDEST PUSH2 0x2AB4 JUMP JUMPDEST PUSH1 0x40 MLOAD PUSH2 0x1F4 SWAP2 SWAP1 PUSH2 0x63D4 JUMP JUMPDEST CALLVALUE DUP1 ISZERO PUSH2 0x367 JUMPI PUSH1 0x0 DUP1 REVERT JUMPDEST POP PUSH2 0x205 PUSH2 0x376 CALLDATASIZE PUSH1 0x4 PUSH2 0x6243 JUMP JUMPDEST PUSH2 0x2F1D JUMP JUMPDEST CALLVALUE DUP1 ISZERO PUSH2 0x387 JUMPI PUSH1 0x0 DUP1 REVERT JUMPDEST POP PUSH2 0x2BE PUSH2 0x35AB JUMP JUMPDEST CALLVALUE DUP1 ISZERO PUSH2 0x39C JUMPI PUSH1 0x0 DUP1 REVERT JUMPDEST POP PUSH2 0x3A5 PUSH2 0x3609 JUMP JUMPDEST PUSH1 0x40 MLOAD PUSH2 0x1F4 SWAP2 SWAP1 PUSH2 0x6477 JUMP JUMPDEST CALLVALUE DUP1 ISZERO PUSH2 0x3BE JUMPI PUSH1 0x0 DUP1 REVERT JUMPDEST POP PUSH2 0x301 PUSH2 0x368B JUMP JUMPDEST CALLVALUE DUP1 ISZERO PUSH2 0x3D3 JUMPI PUSH1 0x0 DUP1 REVERT JUMPDEST POP PUSH2 0x205 PUSH2 0x3E2 CALLDATASIZE PUSH1 0x4 PUSH2 0x64AF JUMP JUMPDEST PUSH2 0x373C JUMP JUMPDEST CALLVALUE DUP1 ISZERO PUSH2 0x3F3 JUMPI PUSH1 0x0 DUP1 REVERT JUMPDEST POP PUSH2 0x301 PUSH2 0x3B0A JUMP JUMPDEST CALLVALUE DUP1 ISZERO PUSH2 0x408 JUMPI PUSH1 0x0 DUP1 REVERT JUMPDEST POP PUSH2 0x2BE PUSH2 0x3B95 JUMP JUMPDEST CALLVALUE DUP1 ISZERO PUSH2 0x41D JUMPI PUSH1 0x0 DUP1 REVERT JUMPDEST POP PUSH2 0x34E PUSH2 0x42C CALLDATASIZE PUSH1 0x4 PUSH2 0x64EC JUMP JUMPDEST PUSH2 0x3C49 JUMP JUMPDEST CALLVALUE DUP1 ISZERO PUSH2 0x43D JUMPI PUSH1 0x0 DUP1 REVERT JUMPDEST POP PUSH2 0x205 PUSH2 0x44C CALLDATASIZE PUSH1 0x4 PUSH2 0x60BA JUMP JUMPDEST PUSH2 0x3E7E JUMP JUMPDEST CALLVALUE DUP1 ISZERO PUSH2 0x45D JUMPI PUSH1 0x0 DUP1 REVERT JUMPDEST POP PUSH2 0x3A5 PUSH2 0x46C CALLDATASIZE PUSH1 0x4 PUSH2 0x64EC JUMP JUMPDEST PUSH2 0x41E8 JUMP JUMPDEST CALLVALUE DUP1 ISZERO PUSH2 0x47D JUMPI PUSH1 0x0 DUP1 REVERT JUMPDEST POP PUSH2 0x3A5 PUSH2 0x4757 JUMP JUMPDEST PUSH2 0x205 PUSH2 0x47D8 JUMP JUMPDEST CALLVALUE DUP1 ISZERO PUSH2 0x49A JUMPI PUSH1 0x0 DUP1 REVERT JUMPDEST POP PUSH2 0x205 PUSH2 0x4A9 CALLDATASIZE PUSH1 0x4 PUSH2 0x6243 JUMP JUMPDEST PUSH2 0x49EF JUMP JUMPDEST CALLVALUE DUP1 ISZERO PUSH2 0x4BA JUMPI PUSH1 0x0 DUP1 REVERT JUMPDEST POP PUSH2 0x301 PUSH2 0x4C36 JUMP JUMPDEST CALLVALUE DUP1 ISZERO PUSH2 0x4CF JUMPI PUSH1 0x0 DUP1 REVERT JUMPDEST POP PUSH2 0x301 PUSH2 0x4C96 JUMP JUMPDEST PUSH2 0x205 PUSH2 0x4E6 CALLDATASIZE PUSH1 0x4 PUSH2 0x6243 JUMP JUMPDEST PUSH2 0x4D21 JUMP JUMPDEST CALLVALUE DUP1 ISZERO PUSH2 0x4F7 JUMPI PUSH1 0x0 DUP1 REVERT JUMPDEST POP PUSH2 0x301 PUSH2 0x4E65 JUMP JUMPDEST PUSH2 0x205 PUSH2 0x50E CALLDATASIZE PUSH1 0x4 PUSH2 0x6243 JUMP JUMPDEST PUSH2 0x4F0B JUMP JUMPDEST PUSH1 0x60 PUSH1 0x0 DUP1 SLOAD DUP1 PUSH1 0x20 MUL PUSH1 0x20 ADD PUSH1 0x40 MLOAD SWAP1 DUP2 ADD PUSH1 0x40 MSTORE DUP1 SWAP3 SWAP2 SWAP1 DUP2 DUP2 MSTORE PUSH1 0x20 ADD PUSH1 0x0 SWAP1 JUMPDEST DUP3 DUP3 LT ISZERO PUSH2 0x684 JUMPI PUSH1 0x0 DUP5 DUP2 MSTORE PUSH1 0x20 SWAP1 DUP2 SWAP1 KECCAK256 PUSH1 0x40 DUP1 MLOAD PUSH2 0x140 DUP2 ADD DUP3 MSTORE PUSH1 0x7 DUP7 MUL SWAP1 SWAP3 ADD DUP1 SLOAD PUSH1 0x1 PUSH1 0x1 PUSH1 0xA0 SHL SUB SWAP1 DUP2 AND DUP5 MSTORE PUSH1 0x1 DUP3 ADD SLOAD AND SWAP4 DUP4 ADD SWAP4 SWAP1 SWAP4 MSTORE PUSH1 0x2 DUP4 ADD DUP1 SLOAD SWAP3 SWAP4 SWAP3 SWAP2 DUP5 ADD SWAP2 PUSH2 0x58E SWAP1 PUSH2 0x653C JUMP JUMPDEST DUP1 PUSH1 0x1F ADD PUSH1 0x20 DUP1 SWAP2 DIV MUL PUSH1 0x20 ADD PUSH1 0x40 MLOAD SWAP1 DUP2 ADD PUSH1 0x40 MSTORE DUP1 SWAP3 SWAP2 SWAP1 DUP2 DUP2 MSTORE PUSH1 0x20 ADD DUP3 DUP1 SLOAD PUSH2 0x5BA SWAP1 PUSH2 0x653C JUMP JUMPDEST DUP1 ISZERO PUSH2 0x607 JUMPI DUP1 PUSH1 0x1F LT PUSH2 0x5DC JUMPI PUSH2 0x100 DUP1 DUP4 SLOAD DIV MUL DUP4 MSTORE SWAP2 PUSH1 0x20 ADD SWAP2 PUSH2 0x607 JUMP JUMPDEST DUP3 ADD SWAP2 SWAP1 PUSH1 0x0 MSTORE PUSH1 0x20 PUSH1 0x0 KECCAK256 SWAP1 JUMPDEST DUP2 SLOAD DUP2 MSTORE SWAP1 PUSH1 0x1 ADD SWAP1 PUSH1 0x20 ADD DUP1 DUP4 GT PUSH2 0x5EA JUMPI DUP3 SWAP1 SUB PUSH1 0x1F AND DUP3 ADD SWAP2 JUMPDEST POP POP POP SWAP2 DUP4 MSTORE POP POP PUSH1 0x3 DUP3 ADD SLOAD PUSH1 0x20 DUP1 DUP4 ADD SWAP2 SWAP1 SWAP2 MSTORE PUSH1 0x4 DUP4 ADD SLOAD PUSH1 0x40 DUP4 ADD MSTORE PUSH1 0x5 DUP4 ADD SLOAD PUSH1 0x60 DUP4 ADD MSTORE PUSH1 0x6 SWAP1 SWAP3 ADD SLOAD PUSH4 0xFFFFFFFF DUP1 DUP3 AND PUSH1 0x80 DUP5 ADD MSTORE PUSH1 0x1 PUSH1 0x20 SHL DUP3 DIV AND PUSH1 0xA0 DUP4 ADD MSTORE PUSH1 0xFF PUSH1 0x1 PUSH1 0x40 SHL DUP3 DIV DUP2 AND ISZERO ISZERO PUSH1 0xC0 DUP5 ADD MSTORE PUSH1 0x1 PUSH1 0x48 SHL SWAP1 SWAP2 DIV AND ISZERO ISZERO PUSH1 0xE0 SWAP1 SWAP2 ADD MSTORE SWAP1 DUP3 MSTORE PUSH1 0x1 SWAP3 SWAP1 SWAP3 ADD SWAP2 ADD PUSH2 0x537 JUMP JUMPDEST POP POP POP POP SWAP1 POP SWAP1 JUMP JUMPDEST PUSH1 0x1 DUP1 CALLER PUSH1 0x0 SWAP1 DUP2 MSTORE PUSH1 0x16 PUSH1 0x20 MSTORE PUSH1 0x40 SWAP1 KECCAK256 SLOAD PUSH1 0xFF AND PUSH1 0x2 DUP2 GT ISZERO PUSH2 0x6B4 JUMPI PUSH2 0x6B4 PUSH2 0x625C JUMP JUMPDEST EQ PUSH2 0x6D2 JUMPI PUSH1 0x40 MLOAD PUSH4 0x7824841 PUSH1 0xE2 SHL DUP2 MSTORE PUSH1 0x4 ADD PUSH1 0x40 MLOAD DUP1 SWAP2 SUB SWAP1 REVERT JUMPDEST PUSH1 0x0 PUSH2 0x6DC PUSH2 0x35AB JUMP JUMPDEST SWAP1 POP PUSH1 0x0 DUP2 GT PUSH2 0x729 JUMPI PUSH1 0x40 MLOAD PUSH3 0x461BCD PUSH1 0xE5 SHL DUP2 MSTORE PUSH1 0x20 PUSH1 0x4 DUP3 ADD MSTORE PUSH1 0x13 PUSH1 0x24 DUP3 ADD MSTORE PUSH19 0x4465627473206C69737420697320656D707479 PUSH1 0x68 SHL PUSH1 0x44 DUP3 ADD MSTORE PUSH1 0x64 ADD JUMPDEST PUSH1 0x40 MLOAD DUP1 SWAP2 SUB SWAP1 REVERT JUMPDEST PUSH1 0x0 DUP1 JUMPDEST DUP3 DUP2 LT ISZERO PUSH2 0x780 JUMPI CALLER PUSH1 0x0 SWAP1 DUP2 MSTORE PUSH1 0xA PUSH1 0x20 MSTORE PUSH1 0x40 SWAP1 KECCAK256 DUP1 SLOAD DUP3 SWAP1 DUP2 LT PUSH2 0x756 JUMPI PUSH2 0x756 PUSH2 0x6576 JUMP JUMPDEST SWAP1 PUSH1 0x0 MSTORE PUSH1 0x20 PUSH1 0x0 KECCAK256 ADD SLOAD DUP3 PUSH2 0x76C SWAP2 SWAP1 PUSH2 0x65A2 JUMP JUMPDEST SWAP2 POP DUP1 PUSH2 0x778 DUP2 PUSH2 0x65B5 JUMP JUMPDEST SWAP2 POP POP PUSH2 0x72D JUMP JUMPDEST POP DUP1 CALLVALUE LT ISZERO PUSH2 0x7AB JUMPI PUSH1 0x40 MLOAD PUSH4 0x11920A6D PUSH1 0xE3 SHL DUP2 MSTORE CALLVALUE PUSH1 0x4 DUP3 ADD MSTORE PUSH1 0x24 DUP2 ADD DUP3 SWAP1 MSTORE PUSH1 0x44 ADD PUSH2 0x720 JUMP JUMPDEST PUSH1 0x0 PUSH2 0x7B8 PUSH1 0x1 DUP5 PUSH2 0x65CE JUMP JUMPDEST SWAP1 POP JUMPDEST DUP1 ISZERO PUSH2 0x8DE JUMPI CALLER PUSH1 0x0 SWAP1 DUP2 MSTORE PUSH1 0x9 PUSH1 0x20 MSTORE PUSH1 0x40 SWAP1 KECCAK256 DUP1 SLOAD DUP3 SWAP1 DUP2 LT PUSH2 0x7E2 JUMPI PUSH2 0x7E2 PUSH2 0x6576 JUMP JUMPDEST PUSH1 0x0 SWAP2 DUP3 MSTORE PUSH1 0x20 DUP1 DUP4 KECCAK256 SWAP1 SWAP2 ADD SLOAD CALLER DUP4 MSTORE PUSH1 0xA SWAP1 SWAP2 MSTORE PUSH1 0x40 SWAP1 SWAP2 KECCAK256 DUP1 SLOAD PUSH1 0x1 PUSH1 0x1 PUSH1 0xA0 SHL SUB SWAP1 SWAP3 AND SWAP2 PUSH2 0x8FC SWAP2 SWAP1 DUP5 SWAP1 DUP2 LT PUSH2 0x820 JUMPI PUSH2 0x820 PUSH2 0x6576 JUMP JUMPDEST SWAP1 PUSH1 0x0 MSTORE PUSH1 0x20 PUSH1 0x0 KECCAK256 ADD SLOAD SWAP1 DUP2 ISZERO MUL SWAP1 PUSH1 0x40 MLOAD PUSH1 0x0 PUSH1 0x40 MLOAD DUP1 DUP4 SUB DUP2 DUP6 DUP9 DUP9 CALL SWAP4 POP POP POP POP ISZERO DUP1 ISZERO PUSH2 0x856 JUMPI RETURNDATASIZE PUSH1 0x0 DUP1 RETURNDATACOPY RETURNDATASIZE PUSH1 0x0 REVERT JUMPDEST POP CALLER PUSH1 0x0 SWAP1 DUP2 MSTORE PUSH1 0x9 PUSH1 0x20 MSTORE PUSH1 0x40 SWAP1 KECCAK256 DUP1 SLOAD DUP1 PUSH2 0x875 JUMPI PUSH2 0x875 PUSH2 0x65E1 JUMP JUMPDEST PUSH1 0x0 DUP3 DUP2 MSTORE PUSH1 0x20 DUP1 DUP3 KECCAK256 DUP4 ADD PUSH1 0x0 NOT SWAP1 DUP2 ADD DUP1 SLOAD PUSH1 0x1 PUSH1 0x1 PUSH1 0xA0 SHL SUB NOT AND SWAP1 SSTORE SWAP1 SWAP3 ADD SWAP1 SWAP3 SSTORE CALLER DUP3 MSTORE PUSH1 0xA SWAP1 MSTORE PUSH1 0x40 SWAP1 KECCAK256 DUP1 SLOAD DUP1 PUSH2 0x8B5 JUMPI PUSH2 0x8B5 PUSH2 0x65E1 JUMP JUMPDEST PUSH1 0x1 SWAP1 SUB DUP2 DUP2 SWAP1 PUSH1 0x0 MSTORE PUSH1 0x20 PUSH1 0x0 KECCAK256 ADD PUSH1 0x0 SWAP1 SSTORE SWAP1 SSTORE DUP1 DUP1 PUSH2 0x8D6 SWAP1 PUSH2 0x65F7 JUMP JUMPDEST SWAP2 POP POP PUSH2 0x7BB JUMP JUMPDEST POP CALLER PUSH1 0x0 SWAP1 DUP2 MSTORE PUSH1 0x9 PUSH1 0x20 MSTORE PUSH1 0x40 DUP2 KECCAK256 DUP1 SLOAD SWAP1 SWAP2 SWAP1 PUSH2 0x8FF JUMPI PUSH2 0x8FF PUSH2 0x6576 JUMP JUMPDEST PUSH1 0x0 SWAP2 DUP3 MSTORE PUSH1 0x20 DUP1 DUP4 KECCAK256 SWAP1 SWAP2 ADD SLOAD CALLER DUP4 MSTORE PUSH1 0xA SWAP1 SWAP2 MSTORE PUSH1 0x40 DUP3 KECCAK256 DUP1 SLOAD PUSH1 0x1 PUSH1 0x1 PUSH1 0xA0 SHL SUB SWAP1 SWAP3 AND SWAP3 PUSH2 0x8FC SWAP3 PUSH2 0x937 JUMPI PUSH2 0x937 PUSH2 0x6576 JUMP JUMPDEST SWAP1 PUSH1 0x0 MSTORE PUSH1 0x20 PUSH1 0x0 KECCAK256 ADD SLOAD SWAP1 DUP2 ISZERO MUL SWAP1 PUSH1 0x40 MLOAD PUSH1 0x0 PUSH1 0x40 MLOAD DUP1 DUP4 SUB DUP2 DUP6 DUP9 DUP9 CALL SWAP4 POP POP POP POP ISZERO DUP1 ISZERO PUSH2 0x96D JUMPI RETURNDATASIZE PUSH1 0x0 DUP1 RETURNDATACOPY RETURNDATASIZE PUSH1 0x0 REVERT JUMPDEST POP CALLER PUSH1 0x0 SWAP1 DUP2 MSTORE PUSH1 0x9 PUSH1 0x20 MSTORE PUSH1 0x40 SWAP1 KECCAK256 DUP1 SLOAD DUP1 PUSH2 0x98C JUMPI PUSH2 0x98C PUSH2 0x65E1 JUMP JUMPDEST PUSH1 0x0 DUP3 DUP2 MSTORE PUSH1 0x20 DUP1 DUP3 KECCAK256 DUP4 ADD PUSH1 0x0 NOT SWAP1 DUP2 ADD DUP1 SLOAD PUSH1 0x1 PUSH1 0x1 PUSH1 0xA0 SHL SUB NOT AND SWAP1 SSTORE SWAP1 SWAP3 ADD SWAP1 SWAP3 SSTORE CALLER DUP3 MSTORE PUSH1 0xA SWAP1 MSTORE PUSH1 0x40 SWAP1 KECCAK256 DUP1 SLOAD DUP1 PUSH2 0x9CC JUMPI PUSH2 0x9CC PUSH2 0x65E1 JUMP JUMPDEST PUSH1 0x1 SWAP1 SUB DUP2 DUP2 SWAP1 PUSH1 0x0 MSTORE PUSH1 0x20 PUSH1 0x0 KECCAK256 ADD PUSH1 0x0 SWAP1 SSTORE SWAP1 SSTORE CALLER PUSH1 0x1 PUSH1 0x1 PUSH1 0xA0 SHL SUB AND PUSH2 0x8FC SELFBALANCE SWAP1 DUP2 ISZERO MUL SWAP1 PUSH1 0x40 MLOAD PUSH1 0x0 PUSH1 0x40 MLOAD DUP1 DUP4 SUB DUP2 DUP6 DUP9 DUP9 CALL SWAP4 POP POP POP POP ISZERO DUP1 ISZERO PUSH2 0xA1B JUMPI RETURNDATASIZE PUSH1 0x0 DUP1 RETURNDATACOPY RETURNDATASIZE PUSH1 0x0 REVERT JUMPDEST POP POP POP POP JUMP JUMPDEST PUSH1 0x1 PUSH1 0x1 PUSH1 0xA0 SHL SUB DUP2 AND PUSH1 0x0 SWAP1 DUP2 MSTORE PUSH1 0x10 PUSH1 0x20 SWAP1 DUP2 MSTORE PUSH1 0x40 DUP1 DUP4 KECCAK256 PUSH1 0x16 SWAP1 SWAP3 MSTORE DUP3 KECCAK256 SLOAD PUSH1 0x60 SWAP3 SWAP1 PUSH1 0xFF AND PUSH1 0x2 DUP2 GT ISZERO PUSH2 0xA5C JUMPI PUSH2 0xA5C PUSH2 0x625C JUMP JUMPDEST PUSH1 0x2 DUP2 GT ISZERO PUSH2 0xA6D JUMPI PUSH2 0xA6D PUSH2 0x625C JUMP JUMPDEST DUP2 MSTORE PUSH1 0x20 ADD SWAP1 DUP2 MSTORE PUSH1 0x20 ADD PUSH1 0x0 KECCAK256 DUP1 SLOAD DUP1 PUSH1 0x20 MUL PUSH1 0x20 ADD PUSH1 0x40 MLOAD SWAP1 DUP2 ADD PUSH1 0x40 MSTORE DUP1 SWAP3 SWAP2 SWAP1 DUP2 DUP2 MSTORE PUSH1 0x20 ADD PUSH1 0x0 SWAP1 JUMPDEST DUP3 DUP3 LT ISZERO PUSH2 0xB47 JUMPI DUP4 DUP3 SWAP1 PUSH1 0x0 MSTORE PUSH1 0x20 PUSH1 0x0 KECCAK256 ADD DUP1 SLOAD PUSH2 0xABA SWAP1 PUSH2 0x653C JUMP JUMPDEST DUP1 PUSH1 0x1F ADD PUSH1 0x20 DUP1 SWAP2 DIV MUL PUSH1 0x20 ADD PUSH1 0x40 MLOAD SWAP1 DUP2 ADD PUSH1 0x40 MSTORE DUP1 SWAP3 SWAP2 SWAP1 DUP2 DUP2 MSTORE PUSH1 0x20 ADD DUP3 DUP1 SLOAD PUSH2 0xAE6 SWAP1 PUSH2 0x653C JUMP JUMPDEST DUP1 ISZERO PUSH2 0xB33 JUMPI DUP1 PUSH1 0x1F LT PUSH2 0xB08 JUMPI PUSH2 0x100 DUP1 DUP4 SLOAD DIV MUL DUP4 MSTORE SWAP2 PUSH1 0x20 ADD SWAP2 PUSH2 0xB33 JUMP JUMPDEST DUP3 ADD SWAP2 SWAP1 PUSH1 0x0 MSTORE PUSH1 0x20 PUSH1 0x0 KECCAK256 SWAP1 JUMPDEST DUP2 SLOAD DUP2 MSTORE SWAP1 PUSH1 0x1 ADD SWAP1 PUSH1 0x20 ADD DUP1 DUP4 GT PUSH2 0xB16 JUMPI DUP3 SWAP1 SUB PUSH1 0x1F AND DUP3 ADD SWAP2 JUMPDEST POP POP POP POP POP DUP2 MSTORE PUSH1 0x20 ADD SWAP1 PUSH1 0x1 ADD SWAP1 PUSH2 0xA9B JUMP JUMPDEST POP POP POP POP SWAP1 POP SWAP2 SWAP1 POP JUMP JUMPDEST CALLER PUSH1 0x0 SWAP1 DUP2 MSTORE PUSH1 0x15 PUSH1 0x20 SWAP1 DUP2 MSTORE PUSH1 0x40 DUP1 DUP4 KECCAK256 PUSH1 0x16 SWAP1 SWAP3 MSTORE DUP3 KECCAK256 SLOAD SWAP1 SWAP2 SWAP1 PUSH1 0xFF AND PUSH1 0x2 DUP2 GT ISZERO PUSH2 0xB83 JUMPI PUSH2 0xB83 PUSH2 0x625C JUMP JUMPDEST PUSH1 0x2 DUP2 GT ISZERO PUSH2 0xB94 JUMPI PUSH2 0xB94 PUSH2 0x625C JUMP JUMPDEST DUP2 MSTORE PUSH1 0x20 DUP2 ADD SWAP2 SWAP1 SWAP2 MSTORE PUSH1 0x40 ADD PUSH1 0x0 KECCAK256 SLOAD PUSH1 0x1 PUSH1 0xA8 SHL SWAP1 DIV PUSH1 0xFF AND PUSH2 0xBCE JUMPI PUSH1 0x40 MLOAD PUSH4 0x89129CF PUSH1 0xE4 SHL DUP2 MSTORE CALLER PUSH1 0x4 DUP3 ADD MSTORE PUSH1 0x24 ADD PUSH2 0x720 JUMP JUMPDEST CALLER PUSH1 0x0 SWAP1 DUP2 MSTORE PUSH1 0x15 PUSH1 0x20 SWAP1 DUP2 MSTORE PUSH1 0x40 DUP1 DUP4 KECCAK256 PUSH1 0x16 SWAP1 SWAP3 MSTORE DUP3 KECCAK256 SLOAD DUP3 SWAP1 PUSH1 0xFF AND PUSH1 0x2 DUP2 GT ISZERO PUSH2 0xBFE JUMPI PUSH2 0xBFE PUSH2 0x625C JUMP JUMPDEST PUSH1 0x2 DUP2 GT ISZERO PUSH2 0xC0F JUMPI PUSH2 0xC0F PUSH2 0x625C JUMP JUMPDEST DUP2 MSTORE PUSH1 0x20 DUP1 DUP3 ADD SWAP3 SWAP1 SWAP3 MSTORE PUSH1 0x40 SWAP1 DUP2 ADD PUSH1 0x0 KECCAK256 DUP2 MLOAD PUSH1 0xC0 DUP2 ADD SWAP1 SWAP3 MSTORE DUP1 SLOAD PUSH1 0x1 PUSH1 0x1 PUSH1 0xA0 SHL SUB DUP2 AND DUP4 MSTORE SWAP2 SWAP3 SWAP1 SWAP2 SWAP1 DUP4 ADD SWAP1 PUSH1 0x1 PUSH1 0xA0 SHL SWAP1 DIV PUSH1 0xFF AND PUSH1 0x2 DUP2 GT ISZERO PUSH2 0xC5C JUMPI PUSH2 0xC5C PUSH2 0x625C JUMP JUMPDEST PUSH1 0x2 DUP2 GT ISZERO PUSH2 0xC6D JUMPI PUSH2 0xC6D PUSH2 0x625C JUMP JUMPDEST DUP2 MSTORE DUP2 SLOAD PUSH1 0xFF PUSH1 0x1 PUSH1 0xA8 SHL DUP3 DIV DUP2 AND ISZERO ISZERO PUSH1 0x20 DUP5 ADD MSTORE PUSH1 0x1 PUSH1 0xB0 SHL DUP3 DIV DUP2 AND PUSH1 0x40 DUP5 ADD MSTORE PUSH1 0x1 PUSH1 0xB8 SHL DUP3 DIV DUP2 AND ISZERO ISZERO PUSH1 0x60 DUP5 ADD MSTORE PUSH1 0x80 SWAP1 SWAP3 ADD SWAP2 PUSH1 0x1 PUSH1 0xC0 SHL SWAP1 SWAP2 DIV AND PUSH1 0x2 DUP2 GT ISZERO PUSH2 0xCC1 JUMPI PUSH2 0xCC1 PUSH2 0x625C JUMP JUMPDEST PUSH1 0x2 DUP2 GT ISZERO PUSH2 0xCD2 JUMPI PUSH2 0xCD2 PUSH2 0x625C JUMP JUMPDEST SWAP1 MSTORE POP PUSH1 0x1 PUSH1 0x1 PUSH1 0xA0 SHL SUB DUP7 AND PUSH1 0x0 SWAP1 DUP2 MSTORE PUSH1 0x15 PUSH1 0x20 SWAP1 DUP2 MSTORE PUSH1 0x40 DUP1 DUP4 KECCAK256 PUSH1 0x16 SWAP1 SWAP3 MSTORE DUP3 KECCAK256 SLOAD SWAP3 SWAP4 POP SWAP1 SWAP2 DUP3 SWAP1 PUSH1 0xFF AND PUSH1 0x2 DUP2 GT ISZERO PUSH2 0xD13 JUMPI PUSH2 0xD13 PUSH2 0x625C JUMP JUMPDEST PUSH1 0x2 DUP2 GT ISZERO PUSH2 0xD24 JUMPI PUSH2 0xD24 PUSH2 0x625C JUMP JUMPDEST DUP2 MSTORE PUSH1 0x20 DUP1 DUP3 ADD SWAP3 SWAP1 SWAP3 MSTORE PUSH1 0x40 SWAP1 DUP2 ADD PUSH1 0x0 KECCAK256 DUP2 MLOAD PUSH1 0xC0 DUP2 ADD SWAP1 SWAP3 MSTORE DUP1 SLOAD PUSH1 0x1 PUSH1 0x1 PUSH1 0xA0 SHL SUB DUP2 AND DUP4 MSTORE SWAP2 SWAP3 SWAP1 SWAP2 SWAP1 DUP4 ADD SWAP1 PUSH1 0x1 PUSH1 0xA0 SHL SWAP1 DIV PUSH1 0xFF AND PUSH1 0x2 DUP2 GT ISZERO PUSH2 0xD71 JUMPI PUSH2 0xD71 PUSH2 0x625C JUMP JUMPDEST PUSH1 0x2 DUP2 GT ISZERO PUSH2 0xD82 JUMPI PUSH2 0xD82 PUSH2 0x625C JUMP JUMPDEST DUP2 MSTORE DUP2 SLOAD PUSH1 0xFF PUSH1 0x1 PUSH1 0xA8 SHL DUP3 DIV DUP2 AND ISZERO ISZERO PUSH1 0x20 DUP5 ADD MSTORE PUSH1 0x1 PUSH1 0xB0 SHL DUP3 DIV DUP2 AND PUSH1 0x40 DUP5 ADD MSTORE PUSH1 0x1 PUSH1 0xB8 SHL DUP3 DIV DUP2 AND ISZERO ISZERO PUSH1 0x60 DUP5 ADD MSTORE PUSH1 0x80 SWAP1 SWAP3 ADD SWAP2 PUSH1 0x1 PUSH1 0xC0 SHL SWAP1 SWAP2 DIV AND PUSH1 0x2 DUP2 GT ISZERO PUSH2 0xDD6 JUMPI PUSH2 0xDD6 PUSH2 0x625C JUMP JUMPDEST PUSH1 0x2 DUP2 GT ISZERO PUSH2 0xDE7 JUMPI PUSH2 0xDE7 PUSH2 0x625C JUMP JUMPDEST SWAP1 MSTORE POP SWAP1 POP PUSH1 0x1 PUSH1 0x1 PUSH1 0xA0 SHL SUB DUP7 AND CALLER SUB PUSH2 0xE52 JUMPI PUSH1 0x40 MLOAD PUSH3 0x461BCD PUSH1 0xE5 SHL DUP2 MSTORE PUSH1 0x20 PUSH1 0x4 DUP3 ADD MSTORE PUSH1 0x25 PUSH1 0x24 DUP3 ADD MSTORE PUSH32 0x596F752063616E27742062757920612070726F647563742066726F6D20796F75 PUSH1 0x44 DUP3 ADD MSTORE PUSH5 0x3939B2B633 PUSH1 0xD9 SHL PUSH1 0x64 DUP3 ADD MSTORE PUSH1 0x84 ADD PUSH2 0x720 JUMP JUMPDEST PUSH1 0x2 DUP3 PUSH1 0x20 ADD MLOAD PUSH1 0x2 DUP2 GT ISZERO PUSH2 0xE6A JUMPI PUSH2 0xE6A PUSH2 0x625C JUMP JUMPDEST SUB PUSH2 0xED5 JUMPI PUSH1 0x40 MLOAD PUSH3 0x461BCD PUSH1 0xE5 SHL DUP2 MSTORE PUSH1 0x20 PUSH1 0x4 DUP3 ADD MSTORE PUSH1 0x35 PUSH1 0x24 DUP3 ADD MSTORE PUSH32 0x54686520737570706C6965722063616E6E6F74206275792070726F6475637473 PUSH1 0x44 DUP3 ADD MSTORE PUSH21 0x2066726F6D2073746F726573206F72207573657273 PUSH1 0x58 SHL PUSH1 0x64 DUP3 ADD MSTORE PUSH1 0x84 ADD PUSH2 0x720 JUMP JUMPDEST PUSH1 0x1 DUP3 PUSH1 0x20 ADD MLOAD PUSH1 0x2 DUP2 GT ISZERO PUSH2 0xEED JUMPI PUSH2 0xEED PUSH2 0x625C JUMP JUMPDEST EQ ISZERO DUP1 PUSH2 0xF10 JUMPI POP PUSH1 0x0 DUP2 PUSH1 0x20 ADD MLOAD PUSH1 0x2 DUP2 GT ISZERO PUSH2 0xF0D JUMPI PUSH2 0xF0D PUSH2 0x625C JUMP JUMPDEST EQ ISZERO JUMPDEST PUSH2 0xF6D JUMPI PUSH1 0x40 MLOAD PUSH3 0x461BCD PUSH1 0xE5 SHL DUP2 MSTORE PUSH1 0x20 PUSH1 0x4 DUP3 ADD MSTORE PUSH1 0x28 PUSH1 0x24 DUP3 ADD MSTORE PUSH32 0x5468652073746F72652063616E6E6F74206275792070726F6475637473206672 PUSH1 0x44 DUP3 ADD MSTORE PUSH8 0x6F6D207573657273 PUSH1 0xC0 SHL PUSH1 0x64 DUP3 ADD MSTORE PUSH1 0x84 ADD PUSH2 0x720 JUMP JUMPDEST PUSH1 0x0 DUP3 PUSH1 0x20 ADD MLOAD PUSH1 0x2 DUP2 GT ISZERO PUSH2 0xF85 JUMPI PUSH2 0xF85 PUSH2 0x625C JUMP JUMPDEST EQ ISZERO DUP1 PUSH2 0xFA8 JUMPI POP PUSH1 0x2 DUP2 PUSH1 0x20 ADD MLOAD PUSH1 0x2 DUP2 GT ISZERO PUSH2 0xFA5 JUMPI PUSH2 0xFA5 PUSH2 0x625C JUMP JUMPDEST EQ ISZERO JUMPDEST PUSH2 0x1008 JUMPI PUSH1 0x40 MLOAD PUSH3 0x461BCD PUSH1 0xE5 SHL DUP2 MSTORE PUSH1 0x20 PUSH1 0x4 DUP3 ADD MSTORE PUSH1 0x2B PUSH1 0x24 DUP3 ADD MSTORE PUSH32 0x54686520757365722063616E6E6F74206275792070726F64756374732066726F PUSH1 0x44 DUP3 ADD MSTORE PUSH11 0x6D20737570706C69657273 PUSH1 0xA8 SHL PUSH1 0x64 DUP3 ADD MSTORE PUSH1 0x84 ADD PUSH2 0x720 JUMP JUMPDEST PUSH1 0x1 PUSH1 0x1 PUSH1 0xA0 SHL SUB DUP7 AND PUSH1 0x0 SWAP1 DUP2 MSTORE PUSH1 0xF PUSH1 0x20 SWAP1 DUP2 MSTORE PUSH1 0x40 DUP1 DUP4 KECCAK256 PUSH1 0x16 SWAP1 SWAP3 MSTORE DUP3 KECCAK256 SLOAD DUP3 SWAP1 PUSH1 0xFF AND PUSH1 0x2 DUP2 GT ISZERO PUSH2 0x1041 JUMPI PUSH2 0x1041 PUSH2 0x625C JUMP JUMPDEST PUSH1 0x2 DUP2 GT ISZERO PUSH2 0x1052 JUMPI PUSH2 0x1052 PUSH2 0x625C JUMP JUMPDEST DUP2 MSTORE PUSH1 0x20 ADD SWAP1 DUP2 MSTORE PUSH1 0x20 ADD PUSH1 0x0 KECCAK256 PUSH1 0x0 DUP7 DUP2 MSTORE PUSH1 0x20 ADD SWAP1 DUP2 MSTORE PUSH1 0x20 ADD PUSH1 0x0 KECCAK256 PUSH1 0x40 MLOAD DUP1 PUSH1 0xC0 ADD PUSH1 0x40 MSTORE SWAP1 DUP2 PUSH1 0x0 DUP3 ADD DUP1 SLOAD PUSH2 0x108C SWAP1 PUSH2 0x653C JUMP JUMPDEST DUP1 PUSH1 0x1F ADD PUSH1 0x20 DUP1 SWAP2 DIV MUL PUSH1 0x20 ADD PUSH1 0x40 MLOAD SWAP1 DUP2 ADD PUSH1 0x40 MSTORE DUP1 SWAP3 SWAP2 SWAP1 DUP2 DUP2 MSTORE PUSH1 0x20 ADD DUP3 DUP1 SLOAD PUSH2 0x10B8 SWAP1 PUSH2 0x653C JUMP JUMPDEST DUP1 ISZERO PUSH2 0x1105 JUMPI DUP1 PUSH1 0x1F LT PUSH2 0x10DA JUMPI PUSH2 0x100 DUP1 DUP4 SLOAD DIV MUL DUP4 MSTORE SWAP2 PUSH1 0x20 ADD SWAP2 PUSH2 0x1105 JUMP JUMPDEST DUP3 ADD SWAP2 SWAP1 PUSH1 0x0 MSTORE PUSH1 0x20 PUSH1 0x0 KECCAK256 SWAP1 JUMPDEST DUP2 SLOAD DUP2 MSTORE SWAP1 PUSH1 0x1 ADD SWAP1 PUSH1 0x20 ADD DUP1 DUP4 GT PUSH2 0x10E8 JUMPI DUP3 SWAP1 SUB PUSH1 0x1F AND DUP3 ADD SWAP2 JUMPDEST POP POP POP SWAP2 DUP4 MSTORE POP POP PUSH1 0x1 DUP3 ADD SLOAD PUSH1 0x20 DUP3 ADD MSTORE PUSH1 0x2 DUP1 DUP4 ADD SLOAD PUSH1 0x40 DUP4 ADD MSTORE PUSH1 0x3 DUP4 ADD SLOAD PUSH1 0x60 DUP4 ADD MSTORE PUSH1 0x4 DUP4 ADD SLOAD PUSH4 0xFFFFFFFF DUP2 AND PUSH1 0x80 DUP5 ADD MSTORE PUSH1 0xA0 SWAP1 SWAP3 ADD SWAP2 PUSH1 0x1 PUSH1 0x20 SHL SWAP1 DIV PUSH1 0xFF AND SWAP1 DUP2 GT ISZERO PUSH2 0x115D JUMPI PUSH2 0x115D PUSH2 0x625C JUMP JUMPDEST PUSH1 0x2 DUP2 GT ISZERO PUSH2 0x116E JUMPI PUSH2 0x116E PUSH2 0x625C JUMP JUMPDEST DUP2 MSTORE POP POP SWAP1 POP PUSH1 0x0 DUP2 PUSH1 0x20 ADD MLOAD GT PUSH2 0x119B JUMPI DUP6 PUSH1 0x40 MLOAD PUSH4 0xEF0098D1 PUSH1 0xE0 SHL DUP2 MSTORE PUSH1 0x4 ADD PUSH2 0x720 SWAP2 SWAP1 PUSH2 0x660E JUMP JUMPDEST PUSH1 0x0 DUP5 GT PUSH2 0x11EB JUMPI PUSH1 0x40 MLOAD PUSH3 0x461BCD PUSH1 0xE5 SHL DUP2 MSTORE PUSH1 0x20 PUSH1 0x4 DUP3 ADD MSTORE PUSH1 0x1E PUSH1 0x24 DUP3 ADD MSTORE PUSH32 0x596F752063616E20627579206174206C6561737420312070726F647563740000 PUSH1 0x44 DUP3 ADD MSTORE PUSH1 0x64 ADD PUSH2 0x720 JUMP JUMPDEST DUP4 DUP2 PUSH1 0x40 ADD MLOAD LT ISZERO PUSH2 0x1256 JUMPI PUSH1 0x40 MLOAD PUSH3 0x461BCD PUSH1 0xE5 SHL DUP2 MSTORE PUSH1 0x20 PUSH1 0x4 DUP3 ADD MSTORE PUSH1 0x2E PUSH1 0x24 DUP3 ADD MSTORE PUSH32 0x5468657265206973206E6F2073756368207175616E74697479206F662070726F PUSH1 0x44 DUP3 ADD MSTORE PUSH14 0x647563747320696E2073746F636B PUSH1 0x90 SHL PUSH1 0x64 DUP3 ADD MSTORE PUSH1 0x84 ADD PUSH2 0x720 JUMP JUMPDEST PUSH1 0x0 DUP4 PUSH1 0x60 ADD MLOAD PUSH1 0x64 PUSH2 0x1269 SWAP2 SWAP1 PUSH2 0x6621 JUMP JUMPDEST PUSH1 0xFF AND PUSH1 0x64 DUP7 DUP5 PUSH1 0x20 ADD MLOAD PUSH2 0x127E SWAP2 SWAP1 PUSH2 0x663A JUMP JUMPDEST PUSH2 0x1288 SWAP2 SWAP1 PUSH2 0x6667 JUMP JUMPDEST PUSH2 0x1292 SWAP2 SWAP1 PUSH2 0x663A JUMP JUMPDEST SWAP1 POP DUP1 CALLVALUE LT ISZERO PUSH2 0x12BE JUMPI PUSH1 0x40 MLOAD PUSH4 0x11920A6D PUSH1 0xE3 SHL DUP2 MSTORE CALLVALUE PUSH1 0x4 DUP3 ADD MSTORE PUSH1 0x24 DUP2 ADD DUP3 SWAP1 MSTORE PUSH1 0x44 ADD PUSH2 0x720 JUMP JUMPDEST PUSH1 0x40 MLOAD PUSH1 0x1 PUSH1 0x1 PUSH1 0xA0 SHL SUB DUP10 AND SWAP1 DUP3 ISZERO PUSH2 0x8FC MUL SWAP1 DUP4 SWAP1 PUSH1 0x0 DUP2 DUP2 DUP2 DUP6 DUP9 DUP9 CALL SWAP4 POP POP POP POP ISZERO DUP1 ISZERO PUSH2 0x12F4 JUMPI RETURNDATASIZE PUSH1 0x0 DUP1 RETURNDATACOPY RETURNDATASIZE PUSH1 0x0 REVERT JUMPDEST POP PUSH1 0x40 MLOAD CALLER SWAP1 SELFBALANCE DUP1 ISZERO PUSH2 0x8FC MUL SWAP2 PUSH1 0x0 DUP2 DUP2 DUP2 DUP6 DUP9 DUP9 CALL SWAP4 POP POP POP POP ISZERO DUP1 ISZERO PUSH2 0x1321 JUMPI RETURNDATASIZE PUSH1 0x0 DUP1 RETURNDATACOPY RETURNDATASIZE PUSH1 0x0 REVERT JUMPDEST POP PUSH2 0x1340 DUP3 PUSH1 0x0 ADD MLOAD DUP10 DUP8 DUP6 PUSH1 0x60 ADD MLOAD DUP7 PUSH1 0x80 ADD MLOAD DUP8 PUSH1 0x20 ADD MLOAD PUSH2 0x5094 JUMP JUMPDEST PUSH1 0x1 DUP5 PUSH1 0x20 ADD MLOAD PUSH1 0x2 DUP2 GT ISZERO PUSH2 0x1358 JUMPI PUSH2 0x1358 PUSH2 0x625C JUMP JUMPDEST SUB PUSH2 0x138B JUMPI PUSH2 0x1386 DUP3 PUSH1 0x0 ADD MLOAD PUSH1 0x2 DUP5 PUSH1 0x20 ADD MLOAD PUSH2 0x1376 SWAP2 SWAP1 PUSH2 0x663A JUMP JUMPDEST DUP8 DUP6 PUSH1 0x60 ADD MLOAD DUP7 PUSH1 0x80 ADD MLOAD PUSH2 0x547F JUMP JUMPDEST PUSH2 0x13AC JUMP JUMPDEST PUSH2 0x13AC DUP3 PUSH1 0x0 ADD MLOAD DUP4 PUSH1 0x20 ADD MLOAD DUP5 PUSH1 0x40 ADD MLOAD DUP6 PUSH1 0x60 ADD MLOAD DUP7 PUSH1 0x80 ADD MLOAD PUSH2 0x547F JUMP JUMPDEST CALLER PUSH1 0x0 SWAP1 DUP2 MSTORE PUSH1 0xB PUSH1 0x20 MSTORE PUSH1 0x40 SWAP1 KECCAK256 SLOAD ISZERO PUSH2 0x13C9 JUMPI PUSH2 0x13C9 PUSH2 0x5903 JUMP JUMPDEST PUSH1 0x0 PUSH2 0x13D8 DUP4 PUSH1 0x80 ADD MLOAD PUSH2 0x5A57 JUMP JUMPDEST SWAP1 POP PUSH2 0x1418 PUSH1 0x40 MLOAD DUP1 PUSH1 0x40 ADD PUSH1 0x40 MSTORE DUP1 PUSH1 0x12 DUP2 MSTORE PUSH1 0x20 ADD PUSH18 0x29BA37B930B3B2903634B332903230BCB99D PUSH1 0x71 SHL DUP2 MSTORE POP DUP5 PUSH1 0x80 ADD MLOAD PUSH4 0xFFFFFFFF AND PUSH2 0x5ABB JUMP JUMPDEST PUSH2 0x144D PUSH1 0x40 MLOAD DUP1 PUSH1 0x40 ADD PUSH1 0x40 MSTORE DUP1 PUSH1 0xD DUP2 MSTORE PUSH1 0x20 ADD PUSH13 0x2930B73237B6903737B731B29D PUSH1 0x99 SHL DUP2 MSTORE POP DUP3 PUSH4 0xFFFFFFFF AND PUSH2 0x5ABB JUMP JUMPDEST PUSH1 0x40 DUP1 MLOAD PUSH2 0x140 DUP2 ADD DUP3 MSTORE CALLER DUP2 MSTORE PUSH1 0x1 PUSH1 0x1 PUSH1 0xA0 SHL SUB DUP12 DUP2 AND PUSH1 0x20 DUP1 DUP5 ADD SWAP2 DUP3 MSTORE DUP8 MLOAD SWAP5 DUP5 ADD SWAP5 DUP6 MSTORE DUP8 ADD MLOAD PUSH1 0x60 DUP1 DUP6 ADD SWAP2 SWAP1 SWAP2 MSTORE PUSH1 0x80 DUP1 DUP6 ADD DUP13 SWAP1 MSTORE SWAP1 DUP9 ADD MLOAD PUSH1 0xA0 DUP6 ADD MSTORE DUP8 ADD MLOAD PUSH4 0xFFFFFFFF SWAP1 DUP2 AND PUSH1 0xC0 DUP6 ADD MSTORE DUP6 AND PUSH1 0xE0 DUP5 ADD MSTORE PUSH1 0x0 PUSH2 0x100 DUP5 ADD DUP2 SWAP1 MSTORE PUSH2 0x120 DUP5 ADD DUP2 SWAP1 MSTORE DUP1 SLOAD PUSH1 0x1 DUP2 ADD DUP3 SSTORE SWAP1 DUP1 MSTORE DUP4 MLOAD PUSH1 0x7 SWAP1 SWAP2 MUL PUSH32 0x290DECD9548B62A8D60345A988386FC84BA6BC95484008F6362F93160EF3E563 DUP2 ADD DUP1 SLOAD SWAP3 DUP6 AND PUSH1 0x1 PUSH1 0x1 PUSH1 0xA0 SHL SUB NOT SWAP4 DUP5 AND OR DUP2 SSTORE SWAP3 MLOAD PUSH32 0x290DECD9548B62A8D60345A988386FC84BA6BC95484008F6362F93160EF3E564 DUP3 ADD DUP1 SLOAD SWAP2 SWAP1 SWAP6 AND SWAP3 AND SWAP2 SWAP1 SWAP2 OR SWAP1 SWAP3 SSTORE SWAP3 MLOAD SWAP2 SWAP3 DUP4 SWAP3 SWAP1 SWAP2 PUSH32 0x290DECD9548B62A8D60345A988386FC84BA6BC95484008F6362F93160EF3E565 ADD SWAP1 PUSH2 0x156E SWAP1 DUP3 PUSH2 0x66C6 JUMP JUMPDEST POP PUSH1 0x60 DUP3 ADD MLOAD PUSH1 0x3 DUP3 ADD SSTORE PUSH1 0x80 DUP3 ADD MLOAD PUSH1 0x4 DUP3 ADD SSTORE PUSH1 0xA0 DUP3 ADD MLOAD PUSH1 0x5 DUP3 ADD SSTORE PUSH1 0xC0 DUP3 ADD MLOAD PUSH1 0x6 SWAP1 SWAP2 ADD DUP1 SLOAD PUSH1 0xE0 DUP5 ADD MLOAD PUSH2 0x100 DUP6 ADD MLOAD PUSH2 0x120 SWAP1 SWAP6 ADD MLOAD ISZERO ISZERO PUSH1 0x1 PUSH1 0x48 SHL MUL PUSH10 0xFF000000000000000000 NOT SWAP6 ISZERO ISZERO PUSH1 0x1 PUSH1 0x40 SHL MUL SWAP6 SWAP1 SWAP6 AND PUSH10 0xFFFF0000000000000000 NOT PUSH4 0xFFFFFFFF SWAP3 DUP4 AND PUSH1 0x1 PUSH1 0x20 SHL MUL PUSH8 0xFFFFFFFFFFFFFFFF NOT SWAP1 SWAP5 AND SWAP3 SWAP1 SWAP6 AND SWAP2 SWAP1 SWAP2 OR SWAP2 SWAP1 SWAP2 OR SWAP3 SWAP1 SWAP3 AND SWAP2 SWAP1 SWAP2 OR SWAP2 SWAP1 SWAP2 OR SWAP1 SSTORE CALLER PUSH1 0x0 SWAP1 DUP2 MSTORE PUSH1 0x19 PUSH1 0x20 MSTORE PUSH1 0x40 DUP2 KECCAK256 SWAP1 SLOAD PUSH2 0x162A SWAP1 PUSH1 0x1 SWAP1 PUSH2 0x65CE JUMP JUMPDEST DUP2 SLOAD PUSH1 0x1 DUP2 ADD DUP4 SSTORE PUSH1 0x0 SWAP3 DUP4 MSTORE PUSH1 0x20 SWAP1 SWAP3 KECCAK256 SWAP1 SWAP2 ADD SSTORE POP POP POP POP POP POP POP POP POP POP JUMP JUMPDEST PUSH1 0x0 DUP1 CALLER PUSH1 0x0 SWAP1 DUP2 MSTORE PUSH1 0x16 PUSH1 0x20 MSTORE PUSH1 0x40 SWAP1 KECCAK256 SLOAD PUSH1 0xFF AND PUSH1 0x2 DUP2 GT ISZERO PUSH2 0x1673 JUMPI PUSH2 0x1673 PUSH2 0x625C JUMP JUMPDEST EQ PUSH2 0x1691 JUMPI PUSH1 0x40 MLOAD PUSH4 0x7824841 PUSH1 0xE2 SHL DUP2 MSTORE PUSH1 0x4 ADD PUSH1 0x40 MLOAD DUP1 SWAP2 SUB SWAP1 REVERT JUMPDEST CALLER PUSH1 0x0 SWAP1 DUP2 MSTORE PUSH1 0xB PUSH1 0x20 MSTORE PUSH1 0x40 SWAP1 KECCAK256 SLOAD DUP3 EQ PUSH2 0x16DE JUMPI PUSH1 0x40 MLOAD PUSH3 0x461BCD PUSH1 0xE5 SHL DUP2 MSTORE PUSH1 0x20 PUSH1 0x4 DUP3 ADD MSTORE PUSH1 0xC PUSH1 0x24 DUP3 ADD MSTORE PUSH12 0x496E76616C696420636F6465 PUSH1 0xA0 SHL PUSH1 0x44 DUP3 ADD MSTORE PUSH1 0x64 ADD PUSH2 0x720 JUMP JUMPDEST CALLER PUSH1 0x0 SWAP1 DUP2 MSTORE PUSH1 0x16 PUSH1 0x20 SWAP1 DUP2 MSTORE PUSH1 0x40 DUP1 DUP4 KECCAK256 SLOAD PUSH1 0x15 SWAP1 SWAP3 MSTORE DUP3 KECCAK256 PUSH1 0xFF SWAP1 SWAP2 AND SWAP2 DUP3 PUSH1 0x2 DUP2 GT ISZERO PUSH2 0x1710 JUMPI PUSH2 0x1710 PUSH2 0x625C JUMP JUMPDEST PUSH1 0x2 DUP2 GT ISZERO PUSH2 0x1721 JUMPI PUSH2 0x1721 PUSH2 0x625C JUMP JUMPDEST DUP2 MSTORE PUSH1 0x20 DUP2 ADD SWAP2 SWAP1 SWAP2 MSTORE PUSH1 0x40 ADD PUSH1 0x0 KECCAK256 SLOAD PUSH1 0x1 PUSH1 0xB0 SHL SWAP1 DIV PUSH1 0xFF AND ISZERO PUSH2 0x1795 JUMPI PUSH1 0x40 MLOAD PUSH3 0x461BCD PUSH1 0xE5 SHL DUP2 MSTORE PUSH1 0x20 PUSH1 0x4 DUP3 ADD MSTORE PUSH1 0x24 DUP1 DUP3 ADD MSTORE PUSH32 0x596F75206861766520616C726561647920616374697661746564207468697320 PUSH1 0x44 DUP3 ADD MSTORE PUSH4 0x636F6465 PUSH1 0xE0 SHL PUSH1 0x64 DUP3 ADD MSTORE PUSH1 0x84 ADD PUSH2 0x720 JUMP JUMPDEST CALLER PUSH1 0x0 SWAP1 DUP2 MSTORE PUSH1 0x15 PUSH1 0x20 MSTORE PUSH1 0x40 DUP2 KECCAK256 PUSH1 0xA SWAP2 DUP4 PUSH1 0x2 DUP2 GT ISZERO PUSH2 0x17B9 JUMPI PUSH2 0x17B9 PUSH2 0x625C JUMP JUMPDEST PUSH1 0x2 DUP2 GT ISZERO PUSH2 0x17CA JUMPI PUSH2 0x17CA PUSH2 0x625C JUMP JUMPDEST DUP2 MSTORE PUSH1 0x20 ADD SWAP1 DUP2 MSTORE PUSH1 0x20 ADD PUSH1 0x0 KECCAK256 PUSH1 0x0 ADD PUSH1 0x16 PUSH2 0x100 EXP DUP2 SLOAD DUP2 PUSH1 0xFF MUL NOT AND SWAP1 DUP4 PUSH1 0xFF AND MUL OR SWAP1 SSTORE POP POP POP POP JUMP JUMPDEST PUSH1 0x8 SLOAD PUSH1 0x1 PUSH1 0x1 PUSH1 0xA0 SHL SUB AND CALLER EQ PUSH2 0x1822 JUMPI PUSH1 0x40 MLOAD PUSH3 0x461BCD PUSH1 0xE5 SHL DUP2 MSTORE PUSH1 0x4 ADD PUSH2 0x720 SWAP1 PUSH2 0x6786 JUMP JUMPDEST PUSH1 0x0 DUP2 DUP2 MSTORE PUSH1 0xE PUSH1 0x20 MSTORE PUSH1 0x40 SWAP1 KECCAK256 SLOAD PUSH1 0xFF AND PUSH2 0x188A JUMPI PUSH1 0x40 MLOAD PUSH3 0x461BCD PUSH1 0xE5 SHL DUP2 MSTORE PUSH1 0x20 PUSH1 0x4 DUP3 ADD MSTORE PUSH1 0x21 PUSH1 0x24 DUP3 ADD MSTORE PUSH32 0x546865207265717565737420686173206E6F74206265656E2073656E74207965 PUSH1 0x44 DUP3 ADD MSTORE PUSH1 0x1D PUSH1 0xFA SHL PUSH1 0x64 DUP3 ADD MSTORE PUSH1 0x84 ADD PUSH2 0x720 JUMP JUMPDEST PUSH1 0x0 DUP1 DUP3 DUP2 SLOAD DUP2 LT PUSH2 0x189E JUMPI PUSH2 0x189E PUSH2 0x6576 JUMP JUMPDEST PUSH1 0x0 SWAP2 DUP3 MSTORE PUSH1 0x20 SWAP2 DUP3 SWAP1 KECCAK256 PUSH1 0x40 DUP1 MLOAD PUSH2 0x140 DUP2 ADD DUP3 MSTORE PUSH1 0x7 SWAP1 SWAP4 MUL SWAP1 SWAP2 ADD DUP1 SLOAD PUSH1 0x1 PUSH1 0x1 PUSH1 0xA0 SHL SUB SWAP1 DUP2 AND DUP5 MSTORE PUSH1 0x1 DUP3 ADD SLOAD AND SWAP4 DUP4 ADD SWAP4 SWAP1 SWAP4 MSTORE PUSH1 0x2 DUP4 ADD DUP1 SLOAD SWAP3 SWAP4 SWAP3 SWAP2 DUP5 ADD SWAP2 PUSH2 0x18EE SWAP1 PUSH2 0x653C JUMP JUMPDEST DUP1 PUSH1 0x1F ADD PUSH1 0x20 DUP1 SWAP2 DIV MUL PUSH1 0x20 ADD PUSH1 0x40 MLOAD SWAP1 DUP2 ADD PUSH1 0x40 MSTORE DUP1 SWAP3 SWAP2 SWAP1 DUP2 DUP2 MSTORE PUSH1 0x20 ADD DUP3 DUP1 SLOAD PUSH2 0x191A SWAP1 PUSH2 0x653C JUMP JUMPDEST DUP1 ISZERO PUSH2 0x1967 JUMPI DUP1 PUSH1 0x1F LT PUSH2 0x193C JUMPI PUSH2 0x100 DUP1 DUP4 SLOAD DIV MUL DUP4 MSTORE SWAP2 PUSH1 0x20 ADD SWAP2 PUSH2 0x1967 JUMP JUMPDEST DUP3 ADD SWAP2 SWAP1 PUSH1 0x0 MSTORE PUSH1 0x20 PUSH1 0x0 KECCAK256 SWAP1 JUMPDEST DUP2 SLOAD DUP2 MSTORE SWAP1 PUSH1 0x1 ADD SWAP1 PUSH1 0x20 ADD DUP1 DUP4 GT PUSH2 0x194A JUMPI DUP3 SWAP1 SUB PUSH1 0x1F AND DUP3 ADD SWAP2 JUMPDEST POP POP POP SWAP2 DUP4 MSTORE POP POP PUSH1 0x3 DUP3 ADD SLOAD PUSH1 0x20 DUP3 ADD MSTORE PUSH1 0x4 DUP3 ADD SLOAD PUSH1 0x40 DUP3 ADD MSTORE PUSH1 0x5 DUP3 ADD SLOAD PUSH1 0x60 DUP3 ADD MSTORE PUSH1 0x6 SWAP1 SWAP2 ADD SLOAD PUSH4 0xFFFFFFFF DUP1 DUP3 AND PUSH1 0x80 DUP5 ADD MSTORE PUSH1 0x1 PUSH1 0x20 SHL DUP3 DIV AND PUSH1 0xA0 DUP4 ADD MSTORE PUSH1 0xFF PUSH1 0x1 PUSH1 0x40 SHL DUP3 DIV DUP2 AND ISZERO ISZERO PUSH1 0xC0 DUP5 ADD MSTORE PUSH1 0x1 PUSH1 0x48 SHL SWAP1 SWAP2 DIV AND ISZERO ISZERO PUSH1 0xE0 SWAP1 SWAP2 ADD MSTORE PUSH2 0x100 DUP2 ADD MLOAD SWAP1 SWAP2 POP ISZERO DUP1 ISZERO PUSH2 0x19E9 JUMPI POP DUP1 PUSH2 0x120 ADD MLOAD ISZERO JUMPDEST PUSH2 0x1A44 JUMPI PUSH1 0x40 MLOAD PUSH3 0x461BCD PUSH1 0xE5 SHL DUP2 MSTORE PUSH1 0x20 PUSH1 0x4 DUP3 ADD MSTORE PUSH1 0x26 PUSH1 0x24 DUP3 ADD MSTORE PUSH32 0x54686520726571756573742068617320616C7265616479206265656E2070726F PUSH1 0x44 DUP3 ADD MSTORE PUSH6 0x18D95CDCD959 PUSH1 0xD2 SHL PUSH1 0x64 DUP3 ADD MSTORE PUSH1 0x84 ADD PUSH2 0x720 JUMP JUMPDEST DUP1 PUSH1 0xE0 ADD MLOAD PUSH4 0xFFFFFFFF AND DUP2 PUSH1 0xC0 ADD MLOAD PUSH4 0xFFFFFFFF AND LT ISZERO PUSH2 0x1B2B JUMPI PUSH1 0x1 PUSH2 0x100 DUP3 ADD MSTORE PUSH1 0x20 DUP1 DUP3 ADD MLOAD PUSH1 0x1 PUSH1 0x1 PUSH1 0xA0 SHL SUB AND PUSH1 0x0 SWAP1 DUP2 MSTORE PUSH1 0xA SWAP1 SWAP2 MSTORE PUSH1 0x40 SWAP1 KECCAK256 PUSH1 0x80 DUP3 ADD MLOAD PUSH1 0x60 DUP4 ADD MLOAD PUSH2 0x1A99 SWAP2 SWAP1 PUSH2 0x663A JUMP JUMPDEST DUP2 SLOAD PUSH1 0x1 DUP1 DUP3 ADD DUP5 SSTORE PUSH1 0x0 SWAP4 DUP5 MSTORE PUSH1 0x20 DUP1 DUP6 KECCAK256 SWAP1 SWAP3 ADD SWAP3 SWAP1 SWAP3 SSTORE DUP4 DUP2 ADD MLOAD PUSH1 0x1 PUSH1 0x1 PUSH1 0xA0 SHL SUB SWAP1 DUP2 AND DUP5 MSTORE PUSH1 0x9 DUP3 MSTORE PUSH1 0x40 DUP1 DUP6 KECCAK256 DUP7 MLOAD DUP2 SLOAD SWAP6 DUP7 ADD DUP3 SSTORE SWAP1 DUP7 MSTORE SWAP5 DUP4 SWAP1 KECCAK256 SWAP1 SWAP4 ADD DUP1 SLOAD PUSH1 0x1 PUSH1 0x1 PUSH1 0xA0 SHL SUB NOT AND SWAP5 SWAP1 SWAP2 AND SWAP4 SWAP1 SWAP4 OR SWAP1 SWAP3 SSTORE MLOAD DUP4 DUP2 MSTORE PUSH32 0xB5E697FD702DAF79A1EA89F82C5AEC1B019E3601C671314DA084B85544C9C245 SWAP2 ADD JUMPDEST PUSH1 0x40 MLOAD DUP1 SWAP2 SUB SWAP1 LOG1 POP POP JUMP JUMPDEST PUSH1 0x1 PUSH2 0x120 DUP3 ADD MSTORE PUSH1 0x40 MLOAD DUP3 DUP2 MSTORE PUSH32 0x19DE89EA8960411EE72328EC26B63F03BAE0D96BFF70C5CE1934387A3EE6DC03 SWAP1 PUSH1 0x20 ADD PUSH2 0x1B1F JUMP JUMPDEST POP POP JUMP JUMPDEST PUSH2 0x1B6F PUSH2 0x5E9E JUMP JUMPDEST CALLER PUSH1 0x0 SWAP1 DUP2 MSTORE PUSH1 0x15 PUSH1 0x20 SWAP1 DUP2 MSTORE PUSH1 0x40 DUP1 DUP4 KECCAK256 PUSH1 0x16 SWAP1 SWAP3 MSTORE DUP3 KECCAK256 SLOAD SWAP1 SWAP2 SWAP1 PUSH1 0xFF AND PUSH1 0x2 DUP2 GT ISZERO PUSH2 0x1BA0 JUMPI PUSH2 0x1BA0 PUSH2 0x625C JUMP JUMPDEST PUSH1 0x2 DUP2 GT ISZERO PUSH2 0x1BB1 JUMPI PUSH2 0x1BB1 PUSH2 0x625C JUMP JUMPDEST DUP2 MSTORE PUSH1 0x20 DUP2 ADD SWAP2 SWAP1 SWAP2 MSTORE PUSH1 0x40 ADD PUSH1 0x0 KECCAK256 SLOAD PUSH1 0x1 PUSH1 0xA8 SHL SWAP1 DIV PUSH1 0xFF AND PUSH2 0x1BEB JUMPI PUSH1 0x40 MLOAD PUSH4 0x89129CF PUSH1 0xE4 SHL DUP2 MSTORE CALLER PUSH1 0x4 DUP3 ADD MSTORE PUSH1 0x24 ADD PUSH2 0x720 JUMP JUMPDEST CALLER PUSH1 0x0 SWAP1 DUP2 MSTORE PUSH1 0x15 PUSH1 0x20 SWAP1 DUP2 MSTORE PUSH1 0x40 DUP1 DUP4 KECCAK256 PUSH1 0x16 SWAP1 SWAP3 MSTORE DUP3 KECCAK256 SLOAD SWAP1 SWAP2 SWAP1 PUSH1 0xFF AND PUSH1 0x2 DUP2 GT ISZERO PUSH2 0x1C1C JUMPI PUSH2 0x1C1C PUSH2 0x625C JUMP JUMPDEST PUSH1 0x2 DUP2 GT ISZERO PUSH2 0x1C2D JUMPI PUSH2 0x1C2D PUSH2 0x625C JUMP JUMPDEST DUP2 MSTORE PUSH1 0x20 DUP1 DUP3 ADD SWAP3 SWAP1 SWAP3 MSTORE PUSH1 0x40 SWAP1 DUP2 ADD PUSH1 0x0 KECCAK256 DUP2 MLOAD PUSH1 0xC0 DUP2 ADD SWAP1 SWAP3 MSTORE DUP1 SLOAD PUSH1 0x1 PUSH1 0x1 PUSH1 0xA0 SHL SUB DUP2 AND DUP4 MSTORE SWAP2 SWAP3 SWAP1 SWAP2 SWAP1 DUP4 ADD SWAP1 PUSH1 0x1 PUSH1 0xA0 SHL SWAP1 DIV PUSH1 0xFF AND PUSH1 0x2 DUP2 GT ISZERO PUSH2 0x1C7A JUMPI PUSH2 0x1C7A PUSH2 0x625C JUMP JUMPDEST PUSH1 0x2 DUP2 GT ISZERO PUSH2 0x1C8B JUMPI PUSH2 0x1C8B PUSH2 0x625C JUMP JUMPDEST DUP2 MSTORE DUP2 SLOAD PUSH1 0xFF PUSH1 0x1 PUSH1 0xA8 SHL DUP3 DIV DUP2 AND ISZERO ISZERO PUSH1 0x20 DUP5 ADD MSTORE PUSH1 0x1 PUSH1 0xB0 SHL DUP3 DIV DUP2 AND PUSH1 0x40 DUP5 ADD MSTORE PUSH1 0x1 PUSH1 0xB8 SHL DUP3 DIV DUP2 AND ISZERO ISZERO PUSH1 0x60 DUP5 ADD MSTORE PUSH1 0x80 SWAP1 SWAP3 ADD SWAP2 PUSH1 0x1 PUSH1 0xC0 SHL SWAP1 SWAP2 DIV AND PUSH1 0x2 DUP2 GT ISZERO PUSH2 0x1CDF JUMPI PUSH2 0x1CDF PUSH2 0x625C JUMP JUMPDEST PUSH1 0x2 DUP2 GT ISZERO PUSH2 0x1CF0 JUMPI PUSH2 0x1CF0 PUSH2 0x625C JUMP JUMPDEST SWAP1 MSTORE POP SWAP1 POP SWAP1 JUMP JUMPDEST PUSH1 0x8 SLOAD PUSH1 0x0 SWAP1 PUSH1 0x1 PUSH1 0x1 PUSH1 0xA0 SHL SUB AND CALLER EQ PUSH2 0x1D25 JUMPI PUSH1 0x40 MLOAD PUSH3 0x461BCD PUSH1 0xE5 SHL DUP2 MSTORE PUSH1 0x4 ADD PUSH2 0x720 SWAP1 PUSH2 0x6786 JUMP JUMPDEST PUSH1 0x1 SLOAD PUSH2 0x1D3B SWAP1 PUSH8 0xDE0B6B3A7640000 SWAP1 PUSH2 0x663A JUMP JUMPDEST SWAP1 POP SWAP1 JUMP JUMPDEST PUSH1 0x2 DUP1 CALLER PUSH1 0x0 SWAP1 DUP2 MSTORE PUSH1 0x16 PUSH1 0x20 MSTORE PUSH1 0x40 SWAP1 KECCAK256 SLOAD PUSH1 0xFF AND PUSH1 0x2 DUP2 GT ISZERO PUSH2 0x1D67 JUMPI PUSH2 0x1D67 PUSH2 0x625C JUMP JUMPDEST EQ PUSH2 0x1D85 JUMPI PUSH1 0x40 MLOAD PUSH4 0x7824841 PUSH1 0xE2 SHL DUP2 MSTORE PUSH1 0x4 ADD PUSH1 0x40 MLOAD DUP1 SWAP2 SUB SWAP1 REVERT JUMPDEST PUSH2 0x1D9D PUSH1 0x40 MLOAD DUP1 PUSH1 0x20 ADD PUSH1 0x40 MSTORE DUP1 PUSH1 0x0 DUP2 MSTORE POP PUSH2 0x5B00 JUMP JUMPDEST PUSH2 0x1DA6 DUP7 PUSH2 0x5B00 JUMP JUMPDEST SUB PUSH2 0x1DF3 JUMPI PUSH1 0x40 MLOAD PUSH3 0x461BCD PUSH1 0xE5 SHL DUP2 MSTORE PUSH1 0x20 PUSH1 0x4 DUP3 ADD MSTORE PUSH1 0x1D PUSH1 0x24 DUP3 ADD MSTORE PUSH32 0x5468652070726F64756374206D75737420686176652061207469746C65000000 PUSH1 0x44 DUP3 ADD MSTORE PUSH1 0x64 ADD PUSH2 0x720 JUMP JUMPDEST PUSH1 0x0 DUP5 GT PUSH2 0x1E58 JUMPI PUSH1 0x40 MLOAD PUSH3 0x461BCD PUSH1 0xE5 SHL DUP2 MSTORE PUSH1 0x20 PUSH1 0x4 DUP3 ADD MSTORE PUSH1 0x2C PUSH1 0x24 DUP3 ADD MSTORE PUSH32 0x5468652070726F64756374206D75737420686176652061207072696365206772 PUSH1 0x44 DUP3 ADD MSTORE PUSH12 0x6561746572207468616E203 PUSH1 0xA4 SHL PUSH1 0x64 DUP3 ADD MSTORE PUSH1 0x84 ADD PUSH2 0x720 JUMP JUMPDEST PUSH1 0x0 DUP4 GT PUSH2 0x1EBE JUMPI PUSH1 0x40 MLOAD PUSH3 0x461BCD PUSH1 0xE5 SHL DUP2 MSTORE PUSH1 0x20 PUSH1 0x4 DUP3 ADD MSTORE PUSH1 0x2D PUSH1 0x24 DUP3 ADD MSTORE PUSH32 0x5468652070726F64756374206D7573742068617665206120616D6F756E742067 PUSH1 0x44 DUP3 ADD MSTORE PUSH13 0x726561746572207468616E203 PUSH1 0x9C SHL PUSH1 0x64 DUP3 ADD MSTORE PUSH1 0x84 ADD PUSH2 0x720 JUMP JUMPDEST PUSH1 0x0 DUP3 PUSH4 0xFFFFFFFF AND GT PUSH2 0x1F3A JUMPI PUSH1 0x40 MLOAD PUSH3 0x461BCD PUSH1 0xE5 SHL DUP2 MSTORE PUSH1 0x20 PUSH1 0x4 DUP3 ADD MSTORE PUSH1 0x38 PUSH1 0x24 DUP3 ADD MSTORE PUSH32 0x5468652070726F64756374206D757374206861766520612073746F7261676520 PUSH1 0x44 DUP3 ADD MSTORE PUSH32 0x6C6966652067726561746572207468616E203020646179730000000000000000 PUSH1 0x64 DUP3 ADD MSTORE PUSH1 0x84 ADD PUSH2 0x720 JUMP JUMPDEST PUSH1 0x0 PUSH2 0x1F49 PUSH3 0x15180 TIMESTAMP PUSH2 0x67B4 JUMP JUMPDEST PUSH2 0x1F53 SWAP1 TIMESTAMP PUSH2 0x65CE JUMP JUMPDEST SWAP1 POP PUSH1 0x0 PUSH2 0x1F63 DUP8 DUP4 DUP7 DUP10 PUSH2 0x5B31 JUMP JUMPDEST CALLER PUSH1 0x0 SWAP1 DUP2 MSTORE PUSH1 0xF PUSH1 0x20 SWAP1 DUP2 MSTORE PUSH1 0x40 DUP1 DUP4 KECCAK256 PUSH1 0x16 SWAP1 SWAP3 MSTORE DUP3 KECCAK256 SLOAD SWAP3 SWAP4 POP SWAP1 SWAP2 DUP3 SWAP1 PUSH1 0xFF AND PUSH1 0x2 DUP2 GT ISZERO PUSH2 0x1F98 JUMPI PUSH2 0x1F98 PUSH2 0x625C JUMP JUMPDEST PUSH1 0x2 DUP2 GT ISZERO PUSH2 0x1FA9 JUMPI PUSH2 0x1FA9 PUSH2 0x625C JUMP JUMPDEST DUP2 MSTORE PUSH1 0x20 ADD SWAP1 DUP2 MSTORE PUSH1 0x20 ADD PUSH1 0x0 KECCAK256 PUSH1 0x0 DUP4 DUP2 MSTORE PUSH1 0x20 ADD SWAP1 DUP2 MSTORE PUSH1 0x20 ADD PUSH1 0x0 KECCAK256 PUSH1 0x1 ADD SLOAD GT ISZERO PUSH2 0x2050 JUMPI CALLER PUSH1 0x0 SWAP1 DUP2 MSTORE PUSH1 0xF PUSH1 0x20 SWAP1 DUP2 MSTORE PUSH1 0x40 DUP1 DUP4 KECCAK256 PUSH1 0x16 SWAP1 SWAP3 MSTORE DUP3 KECCAK256 SLOAD DUP8 SWAP3 SWAP1 PUSH1 0xFF AND PUSH1 0x2 DUP2 GT ISZERO PUSH2 0x2003 JUMPI PUSH2 0x2003 PUSH2 0x625C JUMP JUMPDEST PUSH1 0x2 DUP2 GT ISZERO PUSH2 0x2014 JUMPI PUSH2 0x2014 PUSH2 0x625C JUMP JUMPDEST DUP2 MSTORE PUSH1 0x20 ADD SWAP1 DUP2 MSTORE PUSH1 0x20 ADD PUSH1 0x0 KECCAK256 PUSH1 0x0 DUP4 DUP2 MSTORE PUSH1 0x20 ADD SWAP1 DUP2 MSTORE PUSH1 0x20 ADD PUSH1 0x0 KECCAK256 PUSH1 0x2 ADD PUSH1 0x0 DUP3 DUP3 SLOAD PUSH2 0x2045 SWAP2 SWAP1 PUSH2 0x65A2 JUMP JUMPDEST SWAP1 SWAP2 SSTORE POP PUSH2 0x23B9 SWAP1 POP JUMP JUMPDEST PUSH1 0x0 PUSH2 0x205B DUP9 PUSH2 0x5B00 JUMP JUMPDEST SWAP1 POP PUSH1 0x40 MLOAD DUP1 PUSH1 0xC0 ADD PUSH1 0x40 MSTORE DUP1 DUP10 DUP2 MSTORE PUSH1 0x20 ADD DUP9 DUP2 MSTORE PUSH1 0x20 ADD DUP8 DUP2 MSTORE PUSH1 0x20 ADD DUP5 DUP2 MSTORE PUSH1 0x20 ADD DUP7 PUSH4 0xFFFFFFFF AND DUP2 MSTORE PUSH1 0x20 ADD PUSH1 0x2 DUP1 DUP2 GT ISZERO PUSH2 0x209E JUMPI PUSH2 0x209E PUSH2 0x625C JUMP JUMPDEST SWAP1 MSTORE CALLER PUSH1 0x0 SWAP1 DUP2 MSTORE PUSH1 0xF PUSH1 0x20 SWAP1 DUP2 MSTORE PUSH1 0x40 DUP1 DUP4 KECCAK256 PUSH1 0x16 SWAP1 SWAP3 MSTORE DUP3 KECCAK256 SLOAD SWAP1 SWAP2 SWAP1 PUSH1 0xFF AND PUSH1 0x2 DUP2 GT ISZERO PUSH2 0x20D1 JUMPI PUSH2 0x20D1 PUSH2 0x625C JUMP JUMPDEST PUSH1 0x2 DUP2 GT ISZERO PUSH2 0x20E2 JUMPI PUSH2 0x20E2 PUSH2 0x625C JUMP JUMPDEST DUP2 MSTORE PUSH1 0x20 DUP1 DUP3 ADD SWAP3 SWAP1 SWAP3 MSTORE PUSH1 0x40 SWAP1 DUP2 ADD PUSH1 0x0 SWAP1 DUP2 KECCAK256 DUP7 DUP3 MSTORE SWAP1 SWAP3 MSTORE SWAP1 KECCAK256 DUP2 MLOAD DUP2 SWAP1 PUSH2 0x210D SWAP1 DUP3 PUSH2 0x66C6 JUMP JUMPDEST POP PUSH1 0x20 DUP3 ADD MLOAD PUSH1 0x1 DUP3 ADD SSTORE PUSH1 0x40 DUP3 ADD MLOAD PUSH1 0x2 DUP1 DUP4 ADD SWAP2 SWAP1 SWAP2 SSTORE PUSH1 0x60 DUP4 ADD MLOAD PUSH1 0x3 DUP4 ADD SSTORE PUSH1 0x80 DUP4 ADD MLOAD PUSH1 0x4 DUP4 ADD DUP1 SLOAD PUSH4 0xFFFFFFFF SWAP1 SWAP3 AND PUSH4 0xFFFFFFFF NOT DUP4 AND DUP2 OR DUP3 SSTORE PUSH1 0xA0 DUP7 ADD MLOAD SWAP4 SWAP2 SWAP3 PUSH5 0xFFFFFFFFFF NOT AND OR SWAP1 PUSH1 0x1 PUSH1 0x20 SHL SWAP1 DUP5 SWAP1 DUP2 GT ISZERO PUSH2 0x2178 JUMPI PUSH2 0x2178 PUSH2 0x625C JUMP JUMPDEST MUL OR SWAP1 SSTORE POP POP CALLER PUSH1 0x0 SWAP1 DUP2 MSTORE PUSH1 0x10 PUSH1 0x20 SWAP1 DUP2 MSTORE PUSH1 0x40 DUP1 DUP4 KECCAK256 PUSH1 0x16 SWAP1 SWAP3 MSTORE DUP3 KECCAK256 SLOAD SWAP1 SWAP3 POP PUSH1 0xFF AND PUSH1 0x2 DUP2 GT ISZERO PUSH2 0x21AF JUMPI PUSH2 0x21AF PUSH2 0x625C JUMP JUMPDEST PUSH1 0x2 DUP2 GT ISZERO PUSH2 0x21C0 JUMPI PUSH2 0x21C0 PUSH2 0x625C JUMP JUMPDEST DUP2 MSTORE PUSH1 0x20 DUP1 DUP3 ADD SWAP3 SWAP1 SWAP3 MSTORE PUSH1 0x40 ADD PUSH1 0x0 SWAP1 DUP2 KECCAK256 DUP1 SLOAD PUSH1 0x1 DUP2 ADD DUP3 SSTORE SWAP1 DUP3 MSTORE SWAP2 SWAP1 KECCAK256 ADD PUSH2 0x21EC DUP10 DUP3 PUSH2 0x66C6 JUMP JUMPDEST POP CALLER PUSH1 0x0 SWAP1 DUP2 MSTORE PUSH1 0x12 PUSH1 0x20 SWAP1 DUP2 MSTORE PUSH1 0x40 DUP1 DUP4 KECCAK256 PUSH1 0x16 SWAP1 SWAP3 MSTORE DUP3 KECCAK256 SLOAD SWAP1 SWAP2 SWAP1 PUSH1 0xFF AND PUSH1 0x2 DUP2 GT ISZERO PUSH2 0x221E JUMPI PUSH2 0x221E PUSH2 0x625C JUMP JUMPDEST PUSH1 0x2 DUP2 GT ISZERO PUSH2 0x222F JUMPI PUSH2 0x222F PUSH2 0x625C JUMP JUMPDEST DUP2 MSTORE PUSH1 0x20 DUP1 DUP3 ADD SWAP3 SWAP1 SWAP3 MSTORE PUSH1 0x40 SWAP1 DUP2 ADD PUSH1 0x0 SWAP1 DUP2 KECCAK256 DUP5 DUP3 MSTORE DUP4 MSTORE DUP2 DUP2 KECCAK256 DUP1 SLOAD PUSH1 0x1 DUP2 ADD DUP3 SSTORE SWAP1 DUP3 MSTORE DUP4 DUP3 KECCAK256 ADD DUP11 SWAP1 SSTORE CALLER DUP2 MSTORE PUSH1 0x13 DUP4 MSTORE DUP2 DUP2 KECCAK256 PUSH1 0x16 SWAP1 SWAP4 MSTORE SWAP1 DUP2 KECCAK256 SLOAD PUSH1 0xFF AND PUSH1 0x2 DUP2 GT ISZERO PUSH2 0x2285 JUMPI PUSH2 0x2285 PUSH2 0x625C JUMP JUMPDEST PUSH1 0x2 DUP2 GT ISZERO PUSH2 0x2296 JUMPI PUSH2 0x2296 PUSH2 0x625C JUMP JUMPDEST DUP2 MSTORE PUSH1 0x20 DUP1 DUP3 ADD SWAP3 SWAP1 SWAP3 MSTORE PUSH1 0x40 SWAP1 DUP2 ADD PUSH1 0x0 SWAP1 DUP2 KECCAK256 DUP5 DUP3 MSTORE DUP4 MSTORE DUP2 DUP2 KECCAK256 DUP1 SLOAD PUSH1 0x1 DUP2 ADD DUP3 SSTORE SWAP1 DUP3 MSTORE DUP4 DUP3 KECCAK256 ADD DUP7 SWAP1 SSTORE CALLER DUP2 MSTORE PUSH1 0x14 DUP4 MSTORE DUP2 DUP2 KECCAK256 PUSH1 0x16 SWAP1 SWAP4 MSTORE SWAP1 DUP2 KECCAK256 SLOAD PUSH1 0xFF AND PUSH1 0x2 DUP2 GT ISZERO PUSH2 0x22EC JUMPI PUSH2 0x22EC PUSH2 0x625C JUMP JUMPDEST PUSH1 0x2 DUP2 GT ISZERO PUSH2 0x22FD JUMPI PUSH2 0x22FD PUSH2 0x625C JUMP JUMPDEST DUP2 MSTORE PUSH1 0x20 DUP1 DUP3 ADD SWAP3 SWAP1 SWAP3 MSTORE PUSH1 0x40 SWAP1 DUP2 ADD PUSH1 0x0 SWAP1 DUP2 KECCAK256 DUP5 DUP3 MSTORE DUP4 MSTORE DUP2 DUP2 KECCAK256 DUP1 SLOAD PUSH1 0x1 DUP2 ADD DUP3 SSTORE SWAP1 DUP3 MSTORE DUP4 DUP3 KECCAK256 PUSH1 0x8 DUP3 DIV ADD DUP1 SLOAD PUSH1 0x7 SWAP1 SWAP3 AND PUSH1 0x4 MUL PUSH2 0x100 EXP PUSH4 0xFFFFFFFF DUP2 DUP2 MUL NOT SWAP1 SWAP4 AND SWAP3 DUP12 AND MUL SWAP2 SWAP1 SWAP2 OR SWAP1 SSTORE CALLER DUP2 MSTORE PUSH1 0x11 DUP4 MSTORE DUP2 DUP2 KECCAK256 PUSH1 0x16 SWAP1 SWAP4 MSTORE SWAP1 DUP2 KECCAK256 SLOAD PUSH1 0xFF AND PUSH1 0x2 DUP2 GT ISZERO PUSH2 0x2378 JUMPI PUSH2 0x2378 PUSH2 0x625C JUMP JUMPDEST PUSH1 0x2 DUP2 GT ISZERO PUSH2 0x2389 JUMPI PUSH2 0x2389 PUSH2 0x625C JUMP JUMPDEST DUP2 MSTORE PUSH1 0x20 DUP1 DUP3 ADD SWAP3 SWAP1 SWAP3 MSTORE PUSH1 0x40 SWAP1 DUP2 ADD PUSH1 0x0 SWAP1 DUP2 KECCAK256 DUP5 DUP3 MSTORE SWAP1 SWAP3 MSTORE DUP2 KECCAK256 DUP1 SLOAD SWAP2 PUSH2 0x23B2 DUP4 PUSH2 0x65B5 JUMP JUMPDEST SWAP2 SWAP1 POP SSTORE POP POP JUMPDEST POP POP POP POP POP POP POP JUMP JUMPDEST PUSH1 0x60 PUSH1 0x4 DUP1 SLOAD DUP1 PUSH1 0x20 MUL PUSH1 0x20 ADD PUSH1 0x40 MLOAD SWAP1 DUP2 ADD PUSH1 0x40 MSTORE DUP1 SWAP3 SWAP2 SWAP1 DUP2 DUP2 MSTORE PUSH1 0x20 ADD DUP3 DUP1 SLOAD DUP1 ISZERO PUSH2 0x241A JUMPI PUSH1 0x20 MUL DUP3 ADD SWAP2 SWAP1 PUSH1 0x0 MSTORE PUSH1 0x20 PUSH1 0x0 KECCAK256 SWAP1 JUMPDEST DUP2 SLOAD PUSH1 0x1 PUSH1 0x1 PUSH1 0xA0 SHL SUB AND DUP2 MSTORE PUSH1 0x1 SWAP1 SWAP2 ADD SWAP1 PUSH1 0x20 ADD DUP1 DUP4 GT PUSH2 0x23FC JUMPI JUMPDEST POP POP POP POP POP SWAP1 POP SWAP1 JUMP JUMPDEST PUSH1 0x8 SLOAD PUSH1 0x1 PUSH1 0x1 PUSH1 0xA0 SHL SUB AND CALLER SUB PUSH2 0x2472 JUMPI PUSH1 0x40 MLOAD PUSH3 0x461BCD PUSH1 0xE5 SHL DUP2 MSTORE PUSH1 0x20 PUSH1 0x4 DUP3 ADD MSTORE PUSH1 0x11 PUSH1 0x24 DUP3 ADD MSTORE PUSH17 0x2CB7BA9030B932903A34329037BBB732B9 PUSH1 0x79 SHL PUSH1 0x44 DUP3 ADD MSTORE PUSH1 0x64 ADD PUSH2 0x720 JUMP JUMPDEST CALLER PUSH1 0x0 SWAP1 DUP2 MSTORE PUSH1 0x18 PUSH1 0x20 MSTORE PUSH1 0x40 SWAP1 KECCAK256 SLOAD PUSH1 0xFF AND ISZERO PUSH2 0x24D2 JUMPI PUSH1 0x40 MLOAD PUSH3 0x461BCD PUSH1 0xE5 SHL DUP2 MSTORE PUSH1 0x20 PUSH1 0x4 DUP3 ADD MSTORE PUSH1 0x1A PUSH1 0x24 DUP3 ADD MSTORE PUSH32 0x596F752061726520616C72656164792072656769737465726564000000000000 PUSH1 0x44 DUP3 ADD MSTORE PUSH1 0x64 ADD PUSH2 0x720 JUMP JUMPDEST PUSH1 0x40 MLOAD PUSH1 0x1 PUSH1 0x1 PUSH1 0xF0 SHL SUB NOT PUSH1 0xF0 DUP4 SWAP1 SHL AND PUSH1 0x20 DUP3 ADD MSTORE PUSH1 0x0 SWAP1 PUSH1 0x22 ADD PUSH1 0x40 MLOAD PUSH1 0x20 DUP2 DUP4 SUB SUB DUP2 MSTORE SWAP1 PUSH1 0x40 MSTORE DUP1 MLOAD SWAP1 PUSH1 0x20 ADD KECCAK256 PUSH1 0x0 SHR SWAP1 POP PUSH32 0x68A3979302A4CB21359668E4C72DD25D994EC899C117266CAACB15E75CC586E9 DUP2 SUB PUSH2 0x26FA JUMPI PUSH1 0x40 DUP1 MLOAD PUSH1 0xC0 DUP2 ADD DUP3 MSTORE CALLER DUP1 DUP3 MSTORE PUSH1 0x2 PUSH1 0x20 DUP1 DUP5 ADD DUP3 SWAP1 MSTORE PUSH1 0x1 DUP5 DUP7 ADD MSTORE PUSH1 0x0 PUSH1 0x60 DUP6 ADD DUP2 SWAP1 MSTORE PUSH1 0x80 DUP6 ADD DUP2 SWAP1 MSTORE PUSH1 0xA0 DUP6 ADD DUP4 SWAP1 MSTORE SWAP3 DUP4 MSTORE PUSH1 0x15 SWAP1 MSTORE SWAP3 DUP2 KECCAK256 SWAP2 SWAP3 DUP2 MSTORE PUSH1 0x20 DUP1 DUP3 ADD SWAP3 SWAP1 SWAP3 MSTORE PUSH1 0x40 ADD PUSH1 0x0 KECCAK256 DUP3 MLOAD DUP2 SLOAD PUSH1 0x1 PUSH1 0x1 PUSH1 0xA0 SHL SUB SWAP1 SWAP2 AND PUSH1 0x1 PUSH1 0x1 PUSH1 0xA0 SHL SUB NOT DUP3 AND DUP2 OR DUP4 SSTORE SWAP3 DUP5 ADD MLOAD SWAP2 SWAP3 DUP4 SWAP2 PUSH1 0x1 PUSH1 0x1 PUSH1 0xA8 SHL SUB NOT AND OR PUSH1 0x1 PUSH1 0xA0 SHL DUP4 PUSH1 0x2 DUP2 GT ISZERO PUSH2 0x25CB JUMPI PUSH2 0x25CB PUSH2 0x625C JUMP JUMPDEST MUL OR SWAP1 SSTORE POP PUSH1 0x40 DUP3 ADD MLOAD DUP2 SLOAD PUSH1 0x60 DUP5 ADD MLOAD PUSH1 0x80 DUP6 ADD MLOAD ISZERO ISZERO PUSH1 0x1 PUSH1 0xB8 SHL MUL PUSH1 0xFF PUSH1 0xB8 SHL NOT PUSH1 0xFF SWAP3 SWAP1 SWAP3 AND PUSH1 0x1 PUSH1 0xB0 SHL MUL PUSH1 0xFF PUSH1 0xB0 SHL NOT SWAP5 ISZERO ISZERO PUSH1 0x1 PUSH1 0xA8 SHL MUL SWAP5 SWAP1 SWAP5 AND PUSH2 0xFFFF PUSH1 0xA8 SHL NOT SWAP1 SWAP4 AND SWAP3 SWAP1 SWAP3 OR SWAP3 SWAP1 SWAP3 OR SWAP2 DUP3 AND DUP2 OR DUP4 SSTORE PUSH1 0xA0 DUP5 ADD MLOAD SWAP2 DUP4 SWAP2 PUSH1 0xFF PUSH1 0xC0 SHL NOT AND PUSH2 0xFFFF PUSH1 0xB8 SHL NOT SWAP1 SWAP2 AND OR PUSH1 0x1 PUSH1 0xC0 SHL DUP4 PUSH1 0x2 DUP2 GT ISZERO PUSH2 0x2658 JUMPI PUSH2 0x2658 PUSH2 0x625C JUMP JUMPDEST MUL OR SWAP1 SSTORE POP POP CALLER PUSH1 0x0 DUP2 DUP2 MSTORE PUSH1 0x16 PUSH1 0x20 SWAP1 DUP2 MSTORE PUSH1 0x40 DUP1 DUP4 KECCAK256 DUP1 SLOAD PUSH1 0x2 PUSH1 0xFF NOT SWAP1 SWAP2 AND DUP2 OR SWAP1 SWAP2 SSTORE PUSH1 0x17 DUP4 MSTORE SWAP1 DUP4 KECCAK256 DUP1 SLOAD PUSH1 0x1 DUP2 DUP2 ADD DUP4 SSTORE SWAP2 DUP6 MSTORE DUP4 DUP6 KECCAK256 SWAP4 DUP2 DIV SWAP1 SWAP4 ADD DUP1 SLOAD PUSH1 0xFF PUSH1 0x1F SWAP1 SWAP6 AND PUSH2 0x100 EXP SWAP5 DUP6 MUL NOT AND SWAP4 DUP4 MUL SWAP4 SWAP1 SWAP4 OR SWAP1 SWAP3 SSTORE DUP1 SLOAD SWAP2 DUP3 ADD DUP2 SSTORE SWAP1 SWAP2 MSTORE PUSH32 0x405787FA12A823E0F2B7631CC41B3BA8828B3321CA811111FA75CD3AA3BB5ACE ADD DUP1 SLOAD PUSH1 0x1 PUSH1 0x1 PUSH1 0xA0 SHL SUB NOT AND SWAP1 SWAP2 OR SWAP1 SSTORE POP PUSH2 0x2A96 JUMP JUMPDEST PUSH32 0x3121B941577EFDDF5181E856378EBABEB436D6B0DA310D5D74F0D334B60AB564 DUP2 SUB PUSH2 0x28DD JUMPI PUSH1 0x40 DUP1 MLOAD PUSH1 0xC0 DUP2 ADD DUP3 MSTORE CALLER DUP1 DUP3 MSTORE PUSH1 0x1 PUSH1 0x20 DUP1 DUP5 ADD DUP3 DUP2 MSTORE DUP5 DUP7 ADD DUP4 SWAP1 MSTORE PUSH1 0x0 PUSH1 0x60 DUP7 ADD DUP2 SWAP1 MSTORE PUSH1 0x80 DUP7 ADD DUP2 SWAP1 MSTORE PUSH1 0xA0 DUP7 ADD DUP5 SWAP1 MSTORE SWAP4 DUP5 MSTORE PUSH1 0x15 DUP3 MSTORE DUP6 DUP5 KECCAK256 SWAP3 DUP5 MSTORE SWAP2 SWAP1 MSTORE SWAP3 SWAP1 KECCAK256 DUP2 MLOAD DUP2 SLOAD PUSH1 0x1 PUSH1 0x1 PUSH1 0xA0 SHL SUB SWAP1 SWAP2 AND PUSH1 0x1 PUSH1 0x1 PUSH1 0xA0 SHL SUB NOT DUP3 AND DUP2 OR DUP4 SSTORE SWAP4 MLOAD SWAP3 SWAP4 SWAP2 SWAP3 SWAP2 DUP4 SWAP2 PUSH1 0x1 PUSH1 0x1 PUSH1 0xA8 SHL SUB NOT AND OR PUSH1 0x1 PUSH1 0xA0 SHL DUP4 PUSH1 0x2 DUP2 GT ISZERO PUSH2 0x27B2 JUMPI PUSH2 0x27B2 PUSH2 0x625C JUMP JUMPDEST MUL OR SWAP1 SSTORE POP PUSH1 0x40 DUP3 ADD MLOAD DUP2 SLOAD PUSH1 0x60 DUP5 ADD MLOAD PUSH1 0x80 DUP6 ADD MLOAD ISZERO ISZERO PUSH1 0x1 PUSH1 0xB8 SHL MUL PUSH1 0xFF PUSH1 0xB8 SHL NOT PUSH1 0xFF SWAP3 SWAP1 SWAP3 AND PUSH1 0x1 PUSH1 0xB0 SHL MUL PUSH1 0xFF PUSH1 0xB0 SHL NOT SWAP5 ISZERO ISZERO PUSH1 0x1 PUSH1 0xA8 SHL MUL SWAP5 SWAP1 SWAP5 AND PUSH2 0xFFFF PUSH1 0xA8 SHL NOT SWAP1 SWAP4 AND SWAP3 SWAP1 SWAP3 OR SWAP3 SWAP1 SWAP3 OR SWAP2 DUP3 AND DUP2 OR DUP4 SSTORE PUSH1 0xA0 DUP5 ADD MLOAD SWAP2 DUP4 SWAP2 PUSH1 0xFF PUSH1 0xC0 SHL NOT AND PUSH2 0xFFFF PUSH1 0xB8 SHL NOT SWAP1 SWAP2 AND OR PUSH1 0x1 PUSH1 0xC0 SHL DUP4 PUSH1 0x2 DUP2 GT ISZERO PUSH2 0x283F JUMPI PUSH2 0x283F PUSH2 0x625C JUMP JUMPDEST MUL OR SWAP1 SSTORE POP POP CALLER PUSH1 0x0 DUP2 DUP2 MSTORE PUSH1 0x16 PUSH1 0x20 SWAP1 DUP2 MSTORE PUSH1 0x40 DUP1 DUP4 KECCAK256 DUP1 SLOAD PUSH1 0xFF NOT AND PUSH1 0x1 SWAP1 DUP2 OR SWAP1 SWAP2 SSTORE PUSH1 0x17 DUP4 MSTORE SWAP1 DUP4 KECCAK256 DUP1 SLOAD DUP1 DUP4 ADD DUP3 SSTORE SWAP1 DUP5 MSTORE DUP3 DUP5 KECCAK256 SWAP3 DUP2 DIV SWAP1 SWAP3 ADD DUP1 SLOAD PUSH1 0x1F SWAP1 SWAP4 AND PUSH2 0x100 EXP PUSH1 0xFF DUP2 MUL NOT SWAP1 SWAP4 AND SWAP1 SWAP3 OR SWAP1 SWAP2 SSTORE PUSH1 0x3 DUP1 SLOAD SWAP2 DUP3 ADD DUP2 SSTORE SWAP1 SWAP2 MSTORE PUSH32 0xC2575A0E9E593C00F959F8C92F12DB2869C3395A3B0502D05E2516446F71F85B ADD DUP1 SLOAD PUSH1 0x1 PUSH1 0x1 PUSH1 0xA0 SHL SUB NOT AND SWAP1 SWAP2 OR SWAP1 SSTORE POP PUSH2 0x2A96 JUMP JUMPDEST DUP2 PUSH2 0xFFFF AND PUSH1 0x0 SUB PUSH2 0x2A96 JUMPI PUSH1 0x40 DUP1 MLOAD PUSH1 0xC0 DUP2 ADD DUP3 MSTORE CALLER DUP1 DUP3 MSTORE PUSH1 0x0 PUSH1 0x20 DUP1 DUP5 ADD DUP3 DUP2 MSTORE PUSH1 0x1 DUP6 DUP8 ADD MSTORE PUSH1 0x60 DUP6 ADD DUP4 SWAP1 MSTORE PUSH1 0x80 DUP6 ADD DUP4 SWAP1 MSTORE PUSH1 0xA0 DUP6 ADD DUP4 SWAP1 MSTORE SWAP3 DUP3 MSTORE PUSH1 0x15 DUP2 MSTORE DUP5 DUP3 KECCAK256 DUP3 DUP1 MSTORE SWAP1 MSTORE SWAP3 SWAP1 SWAP3 KECCAK256 DUP2 MLOAD DUP2 SLOAD PUSH1 0x1 PUSH1 0x1 PUSH1 0xA0 SHL SUB SWAP1 SWAP2 AND PUSH1 0x1 PUSH1 0x1 PUSH1 0xA0 SHL SUB NOT DUP3 AND DUP2 OR DUP4 SSTORE SWAP4 MLOAD SWAP3 SWAP4 SWAP2 SWAP3 SWAP2 DUP4 SWAP2 PUSH1 0x1 PUSH1 0x1 PUSH1 0xA8 SHL SUB NOT AND OR PUSH1 0x1 PUSH1 0xA0 SHL DUP4 PUSH1 0x2 DUP2 GT ISZERO PUSH2 0x2978 JUMPI PUSH2 0x2978 PUSH2 0x625C JUMP JUMPDEST MUL OR SWAP1 SSTORE POP PUSH1 0x40 DUP3 ADD MLOAD DUP2 SLOAD PUSH1 0x60 DUP5 ADD MLOAD PUSH1 0x80 DUP6 ADD MLOAD ISZERO ISZERO PUSH1 0x1 PUSH1 0xB8 SHL MUL PUSH1 0xFF PUSH1 0xB8 SHL NOT PUSH1 0xFF SWAP3 SWAP1 SWAP3 AND PUSH1 0x1 PUSH1 0xB0 SHL MUL PUSH1 0xFF PUSH1 0xB0 SHL NOT SWAP5 ISZERO ISZERO PUSH1 0x1 PUSH1 0xA8 SHL MUL SWAP5 SWAP1 SWAP5 AND PUSH2 0xFFFF PUSH1 0xA8 SHL NOT SWAP1 SWAP4 AND SWAP3 SWAP1 SWAP3 OR SWAP3 SWAP1 SWAP3 OR SWAP2 DUP3 AND DUP2 OR DUP4 SSTORE PUSH1 0xA0 DUP5 ADD MLOAD SWAP2 DUP4 SWAP2 PUSH1 0xFF PUSH1 0xC0 SHL NOT AND PUSH2 0xFFFF PUSH1 0xB8 SHL NOT SWAP1 SWAP2 AND OR PUSH1 0x1 PUSH1 0xC0 SHL DUP4 PUSH1 0x2 DUP2 GT ISZERO PUSH2 0x2A05 JUMPI PUSH2 0x2A05 PUSH2 0x625C JUMP JUMPDEST MUL OR SWAP1 SSTORE POP POP CALLER PUSH1 0x0 DUP2 DUP2 MSTORE PUSH1 0x16 PUSH1 0x20 SWAP1 DUP2 MSTORE PUSH1 0x40 DUP1 DUP4 KECCAK256 DUP1 SLOAD PUSH1 0xFF NOT AND SWAP1 SSTORE PUSH1 0x17 DUP3 MSTORE DUP3 KECCAK256 DUP1 SLOAD PUSH1 0x1 DUP2 DUP2 ADD DUP4 SSTORE SWAP2 DUP5 MSTORE DUP3 DUP5 KECCAK256 SWAP3 DUP2 DIV SWAP1 SWAP3 ADD DUP1 SLOAD PUSH1 0x1F SWAP1 SWAP4 AND PUSH2 0x100 EXP PUSH1 0xFF MUL NOT SWAP1 SWAP3 AND SWAP1 SWAP2 SSTORE PUSH1 0x4 DUP1 SLOAD SWAP2 DUP3 ADD DUP2 SSTORE SWAP1 SWAP2 MSTORE PUSH32 0x8A35ACFBC15FF81A39AE7D344FD709F28E8600B4AA8C65C6B64BFE7FE36BD19B ADD DUP1 SLOAD PUSH1 0x1 PUSH1 0x1 PUSH1 0xA0 SHL SUB NOT AND SWAP1 SWAP2 OR SWAP1 SSTORE POP JUMPDEST POP POP CALLER PUSH1 0x0 SWAP1 DUP2 MSTORE PUSH1 0x18 PUSH1 0x20 MSTORE PUSH1 0x40 SWAP1 KECCAK256 DUP1 SLOAD PUSH1 0xFF NOT AND PUSH1 0x1 OR SWAP1 SSTORE JUMP JUMPDEST PUSH1 0x1 PUSH1 0x1 PUSH1 0xA0 SHL SUB DUP2 AND PUSH1 0x0 SWAP1 DUP2 MSTORE PUSH1 0x10 PUSH1 0x20 SWAP1 DUP2 MSTORE PUSH1 0x40 DUP1 DUP4 KECCAK256 PUSH1 0x16 SWAP1 SWAP3 MSTORE DUP3 KECCAK256 SLOAD PUSH1 0x60 SWAP3 SWAP2 SWAP1 DUP3 SWAP1 PUSH1 0xFF AND PUSH1 0x2 DUP2 GT ISZERO PUSH2 0x2AF2 JUMPI PUSH2 0x2AF2 PUSH2 0x625C JUMP JUMPDEST PUSH1 0x2 DUP2 GT ISZERO PUSH2 0x2B03 JUMPI PUSH2 0x2B03 PUSH2 0x625C JUMP JUMPDEST DUP2 MSTORE PUSH1 0x20 ADD SWAP1 DUP2 MSTORE PUSH1 0x20 ADD PUSH1 0x0 KECCAK256 DUP1 SLOAD DUP1 PUSH1 0x20 MUL PUSH1 0x20 ADD PUSH1 0x40 MLOAD SWAP1 DUP2 ADD PUSH1 0x40 MSTORE DUP1 SWAP3 SWAP2 SWAP1 DUP2 DUP2 MSTORE PUSH1 0x20 ADD PUSH1 0x0 SWAP1 JUMPDEST DUP3 DUP3 LT ISZERO PUSH2 0x2BDD JUMPI DUP4 DUP3 SWAP1 PUSH1 0x0 MSTORE PUSH1 0x20 PUSH1 0x0 KECCAK256 ADD DUP1 SLOAD PUSH2 0x2B50 SWAP1 PUSH2 0x653C JUMP JUMPDEST DUP1 PUSH1 0x1F ADD PUSH1 0x20 DUP1 SWAP2 DIV MUL PUSH1 0x20 ADD PUSH1 0x40 MLOAD SWAP1 DUP2 ADD PUSH1 0x40 MSTORE DUP1 SWAP3 SWAP2 SWAP1 DUP2 DUP2 MSTORE PUSH1 0x20 ADD DUP3 DUP1 SLOAD PUSH2 0x2B7C SWAP1 PUSH2 0x653C JUMP JUMPDEST DUP1 ISZERO PUSH2 0x2BC9 JUMPI DUP1 PUSH1 0x1F LT PUSH2 0x2B9E JUMPI PUSH2 0x100 DUP1 DUP4 SLOAD DIV MUL DUP4 MSTORE SWAP2 PUSH1 0x20 ADD SWAP2 PUSH2 0x2BC9 JUMP JUMPDEST DUP3 ADD SWAP2 SWAP1 PUSH1 0x0 MSTORE PUSH1 0x20 PUSH1 0x0 KECCAK256 SWAP1 JUMPDEST DUP2 SLOAD DUP2 MSTORE SWAP1 PUSH1 0x1 ADD SWAP1 PUSH1 0x20 ADD DUP1 DUP4 GT PUSH2 0x2BAC JUMPI DUP3 SWAP1 SUB PUSH1 0x1F AND DUP3 ADD SWAP2 JUMPDEST POP POP POP POP POP DUP2 MSTORE PUSH1 0x20 ADD SWAP1 PUSH1 0x1 ADD SWAP1 PUSH2 0x2B31 JUMP JUMPDEST POP POP POP POP SWAP1 POP PUSH1 0x0 DUP2 MLOAD SWAP1 POP PUSH1 0x0 DUP1 DUP3 PUSH8 0xFFFFFFFFFFFFFFFF DUP2 GT ISZERO PUSH2 0x2C05 JUMPI PUSH2 0x2C05 PUSH2 0x6140 JUMP JUMPDEST PUSH1 0x40 MLOAD SWAP1 DUP1 DUP3 MSTORE DUP1 PUSH1 0x20 MUL PUSH1 0x20 ADD DUP3 ADD PUSH1 0x40 MSTORE DUP1 ISZERO PUSH2 0x2C38 JUMPI DUP2 PUSH1 0x20 ADD JUMPDEST PUSH1 0x60 DUP2 MSTORE PUSH1 0x20 ADD SWAP1 PUSH1 0x1 SWAP1 SUB SWAP1 DUP2 PUSH2 0x2C23 JUMPI SWAP1 POP JUMPDEST POP SWAP1 POP PUSH1 0x0 JUMPDEST DUP4 DUP2 LT ISZERO PUSH2 0x2CAE JUMPI PUSH1 0x0 PUSH2 0x2C6B DUP9 DUP8 DUP5 DUP2 MLOAD DUP2 LT PUSH2 0x2C5E JUMPI PUSH2 0x2C5E PUSH2 0x6576 JUMP JUMPDEST PUSH1 0x20 MUL PUSH1 0x20 ADD ADD MLOAD PUSH2 0x41E8 JUMP JUMPDEST SWAP1 POP DUP1 MLOAD DUP5 PUSH2 0x2C7A SWAP2 SWAP1 PUSH2 0x65A2 JUMP JUMPDEST SWAP4 POP DUP1 DUP4 DUP4 DUP2 MLOAD DUP2 LT PUSH2 0x2C8F JUMPI PUSH2 0x2C8F PUSH2 0x6576 JUMP JUMPDEST PUSH1 0x20 MUL PUSH1 0x20 ADD ADD DUP2 SWAP1 MSTORE POP POP DUP1 DUP1 PUSH2 0x2CA6 SWAP1 PUSH2 0x65B5 JUMP JUMPDEST SWAP2 POP POP PUSH2 0x2C3E JUMP JUMPDEST POP PUSH1 0x0 DUP3 PUSH8 0xFFFFFFFFFFFFFFFF DUP2 GT ISZERO PUSH2 0x2CCA JUMPI PUSH2 0x2CCA PUSH2 0x6140 JUMP JUMPDEST PUSH1 0x40 MLOAD SWAP1 DUP1 DUP3 MSTORE DUP1 PUSH1 0x20 MUL PUSH1 0x20 ADD DUP3 ADD PUSH1 0x40 MSTORE DUP1 ISZERO PUSH2 0x2D03 JUMPI DUP2 PUSH1 0x20 ADD JUMPDEST PUSH2 0x2CF0 PUSH2 0x5ED4 JUMP JUMPDEST DUP2 MSTORE PUSH1 0x20 ADD SWAP1 PUSH1 0x1 SWAP1 SUB SWAP1 DUP2 PUSH2 0x2CE8 JUMPI SWAP1 POP JUMPDEST POP SWAP1 POP PUSH1 0x0 SWAP3 POP PUSH1 0x0 JUMPDEST DUP5 DUP2 LT ISZERO PUSH2 0x2F12 JUMPI PUSH1 0x0 DUP4 DUP3 DUP2 MLOAD DUP2 LT PUSH2 0x2D29 JUMPI PUSH2 0x2D29 PUSH2 0x6576 JUMP JUMPDEST PUSH1 0x20 MUL PUSH1 0x20 ADD ADD MLOAD SWAP1 POP PUSH1 0x0 JUMPDEST DUP2 MLOAD DUP2 LT ISZERO PUSH2 0x2EFD JUMPI PUSH1 0x1 PUSH1 0x1 PUSH1 0xA0 SHL SUB DUP11 AND PUSH1 0x0 SWAP1 DUP2 MSTORE PUSH1 0xF PUSH1 0x20 SWAP1 DUP2 MSTORE PUSH1 0x40 DUP1 DUP4 KECCAK256 PUSH1 0x16 SWAP1 SWAP3 MSTORE DUP3 KECCAK256 SLOAD SWAP1 SWAP2 SWAP1 PUSH1 0xFF AND PUSH1 0x2 DUP2 GT ISZERO PUSH2 0x2D79 JUMPI PUSH2 0x2D79 PUSH2 0x625C JUMP JUMPDEST PUSH1 0x2 DUP2 GT ISZERO PUSH2 0x2D8A JUMPI PUSH2 0x2D8A PUSH2 0x625C JUMP JUMPDEST DUP2 MSTORE PUSH1 0x20 ADD SWAP1 DUP2 MSTORE PUSH1 0x20 ADD PUSH1 0x0 KECCAK256 PUSH1 0x0 DUP4 DUP4 DUP2 MLOAD DUP2 LT PUSH2 0x2DAC JUMPI PUSH2 0x2DAC PUSH2 0x6576 JUMP JUMPDEST PUSH1 0x20 MUL PUSH1 0x20 ADD ADD MLOAD DUP2 MSTORE PUSH1 0x20 ADD SWAP1 DUP2 MSTORE PUSH1 0x20 ADD PUSH1 0x0 KECCAK256 PUSH1 0x40 MLOAD DUP1 PUSH1 0xC0 ADD PUSH1 0x40 MSTORE SWAP1 DUP2 PUSH1 0x0 DUP3 ADD DUP1 SLOAD PUSH2 0x2DDD SWAP1 PUSH2 0x653C JUMP JUMPDEST DUP1 PUSH1 0x1F ADD PUSH1 0x20 DUP1 SWAP2 DIV MUL PUSH1 0x20 ADD PUSH1 0x40 MLOAD SWAP1 DUP2 ADD PUSH1 0x40 MSTORE DUP1 SWAP3 SWAP2 SWAP1 DUP2 DUP2 MSTORE PUSH1 0x20 ADD DUP3 DUP1 SLOAD PUSH2 0x2E09 SWAP1 PUSH2 0x653C JUMP JUMPDEST DUP1 ISZERO PUSH2 0x2E56 JUMPI DUP1 PUSH1 0x1F LT PUSH2 0x2E2B JUMPI PUSH2 0x100 DUP1 DUP4 SLOAD DIV MUL DUP4 MSTORE SWAP2 PUSH1 0x20 ADD SWAP2 PUSH2 0x2E56 JUMP JUMPDEST DUP3 ADD SWAP2 SWAP1 PUSH1 0x0 MSTORE PUSH1 0x20 PUSH1 0x0 KECCAK256 SWAP1 JUMPDEST DUP2 SLOAD DUP2 MSTORE SWAP1 PUSH1 0x1 ADD SWAP1 PUSH1 0x20 ADD DUP1 DUP4 GT PUSH2 0x2E39 JUMPI DUP3 SWAP1 SUB PUSH1 0x1F AND DUP3 ADD SWAP2 JUMPDEST POP POP POP SWAP2 DUP4 MSTORE POP POP PUSH1 0x1 DUP3 ADD SLOAD PUSH1 0x20 DUP3 ADD MSTORE PUSH1 0x2 DUP1 DUP4 ADD SLOAD PUSH1 0x40 DUP4 ADD MSTORE PUSH1 0x3 DUP4 ADD SLOAD PUSH1 0x60 DUP4 ADD MSTORE PUSH1 0x4 DUP4 ADD SLOAD PUSH4 0xFFFFFFFF DUP2 AND PUSH1 0x80 DUP5 ADD MSTORE PUSH1 0xA0 SWAP1 SWAP3 ADD SWAP2 PUSH1 0x1 PUSH1 0x20 SHL SWAP1 DIV PUSH1 0xFF AND SWAP1 DUP2 GT ISZERO PUSH2 0x2EAE JUMPI PUSH2 0x2EAE PUSH2 0x625C JUMP JUMPDEST PUSH1 0x2 DUP2 GT ISZERO PUSH2 0x2EBF JUMPI PUSH2 0x2EBF PUSH2 0x625C JUMP JUMPDEST SWAP1 MSTORE POP DUP5 DUP8 PUSH2 0x2ECD DUP2 PUSH2 0x65B5 JUMP JUMPDEST SWAP9 POP DUP2 MLOAD DUP2 LT PUSH2 0x2EDF JUMPI PUSH2 0x2EDF PUSH2 0x6576 JUMP JUMPDEST PUSH1 0x20 MUL PUSH1 0x20 ADD ADD DUP2 SWAP1 MSTORE POP DUP1 DUP1 PUSH2 0x2EF5 SWAP1 PUSH2 0x65B5 JUMP JUMPDEST SWAP2 POP POP PUSH2 0x2D36 JUMP JUMPDEST POP POP DUP1 DUP1 PUSH2 0x2F0A SWAP1 PUSH2 0x65B5 JUMP JUMPDEST SWAP2 POP POP PUSH2 0x2D0D JUMP JUMPDEST POP SWAP7 SWAP6 POP POP POP POP POP POP JUMP JUMPDEST PUSH1 0x8 SLOAD PUSH1 0x1 PUSH1 0x1 PUSH1 0xA0 SHL SUB AND CALLER EQ PUSH2 0x2F47 JUMPI PUSH1 0x40 MLOAD PUSH3 0x461BCD PUSH1 0xE5 SHL DUP2 MSTORE PUSH1 0x4 ADD PUSH2 0x720 SWAP1 PUSH2 0x6786 JUMP JUMPDEST PUSH1 0x0 PUSH1 0x5 DUP3 DUP2 SLOAD DUP2 LT PUSH2 0x2F5C JUMPI PUSH2 0x2F5C PUSH2 0x6576 JUMP JUMPDEST PUSH1 0x0 SWAP2 DUP3 MSTORE PUSH1 0x20 DUP1 DUP4 KECCAK256 SWAP1 SWAP2 ADD SLOAD PUSH1 0x1 PUSH1 0x1 PUSH1 0xA0 SHL SUB AND DUP1 DUP4 MSTORE PUSH1 0x16 DUP3 MSTORE PUSH1 0x40 DUP1 DUP5 KECCAK256 SLOAD PUSH1 0x15 SWAP1 SWAP4 MSTORE DUP4 KECCAK256 SWAP1 SWAP4 POP PUSH1 0xFF SWAP1 SWAP2 AND SWAP2 SWAP1 DUP2 DUP4 PUSH1 0x2 DUP2 GT ISZERO PUSH2 0x2FA4 JUMPI PUSH2 0x2FA4 PUSH2 0x625C JUMP JUMPDEST PUSH1 0x2 DUP2 GT ISZERO PUSH2 0x2FB5 JUMPI PUSH2 0x2FB5 PUSH2 0x625C JUMP JUMPDEST DUP2 MSTORE PUSH1 0x20 DUP1 DUP3 ADD SWAP3 SWAP1 SWAP3 MSTORE PUSH1 0x40 SWAP1 DUP2 ADD PUSH1 0x0 KECCAK256 DUP2 MLOAD PUSH1 0xC0 DUP2 ADD SWAP1 SWAP3 MSTORE DUP1 SLOAD PUSH1 0x1 PUSH1 0x1 PUSH1 0xA0 SHL SUB DUP2 AND DUP4 MSTORE SWAP2 SWAP3 SWAP1 SWAP2 SWAP1 DUP4 ADD SWAP1 PUSH1 0x1 PUSH1 0xA0 SHL SWAP1 DIV PUSH1 0xFF AND PUSH1 0x2 DUP2 GT ISZERO PUSH2 0x3002 JUMPI PUSH2 0x3002 PUSH2 0x625C JUMP JUMPDEST PUSH1 0x2 DUP2 GT ISZERO PUSH2 0x3013 JUMPI PUSH2 0x3013 PUSH2 0x625C JUMP JUMPDEST DUP2 MSTORE DUP2 SLOAD PUSH1 0xFF PUSH1 0x1 PUSH1 0xA8 SHL DUP3 DIV DUP2 AND ISZERO ISZERO PUSH1 0x20 DUP5 ADD MSTORE PUSH1 0x1 PUSH1 0xB0 SHL DUP3 DIV DUP2 AND PUSH1 0x40 DUP5 ADD MSTORE PUSH1 0x1 PUSH1 0xB8 SHL DUP3 DIV DUP2 AND ISZERO ISZERO PUSH1 0x60 DUP5 ADD MSTORE PUSH1 0x80 SWAP1 SWAP3 ADD SWAP2 PUSH1 0x1 PUSH1 0xC0 SHL SWAP1 SWAP2 DIV AND PUSH1 0x2 DUP2 GT ISZERO PUSH2 0x3067 JUMPI PUSH2 0x3067 PUSH2 0x625C JUMP JUMPDEST PUSH1 0x2 DUP2 GT ISZERO PUSH2 0x3078 JUMPI PUSH2 0x3078 PUSH2 0x625C JUMP JUMPDEST SWAP1 MSTORE POP PUSH1 0x1 PUSH1 0x1 PUSH1 0xA0 SHL SUB DUP5 AND PUSH1 0x0 SWAP1 DUP2 MSTORE PUSH1 0x16 PUSH1 0x20 SWAP1 DUP2 MSTORE PUSH1 0x40 DUP1 DUP4 KECCAK256 SLOAD PUSH1 0x15 SWAP1 SWAP3 MSTORE DUP3 KECCAK256 SWAP3 SWAP4 POP PUSH1 0xFF AND SWAP2 SWAP1 DUP5 PUSH1 0x2 DUP2 GT ISZERO PUSH2 0x30B8 JUMPI PUSH2 0x30B8 PUSH2 0x625C JUMP JUMPDEST PUSH1 0x2 DUP2 GT ISZERO PUSH2 0x30C9 JUMPI PUSH2 0x30C9 PUSH2 0x625C JUMP JUMPDEST DUP2 MSTORE PUSH1 0x20 DUP2 ADD SWAP2 SWAP1 SWAP2 MSTORE PUSH1 0x40 ADD PUSH1 0x0 KECCAK256 DUP1 SLOAD PUSH1 0xFF PUSH1 0xC0 SHL NOT AND PUSH1 0x1 PUSH1 0xC0 SHL DUP4 PUSH1 0x2 DUP2 GT ISZERO PUSH2 0x30F9 JUMPI PUSH2 0x30F9 PUSH2 0x625C JUMP JUMPDEST MUL OR SWAP1 SSTORE POP PUSH1 0x1 PUSH1 0x1 PUSH1 0xA0 SHL SUB DUP4 AND PUSH1 0x0 SWAP1 DUP2 MSTORE PUSH1 0x15 PUSH1 0x20 MSTORE PUSH1 0x40 DUP2 KECCAK256 DUP2 DUP5 PUSH1 0x2 DUP2 GT ISZERO PUSH2 0x3129 JUMPI PUSH2 0x3129 PUSH2 0x625C JUMP JUMPDEST PUSH1 0x2 DUP2 GT ISZERO PUSH2 0x313A JUMPI PUSH2 0x313A PUSH2 0x625C JUMP JUMPDEST DUP2 MSTORE PUSH1 0x20 DUP1 DUP3 ADD SWAP3 SWAP1 SWAP3 MSTORE PUSH1 0x40 SWAP1 DUP2 ADD PUSH1 0x0 SWAP1 DUP2 KECCAK256 DUP1 SLOAD SWAP5 ISZERO ISZERO PUSH1 0x1 PUSH1 0xB8 SHL MUL PUSH1 0xFF PUSH1 0xB8 SHL NOT SWAP1 SWAP6 AND SWAP5 SWAP1 SWAP5 OR SWAP1 SWAP4 SSTORE PUSH1 0xA0 DUP5 ADD MLOAD PUSH1 0x1 PUSH1 0x1 PUSH1 0xA0 SHL SUB DUP8 AND DUP5 MSTORE PUSH1 0x17 DUP4 MSTORE DUP2 DUP5 KECCAK256 DUP1 SLOAD DUP4 MLOAD DUP2 DUP7 MUL DUP2 ADD DUP7 ADD SWAP1 SWAP5 MSTORE DUP1 DUP5 MSTORE SWAP2 SWAP5 SWAP4 SWAP1 SWAP2 SWAP1 DUP4 ADD DUP3 DUP3 DUP1 ISZERO PUSH2 0x31F8 JUMPI PUSH1 0x20 MUL DUP3 ADD SWAP2 SWAP1 PUSH1 0x0 MSTORE PUSH1 0x20 PUSH1 0x0 KECCAK256 SWAP1 PUSH1 0x0 SWAP1 JUMPDEST DUP3 DUP3 SWAP1 SLOAD SWAP1 PUSH2 0x100 EXP SWAP1 DIV PUSH1 0xFF AND PUSH1 0x2 DUP2 GT ISZERO PUSH2 0x31D6 JUMPI PUSH2 0x31D6 PUSH2 0x625C JUMP JUMPDEST DUP2 MSTORE PUSH1 0x20 PUSH1 0x1 SWAP3 DUP4 ADD DUP2 DUP2 DIV SWAP5 DUP6 ADD SWAP5 SWAP1 SWAP4 SUB SWAP1 SWAP3 MUL SWAP2 ADD DUP1 DUP5 GT PUSH2 0x31B7 JUMPI SWAP1 POP JUMPDEST POP POP POP POP POP SWAP1 POP PUSH1 0x0 PUSH1 0x1 SWAP1 POP PUSH1 0x0 JUMPDEST DUP3 MLOAD DUP2 PUSH1 0xFF AND LT ISZERO PUSH2 0x3274 JUMPI DUP4 PUSH1 0x2 DUP2 GT ISZERO PUSH2 0x3226 JUMPI PUSH2 0x3226 PUSH2 0x625C JUMP JUMPDEST DUP4 DUP3 PUSH1 0xFF AND DUP2 MLOAD DUP2 LT PUSH2 0x323B JUMPI PUSH2 0x323B PUSH2 0x6576 JUMP JUMPDEST PUSH1 0x20 MUL PUSH1 0x20 ADD ADD MLOAD PUSH1 0x2 DUP2 GT ISZERO PUSH2 0x3254 JUMPI PUSH2 0x3254 PUSH2 0x625C JUMP JUMPDEST SUB PUSH2 0x3262 JUMPI PUSH1 0x0 SWAP2 POP PUSH2 0x3274 JUMP JUMPDEST DUP1 PUSH2 0x326C DUP2 PUSH2 0x67C8 JUMP JUMPDEST SWAP2 POP POP PUSH2 0x3208 JUMP JUMPDEST POP DUP1 ISZERO PUSH2 0x3523 JUMPI PUSH1 0x40 MLOAD DUP1 PUSH1 0xC0 ADD PUSH1 0x40 MSTORE DUP1 DUP8 PUSH1 0x1 PUSH1 0x1 PUSH1 0xA0 SHL SUB AND DUP2 MSTORE PUSH1 0x20 ADD DUP5 PUSH1 0x2 DUP2 GT ISZERO PUSH2 0x32A7 JUMPI PUSH2 0x32A7 PUSH2 0x625C JUMP JUMPDEST DUP2 MSTORE PUSH1 0x1 PUSH1 0x20 DUP3 ADD MSTORE PUSH1 0x0 PUSH1 0x40 DUP3 ADD DUP2 SWAP1 MSTORE PUSH1 0x60 DUP3 ADD MSTORE PUSH1 0x80 ADD DUP5 PUSH1 0x2 DUP2 GT ISZERO PUSH2 0x32D3 JUMPI PUSH2 0x32D3 PUSH2 0x625C JUMP JUMPDEST SWAP1 MSTORE PUSH1 0x1 PUSH1 0x1 PUSH1 0xA0 SHL SUB DUP8 AND PUSH1 0x0 SWAP1 DUP2 MSTORE PUSH1 0x15 PUSH1 0x20 MSTORE PUSH1 0x40 DUP2 KECCAK256 SWAP1 DUP6 PUSH1 0x2 DUP2 GT ISZERO PUSH2 0x3300 JUMPI PUSH2 0x3300 PUSH2 0x625C JUMP JUMPDEST PUSH1 0x2 DUP2 GT ISZERO PUSH2 0x3311 JUMPI PUSH2 0x3311 PUSH2 0x625C JUMP JUMPDEST DUP2 MSTORE PUSH1 0x20 DUP1 DUP3 ADD SWAP3 SWAP1 SWAP3 MSTORE PUSH1 0x40 ADD PUSH1 0x0 KECCAK256 DUP3 MLOAD DUP2 SLOAD PUSH1 0x1 PUSH1 0x1 PUSH1 0xA0 SHL SUB SWAP1 SWAP2 AND PUSH1 0x1 PUSH1 0x1 PUSH1 0xA0 SHL SUB NOT DUP3 AND DUP2 OR DUP4 SSTORE SWAP3 DUP5 ADD MLOAD SWAP2 SWAP3 DUP4 SWAP2 PUSH1 0x1 PUSH1 0x1 PUSH1 0xA8 SHL SUB NOT AND OR PUSH1 0x1 PUSH1 0xA0 SHL DUP4 PUSH1 0x2 DUP2 GT ISZERO PUSH2 0x336A JUMPI PUSH2 0x336A PUSH2 0x625C JUMP JUMPDEST MUL OR SWAP1 SSTORE POP PUSH1 0x40 DUP3 ADD MLOAD DUP2 SLOAD PUSH1 0x60 DUP5 ADD MLOAD PUSH1 0x80 DUP6 ADD MLOAD ISZERO ISZERO PUSH1 0x1 PUSH1 0xB8 SHL MUL PUSH1 0xFF PUSH1 0xB8 SHL NOT PUSH1 0xFF SWAP3 SWAP1 SWAP3 AND PUSH1 0x1 PUSH1 0xB0 SHL MUL PUSH1 0xFF PUSH1 0xB0 SHL NOT SWAP5 ISZERO ISZERO PUSH1 0x1 PUSH1 0xA8 SHL MUL SWAP5 SWAP1 SWAP5 AND PUSH2 0xFFFF PUSH1 0xA8 SHL NOT SWAP1 SWAP4 AND SWAP3 SWAP1 SWAP3 OR SWAP3 SWAP1 SWAP3 OR SWAP2 DUP3 AND DUP2 OR DUP4 SSTORE PUSH1 0xA0 DUP5 ADD MLOAD SWAP2 DUP4 SWAP2 PUSH1 0xFF PUSH1 0xC0 SHL NOT AND PUSH2 0xFFFF PUSH1 0xB8 SHL NOT SWAP1 SWAP2 AND OR PUSH1 0x1 PUSH1 0xC0 SHL DUP4 PUSH1 0x2 DUP2 GT ISZERO PUSH2 0x33F7 JUMPI PUSH2 0x33F7 PUSH2 0x625C JUMP JUMPDEST MUL OR SWAP1 SSTORE POP PUSH1 0x2 SWAP2 POP PUSH2 0x3407 SWAP1 POP JUMP JUMPDEST DUP4 PUSH1 0x2 DUP2 GT ISZERO PUSH2 0x3419 JUMPI PUSH2 0x3419 PUSH2 0x625C JUMP JUMPDEST SUB PUSH2 0x346E JUMPI PUSH1 0x2 DUP1 SLOAD PUSH1 0x1 DUP2 ADD DUP3 SSTORE PUSH1 0x0 SWAP2 SWAP1 SWAP2 MSTORE PUSH32 0x405787FA12A823E0F2B7631CC41B3BA8828B3321CA811111FA75CD3AA3BB5ACE ADD DUP1 SLOAD PUSH1 0x1 PUSH1 0x1 PUSH1 0xA0 SHL SUB NOT AND PUSH1 0x1 PUSH1 0x1 PUSH1 0xA0 SHL SUB DUP9 AND OR SWAP1 SSTORE PUSH2 0x3523 JUMP JUMPDEST PUSH1 0x1 DUP4 PUSH1 0x2 DUP2 GT ISZERO PUSH2 0x3482 JUMPI PUSH2 0x3482 PUSH2 0x625C JUMP JUMPDEST SUB PUSH2 0x34D7 JUMPI PUSH1 0x3 DUP1 SLOAD PUSH1 0x1 DUP2 ADD DUP3 SSTORE PUSH1 0x0 SWAP2 SWAP1 SWAP2 MSTORE PUSH32 0xC2575A0E9E593C00F959F8C92F12DB2869C3395A3B0502D05E2516446F71F85B ADD DUP1 SLOAD PUSH1 0x1 PUSH1 0x1 PUSH1 0xA0 SHL SUB NOT AND PUSH1 0x1 PUSH1 0x1 PUSH1 0xA0 SHL SUB DUP9 AND OR SWAP1 SSTORE PUSH2 0x3523 JUMP JUMPDEST PUSH1 0x4 DUP1 SLOAD PUSH1 0x1 DUP2 ADD DUP3 SSTORE PUSH1 0x0 SWAP2 SWAP1 SWAP2 MSTORE PUSH32 0x8A35ACFBC15FF81A39AE7D344FD709F28E8600B4AA8C65C6B64BFE7FE36BD19B ADD DUP1 SLOAD PUSH1 0x1 PUSH1 0x1 PUSH1 0xA0 SHL SUB NOT AND PUSH1 0x1 PUSH1 0x1 PUSH1 0xA0 SHL SUB DUP9 AND OR SWAP1 SSTORE JUMPDEST PUSH1 0x1 PUSH1 0x1 PUSH1 0xA0 SHL SUB DUP7 AND PUSH1 0x0 SWAP1 DUP2 MSTORE PUSH1 0x16 PUSH1 0x20 MSTORE PUSH1 0x40 SWAP1 KECCAK256 DUP1 SLOAD DUP5 SWAP2 SWAP1 PUSH1 0xFF NOT AND PUSH1 0x1 DUP4 PUSH1 0x2 DUP2 GT ISZERO PUSH2 0x3558 JUMPI PUSH2 0x3558 PUSH2 0x625C JUMP JUMPDEST MUL OR SWAP1 SSTORE POP PUSH2 0x3566 DUP8 PUSH2 0x5B6B JUMP JUMPDEST PUSH1 0x40 MLOAD PUSH1 0x1 PUSH1 0x1 PUSH1 0xA0 SHL SUB DUP8 AND DUP2 MSTORE PUSH32 0xCB9054348EEB239E4B91FD1D9120CF1F3DDE30908900F73321AA901553340F49 SWAP1 PUSH1 0x20 ADD PUSH1 0x40 MLOAD DUP1 SWAP2 SUB SWAP1 LOG1 POP POP POP POP POP POP POP JUMP JUMPDEST PUSH1 0x0 PUSH1 0x1 DUP1 CALLER PUSH1 0x0 SWAP1 DUP2 MSTORE PUSH1 0x16 PUSH1 0x20 MSTORE PUSH1 0x40 SWAP1 KECCAK256 SLOAD PUSH1 0xFF AND PUSH1 0x2 DUP2 GT ISZERO PUSH2 0x35D4 JUMPI PUSH2 0x35D4 PUSH2 0x625C JUMP JUMPDEST EQ PUSH2 0x35F2 JUMPI PUSH1 0x40 MLOAD PUSH4 0x7824841 PUSH1 0xE2 SHL DUP2 MSTORE PUSH1 0x4 ADD PUSH1 0x40 MLOAD DUP1 SWAP2 SUB SWAP1 REVERT JUMPDEST CALLER PUSH1 0x0 SWAP1 DUP2 MSTORE PUSH1 0x9 PUSH1 0x20 MSTORE PUSH1 0x40 SWAP1 KECCAK256 SLOAD SWAP2 POP JUMPDEST POP SWAP1 JUMP JUMPDEST PUSH1 0x8 SLOAD PUSH1 0x60 SWAP1 PUSH1 0x1 PUSH1 0x1 PUSH1 0xA0 SHL SUB AND CALLER EQ PUSH2 0x3636 JUMPI PUSH1 0x40 MLOAD PUSH3 0x461BCD PUSH1 0xE5 SHL DUP2 MSTORE PUSH1 0x4 ADD PUSH2 0x720 SWAP1 PUSH2 0x6786 JUMP JUMPDEST PUSH1 0x7 DUP1 SLOAD DUP1 PUSH1 0x20 MUL PUSH1 0x20 ADD PUSH1 0x40 MLOAD SWAP1 DUP2 ADD PUSH1 0x40 MSTORE DUP1 SWAP3 SWAP2 SWAP1 DUP2 DUP2 MSTORE PUSH1 0x20 ADD DUP3 DUP1 SLOAD DUP1 ISZERO PUSH2 0x241A JUMPI PUSH1 0x20 MUL DUP3 ADD SWAP2 SWAP1 PUSH1 0x0 MSTORE PUSH1 0x20 PUSH1 0x0 KECCAK256 SWAP1 JUMPDEST DUP2 SLOAD DUP2 MSTORE PUSH1 0x20 ADD SWAP1 PUSH1 0x1 ADD SWAP1 DUP1 DUP4 GT PUSH2 0x366E JUMPI POP POP POP POP POP SWAP1 POP SWAP1 JUMP JUMPDEST PUSH1 0x60 PUSH1 0x1 DUP1 CALLER PUSH1 0x0 SWAP1 DUP2 MSTORE PUSH1 0x16 PUSH1 0x20 MSTORE PUSH1 0x40 SWAP1 KECCAK256 SLOAD PUSH1 0xFF AND PUSH1 0x2 DUP2 GT ISZERO PUSH2 0x36B4 JUMPI PUSH2 0x36B4 PUSH2 0x625C JUMP JUMPDEST EQ PUSH2 0x36D2 JUMPI PUSH1 0x40 MLOAD PUSH4 0x7824841 PUSH1 0xE2 SHL DUP2 MSTORE PUSH1 0x4 ADD PUSH1 0x40 MLOAD DUP1 SWAP2 SUB SWAP1 REVERT JUMPDEST CALLER PUSH1 0x0 SWAP1 DUP2 MSTORE PUSH1 0x9 PUSH1 0x20 SWAP1 DUP2 MSTORE PUSH1 0x40 SWAP2 DUP3 SWAP1 KECCAK256 DUP1 SLOAD DUP4 MLOAD DUP2 DUP5 MUL DUP2 ADD DUP5 ADD SWAP1 SWAP5 MSTORE DUP1 DUP5 MSTORE SWAP1 SWAP2 DUP4 ADD DUP3 DUP3 DUP1 ISZERO PUSH2 0x3731 JUMPI PUSH1 0x20 MUL DUP3 ADD SWAP2 SWAP1 PUSH1 0x0 MSTORE PUSH1 0x20 PUSH1 0x0 KECCAK256 SWAP1 JUMPDEST DUP2 SLOAD PUSH1 0x1 PUSH1 0x1 PUSH1 0xA0 SHL SUB AND DUP2 MSTORE PUSH1 0x1 SWAP1 SWAP2 ADD SWAP1 PUSH1 0x20 ADD DUP1 DUP4 GT PUSH2 0x3713 JUMPI JUMPDEST POP POP POP POP POP SWAP2 POP POP SWAP1 JUMP JUMPDEST CALLER PUSH1 0x0 SWAP1 DUP2 MSTORE PUSH1 0x15 PUSH1 0x20 SWAP1 DUP2 MSTORE PUSH1 0x40 DUP1 DUP4 KECCAK256 PUSH1 0x16 SWAP1 SWAP3 MSTORE DUP3 KECCAK256 SLOAD SWAP1 SWAP2 SWAP1 PUSH1 0xFF AND PUSH1 0x2 DUP2 GT ISZERO PUSH2 0x376D JUMPI PUSH2 0x376D PUSH2 0x625C JUMP JUMPDEST PUSH1 0x2 DUP2 GT ISZERO PUSH2 0x377E JUMPI PUSH2 0x377E PUSH2 0x625C JUMP JUMPDEST DUP2 MSTORE PUSH1 0x20 DUP2 ADD SWAP2 SWAP1 SWAP2 MSTORE PUSH1 0x40 ADD PUSH1 0x0 KECCAK256 SLOAD PUSH1 0x1 PUSH1 0xA8 SHL SWAP1 DIV PUSH1 0xFF AND PUSH2 0x37B8 JUMPI PUSH1 0x40 MLOAD PUSH4 0x89129CF PUSH1 0xE4 SHL DUP2 MSTORE CALLER PUSH1 0x4 DUP3 ADD MSTORE PUSH1 0x24 ADD PUSH2 0x720 JUMP JUMPDEST PUSH1 0x8 SLOAD PUSH1 0x1 PUSH1 0x1 PUSH1 0xA0 SHL SUB AND CALLER SUB PUSH2 0x3806 JUMPI PUSH1 0x40 MLOAD PUSH3 0x461BCD PUSH1 0xE5 SHL DUP2 MSTORE PUSH1 0x20 PUSH1 0x4 DUP3 ADD MSTORE PUSH1 0x11 PUSH1 0x24 DUP3 ADD MSTORE PUSH17 0x2CB7BA9030B932903A34329037BBB732B9 PUSH1 0x79 SHL PUSH1 0x44 DUP3 ADD MSTORE PUSH1 0x64 ADD PUSH2 0x720 JUMP JUMPDEST CALLER PUSH1 0x0 SWAP1 DUP2 MSTORE PUSH1 0x16 PUSH1 0x20 SWAP1 DUP2 MSTORE PUSH1 0x40 DUP1 DUP4 KECCAK256 SLOAD PUSH1 0x15 SWAP1 SWAP3 MSTORE DUP3 KECCAK256 PUSH1 0xFF SWAP1 SWAP2 AND SWAP2 DUP3 PUSH1 0x2 DUP2 GT ISZERO PUSH2 0x3838 JUMPI PUSH2 0x3838 PUSH2 0x625C JUMP JUMPDEST PUSH1 0x2 DUP2 GT ISZERO PUSH2 0x3849 JUMPI PUSH2 0x3849 PUSH2 0x625C JUMP JUMPDEST DUP2 MSTORE PUSH1 0x20 DUP2 ADD SWAP2 SWAP1 SWAP2 MSTORE PUSH1 0x40 ADD PUSH1 0x0 KECCAK256 SLOAD PUSH1 0x1 PUSH1 0xB8 SHL SWAP1 DIV PUSH1 0xFF AND ISZERO PUSH2 0x38CC JUMPI PUSH1 0x40 MLOAD PUSH3 0x461BCD PUSH1 0xE5 SHL DUP2 MSTORE PUSH1 0x20 PUSH1 0x4 DUP3 ADD MSTORE PUSH1 0x32 PUSH1 0x24 DUP3 ADD MSTORE PUSH32 0x596F75206861766520616C72656164792073656E742061207265717565737420 PUSH1 0x44 DUP3 ADD MSTORE PUSH18 0x746F206368616E67652074686520726F6C65 PUSH1 0x70 SHL PUSH1 0x64 DUP3 ADD MSTORE PUSH1 0x84 ADD PUSH2 0x720 JUMP JUMPDEST PUSH1 0x0 PUSH2 0x38D7 DUP4 PUSH2 0x5B00 JUMP JUMPDEST SWAP1 POP PUSH2 0x38F1 PUSH1 0x40 MLOAD DUP1 PUSH1 0x20 ADD PUSH1 0x40 MSTORE DUP1 PUSH1 0x0 DUP2 MSTORE POP PUSH2 0x5B00 JUMP JUMPDEST DUP2 SUB PUSH2 0x3910 JUMPI PUSH1 0x40 MLOAD PUSH4 0x29B386C7 PUSH1 0xE0 SHL DUP2 MSTORE PUSH1 0x4 ADD PUSH1 0x40 MLOAD DUP1 SWAP2 SUB SWAP1 REVERT JUMPDEST PUSH2 0x3939 PUSH1 0x40 MLOAD DUP1 PUSH1 0x40 ADD PUSH1 0x40 MSTORE DUP1 PUSH1 0x8 DUP2 MSTORE PUSH1 0x20 ADD PUSH8 0x29AAA8282624A2A9 PUSH1 0xC1 SHL DUP2 MSTORE POP PUSH2 0x5B00 JUMP JUMPDEST DUP2 SUB PUSH2 0x39AD JUMPI CALLER PUSH1 0x0 SWAP1 DUP2 MSTORE PUSH1 0x15 PUSH1 0x20 MSTORE PUSH1 0x40 DUP2 KECCAK256 PUSH1 0x2 SWAP2 DUP5 DUP4 DUP2 GT ISZERO PUSH2 0x3962 JUMPI PUSH2 0x3962 PUSH2 0x625C JUMP JUMPDEST PUSH1 0x2 DUP2 GT ISZERO PUSH2 0x3973 JUMPI PUSH2 0x3973 PUSH2 0x625C JUMP JUMPDEST DUP2 MSTORE PUSH1 0x20 DUP2 ADD SWAP2 SWAP1 SWAP2 MSTORE PUSH1 0x40 ADD PUSH1 0x0 KECCAK256 DUP1 SLOAD PUSH1 0xFF PUSH1 0xC0 SHL NOT AND PUSH1 0x1 PUSH1 0xC0 SHL DUP4 PUSH1 0x2 DUP2 GT ISZERO PUSH2 0x39A3 JUMPI PUSH2 0x39A3 PUSH2 0x625C JUMP JUMPDEST MUL OR SWAP1 SSTORE POP PUSH2 0x3A65 JUMP JUMPDEST PUSH2 0x39D3 PUSH1 0x40 MLOAD DUP1 PUSH1 0x40 ADD PUSH1 0x40 MSTORE DUP1 PUSH1 0x5 DUP2 MSTORE PUSH1 0x20 ADD PUSH5 0x53544F5245 PUSH1 0xD8 SHL DUP2 MSTORE POP PUSH2 0x5B00 JUMP JUMPDEST DUP2 SUB PUSH2 0x39FD JUMPI CALLER PUSH1 0x0 SWAP1 DUP2 MSTORE PUSH1 0x15 PUSH1 0x20 MSTORE PUSH1 0x40 DUP2 KECCAK256 PUSH1 0x1 SWAP2 DUP5 PUSH1 0x2 DUP2 GT ISZERO PUSH2 0x3962 JUMPI PUSH2 0x3962 PUSH2 0x625C JUMP JUMPDEST PUSH2 0x3A22 PUSH1 0x40 MLOAD DUP1 PUSH1 0x40 ADD PUSH1 0x40 MSTORE DUP1 PUSH1 0x4 DUP2 MSTORE PUSH1 0x20 ADD PUSH4 0x2AA9A2A9 PUSH1 0xE1 SHL DUP2 MSTORE POP PUSH2 0x5B00 JUMP JUMPDEST DUP2 SUB PUSH2 0x3A4A JUMPI CALLER PUSH1 0x0 SWAP1 DUP2 MSTORE PUSH1 0x15 PUSH1 0x20 MSTORE PUSH1 0x40 DUP2 KECCAK256 DUP2 DUP5 PUSH1 0x2 DUP2 GT ISZERO PUSH2 0x3962 JUMPI PUSH2 0x3962 PUSH2 0x625C JUMP JUMPDEST DUP3 PUSH1 0x40 MLOAD PUSH4 0x4F63F9CD PUSH1 0xE1 SHL DUP2 MSTORE PUSH1 0x4 ADD PUSH2 0x720 SWAP2 SWAP1 PUSH2 0x660E JUMP JUMPDEST CALLER PUSH1 0x0 SWAP1 DUP2 MSTORE PUSH1 0x15 PUSH1 0x20 MSTORE PUSH1 0x40 DUP2 KECCAK256 PUSH1 0x1 SWAP2 DUP5 PUSH1 0x2 DUP2 GT ISZERO PUSH2 0x3A89 JUMPI PUSH2 0x3A89 PUSH2 0x625C JUMP JUMPDEST PUSH1 0x2 DUP2 GT ISZERO PUSH2 0x3A9A JUMPI PUSH2 0x3A9A PUSH2 0x625C JUMP JUMPDEST DUP2 MSTORE PUSH1 0x20 DUP2 ADD SWAP2 SWAP1 SWAP2 MSTORE PUSH1 0x40 ADD PUSH1 0x0 SWAP1 DUP2 KECCAK256 DUP1 SLOAD SWAP3 ISZERO ISZERO PUSH1 0x1 PUSH1 0xB8 SHL MUL PUSH1 0xFF PUSH1 0xB8 SHL NOT SWAP1 SWAP4 AND SWAP3 SWAP1 SWAP3 OR SWAP1 SWAP2 SSTORE PUSH1 0x5 DUP1 SLOAD PUSH1 0x1 DUP2 ADD DUP3 SSTORE SWAP2 MSTORE PUSH32 0x36B6384B5ECA791C62761152D0C79BB0604C104A5FB6F4EB0703F3154BB3DB0 ADD DUP1 SLOAD PUSH1 0x1 PUSH1 0x1 PUSH1 0xA0 SHL SUB NOT AND CALLER OR SWAP1 SSTORE POP POP POP JUMP JUMPDEST PUSH1 0x8 SLOAD PUSH1 0x60 SWAP1 PUSH1 0x1 PUSH1 0x1 PUSH1 0xA0 SHL SUB AND CALLER EQ PUSH2 0x3B37 JUMPI PUSH1 0x40 MLOAD PUSH3 0x461BCD PUSH1 0xE5 SHL DUP2 MSTORE PUSH1 0x4 ADD PUSH2 0x720 SWAP1 PUSH2 0x6786 JUMP JUMPDEST PUSH1 0x1 DUP1 SLOAD DUP1 PUSH1 0x20 MUL PUSH1 0x20 ADD PUSH1 0x40 MLOAD SWAP1 DUP2 ADD PUSH1 0x40 MSTORE DUP1 SWAP3 SWAP2 SWAP1 DUP2 DUP2 MSTORE PUSH1 0x20 ADD DUP3 DUP1 SLOAD DUP1 ISZERO PUSH2 0x241A JUMPI PUSH1 0x20 MUL DUP3 ADD SWAP2 SWAP1 PUSH1 0x0 MSTORE PUSH1 0x20 PUSH1 0x0 KECCAK256 SWAP1 DUP2 SLOAD PUSH1 0x1 PUSH1 0x1 PUSH1 0xA0 SHL SUB AND DUP2 MSTORE PUSH1 0x1 SWAP1 SWAP2 ADD SWAP1 PUSH1 0x20 ADD DUP1 DUP4 GT PUSH2 0x23FC JUMPI POP POP POP POP POP SWAP1 POP SWAP1 JUMP JUMPDEST PUSH1 0x0 PUSH1 0x1 DUP1 CALLER PUSH1 0x0 SWAP1 DUP2 MSTORE PUSH1 0x16 PUSH1 0x20 MSTORE PUSH1 0x40 SWAP1 KECCAK256 SLOAD PUSH1 0xFF AND PUSH1 0x2 DUP2 GT ISZERO PUSH2 0x3BBE JUMPI PUSH2 0x3BBE PUSH2 0x625C JUMP JUMPDEST EQ PUSH2 0x3BDC JUMPI PUSH1 0x40 MLOAD PUSH4 0x7824841 PUSH1 0xE2 SHL DUP2 MSTORE PUSH1 0x4 ADD PUSH1 0x40 MLOAD DUP1 SWAP2 SUB SWAP1 REVERT JUMPDEST PUSH1 0x0 DUP1 JUMPDEST CALLER PUSH1 0x0 SWAP1 DUP2 MSTORE PUSH1 0xA PUSH1 0x20 MSTORE PUSH1 0x40 SWAP1 KECCAK256 SLOAD DUP2 LT ISZERO PUSH2 0x3C42 JUMPI CALLER PUSH1 0x0 SWAP1 DUP2 MSTORE PUSH1 0xA PUSH1 0x20 MSTORE PUSH1 0x40 SWAP1 KECCAK256 DUP1 SLOAD DUP3 SWAP1 DUP2 LT PUSH2 0x3C18 JUMPI PUSH2 0x3C18 PUSH2 0x6576 JUMP JUMPDEST SWAP1 PUSH1 0x0 MSTORE PUSH1 0x20 PUSH1 0x0 KECCAK256 ADD SLOAD DUP3 PUSH2 0x3C2E SWAP2 SWAP1 PUSH2 0x65A2 JUMP JUMPDEST SWAP2 POP DUP1 PUSH2 0x3C3A DUP2 PUSH2 0x65B5 JUMP JUMPDEST SWAP2 POP POP PUSH2 0x3BE0 JUMP JUMPDEST POP SWAP2 POP POP SWAP1 JUMP JUMPDEST PUSH1 0x60 PUSH1 0x0 PUSH2 0x3C57 DUP5 DUP5 PUSH2 0x41E8 JUMP JUMPDEST DUP1 MLOAD SWAP1 SWAP2 POP PUSH1 0x0 DUP2 PUSH8 0xFFFFFFFFFFFFFFFF DUP2 GT ISZERO PUSH2 0x3C77 JUMPI PUSH2 0x3C77 PUSH2 0x6140 JUMP JUMPDEST PUSH1 0x40 MLOAD SWAP1 DUP1 DUP3 MSTORE DUP1 PUSH1 0x20 MUL PUSH1 0x20 ADD DUP3 ADD PUSH1 0x40 MSTORE DUP1 ISZERO PUSH2 0x3CB0 JUMPI DUP2 PUSH1 0x20 ADD JUMPDEST PUSH2 0x3C9D PUSH2 0x5ED4 JUMP JUMPDEST DUP2 MSTORE PUSH1 0x20 ADD SWAP1 PUSH1 0x1 SWAP1 SUB SWAP1 DUP2 PUSH2 0x3C95 JUMPI SWAP1 POP JUMPDEST POP SWAP1 POP PUSH1 0x0 JUMPDEST DUP3 DUP2 LT ISZERO PUSH2 0x3E72 JUMPI PUSH1 0x1 PUSH1 0x1 PUSH1 0xA0 SHL SUB DUP8 AND PUSH1 0x0 SWAP1 DUP2 MSTORE PUSH1 0xF PUSH1 0x20 SWAP1 DUP2 MSTORE PUSH1 0x40 DUP1 DUP4 KECCAK256 PUSH1 0x16 SWAP1 SWAP3 MSTORE DUP3 KECCAK256 SLOAD SWAP1 SWAP2 SWAP1 PUSH1 0xFF AND PUSH1 0x2 DUP2 GT ISZERO PUSH2 0x3CF8 JUMPI PUSH2 0x3CF8 PUSH2 0x625C JUMP JUMPDEST PUSH1 0x2 DUP2 GT ISZERO PUSH2 0x3D09 JUMPI PUSH2 0x3D09 PUSH2 0x625C JUMP JUMPDEST DUP2 MSTORE PUSH1 0x20 ADD SWAP1 DUP2 MSTORE PUSH1 0x20 ADD PUSH1 0x0 KECCAK256 PUSH1 0x0 DUP6 DUP4 DUP2 MLOAD DUP2 LT PUSH2 0x3D2B JUMPI PUSH2 0x3D2B PUSH2 0x6576 JUMP JUMPDEST PUSH1 0x20 MUL PUSH1 0x20 ADD ADD MLOAD DUP2 MSTORE PUSH1 0x20 ADD SWAP1 DUP2 MSTORE PUSH1 0x20 ADD PUSH1 0x0 KECCAK256 PUSH1 0x40 MLOAD DUP1 PUSH1 0xC0 ADD PUSH1 0x40 MSTORE SWAP1 DUP2 PUSH1 0x0 DUP3 ADD DUP1 SLOAD PUSH2 0x3D5C SWAP1 PUSH2 0x653C JUMP JUMPDEST DUP1 PUSH1 0x1F ADD PUSH1 0x20 DUP1 SWAP2 DIV MUL PUSH1 0x20 ADD PUSH1 0x40 MLOAD SWAP1 DUP2 ADD PUSH1 0x40 MSTORE DUP1 SWAP3 SWAP2 SWAP1 DUP2 DUP2 MSTORE PUSH1 0x20 ADD DUP3 DUP1 SLOAD PUSH2 0x3D88 SWAP1 PUSH2 0x653C JUMP JUMPDEST DUP1 ISZERO PUSH2 0x3DD5 JUMPI DUP1 PUSH1 0x1F LT PUSH2 0x3DAA JUMPI PUSH2 0x100 DUP1 DUP4 SLOAD DIV MUL DUP4 MSTORE SWAP2 PUSH1 0x20 ADD SWAP2 PUSH2 0x3DD5 JUMP JUMPDEST DUP3 ADD SWAP2 SWAP1 PUSH1 0x0 MSTORE PUSH1 0x20 PUSH1 0x0 KECCAK256 SWAP1 JUMPDEST DUP2 SLOAD DUP2 MSTORE SWAP1 PUSH1 0x1 ADD SWAP1 PUSH1 0x20 ADD DUP1 DUP4 GT PUSH2 0x3DB8 JUMPI DUP3 SWAP1 SUB PUSH1 0x1F AND DUP3 ADD SWAP2 JUMPDEST POP POP POP SWAP2 DUP4 MSTORE POP POP PUSH1 0x1 DUP3 ADD SLOAD PUSH1 0x20 DUP3 ADD MSTORE PUSH1 0x2 DUP1 DUP4 ADD SLOAD PUSH1 0x40 DUP4 ADD MSTORE PUSH1 0x3 DUP4 ADD SLOAD PUSH1 0x60 DUP4 ADD MSTORE PUSH1 0x4 DUP4 ADD SLOAD PUSH4 0xFFFFFFFF DUP2 AND PUSH1 0x80 DUP5 ADD MSTORE PUSH1 0xA0 SWAP1 SWAP3 ADD SWAP2 PUSH1 0x1 PUSH1 0x20 SHL SWAP1 DIV PUSH1 0xFF AND SWAP1 DUP2 GT ISZERO PUSH2 0x3E2D JUMPI PUSH2 0x3E2D PUSH2 0x625C JUMP JUMPDEST PUSH1 0x2 DUP2 GT ISZERO PUSH2 0x3E3E JUMPI PUSH2 0x3E3E PUSH2 0x625C JUMP JUMPDEST DUP2 MSTORE POP POP DUP3 DUP3 DUP2 MLOAD DUP2 LT PUSH2 0x3E54 JUMPI PUSH2 0x3E54 PUSH2 0x6576 JUMP JUMPDEST PUSH1 0x20 MUL PUSH1 0x20 ADD ADD DUP2 SWAP1 MSTORE POP DUP1 DUP1 PUSH2 0x3E6A SWAP1 PUSH2 0x65B5 JUMP JUMPDEST SWAP2 POP POP PUSH2 0x3CB6 JUMP JUMPDEST POP SWAP3 POP POP POP JUMPDEST SWAP3 SWAP2 POP POP JUMP JUMPDEST CALLER PUSH1 0x0 SWAP1 DUP2 MSTORE PUSH1 0x15 PUSH1 0x20 SWAP1 DUP2 MSTORE PUSH1 0x40 DUP1 DUP4 KECCAK256 PUSH1 0x16 SWAP1 SWAP3 MSTORE DUP3 KECCAK256 SLOAD SWAP1 SWAP2 SWAP1 PUSH1 0xFF AND PUSH1 0x2 DUP2 GT ISZERO PUSH2 0x3EAF JUMPI PUSH2 0x3EAF PUSH2 0x625C JUMP JUMPDEST PUSH1 0x2 DUP2 GT ISZERO PUSH2 0x3EC0 JUMPI PUSH2 0x3EC0 PUSH2 0x625C JUMP JUMPDEST DUP2 MSTORE PUSH1 0x20 DUP2 ADD SWAP2 SWAP1 SWAP2 MSTORE PUSH1 0x40 ADD PUSH1 0x0 KECCAK256 SLOAD PUSH1 0x1 PUSH1 0xA8 SHL SWAP1 DIV PUSH1 0xFF AND PUSH2 0x3EFA JUMPI PUSH1 0x40 MLOAD PUSH4 0x89129CF PUSH1 0xE4 SHL DUP2 MSTORE CALLER PUSH1 0x4 DUP3 ADD MSTORE PUSH1 0x24 ADD PUSH2 0x720 JUMP JUMPDEST PUSH1 0x1 PUSH1 0x1 PUSH1 0xA0 SHL SUB DUP2 AND CALLER SUB PUSH2 0x3F60 JUMPI PUSH1 0x40 MLOAD PUSH3 0x461BCD PUSH1 0xE5 SHL DUP2 MSTORE PUSH1 0x20 PUSH1 0x4 DUP3 ADD MSTORE PUSH1 0x25 PUSH1 0x24 DUP3 ADD MSTORE PUSH32 0x596F752063616E27742067697665206120646973636F756E7420746F20796F75 PUSH1 0x44 DUP3 ADD MSTORE PUSH5 0x3939B2B633 PUSH1 0xD9 SHL PUSH1 0x64 DUP3 ADD MSTORE PUSH1 0x84 ADD PUSH2 0x720 JUMP JUMPDEST PUSH1 0x1 PUSH1 0x1 PUSH1 0xA0 SHL SUB DUP2 AND PUSH1 0x0 SWAP1 DUP2 MSTORE PUSH1 0x15 PUSH1 0x20 SWAP1 DUP2 MSTORE PUSH1 0x40 DUP1 DUP4 KECCAK256 PUSH1 0x16 SWAP1 SWAP3 MSTORE DUP3 KECCAK256 SLOAD DUP3 SWAP1 PUSH1 0xFF AND PUSH1 0x2 DUP2 GT ISZERO PUSH2 0x3F99 JUMPI PUSH2 0x3F99 PUSH2 0x625C JUMP JUMPDEST PUSH1 0x2 DUP2 GT ISZERO PUSH2 0x3FAA JUMPI PUSH2 0x3FAA PUSH2 0x625C JUMP JUMPDEST DUP2 MSTORE PUSH1 0x20 DUP2 ADD SWAP2 SWAP1 SWAP2 MSTORE PUSH1 0x40 ADD PUSH1 0x0 KECCAK256 SLOAD PUSH1 0x1 PUSH1 0xA0 SHL SWAP1 DIV PUSH1 0xFF AND PUSH1 0x2 DUP2 GT ISZERO PUSH2 0x3FD6 JUMPI PUSH2 0x3FD6 PUSH2 0x625C JUMP JUMPDEST EQ PUSH2 0x4036 JUMPI PUSH1 0x40 MLOAD PUSH3 0x461BCD PUSH1 0xE5 SHL DUP2 MSTORE PUSH1 0x20 PUSH1 0x4 DUP3 ADD MSTORE PUSH1 0x2A PUSH1 0x24 DUP3 ADD MSTORE PUSH32 0x54686520646973636F756E742063616E206F6E6C7920626520676976656E2062 PUSH1 0x44 DUP3 ADD MSTORE PUSH10 0x3C903A3432903AB9B2B9 PUSH1 0xB1 SHL PUSH1 0x64 DUP3 ADD MSTORE PUSH1 0x84 ADD PUSH2 0x720 JUMP JUMPDEST CALLER PUSH1 0x0 SWAP1 DUP2 MSTORE PUSH1 0xD PUSH1 0x20 SWAP1 DUP2 MSTORE PUSH1 0x40 DUP1 DUP4 KECCAK256 PUSH1 0x1 PUSH1 0x1 PUSH1 0xA0 SHL SUB DUP6 AND DUP5 MSTORE SWAP1 SWAP2 MSTORE SWAP1 KECCAK256 SLOAD PUSH1 0xFF AND ISZERO PUSH2 0x40C1 JUMPI PUSH1 0x40 MLOAD PUSH3 0x461BCD PUSH1 0xE5 SHL DUP2 MSTORE PUSH1 0x20 PUSH1 0x4 DUP3 ADD MSTORE PUSH1 0x2E PUSH1 0x24 DUP3 ADD MSTORE PUSH32 0x596F75206861766520616C726561647920676976656E206120646973636F756E PUSH1 0x44 DUP3 ADD MSTORE PUSH14 0x3A103A37903A3434B9903AB9B2B9 PUSH1 0x91 SHL PUSH1 0x64 DUP3 ADD MSTORE PUSH1 0x84 ADD PUSH2 0x720 JUMP JUMPDEST PUSH1 0x1 PUSH1 0x1 PUSH1 0xA0 SHL SUB DUP2 AND PUSH1 0x0 SWAP1 DUP2 MSTORE PUSH1 0xB PUSH1 0x20 MSTORE PUSH1 0x40 SWAP1 KECCAK256 SLOAD ISZERO PUSH2 0x4127 JUMPI PUSH1 0x40 MLOAD PUSH3 0x461BCD PUSH1 0xE5 SHL DUP2 MSTORE PUSH1 0x20 PUSH1 0x4 DUP3 ADD DUP2 SWAP1 MSTORE PUSH1 0x24 DUP3 ADD MSTORE PUSH32 0x54686973207573657220616C726561647920686173206120646973636F756E74 PUSH1 0x44 DUP3 ADD MSTORE PUSH1 0x64 ADD PUSH2 0x720 JUMP JUMPDEST PUSH1 0x40 MLOAD PUSH12 0xFFFFFFFFFFFFFFFFFFFFFFFF NOT PUSH1 0x60 DUP4 DUP2 SHL DUP3 AND PUSH1 0x20 DUP5 ADD MSTORE TIMESTAMP PUSH1 0x34 DUP5 ADD MSTORE CALLER SWAP1 SHL AND PUSH1 0x54 DUP3 ADD MSTORE PUSH1 0x0 SWAP1 PUSH1 0x68 ADD PUSH1 0x40 DUP1 MLOAD PUSH1 0x1F NOT DUP2 DUP5 SUB ADD DUP2 MSTORE DUP3 DUP3 MSTORE DUP1 MLOAD PUSH1 0x20 SWAP2 DUP3 ADD KECCAK256 CALLER PUSH1 0x0 DUP2 DUP2 MSTORE PUSH1 0xD DUP5 MSTORE DUP5 DUP2 KECCAK256 PUSH1 0x1 PUSH1 0x1 PUSH1 0xA0 SHL SUB DUP10 AND DUP3 MSTORE DUP5 MSTORE DUP5 DUP2 KECCAK256 DUP1 SLOAD PUSH1 0xFF NOT AND PUSH1 0x1 OR SWAP1 SSTORE PUSH1 0xB DUP5 MSTORE DUP5 DUP2 KECCAK256 DUP4 SWAP1 SSTORE PUSH1 0xC DUP5 MSTORE DUP5 SWAP1 KECCAK256 DUP1 SLOAD PUSH1 0x1 PUSH1 0x1 PUSH1 0xA0 SHL SUB NOT AND SWAP1 SWAP2 OR SWAP1 SSTORE DUP4 DUP4 ADD SWAP1 SWAP3 MSTORE PUSH1 0xE DUP4 MSTORE PUSH14 0x2932B332B93930B61031B7B2329D PUSH1 0x91 SHL SWAP1 DUP4 ADD MSTORE SWAP2 POP PUSH2 0x1B63 SWAP1 DUP3 PUSH2 0x5ABB JUMP JUMPDEST PUSH1 0x1 PUSH1 0x1 PUSH1 0xA0 SHL SUB DUP3 AND PUSH1 0x0 SWAP1 DUP2 MSTORE PUSH1 0x10 PUSH1 0x20 SWAP1 DUP2 MSTORE PUSH1 0x40 DUP1 DUP4 KECCAK256 PUSH1 0x16 SWAP1 SWAP3 MSTORE DUP3 KECCAK256 SLOAD PUSH1 0x60 SWAP3 DUP6 SWAP3 DUP6 SWAP3 DUP3 SWAP2 SWAP1 DUP3 SWAP1 PUSH1 0xFF AND PUSH1 0x2 DUP2 GT ISZERO PUSH2 0x422B JUMPI PUSH2 0x422B PUSH2 0x625C JUMP JUMPDEST PUSH1 0x2 DUP2 GT ISZERO PUSH2 0x423C JUMPI PUSH2 0x423C PUSH2 0x625C JUMP JUMPDEST DUP2 MSTORE PUSH1 0x20 ADD SWAP1 DUP2 MSTORE PUSH1 0x20 ADD PUSH1 0x0 KECCAK256 DUP1 SLOAD DUP1 PUSH1 0x20 MUL PUSH1 0x20 ADD PUSH1 0x40 MLOAD SWAP1 DUP2 ADD PUSH1 0x40 MSTORE DUP1 SWAP3 SWAP2 SWAP1 DUP2 DUP2 MSTORE PUSH1 0x20 ADD PUSH1 0x0 SWAP1 JUMPDEST DUP3 DUP3 LT ISZERO PUSH2 0x4316 JUMPI DUP4 DUP3 SWAP1 PUSH1 0x0 MSTORE PUSH1 0x20 PUSH1 0x0 KECCAK256 ADD DUP1 SLOAD PUSH2 0x4289 SWAP1 PUSH2 0x653C JUMP JUMPDEST DUP1 PUSH1 0x1F ADD PUSH1 0x20 DUP1 SWAP2 DIV MUL PUSH1 0x20 ADD PUSH1 0x40 MLOAD SWAP1 DUP2 ADD PUSH1 0x40 MSTORE DUP1 SWAP3 SWAP2 SWAP1 DUP2 DUP2 MSTORE PUSH1 0x20 ADD DUP3 DUP1 SLOAD PUSH2 0x42B5 SWAP1 PUSH2 0x653C JUMP JUMPDEST DUP1 ISZERO PUSH2 0x4302 JUMPI DUP1 PUSH1 0x1F LT PUSH2 0x42D7 JUMPI PUSH2 0x100 DUP1 DUP4 SLOAD DIV MUL DUP4 MSTORE SWAP2 PUSH1 0x20 ADD SWAP2 PUSH2 0x4302 JUMP JUMPDEST DUP3 ADD SWAP2 SWAP1 PUSH1 0x0 MSTORE PUSH1 0x20 PUSH1 0x0 KECCAK256 SWAP1 JUMPDEST DUP2 SLOAD DUP2 MSTORE SWAP1 PUSH1 0x1 ADD SWAP1 PUSH1 0x20 ADD DUP1 DUP4 GT PUSH2 0x42E5 JUMPI DUP3 SWAP1 SUB PUSH1 0x1F AND DUP3 ADD SWAP2 JUMPDEST POP POP POP POP POP DUP2 MSTORE PUSH1 0x20 ADD SWAP1 PUSH1 0x1 ADD SWAP1 PUSH2 0x426A JUMP JUMPDEST POP POP POP POP SWAP1 POP PUSH1 0x0 JUMPDEST DUP2 MLOAD DUP2 LT ISZERO PUSH2 0x4373 JUMPI PUSH2 0x4331 DUP5 PUSH2 0x5B00 JUMP JUMPDEST PUSH2 0x4353 DUP4 DUP4 DUP2 MLOAD DUP2 LT PUSH2 0x4346 JUMPI PUSH2 0x4346 PUSH2 0x6576 JUMP JUMPDEST PUSH1 0x20 MUL PUSH1 0x20 ADD ADD MLOAD PUSH2 0x5B00 JUMP JUMPDEST SUB PUSH2 0x4361 JUMPI PUSH1 0x1 SWAP3 POP PUSH2 0x4373 JUMP JUMPDEST DUP1 PUSH2 0x436B DUP2 PUSH2 0x65B5 JUMP JUMPDEST SWAP2 POP POP PUSH2 0x431F JUMP JUMPDEST POP DUP2 PUSH2 0x4394 JUMPI DUP3 PUSH1 0x40 MLOAD PUSH4 0xEF0098D1 PUSH1 0xE0 SHL DUP2 MSTORE PUSH1 0x4 ADD PUSH2 0x720 SWAP2 SWAP1 PUSH2 0x660E JUMP JUMPDEST PUSH1 0x0 PUSH2 0x439F DUP8 PUSH2 0x5B00 JUMP JUMPDEST PUSH1 0x1 PUSH1 0x1 PUSH1 0xA0 SHL SUB DUP10 AND PUSH1 0x0 SWAP1 DUP2 MSTORE PUSH1 0x11 PUSH1 0x20 SWAP1 DUP2 MSTORE PUSH1 0x40 DUP1 DUP4 KECCAK256 PUSH1 0x16 SWAP1 SWAP3 MSTORE DUP3 KECCAK256 SLOAD SWAP3 SWAP4 POP SWAP1 SWAP2 DUP3 SWAP1 PUSH1 0xFF AND PUSH1 0x2 DUP2 GT ISZERO PUSH2 0x43DD JUMPI PUSH2 0x43DD PUSH2 0x625C JUMP JUMPDEST PUSH1 0x2 DUP2 GT ISZERO PUSH2 0x43EE JUMPI PUSH2 0x43EE PUSH2 0x625C JUMP JUMPDEST DUP2 MSTORE PUSH1 0x20 DUP1 DUP3 ADD SWAP3 SWAP1 SWAP3 MSTORE PUSH1 0x40 SWAP1 DUP2 ADD PUSH1 0x0 SWAP1 DUP2 KECCAK256 DUP6 DUP3 MSTORE DUP4 MSTORE DUP2 DUP2 KECCAK256 SLOAD PUSH1 0x1 PUSH1 0x1 PUSH1 0xA0 SHL SUB DUP14 AND DUP3 MSTORE PUSH1 0x12 DUP5 MSTORE DUP3 DUP3 KECCAK256 PUSH1 0x16 SWAP1 SWAP5 MSTORE SWAP2 DUP2 KECCAK256 SLOAD SWAP2 SWAP4 POP SWAP2 SWAP1 DUP3 SWAP1 PUSH1 0xFF AND PUSH1 0x2 DUP2 GT ISZERO PUSH2 0x4443 JUMPI PUSH2 0x4443 PUSH2 0x625C JUMP JUMPDEST PUSH1 0x2 DUP2 GT ISZERO PUSH2 0x4454 JUMPI PUSH2 0x4454 PUSH2 0x625C JUMP JUMPDEST DUP2 MSTORE PUSH1 0x20 ADD SWAP1 DUP2 MSTORE PUSH1 0x20 ADD PUSH1 0x0 KECCAK256 PUSH1 0x0 DUP5 DUP2 MSTORE PUSH1 0x20 ADD SWAP1 DUP2 MSTORE PUSH1 0x20 ADD PUSH1 0x0 KECCAK256 DUP1 SLOAD DUP1 PUSH1 0x20 MUL PUSH1 0x20 ADD PUSH1 0x40 MLOAD SWAP1 DUP2 ADD PUSH1 0x40 MSTORE DUP1 SWAP3 SWAP2 SWAP1 DUP2 DUP2 MSTORE PUSH1 0x20 ADD DUP3 DUP1 SLOAD DUP1 ISZERO PUSH2 0x44BD JUMPI PUSH1 0x20 MUL DUP3 ADD SWAP2 SWAP1 PUSH1 0x0 MSTORE PUSH1 0x20 PUSH1 0x0 KECCAK256 SWAP1 JUMPDEST DUP2 SLOAD DUP2 MSTORE PUSH1 0x20 ADD SWAP1 PUSH1 0x1 ADD SWAP1 DUP1 DUP4 GT PUSH2 0x44A9 JUMPI JUMPDEST POP POP POP PUSH1 0x1 PUSH1 0x1 PUSH1 0xA0 SHL SUB DUP14 AND PUSH1 0x0 SWAP1 DUP2 MSTORE PUSH1 0x13 PUSH1 0x20 SWAP1 DUP2 MSTORE PUSH1 0x40 DUP1 DUP4 KECCAK256 PUSH1 0x16 SWAP1 SWAP3 MSTORE DUP3 KECCAK256 SLOAD SWAP5 SWAP6 POP SWAP1 SWAP4 SWAP1 SWAP3 POP DUP4 SWAP2 POP PUSH1 0xFF AND PUSH1 0x2 DUP2 GT ISZERO PUSH2 0x4502 JUMPI PUSH2 0x4502 PUSH2 0x625C JUMP JUMPDEST PUSH1 0x2 DUP2 GT ISZERO PUSH2 0x4513 JUMPI PUSH2 0x4513 PUSH2 0x625C JUMP JUMPDEST DUP2 MSTORE PUSH1 0x20 ADD SWAP1 DUP2 MSTORE PUSH1 0x20 ADD PUSH1 0x0 KECCAK256 PUSH1 0x0 DUP6 DUP2 MSTORE PUSH1 0x20 ADD SWAP1 DUP2 MSTORE PUSH1 0x20 ADD PUSH1 0x0 KECCAK256 DUP1 SLOAD DUP1 PUSH1 0x20 MUL PUSH1 0x20 ADD PUSH1 0x40 MLOAD SWAP1 DUP2 ADD PUSH1 0x40 MSTORE DUP1 SWAP3 SWAP2 SWAP1 DUP2 DUP2 MSTORE PUSH1 0x20 ADD DUP3 DUP1 SLOAD DUP1 ISZERO PUSH2 0x457C JUMPI PUSH1 0x20 MUL DUP3 ADD SWAP2 SWAP1 PUSH1 0x0 MSTORE PUSH1 0x20 PUSH1 0x0 KECCAK256 SWAP1 JUMPDEST DUP2 SLOAD DUP2 MSTORE PUSH1 0x20 ADD SWAP1 PUSH1 0x1 ADD SWAP1 DUP1 DUP4 GT PUSH2 0x4568 JUMPI JUMPDEST POP POP POP PUSH1 0x1 PUSH1 0x1 PUSH1 0xA0 SHL SUB DUP15 AND PUSH1 0x0 SWAP1 DUP2 MSTORE PUSH1 0x14 PUSH1 0x20 SWAP1 DUP2 MSTORE PUSH1 0x40 DUP1 DUP4 KECCAK256 PUSH1 0x16 SWAP1 SWAP3 MSTORE DUP3 KECCAK256 SLOAD SWAP5 SWAP6 POP SWAP1 SWAP4 SWAP1 SWAP3 POP DUP4 SWAP2 POP PUSH1 0xFF AND PUSH1 0x2 DUP2 GT ISZERO PUSH2 0x45C1 JUMPI PUSH2 0x45C1 PUSH2 0x625C JUMP JUMPDEST PUSH1 0x2 DUP2 GT ISZERO PUSH2 0x45D2 JUMPI PUSH2 0x45D2 PUSH2 0x625C JUMP JUMPDEST DUP2 MSTORE PUSH1 0x20 ADD SWAP1 DUP2 MSTORE PUSH1 0x20 ADD PUSH1 0x0 KECCAK256 PUSH1 0x0 DUP7 DUP2 MSTORE PUSH1 0x20 ADD SWAP1 DUP2 MSTORE PUSH1 0x20 ADD PUSH1 0x0 KECCAK256 DUP1 SLOAD DUP1 PUSH1 0x20 MUL PUSH1 0x20 ADD PUSH1 0x40 MLOAD SWAP1 DUP2 ADD PUSH1 0x40 MSTORE DUP1 SWAP3 SWAP2 SWAP1 DUP2 DUP2 MSTORE PUSH1 0x20 ADD DUP3 DUP1 SLOAD DUP1 ISZERO PUSH2 0x4667 JUMPI PUSH1 0x20 MUL DUP3 ADD SWAP2 SWAP1 PUSH1 0x0 MSTORE PUSH1 0x20 PUSH1 0x0 KECCAK256 SWAP1 PUSH1 0x0 SWAP1 JUMPDEST DUP3 DUP3 SWAP1 SLOAD SWAP1 PUSH2 0x100 EXP SWAP1 DIV PUSH4 0xFFFFFFFF AND PUSH4 0xFFFFFFFF AND DUP2 MSTORE PUSH1 0x20 ADD SWAP1 PUSH1 0x4 ADD SWAP1 PUSH1 0x20 DUP3 PUSH1 0x3 ADD DIV SWAP3 DUP4 ADD SWAP3 PUSH1 0x1 SUB DUP3 MUL SWAP2 POP DUP1 DUP5 GT PUSH2 0x462A JUMPI SWAP1 POP JUMPDEST POP POP POP POP POP SWAP1 POP PUSH1 0x0 DUP5 PUSH8 0xFFFFFFFFFFFFFFFF DUP2 GT ISZERO PUSH2 0x4689 JUMPI PUSH2 0x4689 PUSH2 0x6140 JUMP JUMPDEST PUSH1 0x40 MLOAD SWAP1 DUP1 DUP3 MSTORE DUP1 PUSH1 0x20 MUL PUSH1 0x20 ADD DUP3 ADD PUSH1 0x40 MSTORE DUP1 ISZERO PUSH2 0x46B2 JUMPI DUP2 PUSH1 0x20 ADD PUSH1 0x20 DUP3 MUL DUP1 CALLDATASIZE DUP4 CALLDATACOPY ADD SWAP1 POP JUMPDEST POP SWAP1 POP PUSH1 0x0 JUMPDEST DUP6 DUP2 LT ISZERO PUSH2 0x4746 JUMPI PUSH2 0x4717 DUP14 DUP6 DUP4 DUP2 MLOAD DUP2 LT PUSH2 0x46D6 JUMPI PUSH2 0x46D6 PUSH2 0x6576 JUMP JUMPDEST PUSH1 0x20 MUL PUSH1 0x20 ADD ADD MLOAD DUP6 DUP5 DUP2 MLOAD DUP2 LT PUSH2 0x46F0 JUMPI PUSH2 0x46F0 PUSH2 0x6576 JUMP JUMPDEST PUSH1 0x20 MUL PUSH1 0x20 ADD ADD MLOAD DUP9 DUP6 DUP2 MLOAD DUP2 LT PUSH2 0x470A JUMPI PUSH2 0x470A PUSH2 0x6576 JUMP JUMPDEST PUSH1 0x20 MUL PUSH1 0x20 ADD ADD MLOAD PUSH2 0x5B31 JUMP JUMPDEST DUP3 DUP3 DUP2 MLOAD DUP2 LT PUSH2 0x4729 JUMPI PUSH2 0x4729 PUSH2 0x6576 JUMP JUMPDEST PUSH1 0x20 SWAP1 DUP2 MUL SWAP2 SWAP1 SWAP2 ADD ADD MSTORE DUP1 PUSH2 0x473E DUP2 PUSH2 0x65B5 JUMP JUMPDEST SWAP2 POP POP PUSH2 0x46B8 JUMP JUMPDEST POP SWAP13 SWAP12 POP POP POP POP POP POP POP POP POP POP POP POP JUMP JUMPDEST PUSH1 0x8 SLOAD PUSH1 0x60 SWAP1 PUSH1 0x1 PUSH1 0x1 PUSH1 0xA0 SHL SUB AND CALLER EQ PUSH2 0x4784 JUMPI PUSH1 0x40 MLOAD PUSH3 0x461BCD PUSH1 0xE5 SHL DUP2 MSTORE PUSH1 0x4 ADD PUSH2 0x720 SWAP1 PUSH2 0x6786 JUMP JUMPDEST PUSH1 0x6 DUP1 SLOAD DUP1 PUSH1 0x20 MUL PUSH1 0x20 ADD PUSH1 0x40 MLOAD SWAP1 DUP2 ADD PUSH1 0x40 MSTORE DUP1 SWAP3 SWAP2 SWAP1 DUP2 DUP2 MSTORE PUSH1 0x20 ADD DUP3 DUP1 SLOAD DUP1 ISZERO PUSH2 0x241A JUMPI PUSH1 0x20 MUL DUP3 ADD SWAP2 SWAP1 PUSH1 0x0 MSTORE PUSH1 0x20 PUSH1 0x0 KECCAK256 SWAP1 DUP2 SLOAD DUP2 MSTORE PUSH1 0x20 ADD SWAP1 PUSH1 0x1 ADD SWAP1 DUP1 DUP4 GT PUSH2 0x366E JUMPI POP POP POP POP POP SWAP1 POP SWAP1 JUMP JUMPDEST PUSH1 0x8 SLOAD PUSH1 0x1 PUSH1 0x1 PUSH1 0xA0 SHL SUB AND CALLER EQ PUSH2 0x4802 JUMPI PUSH1 0x40 MLOAD PUSH3 0x461BCD PUSH1 0xE5 SHL DUP2 MSTORE PUSH1 0x4 ADD PUSH2 0x720 SWAP1 PUSH2 0x6786 JUMP JUMPDEST PUSH1 0x0 PUSH2 0x480C PUSH2 0x1CF8 JUMP JUMPDEST SWAP1 POP DUP1 CALLVALUE LT ISZERO PUSH2 0x4838 JUMPI PUSH1 0x40 MLOAD PUSH4 0x11920A6D PUSH1 0xE3 SHL DUP2 MSTORE CALLVALUE PUSH1 0x4 DUP3 ADD MSTORE PUSH1 0x24 DUP2 ADD DUP3 SWAP1 MSTORE PUSH1 0x44 ADD PUSH2 0x720 JUMP JUMPDEST PUSH1 0x1 SLOAD PUSH2 0x487F JUMPI PUSH1 0x40 MLOAD PUSH3 0x461BCD PUSH1 0xE5 SHL DUP2 MSTORE PUSH1 0x20 PUSH1 0x4 DUP3 ADD MSTORE PUSH1 0x15 PUSH1 0x24 DUP3 ADD MSTORE PUSH21 0x43726564697473206C69737420697320656D707479 PUSH1 0x58 SHL PUSH1 0x44 DUP3 ADD MSTORE PUSH1 0x64 ADD PUSH2 0x720 JUMP JUMPDEST PUSH1 0x1 DUP1 SLOAD PUSH1 0x0 SWAP2 PUSH2 0x488F SWAP2 PUSH2 0x65CE JUMP JUMPDEST SWAP1 POP JUMPDEST DUP1 ISZERO PUSH2 0x4934 JUMPI PUSH1 0x1 DUP2 DUP2 SLOAD DUP2 LT PUSH2 0x48AB JUMPI PUSH2 0x48AB PUSH2 0x6576 JUMP JUMPDEST PUSH1 0x0 SWAP2 DUP3 MSTORE PUSH1 0x20 DUP3 KECCAK256 ADD SLOAD PUSH1 0x40 MLOAD PUSH1 0x1 PUSH1 0x1 PUSH1 0xA0 SHL SUB SWAP1 SWAP2 AND SWAP2 SWAP1 PUSH8 0xDE0B6B3A7640000 SWAP1 DUP3 DUP2 DUP2 DUP2 DUP6 DUP9 DUP4 CALL SWAP4 POP POP POP POP ISZERO DUP1 ISZERO PUSH2 0x48EE JUMPI RETURNDATASIZE PUSH1 0x0 DUP1 RETURNDATACOPY RETURNDATASIZE PUSH1 0x0 REVERT JUMPDEST POP PUSH1 0x1 DUP1 SLOAD DUP1 PUSH2 0x4900 JUMPI PUSH2 0x4900 PUSH2 0x65E1 JUMP JUMPDEST PUSH1 0x0 DUP3 DUP2 MSTORE PUSH1 0x20 SWAP1 KECCAK256 DUP2 ADD PUSH1 0x0 NOT SWAP1 DUP2 ADD DUP1 SLOAD PUSH1 0x1 PUSH1 0x1 PUSH1 0xA0 SHL SUB NOT AND SWAP1 SSTORE ADD SWAP1 SSTORE DUP1 PUSH2 0x492C DUP2 PUSH2 0x65F7 JUMP JUMPDEST SWAP2 POP POP PUSH2 0x4892 JUMP JUMPDEST POP PUSH1 0x1 PUSH1 0x0 DUP2 SLOAD DUP2 LT PUSH2 0x4949 JUMPI PUSH2 0x4949 PUSH2 0x6576 JUMP JUMPDEST PUSH1 0x0 SWAP2 DUP3 MSTORE PUSH1 0x20 DUP3 KECCAK256 ADD SLOAD PUSH1 0x40 MLOAD PUSH1 0x1 PUSH1 0x1 PUSH1 0xA0 SHL SUB SWAP1 SWAP2 AND SWAP2 SWAP1 PUSH8 0xDE0B6B3A7640000 SWAP1 DUP3 DUP2 DUP2 DUP2 DUP6 DUP9 DUP4 CALL SWAP4 POP POP POP POP ISZERO DUP1 ISZERO PUSH2 0x498C JUMPI RETURNDATASIZE PUSH1 0x0 DUP1 RETURNDATACOPY RETURNDATASIZE PUSH1 0x0 REVERT JUMPDEST POP PUSH1 0x1 DUP1 SLOAD DUP1 PUSH2 0x499E JUMPI PUSH2 0x499E PUSH2 0x65E1 JUMP JUMPDEST PUSH1 0x0 DUP3 DUP2 MSTORE PUSH1 0x20 DUP2 KECCAK256 DUP3 ADD PUSH1 0x0 NOT SWAP1 DUP2 ADD DUP1 SLOAD PUSH1 0x1 PUSH1 0x1 PUSH1 0xA0 SHL SUB NOT AND SWAP1 SSTORE SWAP1 SWAP2 ADD SWAP1 SWAP2 SSTORE PUSH1 0x40 MLOAD CALLER SWAP2 SELFBALANCE DUP1 ISZERO PUSH2 0x8FC MUL SWAP3 SWAP1 SWAP2 DUP2 DUP2 DUP2 DUP6 DUP9 DUP9 CALL SWAP4 POP POP POP POP ISZERO DUP1 ISZERO PUSH2 0x1B63 JUMPI RETURNDATASIZE PUSH1 0x0 DUP1 RETURNDATACOPY RETURNDATASIZE PUSH1 0x0 REVERT JUMPDEST CALLER PUSH1 0x0 SWAP1 DUP2 MSTORE PUSH1 0x15 PUSH1 0x20 SWAP1 DUP2 MSTORE PUSH1 0x40 DUP1 DUP4 KECCAK256 PUSH1 0x16 SWAP1 SWAP3 MSTORE DUP3 KECCAK256 SLOAD SWAP1 SWAP2 SWAP1 PUSH1 0xFF AND PUSH1 0x2 DUP2 GT ISZERO PUSH2 0x4A20 JUMPI PUSH2 0x4A20 PUSH2 0x625C JUMP JUMPDEST PUSH1 0x2 DUP2 GT ISZERO PUSH2 0x4A31 JUMPI PUSH2 0x4A31 PUSH2 0x625C JUMP JUMPDEST DUP2 MSTORE PUSH1 0x20 DUP2 ADD SWAP2 SWAP1 SWAP2 MSTORE PUSH1 0x40 ADD PUSH1 0x0 KECCAK256 SLOAD PUSH1 0x1 PUSH1 0xA8 SHL SWAP1 DIV PUSH1 0xFF AND PUSH2 0x4A6B JUMPI PUSH1 0x40 MLOAD PUSH4 0x89129CF PUSH1 0xE4 SHL DUP2 MSTORE CALLER PUSH1 0x4 DUP3 ADD MSTORE PUSH1 0x24 ADD PUSH2 0x720 JUMP JUMPDEST CALLER PUSH1 0x0 SWAP1 DUP2 MSTORE PUSH1 0x19 PUSH1 0x20 MSTORE PUSH1 0x40 DUP2 KECCAK256 DUP1 SLOAD PUSH1 0xE SWAP3 SWAP2 SWAP1 DUP5 SWAP1 DUP2 LT PUSH2 0x4A91 JUMPI PUSH2 0x4A91 PUSH2 0x6576 JUMP JUMPDEST PUSH1 0x0 SWAP2 DUP3 MSTORE PUSH1 0x20 DUP1 DUP4 KECCAK256 SWAP1 SWAP2 ADD SLOAD DUP4 MSTORE DUP3 ADD SWAP3 SWAP1 SWAP3 MSTORE PUSH1 0x40 ADD SWAP1 KECCAK256 SLOAD PUSH1 0xFF AND ISZERO PUSH2 0x4B07 JUMPI PUSH1 0x40 MLOAD PUSH3 0x461BCD PUSH1 0xE5 SHL DUP2 MSTORE PUSH1 0x20 PUSH1 0x4 DUP3 ADD MSTORE PUSH1 0x21 PUSH1 0x24 DUP3 ADD MSTORE PUSH32 0x54686520726571756573742068617320616C7265616479206265656E2073656E PUSH1 0x44 DUP3 ADD MSTORE PUSH1 0x1D PUSH1 0xFA SHL PUSH1 0x64 DUP3 ADD MSTORE PUSH1 0x84 ADD PUSH2 0x720 JUMP JUMPDEST PUSH1 0x2 CALLER PUSH1 0x0 SWAP1 DUP2 MSTORE PUSH1 0x16 PUSH1 0x20 MSTORE PUSH1 0x40 SWAP1 KECCAK256 SLOAD PUSH1 0xFF AND PUSH1 0x2 DUP2 GT ISZERO PUSH2 0x4B2D JUMPI PUSH2 0x4B2D PUSH2 0x625C JUMP JUMPDEST SUB PUSH2 0x4B8A JUMPI PUSH1 0x40 MLOAD PUSH3 0x461BCD PUSH1 0xE5 SHL DUP2 MSTORE PUSH1 0x20 PUSH1 0x4 DUP3 ADD MSTORE PUSH1 0x27 PUSH1 0x24 DUP3 ADD MSTORE PUSH32 0x4120737570706C6965722063616E6E6F742073656E64206120726566756E6420 PUSH1 0x44 DUP3 ADD MSTORE PUSH7 0x1C995C5D595CDD PUSH1 0xCA SHL PUSH1 0x64 DUP3 ADD MSTORE PUSH1 0x84 ADD PUSH2 0x720 JUMP JUMPDEST CALLER PUSH1 0x0 SWAP1 DUP2 MSTORE PUSH1 0x19 PUSH1 0x20 MSTORE PUSH1 0x40 DUP2 KECCAK256 DUP1 SLOAD DUP4 SWAP1 DUP2 LT PUSH2 0x4BAB JUMPI PUSH2 0x4BAB PUSH2 0x6576 JUMP JUMPDEST PUSH1 0x0 SWAP2 DUP3 MSTORE PUSH1 0x20 DUP1 DUP4 KECCAK256 SWAP1 SWAP2 ADD SLOAD PUSH1 0x6 DUP1 SLOAD PUSH1 0x1 DUP2 DUP2 ADD SWAP1 SWAP3 SSTORE PUSH32 0xF652222313E28459528D920B65115C16C04F3EFC82AAEDC97BE59F3F377C0D3F ADD DUP3 SWAP1 SSTORE SWAP1 DUP4 MSTORE PUSH1 0xE SWAP1 SWAP2 MSTORE PUSH1 0x40 DUP3 KECCAK256 DUP1 SLOAD PUSH1 0xFF NOT AND DUP3 OR SWAP1 SSTORE PUSH1 0x7 DUP1 SLOAD SWAP2 DUP3 ADD DUP2 SSTORE SWAP1 SWAP2 MSTORE TIMESTAMP PUSH32 0xA66CC928B5EDB82AF9BD49922954155AB7B0942694BEA4CE44661D9A8736C688 SWAP1 SWAP2 ADD SSTORE POP POP JUMP JUMPDEST PUSH1 0x60 PUSH1 0x3 DUP1 SLOAD DUP1 PUSH1 0x20 MUL PUSH1 0x20 ADD PUSH1 0x40 MLOAD SWAP1 DUP2 ADD PUSH1 0x40 MSTORE DUP1 SWAP3 SWAP2 SWAP1 DUP2 DUP2 MSTORE PUSH1 0x20 ADD DUP3 DUP1 SLOAD DUP1 ISZERO PUSH2 0x241A JUMPI PUSH1 0x20 MUL DUP3 ADD SWAP2 SWAP1 PUSH1 0x0 MSTORE PUSH1 0x20 PUSH1 0x0 KECCAK256 SWAP1 DUP2 SLOAD PUSH1 0x1 PUSH1 0x1 PUSH1 0xA0 SHL SUB AND DUP2 MSTORE PUSH1 0x1 SWAP1 SWAP2 ADD SWAP1 PUSH1 0x20 ADD DUP1 DUP4 GT PUSH2 0x23FC JUMPI POP POP POP POP POP SWAP1 POP SWAP1 JUMP JUMPDEST PUSH1 0x8 SLOAD PUSH1 0x60 SWAP1 PUSH1 0x1 PUSH1 0x1 PUSH1 0xA0 SHL SUB AND CALLER EQ PUSH2 0x4CC3 JUMPI PUSH1 0x40 MLOAD PUSH3 0x461BCD PUSH1 0xE5 SHL DUP2 MSTORE PUSH1 0x4 ADD PUSH2 0x720 SWAP1 PUSH2 0x6786 JUMP JUMPDEST PUSH1 0x5 DUP1 SLOAD DUP1 PUSH1 0x20 MUL PUSH1 0x20 ADD PUSH1 0x40 MLOAD SWAP1 DUP2 ADD PUSH1 0x40 MSTORE DUP1 SWAP3 SWAP2 SWAP1 DUP2 DUP2 MSTORE PUSH1 0x20 ADD DUP3 DUP1 SLOAD DUP1 ISZERO PUSH2 0x241A JUMPI PUSH1 0x20 MUL DUP3 ADD SWAP2 SWAP1 PUSH1 0x0 MSTORE PUSH1 0x20 PUSH1 0x0 KECCAK256 SWAP1 DUP2 SLOAD PUSH1 0x1 PUSH1 0x1 PUSH1 0xA0 SHL SUB AND DUP2 MSTORE PUSH1 0x1 SWAP1 SWAP2 ADD SWAP1 PUSH1 0x20 ADD DUP1 DUP4 GT PUSH2 0x23FC JUMPI POP POP POP POP POP SWAP1 POP SWAP1 JUMP JUMPDEST PUSH1 0x8 SLOAD PUSH1 0x1 PUSH1 0x1 PUSH1 0xA0 SHL SUB AND CALLER EQ PUSH2 0x4D4B JUMPI PUSH1 0x40 MLOAD PUSH3 0x461BCD PUSH1 0xE5 SHL DUP2 MSTORE PUSH1 0x4 ADD PUSH2 0x720 SWAP1 PUSH2 0x6786 JUMP JUMPDEST PUSH8 0xDE0B6B3A7640000 CALLVALUE LT ISZERO PUSH2 0x4D84 JUMPI PUSH1 0x40 MLOAD PUSH4 0x11920A6D PUSH1 0xE3 SHL DUP2 MSTORE CALLVALUE PUSH1 0x4 DUP3 ADD MSTORE PUSH8 0xDE0B6B3A7640000 PUSH1 0x24 DUP3 ADD MSTORE PUSH1 0x44 ADD PUSH2 0x720 JUMP JUMPDEST PUSH1 0x1 SLOAD DUP2 LT PUSH2 0x4DD5 JUMPI PUSH1 0x40 MLOAD PUSH3 0x461BCD PUSH1 0xE5 SHL DUP2 MSTORE PUSH1 0x20 PUSH1 0x4 DUP3 ADD MSTORE PUSH1 0x19 PUSH1 0x24 DUP3 ADD MSTORE PUSH32 0x546869732063726564697420646F65736E277420657869737400000000000000 PUSH1 0x44 DUP3 ADD MSTORE PUSH1 0x64 ADD PUSH2 0x720 JUMP JUMPDEST PUSH1 0x1 DUP2 DUP2 SLOAD DUP2 LT PUSH2 0x4DE8 JUMPI PUSH2 0x4DE8 PUSH2 0x6576 JUMP JUMPDEST PUSH1 0x0 SWAP2 DUP3 MSTORE PUSH1 0x20 DUP3 KECCAK256 ADD SLOAD PUSH1 0x40 MLOAD PUSH1 0x1 PUSH1 0x1 PUSH1 0xA0 SHL SUB SWAP1 SWAP2 AND SWAP2 SWAP1 PUSH8 0xDE0B6B3A7640000 SWAP1 DUP3 DUP2 DUP2 DUP2 DUP6 DUP9 DUP4 CALL SWAP4 POP POP POP POP ISZERO DUP1 ISZERO PUSH2 0x4E2B JUMPI RETURNDATASIZE PUSH1 0x0 DUP1 RETURNDATACOPY RETURNDATASIZE PUSH1 0x0 REVERT JUMPDEST POP PUSH1 0x40 MLOAD CALLER SWAP1 SELFBALANCE DUP1 ISZERO PUSH2 0x8FC MUL SWAP2 PUSH1 0x0 DUP2 DUP2 DUP2 DUP6 DUP9 DUP9 CALL SWAP4 POP POP POP POP ISZERO DUP1 ISZERO PUSH2 0x4E58 JUMPI RETURNDATASIZE PUSH1 0x0 DUP1 RETURNDATACOPY RETURNDATASIZE PUSH1 0x0 REVERT JUMPDEST POP PUSH2 0x4E62 DUP2 PUSH2 0x5C3B JUMP JUMPDEST POP JUMP JUMPDEST PUSH1 0x60 PUSH1 0x1 DUP1 CALLER PUSH1 0x0 SWAP1 DUP2 MSTORE PUSH1 0x16 PUSH1 0x20 MSTORE PUSH1 0x40 SWAP1 KECCAK256 SLOAD PUSH1 0xFF AND PUSH1 0x2 DUP2 GT ISZERO PUSH2 0x4E8E JUMPI PUSH2 0x4E8E PUSH2 0x625C JUMP JUMPDEST EQ PUSH2 0x4EAC JUMPI PUSH1 0x40 MLOAD PUSH4 0x7824841 PUSH1 0xE2 SHL DUP2 MSTORE PUSH1 0x4 ADD PUSH1 0x40 MLOAD DUP1 SWAP2 SUB SWAP1 REVERT JUMPDEST PUSH1 0x2 DUP1 SLOAD DUP1 PUSH1 0x20 MUL PUSH1 0x20 ADD PUSH1 0x40 MLOAD SWAP1 DUP2 ADD PUSH1 0x40 MSTORE DUP1 SWAP3 SWAP2 SWAP1 DUP2 DUP2 MSTORE PUSH1 0x20 ADD DUP3 DUP1 SLOAD DUP1 ISZERO PUSH2 0x3731 JUMPI PUSH1 0x20 MUL DUP3 ADD SWAP2 SWAP1 PUSH1 0x0 MSTORE PUSH1 0x20 PUSH1 0x0 KECCAK256 SWAP1 DUP2 SLOAD PUSH1 0x1 PUSH1 0x1 PUSH1 0xA0 SHL SUB AND DUP2 MSTORE PUSH1 0x1 SWAP1 SWAP2 ADD SWAP1 PUSH1 0x20 ADD DUP1 DUP4 GT PUSH2 0x3713 JUMPI POP POP POP POP POP SWAP2 POP POP SWAP1 JUMP JUMPDEST PUSH1 0x1 DUP1 CALLER PUSH1 0x0 SWAP1 DUP2 MSTORE PUSH1 0x16 PUSH1 0x20 MSTORE PUSH1 0x40 SWAP1 KECCAK256 SLOAD PUSH1 0xFF AND PUSH1 0x2 DUP2 GT ISZERO PUSH2 0x4F32 JUMPI PUSH2 0x4F32 PUSH2 0x625C JUMP JUMPDEST EQ PUSH2 0x4F50 JUMPI PUSH1 0x40 MLOAD PUSH4 0x7824841 PUSH1 0xE2 SHL DUP2 MSTORE PUSH1 0x4 ADD PUSH1 0x40 MLOAD DUP1 SWAP2 SUB SWAP1 REVERT JUMPDEST CALLER PUSH1 0x0 SWAP1 DUP2 MSTORE PUSH1 0x9 PUSH1 0x20 MSTORE PUSH1 0x40 SWAP1 KECCAK256 SLOAD DUP3 LT PUSH2 0x4FAE JUMPI PUSH1 0x40 MLOAD PUSH3 0x461BCD PUSH1 0xE5 SHL DUP2 MSTORE PUSH1 0x20 PUSH1 0x4 DUP3 ADD MSTORE PUSH1 0x17 PUSH1 0x24 DUP3 ADD MSTORE PUSH32 0x54686973206465627420646F65736E2774206578697374000000000000000000 PUSH1 0x44 DUP3 ADD MSTORE PUSH1 0x64 ADD PUSH2 0x720 JUMP JUMPDEST CALLER PUSH1 0x0 SWAP1 DUP2 MSTORE PUSH1 0xA PUSH1 0x20 MSTORE PUSH1 0x40 DUP2 KECCAK256 DUP1 SLOAD DUP5 SWAP1 DUP2 LT PUSH2 0x4FCF JUMPI PUSH2 0x4FCF PUSH2 0x6576 JUMP JUMPDEST SWAP1 PUSH1 0x0 MSTORE PUSH1 0x20 PUSH1 0x0 KECCAK256 ADD SLOAD SWAP1 POP DUP1 CALLVALUE LT ISZERO PUSH2 0x5006 JUMPI PUSH1 0x40 MLOAD PUSH4 0x11920A6D PUSH1 0xE3 SHL DUP2 MSTORE CALLVALUE PUSH1 0x4 DUP3 ADD MSTORE PUSH1 0x24 DUP2 ADD DUP3 SWAP1 MSTORE PUSH1 0x44 ADD PUSH2 0x720 JUMP JUMPDEST CALLER PUSH1 0x0 SWAP1 DUP2 MSTORE PUSH1 0x9 PUSH1 0x20 MSTORE PUSH1 0x40 SWAP1 KECCAK256 DUP1 SLOAD DUP5 SWAP1 DUP2 LT PUSH2 0x5027 JUMPI PUSH2 0x5027 PUSH2 0x6576 JUMP JUMPDEST PUSH1 0x0 SWAP2 DUP3 MSTORE PUSH1 0x20 DUP3 KECCAK256 ADD SLOAD PUSH1 0x40 MLOAD PUSH1 0x1 PUSH1 0x1 PUSH1 0xA0 SHL SUB SWAP1 SWAP2 AND SWAP2 DUP4 ISZERO PUSH2 0x8FC MUL SWAP2 DUP5 SWAP2 DUP2 DUP2 DUP2 DUP6 DUP9 DUP9 CALL SWAP4 POP POP POP POP ISZERO DUP1 ISZERO PUSH2 0x5067 JUMPI RETURNDATASIZE PUSH1 0x0 DUP1 RETURNDATACOPY RETURNDATASIZE PUSH1 0x0 REVERT JUMPDEST POP PUSH1 0x40 MLOAD CALLER SWAP1 SELFBALANCE DUP1 ISZERO PUSH2 0x8FC MUL SWAP2 PUSH1 0x0 DUP2 DUP2 DUP2 DUP6 DUP9 DUP9 CALL SWAP4 POP POP POP POP ISZERO DUP1 ISZERO PUSH2 0xA1B JUMPI RETURNDATASIZE PUSH1 0x0 DUP1 RETURNDATACOPY RETURNDATASIZE PUSH1 0x0 REVERT JUMPDEST PUSH1 0x0 PUSH2 0x50A2 DUP8 DUP6 DUP6 DUP6 PUSH2 0x5B31 JUMP JUMPDEST PUSH1 0x1 PUSH1 0x1 PUSH1 0xA0 SHL SUB DUP8 AND PUSH1 0x0 SWAP1 DUP2 MSTORE PUSH1 0xF PUSH1 0x20 SWAP1 DUP2 MSTORE PUSH1 0x40 DUP1 DUP4 KECCAK256 PUSH1 0x16 SWAP1 SWAP3 MSTORE DUP3 KECCAK256 SLOAD SWAP3 SWAP4 POP DUP8 SWAP3 SWAP1 SWAP2 SWAP1 PUSH1 0xFF AND PUSH1 0x2 DUP2 GT ISZERO PUSH2 0x50E1 JUMPI PUSH2 0x50E1 PUSH2 0x625C JUMP JUMPDEST PUSH1 0x2 DUP2 GT ISZERO PUSH2 0x50F2 JUMPI PUSH2 0x50F2 PUSH2 0x625C JUMP JUMPDEST DUP2 MSTORE PUSH1 0x20 ADD SWAP1 DUP2 MSTORE PUSH1 0x20 ADD PUSH1 0x0 KECCAK256 PUSH1 0x0 DUP4 DUP2 MSTORE PUSH1 0x20 ADD SWAP1 DUP2 MSTORE PUSH1 0x20 ADD PUSH1 0x0 KECCAK256 PUSH1 0x2 ADD PUSH1 0x0 DUP3 DUP3 SLOAD PUSH2 0x5123 SWAP2 SWAP1 PUSH2 0x65CE JUMP JUMPDEST SWAP1 SWAP2 SSTORE POP POP PUSH1 0x1 PUSH1 0x1 PUSH1 0xA0 SHL SUB DUP7 AND PUSH1 0x0 SWAP1 DUP2 MSTORE PUSH1 0xF PUSH1 0x20 SWAP1 DUP2 MSTORE PUSH1 0x40 DUP1 DUP4 KECCAK256 PUSH1 0x16 SWAP1 SWAP3 MSTORE DUP3 KECCAK256 SLOAD SWAP1 SWAP2 SWAP1 PUSH1 0xFF AND PUSH1 0x2 DUP2 GT ISZERO PUSH2 0x5162 JUMPI PUSH2 0x5162 PUSH2 0x625C JUMP JUMPDEST PUSH1 0x2 DUP2 GT ISZERO PUSH2 0x5173 JUMPI PUSH2 0x5173 PUSH2 0x625C JUMP JUMPDEST DUP2 MSTORE PUSH1 0x20 ADD SWAP1 DUP2 MSTORE PUSH1 0x20 ADD PUSH1 0x0 KECCAK256 PUSH1 0x0 DUP3 DUP2 MSTORE PUSH1 0x20 ADD SWAP1 DUP2 MSTORE PUSH1 0x20 ADD PUSH1 0x0 KECCAK256 PUSH1 0x2 ADD SLOAD PUSH1 0x0 SUB PUSH2 0x23B9 JUMPI PUSH1 0x0 PUSH2 0x51A8 DUP9 PUSH2 0x5B00 JUMP JUMPDEST PUSH1 0x1 PUSH1 0x1 PUSH1 0xA0 SHL SUB DUP9 AND PUSH1 0x0 SWAP1 DUP2 MSTORE PUSH1 0xF PUSH1 0x20 SWAP1 DUP2 MSTORE PUSH1 0x40 DUP1 DUP4 KECCAK256 PUSH1 0x16 SWAP1 SWAP3 MSTORE DUP3 KECCAK256 SLOAD SWAP3 SWAP4 POP SWAP2 PUSH1 0xFF AND PUSH1 0x2 DUP2 GT ISZERO PUSH2 0x51E3 JUMPI PUSH2 0x51E3 PUSH2 0x625C JUMP JUMPDEST PUSH1 0x2 DUP2 GT ISZERO PUSH2 0x51F4 JUMPI PUSH2 0x51F4 PUSH2 0x625C JUMP JUMPDEST DUP2 MSTORE PUSH1 0x20 DUP1 DUP3 ADD SWAP3 SWAP1 SWAP3 MSTORE PUSH1 0x40 SWAP1 DUP2 ADD PUSH1 0x0 SWAP1 DUP2 KECCAK256 DUP6 DUP3 MSTORE SWAP1 SWAP3 MSTORE DUP2 KECCAK256 SWAP1 PUSH2 0x521C DUP3 DUP3 PUSH2 0x5F1B JUMP JUMPDEST POP PUSH1 0x0 PUSH1 0x1 DUP3 ADD DUP2 SWAP1 SSTORE PUSH1 0x2 DUP3 ADD DUP2 SWAP1 SSTORE PUSH1 0x3 DUP3 ADD SSTORE PUSH1 0x4 ADD DUP1 SLOAD PUSH5 0xFFFFFFFFFF NOT AND SWAP1 SSTORE PUSH2 0x524B DUP8 DUP10 PUSH2 0x5CDC JUMP JUMPDEST PUSH1 0x1 PUSH1 0x1 PUSH1 0xA0 SHL SUB DUP8 AND PUSH1 0x0 SWAP1 DUP2 MSTORE PUSH1 0x12 PUSH1 0x20 SWAP1 DUP2 MSTORE PUSH1 0x40 DUP1 DUP4 KECCAK256 PUSH1 0x16 SWAP1 SWAP3 MSTORE DUP3 KECCAK256 SLOAD SWAP1 SWAP2 SWAP1 PUSH1 0xFF AND PUSH1 0x2 DUP2 GT ISZERO PUSH2 0x5285 JUMPI PUSH2 0x5285 PUSH2 0x625C JUMP JUMPDEST PUSH1 0x2 DUP2 GT ISZERO PUSH2 0x5296 JUMPI PUSH2 0x5296 PUSH2 0x625C JUMP JUMPDEST DUP2 MSTORE PUSH1 0x20 ADD SWAP1 DUP2 MSTORE PUSH1 0x20 ADD PUSH1 0x0 KECCAK256 PUSH1 0x0 DUP3 DUP2 MSTORE PUSH1 0x20 ADD SWAP1 DUP2 MSTORE PUSH1 0x20 ADD PUSH1 0x0 KECCAK256 DUP1 SLOAD DUP1 PUSH2 0x52C4 JUMPI PUSH2 0x52C4 PUSH2 0x65E1 JUMP JUMPDEST PUSH1 0x0 DUP3 DUP2 MSTORE PUSH1 0x20 DUP1 DUP3 KECCAK256 DUP4 ADD PUSH1 0x0 NOT SWAP1 DUP2 ADD DUP4 SWAP1 SSTORE SWAP1 SWAP3 ADD SWAP1 SWAP3 SSTORE PUSH1 0x1 PUSH1 0x1 PUSH1 0xA0 SHL SUB DUP10 AND DUP3 MSTORE PUSH1 0x13 DUP2 MSTORE PUSH1 0x40 DUP1 DUP4 KECCAK256 PUSH1 0x16 SWAP1 SWAP3 MSTORE DUP3 KECCAK256 SLOAD SWAP1 SWAP2 SWAP1 PUSH1 0xFF AND PUSH1 0x2 DUP2 GT ISZERO PUSH2 0x5313 JUMPI PUSH2 0x5313 PUSH2 0x625C JUMP JUMPDEST PUSH1 0x2 DUP2 GT ISZERO PUSH2 0x5324 JUMPI PUSH2 0x5324 PUSH2 0x625C JUMP JUMPDEST DUP2 MSTORE PUSH1 0x20 ADD SWAP1 DUP2 MSTORE PUSH1 0x20 ADD PUSH1 0x0 KECCAK256 PUSH1 0x0 DUP3 DUP2 MSTORE PUSH1 0x20 ADD SWAP1 DUP2 MSTORE PUSH1 0x20 ADD PUSH1 0x0 KECCAK256 DUP1 SLOAD DUP1 PUSH2 0x5352 JUMPI PUSH2 0x5352 PUSH2 0x65E1 JUMP JUMPDEST PUSH1 0x0 DUP3 DUP2 MSTORE PUSH1 0x20 DUP1 DUP3 KECCAK256 DUP4 ADD PUSH1 0x0 NOT SWAP1 DUP2 ADD DUP4 SWAP1 SSTORE SWAP1 SWAP3 ADD SWAP1 SWAP3 SSTORE PUSH1 0x1 PUSH1 0x1 PUSH1 0xA0 SHL SUB DUP10 AND DUP3 MSTORE PUSH1 0x14 DUP2 MSTORE PUSH1 0x40 DUP1 DUP4 KECCAK256 PUSH1 0x16 SWAP1 SWAP3 MSTORE DUP3 KECCAK256 SLOAD SWAP1 SWAP2 SWAP1 PUSH1 0xFF AND PUSH1 0x2 DUP2 GT ISZERO PUSH2 0x53A1 JUMPI PUSH2 0x53A1 PUSH2 0x625C JUMP JUMPDEST PUSH1 0x2 DUP2 GT ISZERO PUSH2 0x53B2 JUMPI PUSH2 0x53B2 PUSH2 0x625C JUMP JUMPDEST DUP2 MSTORE PUSH1 0x20 ADD SWAP1 DUP2 MSTORE PUSH1 0x20 ADD PUSH1 0x0 KECCAK256 PUSH1 0x0 DUP3 DUP2 MSTORE PUSH1 0x20 ADD SWAP1 DUP2 MSTORE PUSH1 0x20 ADD PUSH1 0x0 KECCAK256 DUP1 SLOAD DUP1 PUSH2 0x53E0 JUMPI PUSH2 0x53E0 PUSH2 0x65E1 JUMP JUMPDEST PUSH1 0x0 DUP3 DUP2 MSTORE PUSH1 0x20 DUP1 DUP3 KECCAK256 PUSH1 0x8 PUSH1 0x0 NOT SWAP1 SWAP5 ADD SWAP4 DUP5 DIV ADD DUP1 SLOAD PUSH4 0xFFFFFFFF PUSH1 0x4 PUSH1 0x7 DUP8 AND MUL PUSH2 0x100 EXP MUL NOT AND SWAP1 SSTORE SWAP2 SWAP1 SWAP3 SSTORE PUSH1 0x1 PUSH1 0x1 PUSH1 0xA0 SHL SUB DUP10 AND DUP3 MSTORE PUSH1 0x11 DUP2 MSTORE PUSH1 0x40 DUP1 DUP4 KECCAK256 PUSH1 0x16 SWAP1 SWAP3 MSTORE DUP3 KECCAK256 SLOAD SWAP1 SWAP2 SWAP1 PUSH1 0xFF AND PUSH1 0x2 DUP2 GT ISZERO PUSH2 0x5445 JUMPI PUSH2 0x5445 PUSH2 0x625C JUMP JUMPDEST PUSH1 0x2 DUP2 GT ISZERO PUSH2 0x5456 JUMPI PUSH2 0x5456 PUSH2 0x625C JUMP JUMPDEST DUP2 MSTORE PUSH1 0x20 DUP1 DUP3 ADD SWAP3 SWAP1 SWAP3 MSTORE PUSH1 0x40 SWAP1 DUP2 ADD PUSH1 0x0 SWAP1 DUP2 KECCAK256 DUP5 DUP3 MSTORE SWAP1 SWAP3 MSTORE DUP2 KECCAK256 DUP1 SLOAD SWAP2 PUSH2 0x23B2 DUP4 PUSH2 0x65F7 JUMP JUMPDEST PUSH1 0x0 PUSH2 0x548D DUP7 DUP5 DUP5 DUP9 PUSH2 0x5B31 JUMP JUMPDEST CALLER PUSH1 0x0 SWAP1 DUP2 MSTORE PUSH1 0xF PUSH1 0x20 SWAP1 DUP2 MSTORE PUSH1 0x40 DUP1 DUP4 KECCAK256 PUSH1 0x16 SWAP1 SWAP3 MSTORE DUP3 KECCAK256 SLOAD SWAP3 SWAP4 POP SWAP1 SWAP2 DUP3 SWAP1 PUSH1 0xFF AND PUSH1 0x2 DUP2 GT ISZERO PUSH2 0x54C2 JUMPI PUSH2 0x54C2 PUSH2 0x625C JUMP JUMPDEST PUSH1 0x2 DUP2 GT ISZERO PUSH2 0x54D3 JUMPI PUSH2 0x54D3 PUSH2 0x625C JUMP JUMPDEST DUP2 MSTORE PUSH1 0x20 ADD SWAP1 DUP2 MSTORE PUSH1 0x20 ADD PUSH1 0x0 KECCAK256 PUSH1 0x0 DUP4 DUP2 MSTORE PUSH1 0x20 ADD SWAP1 DUP2 MSTORE PUSH1 0x20 ADD PUSH1 0x0 KECCAK256 PUSH1 0x1 ADD SLOAD GT ISZERO PUSH2 0x557A JUMPI CALLER PUSH1 0x0 SWAP1 DUP2 MSTORE PUSH1 0xF PUSH1 0x20 SWAP1 DUP2 MSTORE PUSH1 0x40 DUP1 DUP4 KECCAK256 PUSH1 0x16 SWAP1 SWAP3 MSTORE DUP3 KECCAK256 SLOAD DUP7 SWAP3 SWAP1 PUSH1 0xFF AND PUSH1 0x2 DUP2 GT ISZERO PUSH2 0x552D JUMPI PUSH2 0x552D PUSH2 0x625C JUMP JUMPDEST PUSH1 0x2 DUP2 GT ISZERO PUSH2 0x553E JUMPI PUSH2 0x553E PUSH2 0x625C JUMP JUMPDEST DUP2 MSTORE PUSH1 0x20 ADD SWAP1 DUP2 MSTORE PUSH1 0x20 ADD PUSH1 0x0 KECCAK256 PUSH1 0x0 DUP4 DUP2 MSTORE PUSH1 0x20 ADD SWAP1 DUP2 MSTORE PUSH1 0x20 ADD PUSH1 0x0 KECCAK256 PUSH1 0x2 ADD PUSH1 0x0 DUP3 DUP3 SLOAD PUSH2 0x556F SWAP2 SWAP1 PUSH2 0x65A2 JUMP JUMPDEST SWAP1 SWAP2 SSTORE POP PUSH2 0x58FB SWAP1 POP JUMP JUMPDEST PUSH1 0x0 PUSH2 0x5585 DUP8 PUSH2 0x5B00 JUMP JUMPDEST PUSH1 0x40 DUP1 MLOAD PUSH1 0xC0 DUP2 ADD DUP3 MSTORE DUP10 DUP2 MSTORE PUSH1 0x20 DUP1 DUP3 ADD DUP11 SWAP1 MSTORE DUP2 DUP4 ADD DUP10 SWAP1 MSTORE PUSH1 0x60 DUP3 ADD DUP9 SWAP1 MSTORE PUSH4 0xFFFFFFFF DUP8 AND PUSH1 0x80 DUP4 ADD MSTORE CALLER PUSH1 0x0 SWAP1 DUP2 MSTORE PUSH1 0x16 SWAP1 SWAP2 MSTORE SWAP2 SWAP1 SWAP2 KECCAK256 SLOAD SWAP2 SWAP3 POP SWAP1 PUSH1 0xA0 DUP3 ADD SWAP1 PUSH1 0xFF AND PUSH1 0x2 DUP2 GT ISZERO PUSH2 0x55E0 JUMPI PUSH2 0x55E0 PUSH2 0x625C JUMP JUMPDEST SWAP1 MSTORE CALLER PUSH1 0x0 SWAP1 DUP2 MSTORE PUSH1 0xF PUSH1 0x20 SWAP1 DUP2 MSTORE PUSH1 0x40 DUP1 DUP4 KECCAK256 PUSH1 0x16 SWAP1 SWAP3 MSTORE DUP3 KECCAK256 SLOAD SWAP1 SWAP2 SWAP1 PUSH1 0xFF AND PUSH1 0x2 DUP2 GT ISZERO PUSH2 0x5613 JUMPI PUSH2 0x5613 PUSH2 0x625C JUMP JUMPDEST PUSH1 0x2 DUP2 GT ISZERO PUSH2 0x5624 JUMPI PUSH2 0x5624 PUSH2 0x625C JUMP JUMPDEST DUP2 MSTORE PUSH1 0x20 DUP1 DUP3 ADD SWAP3 SWAP1 SWAP3 MSTORE PUSH1 0x40 SWAP1 DUP2 ADD PUSH1 0x0 SWAP1 DUP2 KECCAK256 DUP7 DUP3 MSTORE SWAP1 SWAP3 MSTORE SWAP1 KECCAK256 DUP2 MLOAD DUP2 SWAP1 PUSH2 0x564F SWAP1 DUP3 PUSH2 0x66C6 JUMP JUMPDEST POP PUSH1 0x20 DUP3 ADD MLOAD PUSH1 0x1 DUP3 ADD SSTORE PUSH1 0x40 DUP3 ADD MLOAD PUSH1 0x2 DUP1 DUP4 ADD SWAP2 SWAP1 SWAP2 SSTORE PUSH1 0x60 DUP4 ADD MLOAD PUSH1 0x3 DUP4 ADD SSTORE PUSH1 0x80 DUP4 ADD MLOAD PUSH1 0x4 DUP4 ADD DUP1 SLOAD PUSH4 0xFFFFFFFF SWAP1 SWAP3 AND PUSH4 0xFFFFFFFF NOT DUP4 AND DUP2 OR DUP3 SSTORE PUSH1 0xA0 DUP7 ADD MLOAD SWAP4 SWAP2 SWAP3 PUSH5 0xFFFFFFFFFF NOT AND OR SWAP1 PUSH1 0x1 PUSH1 0x20 SHL SWAP1 DUP5 SWAP1 DUP2 GT ISZERO PUSH2 0x56BA JUMPI PUSH2 0x56BA PUSH2 0x625C JUMP JUMPDEST MUL OR SWAP1 SSTORE POP POP CALLER PUSH1 0x0 SWAP1 DUP2 MSTORE PUSH1 0x10 PUSH1 0x20 SWAP1 DUP2 MSTORE PUSH1 0x40 DUP1 DUP4 KECCAK256 PUSH1 0x16 SWAP1 SWAP3 MSTORE DUP3 KECCAK256 SLOAD SWAP1 SWAP3 POP PUSH1 0xFF AND PUSH1 0x2 DUP2 GT ISZERO PUSH2 0x56F1 JUMPI PUSH2 0x56F1 PUSH2 0x625C JUMP JUMPDEST PUSH1 0x2 DUP2 GT ISZERO PUSH2 0x5702 JUMPI PUSH2 0x5702 PUSH2 0x625C JUMP JUMPDEST DUP2 MSTORE PUSH1 0x20 DUP1 DUP3 ADD SWAP3 SWAP1 SWAP3 MSTORE PUSH1 0x40 ADD PUSH1 0x0 SWAP1 DUP2 KECCAK256 DUP1 SLOAD PUSH1 0x1 DUP2 ADD DUP3 SSTORE SWAP1 DUP3 MSTORE SWAP2 SWAP1 KECCAK256 ADD PUSH2 0x572E DUP9 DUP3 PUSH2 0x66C6 JUMP JUMPDEST POP CALLER PUSH1 0x0 SWAP1 DUP2 MSTORE PUSH1 0x12 PUSH1 0x20 SWAP1 DUP2 MSTORE PUSH1 0x40 DUP1 DUP4 KECCAK256 PUSH1 0x16 SWAP1 SWAP3 MSTORE DUP3 KECCAK256 SLOAD SWAP1 SWAP2 SWAP1 PUSH1 0xFF AND PUSH1 0x2 DUP2 GT ISZERO PUSH2 0x5760 JUMPI PUSH2 0x5760 PUSH2 0x625C JUMP JUMPDEST PUSH1 0x2 DUP2 GT ISZERO PUSH2 0x5771 JUMPI PUSH2 0x5771 PUSH2 0x625C JUMP JUMPDEST DUP2 MSTORE PUSH1 0x20 DUP1 DUP3 ADD SWAP3 SWAP1 SWAP3 MSTORE PUSH1 0x40 SWAP1 DUP2 ADD PUSH1 0x0 SWAP1 DUP2 KECCAK256 DUP5 DUP3 MSTORE DUP4 MSTORE DUP2 DUP2 KECCAK256 DUP1 SLOAD PUSH1 0x1 DUP2 ADD DUP3 SSTORE SWAP1 DUP3 MSTORE DUP4 DUP3 KECCAK256 ADD DUP10 SWAP1 SSTORE CALLER DUP2 MSTORE PUSH1 0x13 DUP4 MSTORE DUP2 DUP2 KECCAK256 PUSH1 0x16 SWAP1 SWAP4 MSTORE SWAP1 DUP2 KECCAK256 SLOAD PUSH1 0xFF AND PUSH1 0x2 DUP2 GT ISZERO PUSH2 0x57C7 JUMPI PUSH2 0x57C7 PUSH2 0x625C JUMP JUMPDEST PUSH1 0x2 DUP2 GT ISZERO PUSH2 0x57D8 JUMPI PUSH2 0x57D8 PUSH2 0x625C JUMP JUMPDEST DUP2 MSTORE PUSH1 0x20 DUP1 DUP3 ADD SWAP3 SWAP1 SWAP3 MSTORE PUSH1 0x40 SWAP1 DUP2 ADD PUSH1 0x0 SWAP1 DUP2 KECCAK256 DUP5 DUP3 MSTORE DUP4 MSTORE DUP2 DUP2 KECCAK256 DUP1 SLOAD PUSH1 0x1 DUP2 ADD DUP3 SSTORE SWAP1 DUP3 MSTORE DUP4 DUP3 KECCAK256 ADD DUP8 SWAP1 SSTORE CALLER DUP2 MSTORE PUSH1 0x14 DUP4 MSTORE DUP2 DUP2 KECCAK256 PUSH1 0x16 SWAP1 SWAP4 MSTORE SWAP1 DUP2 KECCAK256 SLOAD PUSH1 0xFF AND PUSH1 0x2 DUP2 GT ISZERO PUSH2 0x582E JUMPI PUSH2 0x582E PUSH2 0x625C JUMP JUMPDEST PUSH1 0x2 DUP2 GT ISZERO PUSH2 0x583F JUMPI PUSH2 0x583F PUSH2 0x625C JUMP JUMPDEST DUP2 MSTORE PUSH1 0x20 DUP1 DUP3 ADD SWAP3 SWAP1 SWAP3 MSTORE PUSH1 0x40 SWAP1 DUP2 ADD PUSH1 0x0 SWAP1 DUP2 KECCAK256 DUP5 DUP3 MSTORE DUP4 MSTORE DUP2 DUP2 KECCAK256 DUP1 SLOAD PUSH1 0x1 DUP2 ADD DUP3 SSTORE SWAP1 DUP3 MSTORE DUP4 DUP3 KECCAK256 PUSH1 0x8 DUP3 DIV ADD DUP1 SLOAD PUSH1 0x7 SWAP1 SWAP3 AND PUSH1 0x4 MUL PUSH2 0x100 EXP PUSH4 0xFFFFFFFF DUP2 DUP2 MUL NOT SWAP1 SWAP4 AND SWAP3 DUP10 AND MUL SWAP2 SWAP1 SWAP2 OR SWAP1 SSTORE CALLER DUP2 MSTORE PUSH1 0x11 DUP4 MSTORE DUP2 DUP2 KECCAK256 PUSH1 0x16 SWAP1 SWAP4 MSTORE SWAP1 DUP2 KECCAK256 SLOAD PUSH1 0xFF AND PUSH1 0x2 DUP2 GT ISZERO PUSH2 0x58BA JUMPI PUSH2 0x58BA PUSH2 0x625C JUMP JUMPDEST PUSH1 0x2 DUP2 GT ISZERO PUSH2 0x58CB JUMPI PUSH2 0x58CB PUSH2 0x625C JUMP JUMPDEST DUP2 MSTORE PUSH1 0x20 DUP1 DUP3 ADD SWAP3 SWAP1 SWAP3 MSTORE PUSH1 0x40 SWAP1 DUP2 ADD PUSH1 0x0 SWAP1 DUP2 KECCAK256 DUP5 DUP3 MSTORE SWAP1 SWAP3 MSTORE DUP2 KECCAK256 DUP1 SLOAD SWAP2 PUSH2 0x58F4 DUP4 PUSH2 0x65B5 JUMP JUMPDEST SWAP2 SWAP1 POP SSTORE POP POP JUMPDEST POP POP POP POP POP POP JUMP JUMPDEST CALLER PUSH1 0x0 SWAP1 DUP2 MSTORE PUSH1 0x15 PUSH1 0x20 SWAP1 DUP2 MSTORE PUSH1 0x40 DUP1 DUP4 KECCAK256 PUSH1 0x16 SWAP1 SWAP3 MSTORE DUP3 KECCAK256 SLOAD SWAP1 SWAP2 SWAP1 PUSH1 0xFF AND PUSH1 0x2 DUP2 GT ISZERO PUSH2 0x5934 JUMPI PUSH2 0x5934 PUSH2 0x625C JUMP JUMPDEST PUSH1 0x2 DUP2 GT ISZERO PUSH2 0x5945 JUMPI PUSH2 0x5945 PUSH2 0x625C JUMP JUMPDEST DUP2 MSTORE PUSH1 0x20 DUP2 ADD SWAP2 SWAP1 SWAP2 MSTORE PUSH1 0x40 ADD PUSH1 0x0 KECCAK256 SLOAD PUSH1 0x1 PUSH1 0xA8 SHL SWAP1 DIV PUSH1 0xFF AND PUSH2 0x597F JUMPI PUSH1 0x40 MLOAD PUSH4 0x89129CF PUSH1 0xE4 SHL DUP2 MSTORE CALLER PUSH1 0x4 DUP3 ADD MSTORE PUSH1 0x24 ADD PUSH2 0x720 JUMP JUMPDEST CALLER PUSH1 0x0 SWAP1 DUP2 MSTORE PUSH1 0xB PUSH1 0x20 SWAP1 DUP2 MSTORE PUSH1 0x40 DUP1 DUP4 KECCAK256 DUP4 SWAP1 SSTORE PUSH1 0x15 DUP3 MSTORE DUP1 DUP4 KECCAK256 PUSH1 0x16 SWAP1 SWAP3 MSTORE DUP3 KECCAK256 SLOAD DUP3 SWAP1 PUSH1 0xFF AND PUSH1 0x2 DUP2 GT ISZERO PUSH2 0x59B9 JUMPI PUSH2 0x59B9 PUSH2 0x625C JUMP JUMPDEST PUSH1 0x2 DUP2 GT ISZERO PUSH2 0x59CA JUMPI PUSH2 0x59CA PUSH2 0x625C JUMP JUMPDEST DUP2 MSTORE PUSH1 0x20 DUP1 DUP3 ADD SWAP3 SWAP1 SWAP3 MSTORE PUSH1 0x40 SWAP1 DUP2 ADD PUSH1 0x0 SWAP1 DUP2 KECCAK256 DUP1 SLOAD PUSH1 0xFF SWAP6 SWAP1 SWAP6 AND PUSH1 0x1 PUSH1 0xB0 SHL MUL PUSH1 0xFF PUSH1 0xB0 SHL NOT SWAP1 SWAP6 AND SWAP5 SWAP1 SWAP5 OR SWAP1 SWAP4 SSTORE CALLER DUP4 MSTORE PUSH1 0xC SWAP1 SWAP2 MSTORE DUP2 KECCAK256 SLOAD PUSH1 0x1 DUP1 SLOAD DUP1 DUP3 ADD DUP3 SSTORE SWAP3 MSTORE PUSH32 0xB10E2D527612073B26EECDFD717E6A320CF44B4AFAC2B0732D9FCBE2B7FA0CF6 SWAP1 SWAP2 ADD DUP1 SLOAD PUSH1 0x1 PUSH1 0x1 PUSH1 0xA0 SHL SUB NOT AND PUSH1 0x1 PUSH1 0x1 PUSH1 0xA0 SHL SUB SWAP3 SWAP1 SWAP3 AND SWAP2 SWAP1 SWAP2 OR SWAP1 SSTORE JUMP JUMPDEST PUSH1 0x0 PUSH3 0x15180 PUSH2 0x5A68 DUP4 PUSH1 0x2 PUSH2 0x67E7 JUMP JUMPDEST PUSH2 0x5A75 SWAP1 PUSH3 0x15180 PUSH2 0x67E7 JUMP JUMPDEST PUSH4 0xFFFFFFFF AND TIMESTAMP PUSH1 0x40 MLOAD PUSH1 0x20 ADD PUSH2 0x5A8E SWAP2 DUP2 MSTORE PUSH1 0x20 ADD SWAP1 JUMP JUMPDEST PUSH1 0x40 MLOAD PUSH1 0x20 DUP2 DUP4 SUB SUB DUP2 MSTORE SWAP1 PUSH1 0x40 MSTORE DUP1 MLOAD SWAP1 PUSH1 0x20 ADD KECCAK256 PUSH1 0x0 SHR PUSH2 0x5AB1 SWAP2 SWAP1 PUSH2 0x67B4 JUMP JUMPDEST PUSH2 0x3E78 SWAP2 SWAP1 PUSH2 0x6667 JUMP JUMPDEST PUSH2 0x1B63 DUP3 DUP3 PUSH1 0x40 MLOAD PUSH1 0x24 ADD PUSH2 0x5AD1 SWAP3 SWAP2 SWAP1 PUSH2 0x680F JUMP JUMPDEST PUSH1 0x40 DUP1 MLOAD PUSH1 0x1F NOT DUP2 DUP5 SUB ADD DUP2 MSTORE SWAP2 SWAP1 MSTORE PUSH1 0x20 DUP2 ADD DUP1 MLOAD PUSH1 0x1 PUSH1 0x1 PUSH1 0xE0 SHL SUB AND PUSH4 0x2D839CB3 PUSH1 0xE2 SHL OR SWAP1 MSTORE PUSH2 0x5E79 JUMP JUMPDEST PUSH1 0x0 DUP2 PUSH1 0x40 MLOAD PUSH1 0x20 ADD PUSH2 0x5B13 SWAP2 SWAP1 PUSH2 0x6831 JUMP JUMPDEST PUSH1 0x40 DUP1 MLOAD PUSH1 0x1F NOT DUP2 DUP5 SUB ADD DUP2 MSTORE SWAP2 SWAP1 MSTORE DUP1 MLOAD PUSH1 0x20 SWAP1 SWAP2 ADD KECCAK256 SWAP3 SWAP2 POP POP JUMP JUMPDEST PUSH1 0x0 DUP5 DUP5 DUP5 DUP5 PUSH1 0x40 MLOAD PUSH1 0x20 ADD PUSH2 0x5B4A SWAP5 SWAP4 SWAP3 SWAP2 SWAP1 PUSH2 0x684D JUMP JUMPDEST PUSH1 0x40 DUP1 MLOAD PUSH1 0x1F NOT DUP2 DUP5 SUB ADD DUP2 MSTORE SWAP2 SWAP1 MSTORE DUP1 MLOAD PUSH1 0x20 SWAP1 SWAP2 ADD KECCAK256 SWAP6 SWAP5 POP POP POP POP POP JUMP JUMPDEST PUSH1 0x5 SLOAD PUSH2 0x5B7A SWAP1 PUSH1 0x1 SWAP1 PUSH2 0x65CE JUMP JUMPDEST DUP2 LT ISZERO PUSH2 0x5C05 JUMPI PUSH1 0x5 PUSH2 0x5B8E DUP3 PUSH1 0x1 PUSH2 0x65A2 JUMP JUMPDEST DUP2 SLOAD DUP2 LT PUSH2 0x5B9E JUMPI PUSH2 0x5B9E PUSH2 0x6576 JUMP JUMPDEST PUSH1 0x0 SWAP2 DUP3 MSTORE PUSH1 0x20 SWAP1 SWAP2 KECCAK256 ADD SLOAD PUSH1 0x5 DUP1 SLOAD PUSH1 0x1 PUSH1 0x1 PUSH1 0xA0 SHL SUB SWAP1 SWAP3 AND SWAP2 DUP4 SWAP1 DUP2 LT PUSH2 0x5BCA JUMPI PUSH2 0x5BCA PUSH2 0x6576 JUMP JUMPDEST PUSH1 0x0 SWAP2 DUP3 MSTORE PUSH1 0x20 SWAP1 SWAP2 KECCAK256 ADD DUP1 SLOAD PUSH1 0x1 PUSH1 0x1 PUSH1 0xA0 SHL SUB NOT AND PUSH1 0x1 PUSH1 0x1 PUSH1 0xA0 SHL SUB SWAP3 SWAP1 SWAP3 AND SWAP2 SWAP1 SWAP2 OR SWAP1 SSTORE DUP1 PUSH2 0x5BFD DUP2 PUSH2 0x65B5 JUMP JUMPDEST SWAP2 POP POP PUSH2 0x5B6B JUMP JUMPDEST PUSH1 0x5 DUP1 SLOAD DUP1 PUSH2 0x5C16 JUMPI PUSH2 0x5C16 PUSH2 0x65E1 JUMP JUMPDEST PUSH1 0x0 DUP3 DUP2 MSTORE PUSH1 0x20 SWAP1 KECCAK256 DUP2 ADD PUSH1 0x0 NOT SWAP1 DUP2 ADD DUP1 SLOAD PUSH1 0x1 PUSH1 0x1 PUSH1 0xA0 SHL SUB NOT AND SWAP1 SSTORE ADD SWAP1 SSTORE POP JUMP JUMPDEST DUP1 JUMPDEST PUSH1 0x1 SLOAD DUP2 LT ISZERO PUSH2 0x5CCA JUMPI PUSH1 0x1 PUSH2 0x5C53 DUP3 DUP3 PUSH2 0x65A2 JUMP JUMPDEST DUP2 SLOAD DUP2 LT PUSH2 0x5C63 JUMPI PUSH2 0x5C63 PUSH2 0x6576 JUMP JUMPDEST PUSH1 0x0 SWAP2 DUP3 MSTORE PUSH1 0x20 SWAP1 SWAP2 KECCAK256 ADD SLOAD PUSH1 0x1 DUP1 SLOAD PUSH1 0x1 PUSH1 0x1 PUSH1 0xA0 SHL SUB SWAP1 SWAP3 AND SWAP2 DUP4 SWAP1 DUP2 LT PUSH2 0x5C8F JUMPI PUSH2 0x5C8F PUSH2 0x6576 JUMP JUMPDEST PUSH1 0x0 SWAP2 DUP3 MSTORE PUSH1 0x20 SWAP1 SWAP2 KECCAK256 ADD DUP1 SLOAD PUSH1 0x1 PUSH1 0x1 PUSH1 0xA0 SHL SUB NOT AND PUSH1 0x1 PUSH1 0x1 PUSH1 0xA0 SHL SUB SWAP3 SWAP1 SWAP3 AND SWAP2 SWAP1 SWAP2 OR SWAP1 SSTORE DUP1 PUSH2 0x5CC2 DUP2 PUSH2 0x65B5 JUMP JUMPDEST SWAP2 POP POP PUSH2 0x5C3D JUMP JUMPDEST POP PUSH1 0x1 DUP1 SLOAD DUP1 PUSH2 0x5C16 JUMPI PUSH2 0x5C16 PUSH2 0x65E1 JUMP JUMPDEST PUSH1 0x1 PUSH1 0x1 PUSH1 0xA0 SHL SUB DUP3 AND PUSH1 0x0 SWAP1 DUP2 MSTORE PUSH1 0x10 PUSH1 0x20 SWAP1 DUP2 MSTORE PUSH1 0x40 DUP1 DUP4 KECCAK256 PUSH1 0x16 SWAP1 SWAP3 MSTORE DUP3 KECCAK256 SLOAD DUP3 SWAP2 SWAP1 DUP3 SWAP1 PUSH1 0xFF AND PUSH1 0x2 DUP2 GT ISZERO PUSH2 0x5D18 JUMPI PUSH2 0x5D18 PUSH2 0x625C JUMP JUMPDEST PUSH1 0x2 DUP2 GT ISZERO PUSH2 0x5D29 JUMPI PUSH2 0x5D29 PUSH2 0x625C JUMP JUMPDEST DUP2 MSTORE PUSH1 0x20 ADD SWAP1 DUP2 MSTORE PUSH1 0x20 ADD PUSH1 0x0 KECCAK256 SWAP1 POP PUSH1 0x0 DUP4 PUSH1 0x40 MLOAD PUSH1 0x20 ADD PUSH2 0x5D4C SWAP2 SWAP1 PUSH2 0x6831 JUMP JUMPDEST PUSH1 0x40 MLOAD PUSH1 0x20 DUP2 DUP4 SUB SUB DUP2 MSTORE SWAP1 PUSH1 0x40 MSTORE DUP1 MLOAD SWAP1 PUSH1 0x20 ADD KECCAK256 SWAP1 POP JUMPDEST DUP2 SLOAD DUP4 LT ISZERO PUSH2 0x5E72 JUMPI DUP1 DUP3 DUP5 DUP2 SLOAD DUP2 LT PUSH2 0x5D81 JUMPI PUSH2 0x5D81 PUSH2 0x6576 JUMP JUMPDEST SWAP1 PUSH1 0x0 MSTORE PUSH1 0x20 PUSH1 0x0 KECCAK256 ADD PUSH1 0x40 MLOAD PUSH1 0x20 ADD PUSH2 0x5D9B SWAP2 SWAP1 PUSH2 0x6889 JUMP JUMPDEST PUSH1 0x40 MLOAD PUSH1 0x20 DUP2 DUP4 SUB SUB DUP2 MSTORE SWAP1 PUSH1 0x40 MSTORE DUP1 MLOAD SWAP1 PUSH1 0x20 ADD KECCAK256 SUB PUSH2 0x5E60 JUMPI JUMPDEST DUP2 SLOAD PUSH2 0x5DC5 SWAP1 PUSH1 0x1 SWAP1 PUSH2 0x65CE JUMP JUMPDEST DUP4 LT ISZERO PUSH2 0x5E2D JUMPI DUP2 PUSH2 0x5DD8 DUP5 PUSH1 0x1 PUSH2 0x65A2 JUMP JUMPDEST DUP2 SLOAD DUP2 LT PUSH2 0x5DE8 JUMPI PUSH2 0x5DE8 PUSH2 0x6576 JUMP JUMPDEST SWAP1 PUSH1 0x0 MSTORE PUSH1 0x20 PUSH1 0x0 KECCAK256 ADD DUP3 DUP5 DUP2 SLOAD DUP2 LT PUSH2 0x5E04 JUMPI PUSH2 0x5E04 PUSH2 0x6576 JUMP JUMPDEST SWAP1 PUSH1 0x0 MSTORE PUSH1 0x20 PUSH1 0x0 KECCAK256 ADD SWAP1 DUP2 PUSH2 0x5E1A SWAP2 SWAP1 PUSH2 0x68FF JUMP JUMPDEST POP DUP3 PUSH2 0x5E25 DUP2 PUSH2 0x65B5 JUMP JUMPDEST SWAP4 POP POP PUSH2 0x5DB7 JUMP JUMPDEST DUP2 DUP1 SLOAD DUP1 PUSH2 0x5E3D JUMPI PUSH2 0x5E3D PUSH2 0x65E1 JUMP JUMPDEST PUSH1 0x1 SWAP1 SUB DUP2 DUP2 SWAP1 PUSH1 0x0 MSTORE PUSH1 0x20 PUSH1 0x0 KECCAK256 ADD PUSH1 0x0 PUSH2 0x5E59 SWAP2 SWAP1 PUSH2 0x5F1B JUMP JUMPDEST SWAP1 SSTORE PUSH2 0x5E72 JUMP JUMPDEST DUP3 PUSH2 0x5E6A DUP2 PUSH2 0x65B5 JUMP JUMPDEST SWAP4 POP POP PUSH2 0x5D65 JUMP JUMPDEST POP POP POP POP POP JUMP JUMPDEST PUSH2 0x4E62 DUP2 PUSH1 0x0 PUSH11 0x636F6E736F6C652E6C6F67 SWAP1 POP PUSH1 0x0 DUP1 DUP4 MLOAD PUSH1 0x20 DUP6 ADD DUP5 GAS STATICCALL POP POP POP JUMP JUMPDEST PUSH1 0x40 DUP1 MLOAD PUSH1 0xC0 DUP2 ADD DUP3 MSTORE PUSH1 0x0 DUP1 DUP3 MSTORE PUSH1 0x20 DUP3 ADD DUP2 SWAP1 MSTORE SWAP2 DUP2 ADD DUP3 SWAP1 MSTORE PUSH1 0x60 DUP2 ADD DUP3 SWAP1 MSTORE PUSH1 0x80 DUP2 ADD DUP3 SWAP1 MSTORE SWAP1 PUSH1 0xA0 DUP3 ADD SWAP1 JUMPDEST SWAP1 MSTORE SWAP1 JUMP JUMPDEST PUSH1 0x40 MLOAD DUP1 PUSH1 0xC0 ADD PUSH1 0x40 MSTORE DUP1 PUSH1 0x60 DUP2 MSTORE PUSH1 0x20 ADD PUSH1 0x0 DUP2 MSTORE PUSH1 0x20 ADD PUSH1 0x0 DUP2 MSTORE PUSH1 0x20 ADD PUSH1 0x0 DUP2 MSTORE PUSH1 0x20 ADD PUSH1 0x0 PUSH4 0xFFFFFFFF AND DUP2 MSTORE PUSH1 0x20 ADD PUSH1 0x0 PUSH1 0x2 DUP2 GT ISZERO PUSH2 0x5ECF JUMPI PUSH2 0x5ECF PUSH2 0x625C JUMP JUMPDEST POP DUP1 SLOAD PUSH2 0x5F27 SWAP1 PUSH2 0x653C JUMP JUMPDEST PUSH1 0x0 DUP3 SSTORE DUP1 PUSH1 0x1F LT PUSH2 0x5F37 JUMPI POP POP JUMP JUMPDEST PUSH1 0x1F ADD PUSH1 0x20 SWAP1 DIV SWAP1 PUSH1 0x0 MSTORE PUSH1 0x20 PUSH1 0x0 KECCAK256 SWAP1 DUP2 ADD SWAP1 PUSH2 0x4E62 SWAP2 SWAP1 JUMPDEST DUP1 DUP3 GT ISZERO PUSH2 0x3605 JUMPI PUSH1 0x0 DUP2 SSTORE PUSH1 0x1 ADD PUSH2 0x5F51 JUMP JUMPDEST PUSH1 0x0 JUMPDEST DUP4 DUP2 LT ISZERO PUSH2 0x5F80 JUMPI DUP2 DUP2 ADD MLOAD DUP4 DUP3 ADD MSTORE PUSH1 0x20 ADD PUSH2 0x5F68 JUMP JUMPDEST POP POP PUSH1 0x0 SWAP2 ADD MSTORE JUMP JUMPDEST PUSH1 0x0 DUP2 MLOAD DUP1 DUP5 MSTORE PUSH2 0x5FA1 DUP2 PUSH1 0x20 DUP7 ADD PUSH1 0x20 DUP7 ADD PUSH2 0x5F65 JUMP JUMPDEST PUSH1 0x1F ADD PUSH1 0x1F NOT AND SWAP3 SWAP1 SWAP3 ADD PUSH1 0x20 ADD SWAP3 SWAP2 POP POP JUMP JUMPDEST PUSH1 0x0 PUSH1 0x20 DUP1 DUP4 ADD DUP2 DUP5 MSTORE DUP1 DUP6 MLOAD DUP1 DUP4 MSTORE PUSH1 0x40 SWAP3 POP DUP3 DUP7 ADD SWAP2 POP DUP3 DUP2 PUSH1 0x5 SHL DUP8 ADD ADD DUP5 DUP9 ADD PUSH1 0x0 JUMPDEST DUP4 DUP2 LT ISZERO PUSH2 0x6097 JUMPI DUP9 DUP4 SUB PUSH1 0x3F NOT ADD DUP6 MSTORE DUP2 MLOAD DUP1 MLOAD PUSH1 0x1 PUSH1 0x1 PUSH1 0xA0 SHL SUB AND DUP5 MSTORE PUSH2 0x140 DUP2 DUP10 ADD MLOAD PUSH1 0x1 PUSH1 0x1 PUSH1 0xA0 SHL SUB DUP2 AND DUP7 DUP12 ADD MSTORE POP DUP8 DUP3 ADD MLOAD DUP2 DUP10 DUP8 ADD MSTORE PUSH2 0x6027 DUP3 DUP8 ADD DUP3 PUSH2 0x5F89 JUMP JUMPDEST PUSH1 0x60 DUP5 DUP2 ADD MLOAD SWAP1 DUP9 ADD MSTORE PUSH1 0x80 DUP1 DUP6 ADD MLOAD SWAP1 DUP9 ADD MSTORE PUSH1 0xA0 DUP1 DUP6 ADD MLOAD SWAP1 DUP9 ADD MSTORE PUSH1 0xC0 DUP1 DUP6 ADD MLOAD PUSH4 0xFFFFFFFF SWAP1 DUP2 AND SWAP2 DUP10 ADD SWAP2 SWAP1 SWAP2 MSTORE PUSH1 0xE0 DUP1 DUP7 ADD MLOAD SWAP1 SWAP2 AND SWAP1 DUP9 ADD MSTORE PUSH2 0x100 DUP1 DUP6 ADD MLOAD ISZERO ISZERO SWAP1 DUP9 ADD MSTORE PUSH2 0x120 SWAP4 DUP5 ADD MLOAD ISZERO ISZERO SWAP4 SWAP1 SWAP7 ADD SWAP3 SWAP1 SWAP3 MSTORE POP POP SWAP4 DUP7 ADD SWAP4 SWAP1 DUP7 ADD SWAP1 PUSH1 0x1 ADD PUSH2 0x5FDC JUMP JUMPDEST POP SWAP1 SWAP9 SWAP8 POP POP POP POP POP POP POP POP JUMP JUMPDEST PUSH1 0x1 PUSH1 0x1 PUSH1 0xA0 SHL SUB DUP2 AND DUP2 EQ PUSH2 0x4E62 JUMPI PUSH1 0x0 DUP1 REVERT JUMPDEST PUSH1 0x0 PUSH1 0x20 DUP3 DUP5 SUB SLT ISZERO PUSH2 0x60CC JUMPI PUSH1 0x0 DUP1 REVERT JUMPDEST DUP2 CALLDATALOAD PUSH2 0x60D7 DUP2 PUSH2 0x60A5 JUMP JUMPDEST SWAP4 SWAP3 POP POP POP JUMP JUMPDEST PUSH1 0x0 PUSH1 0x20 DUP1 DUP4 ADD DUP2 DUP5 MSTORE DUP1 DUP6 MLOAD DUP1 DUP4 MSTORE PUSH1 0x40 DUP7 ADD SWAP2 POP PUSH1 0x40 DUP2 PUSH1 0x5 SHL DUP8 ADD ADD SWAP3 POP DUP4 DUP8 ADD PUSH1 0x0 JUMPDEST DUP3 DUP2 LT ISZERO PUSH2 0x6133 JUMPI PUSH1 0x3F NOT DUP9 DUP7 SUB ADD DUP5 MSTORE PUSH2 0x6121 DUP6 DUP4 MLOAD PUSH2 0x5F89 JUMP JUMPDEST SWAP5 POP SWAP3 DUP6 ADD SWAP3 SWAP1 DUP6 ADD SWAP1 PUSH1 0x1 ADD PUSH2 0x6105 JUMP JUMPDEST POP SWAP3 SWAP8 SWAP7 POP POP POP POP POP POP POP JUMP JUMPDEST PUSH4 0x4E487B71 PUSH1 0xE0 SHL PUSH1 0x0 MSTORE PUSH1 0x41 PUSH1 0x4 MSTORE PUSH1 0x24 PUSH1 0x0 REVERT JUMPDEST PUSH1 0x0 DUP3 PUSH1 0x1F DUP4 ADD SLT PUSH2 0x6167 JUMPI PUSH1 0x0 DUP1 REVERT JUMPDEST DUP2 CALLDATALOAD PUSH8 0xFFFFFFFFFFFFFFFF DUP1 DUP3 GT ISZERO PUSH2 0x6182 JUMPI PUSH2 0x6182 PUSH2 0x6140 JUMP JUMPDEST PUSH1 0x40 MLOAD PUSH1 0x1F DUP4 ADD PUSH1 0x1F NOT SWAP1 DUP2 AND PUSH1 0x3F ADD AND DUP2 ADD SWAP1 DUP3 DUP3 GT DUP2 DUP4 LT OR ISZERO PUSH2 0x61AA JUMPI PUSH2 0x61AA PUSH2 0x6140 JUMP JUMPDEST DUP2 PUSH1 0x40 MSTORE DUP4 DUP2 MSTORE DUP7 PUSH1 0x20 DUP6 DUP9 ADD ADD GT ISZERO PUSH2 0x61C3 JUMPI PUSH1 0x0 DUP1 REVERT JUMPDEST DUP4 PUSH1 0x20 DUP8 ADD PUSH1 0x20 DUP4 ADD CALLDATACOPY PUSH1 0x0 PUSH1 0x20 DUP6 DUP4 ADD ADD MSTORE DUP1 SWAP5 POP POP POP POP POP SWAP3 SWAP2 POP POP JUMP JUMPDEST PUSH1 0x0 DUP1 PUSH1 0x0 DUP1 PUSH1 0x80 DUP6 DUP8 SUB SLT ISZERO PUSH2 0x61F9 JUMPI PUSH1 0x0 DUP1 REVERT JUMPDEST DUP5 CALLDATALOAD PUSH2 0x6204 DUP2 PUSH2 0x60A5 JUMP JUMPDEST SWAP4 POP PUSH1 0x20 DUP6 ADD CALLDATALOAD PUSH8 0xFFFFFFFFFFFFFFFF DUP2 GT ISZERO PUSH2 0x6220 JUMPI PUSH1 0x0 DUP1 REVERT JUMPDEST PUSH2 0x622C DUP8 DUP3 DUP9 ADD PUSH2 0x6156 JUMP JUMPDEST SWAP5 SWAP8 SWAP5 SWAP7 POP POP POP POP PUSH1 0x40 DUP4 ADD CALLDATALOAD SWAP3 PUSH1 0x60 ADD CALLDATALOAD SWAP2 SWAP1 POP JUMP JUMPDEST PUSH1 0x0 PUSH1 0x20 DUP3 DUP5 SUB SLT ISZERO PUSH2 0x6255 JUMPI PUSH1 0x0 DUP1 REVERT JUMPDEST POP CALLDATALOAD SWAP2 SWAP1 POP JUMP JUMPDEST PUSH4 0x4E487B71 PUSH1 0xE0 SHL PUSH1 0x0 MSTORE PUSH1 0x21 PUSH1 0x4 MSTORE PUSH1 0x24 PUSH1 0x0 REVERT JUMPDEST PUSH1 0x3 DUP2 LT PUSH2 0x6290 JUMPI PUSH4 0x4E487B71 PUSH1 0xE0 SHL PUSH1 0x0 MSTORE PUSH1 0x21 PUSH1 0x4 MSTORE PUSH1 0x24 PUSH1 0x0 REVERT JUMPDEST SWAP1 MSTORE JUMP JUMPDEST DUP2 MLOAD PUSH1 0x1 PUSH1 0x1 PUSH1 0xA0 SHL SUB AND DUP2 MSTORE PUSH1 0x20 DUP1 DUP4 ADD MLOAD PUSH1 0xC0 DUP4 ADD SWAP2 PUSH2 0x62B8 SWAP1 DUP5 ADD DUP3 PUSH2 0x6272 JUMP JUMPDEST POP PUSH1 0x40 DUP4 ADD MLOAD ISZERO ISZERO PUSH1 0x40 DUP4 ADD MSTORE PUSH1 0xFF PUSH1 0x60 DUP5 ADD MLOAD AND PUSH1 0x60 DUP4 ADD MSTORE PUSH1 0x80 DUP4 ADD MLOAD ISZERO ISZERO PUSH1 0x80 DUP4 ADD MSTORE PUSH1 0xA0 DUP4 ADD MLOAD PUSH2 0x62F0 PUSH1 0xA0 DUP5 ADD DUP3 PUSH2 0x6272 JUMP JUMPDEST POP SWAP3 SWAP2 POP POP JUMP JUMPDEST PUSH1 0x0 DUP1 PUSH1 0x0 DUP1 PUSH1 0x80 DUP6 DUP8 SUB SLT ISZERO PUSH2 0x630D JUMPI PUSH1 0x0 DUP1 REVERT JUMPDEST DUP5 CALLDATALOAD PUSH8 0xFFFFFFFFFFFFFFFF DUP2 GT ISZERO PUSH2 0x6324 JUMPI PUSH1 0x0 DUP1 REVERT JUMPDEST PUSH2 0x6330 DUP8 DUP3 DUP9 ADD PUSH2 0x6156 JUMP JUMPDEST SWAP5 POP POP PUSH1 0x20 DUP6 ADD CALLDATALOAD SWAP3 POP PUSH1 0x40 DUP6 ADD CALLDATALOAD SWAP2 POP PUSH1 0x60 DUP6 ADD CALLDATALOAD PUSH4 0xFFFFFFFF DUP2 AND DUP2 EQ PUSH2 0x6358 JUMPI PUSH1 0x0 DUP1 REVERT JUMPDEST SWAP4 SWAP7 SWAP3 SWAP6 POP SWAP1 SWAP4 POP POP JUMP JUMPDEST PUSH1 0x20 DUP1 DUP3 MSTORE DUP3 MLOAD DUP3 DUP3 ADD DUP2 SWAP1 MSTORE PUSH1 0x0 SWAP2 SWAP1 DUP5 DUP3 ADD SWAP1 PUSH1 0x40 DUP6 ADD SWAP1 DUP5 JUMPDEST DUP2 DUP2 LT ISZERO PUSH2 0x63A4 JUMPI DUP4 MLOAD PUSH1 0x1 PUSH1 0x1 PUSH1 0xA0 SHL SUB AND DUP4 MSTORE SWAP3 DUP5 ADD SWAP3 SWAP2 DUP5 ADD SWAP2 PUSH1 0x1 ADD PUSH2 0x637F JUMP JUMPDEST POP SWAP1 SWAP7 SWAP6 POP POP POP POP POP POP JUMP JUMPDEST PUSH1 0x0 PUSH1 0x20 DUP3 DUP5 SUB SLT ISZERO PUSH2 0x63C2 JUMPI PUSH1 0x0 DUP1 REVERT JUMPDEST DUP2 CALLDATALOAD PUSH2 0xFFFF DUP2 AND DUP2 EQ PUSH2 0x60D7 JUMPI PUSH1 0x0 DUP1 REVERT JUMPDEST PUSH1 0x0 PUSH1 0x20 DUP1 DUP4 ADD DUP2 DUP5 MSTORE DUP1 DUP6 MLOAD DUP1 DUP4 MSTORE PUSH1 0x40 SWAP3 POP DUP3 DUP7 ADD SWAP2 POP DUP3 DUP2 PUSH1 0x5 SHL DUP8 ADD ADD DUP5 DUP9 ADD PUSH1 0x0 JUMPDEST DUP4 DUP2 LT ISZERO PUSH2 0x6097 JUMPI PUSH1 0x3F NOT DUP10 DUP5 SUB ADD DUP6 MSTORE DUP2 MLOAD PUSH1 0xC0 DUP2 MLOAD DUP2 DUP7 MSTORE PUSH2 0x6421 DUP3 DUP8 ADD DUP3 PUSH2 0x5F89 JUMP JUMPDEST DUP4 DUP12 ADD MLOAD DUP8 DUP13 ADD MSTORE DUP10 DUP5 ADD MLOAD DUP11 DUP9 ADD MSTORE PUSH1 0x60 DUP1 DUP6 ADD MLOAD SWAP1 DUP9 ADD MSTORE PUSH1 0x80 DUP1 DUP6 ADD MLOAD PUSH4 0xFFFFFFFF AND SWAP1 DUP9 ADD MSTORE PUSH1 0xA0 SWAP4 DUP5 ADD MLOAD SWAP4 SWAP1 SWAP3 POP SWAP1 POP PUSH2 0x6463 DUP2 DUP8 ADD DUP5 PUSH2 0x6272 JUMP JUMPDEST POP SWAP6 DUP9 ADD SWAP6 SWAP4 POP POP SWAP1 DUP7 ADD SWAP1 PUSH1 0x1 ADD PUSH2 0x63FB JUMP JUMPDEST PUSH1 0x20 DUP1 DUP3 MSTORE DUP3 MLOAD DUP3 DUP3 ADD DUP2 SWAP1 MSTORE PUSH1 0x0 SWAP2 SWAP1 DUP5 DUP3 ADD SWAP1 PUSH1 0x40 DUP6 ADD SWAP1 DUP5 JUMPDEST DUP2 DUP2 LT ISZERO PUSH2 0x63A4 JUMPI DUP4 MLOAD DUP4 MSTORE SWAP3 DUP5 ADD SWAP3 SWAP2 DUP5 ADD SWAP2 PUSH1 0x1 ADD PUSH2 0x6493 JUMP JUMPDEST PUSH1 0x0 PUSH1 0x20 DUP3 DUP5 SUB SLT ISZERO PUSH2 0x64C1 JUMPI PUSH1 0x0 DUP1 REVERT JUMPDEST DUP2 CALLDATALOAD PUSH8 0xFFFFFFFFFFFFFFFF DUP2 GT ISZERO PUSH2 0x64D8 JUMPI PUSH1 0x0 DUP1 REVERT JUMPDEST PUSH2 0x64E4 DUP5 DUP3 DUP6 ADD PUSH2 0x6156 JUMP JUMPDEST SWAP5 SWAP4 POP POP POP POP JUMP JUMPDEST PUSH1 0x0 DUP1 PUSH1 0x40 DUP4 DUP6 SUB SLT ISZERO PUSH2 0x64FF JUMPI PUSH1 0x0 DUP1 REVERT JUMPDEST DUP3 CALLDATALOAD PUSH2 0x650A DUP2 PUSH2 0x60A5 JUMP JUMPDEST SWAP2 POP PUSH1 0x20 DUP4 ADD CALLDATALOAD PUSH8 0xFFFFFFFFFFFFFFFF DUP2 GT ISZERO PUSH2 0x6526 JUMPI PUSH1 0x0 DUP1 REVERT JUMPDEST PUSH2 0x6532 DUP6 DUP3 DUP7 ADD PUSH2 0x6156 JUMP JUMPDEST SWAP2 POP POP SWAP3 POP SWAP3 SWAP1 POP JUMP JUMPDEST PUSH1 0x1 DUP2 DUP2 SHR SWAP1 DUP3 AND DUP1 PUSH2 0x6550 JUMPI PUSH1 0x7F DUP3 AND SWAP2 POP JUMPDEST PUSH1 0x20 DUP3 LT DUP2 SUB PUSH2 0x6570 JUMPI PUSH4 0x4E487B71 PUSH1 0xE0 SHL PUSH1 0x0 MSTORE PUSH1 0x22 PUSH1 0x4 MSTORE PUSH1 0x24 PUSH1 0x0 REVERT JUMPDEST POP SWAP2 SWAP1 POP JUMP JUMPDEST PUSH4 0x4E487B71 PUSH1 0xE0 SHL PUSH1 0x0 MSTORE PUSH1 0x32 PUSH1 0x4 MSTORE PUSH1 0x24 PUSH1 0x0 REVERT JUMPDEST PUSH4 0x4E487B71 PUSH1 0xE0 SHL PUSH1 0x0 MSTORE PUSH1 0x11 PUSH1 0x4 MSTORE PUSH1 0x24 PUSH1 0x0 REVERT JUMPDEST DUP1 DUP3 ADD DUP1 DUP3 GT ISZERO PUSH2 0x3E78 JUMPI PUSH2 0x3E78 PUSH2 0x658C JUMP JUMPDEST PUSH1 0x0 PUSH1 0x1 DUP3 ADD PUSH2 0x65C7 JUMPI PUSH2 0x65C7 PUSH2 0x658C JUMP JUMPDEST POP PUSH1 0x1 ADD SWAP1 JUMP JUMPDEST DUP2 DUP2 SUB DUP2 DUP2 GT ISZERO PUSH2 0x3E78 JUMPI PUSH2 0x3E78 PUSH2 0x658C JUMP JUMPDEST PUSH4 0x4E487B71 PUSH1 0xE0 SHL PUSH1 0x0 MSTORE PUSH1 0x31 PUSH1 0x4 MSTORE PUSH1 0x24 PUSH1 0x0 REVERT JUMPDEST PUSH1 0x0 DUP2 PUSH2 0x6606 JUMPI PUSH2 0x6606 PUSH2 0x658C JUMP JUMPDEST POP PUSH1 0x0 NOT ADD SWAP1 JUMP JUMPDEST PUSH1 0x20 DUP2 MSTORE PUSH1 0x0 PUSH2 0x60D7 PUSH1 0x20 DUP4 ADD DUP5 PUSH2 0x5F89 JUMP JUMPDEST PUSH1 0xFF DUP3 DUP2 AND DUP3 DUP3 AND SUB SWAP1 DUP2 GT ISZERO PUSH2 0x3E78 JUMPI PUSH2 0x3E78 PUSH2 0x658C JUMP JUMPDEST DUP1 DUP3 MUL DUP2 ISZERO DUP3 DUP3 DIV DUP5 EQ OR PUSH2 0x3E78 JUMPI PUSH2 0x3E78 PUSH2 0x658C JUMP JUMPDEST PUSH4 0x4E487B71 PUSH1 0xE0 SHL PUSH1 0x0 MSTORE PUSH1 0x12 PUSH1 0x4 MSTORE PUSH1 0x24 PUSH1 0x0 REVERT JUMPDEST PUSH1 0x0 DUP3 PUSH2 0x6676 JUMPI PUSH2 0x6676 PUSH2 0x6651 JUMP JUMPDEST POP DIV SWAP1 JUMP JUMPDEST PUSH1 0x1F DUP3 GT ISZERO PUSH2 0x66C1 JUMPI PUSH1 0x0 DUP2 DUP2 MSTORE PUSH1 0x20 DUP2 KECCAK256 PUSH1 0x1F DUP6 ADD PUSH1 0x5 SHR DUP2 ADD PUSH1 0x20 DUP7 LT ISZERO PUSH2 0x66A2 JUMPI POP DUP1 JUMPDEST PUSH1 0x1F DUP6 ADD PUSH1 0x5 SHR DUP3 ADD SWAP2 POP JUMPDEST DUP2 DUP2 LT ISZERO PUSH2 0x58FB JUMPI DUP3 DUP2 SSTORE PUSH1 0x1 ADD PUSH2 0x66AE JUMP JUMPDEST POP POP POP JUMP JUMPDEST DUP2 MLOAD PUSH8 0xFFFFFFFFFFFFFFFF DUP2 GT ISZERO PUSH2 0x66E0 JUMPI PUSH2 0x66E0 PUSH2 0x6140 JUMP JUMPDEST PUSH2 0x66F4 DUP2 PUSH2 0x66EE DUP5 SLOAD PUSH2 0x653C JUMP JUMPDEST DUP5 PUSH2 0x667B JUMP JUMPDEST PUSH1 0x20 DUP1 PUSH1 0x1F DUP4 GT PUSH1 0x1 DUP2 EQ PUSH2 0x6729 JUMPI PUSH1 0x0 DUP5 ISZERO PUSH2 0x6711 JUMPI POP DUP6 DUP4 ADD MLOAD JUMPDEST PUSH1 0x0 NOT PUSH1 0x3 DUP7 SWAP1 SHL SHR NOT AND PUSH1 0x1 DUP6 SWAP1 SHL OR DUP6 SSTORE PUSH2 0x58FB JUMP JUMPDEST PUSH1 0x0 DUP6 DUP2 MSTORE PUSH1 0x20 DUP2 KECCAK256 PUSH1 0x1F NOT DUP7 AND SWAP2 JUMPDEST DUP3 DUP2 LT ISZERO PUSH2 0x6758 JUMPI DUP9 DUP7 ADD MLOAD DUP3 SSTORE SWAP5 DUP5 ADD SWAP5 PUSH1 0x1 SWAP1 SWAP2 ADD SWAP1 DUP5 ADD PUSH2 0x6739 JUMP JUMPDEST POP DUP6 DUP3 LT ISZERO PUSH2 0x6776 JUMPI DUP8 DUP6 ADD MLOAD PUSH1 0x0 NOT PUSH1 0x3 DUP9 SWAP1 SHL PUSH1 0xF8 AND SHR NOT AND DUP2 SSTORE JUMPDEST POP POP POP POP POP PUSH1 0x1 SWAP1 DUP2 SHL ADD SWAP1 SSTORE POP JUMP JUMPDEST PUSH1 0x20 DUP1 DUP3 MSTORE PUSH1 0x14 SWAP1 DUP3 ADD MSTORE PUSH20 0x2CB7BA9030B932B713BA103A34329037BBB732B9 PUSH1 0x61 SHL PUSH1 0x40 DUP3 ADD MSTORE PUSH1 0x60 ADD SWAP1 JUMP JUMPDEST PUSH1 0x0 DUP3 PUSH2 0x67C3 JUMPI PUSH2 0x67C3 PUSH2 0x6651 JUMP JUMPDEST POP MOD SWAP1 JUMP JUMPDEST PUSH1 0x0 PUSH1 0xFF DUP3 AND PUSH1 0xFF DUP2 SUB PUSH2 0x67DE JUMPI PUSH2 0x67DE PUSH2 0x658C JUMP JUMPDEST PUSH1 0x1 ADD SWAP3 SWAP2 POP POP JUMP JUMPDEST PUSH4 0xFFFFFFFF DUP2 DUP2 AND DUP4 DUP3 AND MUL DUP1 DUP3 AND SWAP2 SWAP1 DUP3 DUP2 EQ PUSH2 0x6807 JUMPI PUSH2 0x6807 PUSH2 0x658C JUMP JUMPDEST POP POP SWAP3 SWAP2 POP POP JUMP JUMPDEST PUSH1 0x40 DUP2 MSTORE PUSH1 0x0 PUSH2 0x6822 PUSH1 0x40 DUP4 ADD DUP6 PUSH2 0x5F89 JUMP JUMPDEST SWAP1 POP DUP3 PUSH1 0x20 DUP4 ADD MSTORE SWAP4 SWAP3 POP POP POP JUMP JUMPDEST PUSH1 0x0 DUP3 MLOAD PUSH2 0x6843 DUP2 DUP5 PUSH1 0x20 DUP8 ADD PUSH2 0x5F65 JUMP JUMPDEST SWAP2 SWAP1 SWAP2 ADD SWAP3 SWAP2 POP POP JUMP JUMPDEST PUSH1 0x0 DUP6 MLOAD PUSH2 0x685F DUP2 DUP5 PUSH1 0x20 DUP11 ADD PUSH2 0x5F65 JUMP JUMPDEST SWAP2 SWAP1 SWAP2 ADD SWAP4 DUP5 MSTORE POP PUSH1 0xE0 SWAP2 SWAP1 SWAP2 SHL PUSH1 0x1 PUSH1 0x1 PUSH1 0xE0 SHL SUB NOT AND PUSH1 0x20 DUP4 ADD MSTORE PUSH1 0x24 DUP3 ADD MSTORE PUSH1 0x44 ADD SWAP2 SWAP1 POP JUMP JUMPDEST PUSH1 0x0 DUP1 DUP4 SLOAD PUSH2 0x6897 DUP2 PUSH2 0x653C JUMP JUMPDEST PUSH1 0x1 DUP3 DUP2 AND DUP1 ISZERO PUSH2 0x68AF JUMPI PUSH1 0x1 DUP2 EQ PUSH2 0x68C4 JUMPI PUSH2 0x68F3 JUMP JUMPDEST PUSH1 0xFF NOT DUP5 AND DUP8 MSTORE DUP3 ISZERO ISZERO DUP4 MUL DUP8 ADD SWAP5 POP PUSH2 0x68F3 JUMP JUMPDEST DUP8 PUSH1 0x0 MSTORE PUSH1 0x20 DUP1 PUSH1 0x0 KECCAK256 PUSH1 0x0 JUMPDEST DUP6 DUP2 LT ISZERO PUSH2 0x68EA JUMPI DUP2 SLOAD DUP11 DUP3 ADD MSTORE SWAP1 DUP5 ADD SWAP1 DUP3 ADD PUSH2 0x68D1 JUMP JUMPDEST POP POP POP DUP3 DUP8 ADD SWAP5 POP JUMPDEST POP SWAP3 SWAP7 SWAP6 POP POP POP POP POP POP JUMP JUMPDEST DUP2 DUP2 SUB PUSH2 0x690A JUMPI POP POP JUMP JUMPDEST PUSH2 0x6914 DUP3 SLOAD PUSH2 0x653C JUMP JUMPDEST PUSH8 0xFFFFFFFFFFFFFFFF DUP2 GT ISZERO PUSH2 0x692C JUMPI PUSH2 0x692C PUSH2 0x6140 JUMP JUMPDEST PUSH2 0x693A DUP2 PUSH2 0x66EE DUP5 SLOAD PUSH2 0x653C JUMP JUMPDEST PUSH1 0x0 PUSH1 0x1F DUP3 GT PUSH1 0x1 DUP2 EQ PUSH2 0x696E JUMPI PUSH1 0x0 DUP4 ISZERO PUSH2 0x6956 JUMPI POP DUP5 DUP3 ADD SLOAD JUMPDEST PUSH1 0x0 NOT PUSH1 0x3 DUP6 SWAP1 SHL SHR NOT AND PUSH1 0x1 DUP5 SWAP1 SHL OR DUP5 SSTORE PUSH2 0x5E72 JUMP JUMPDEST PUSH1 0x0 DUP6 DUP2 MSTORE PUSH1 0x20 SWAP1 KECCAK256 PUSH1 0x1F NOT DUP5 AND SWAP1 PUSH1 0x0 DUP7 DUP2 MSTORE PUSH1 0x20 SWAP1 KECCAK256 DUP5 JUMPDEST DUP4 DUP2 LT ISZERO PUSH2 0x69A8 JUMPI DUP3 DUP7 ADD SLOAD DUP3 SSTORE PUSH1 0x1 SWAP6 DUP7 ADD SWAP6 SWAP1 SWAP2 ADD SWAP1 PUSH1 0x20 ADD PUSH2 0x6988 JUMP JUMPDEST POP DUP6 DUP4 LT ISZERO PUSH2 0x6776 JUMPI SWAP4 ADD SLOAD PUSH1 0x0 NOT PUSH1 0xF8 PUSH1 0x3 DUP8 SWAP1 SHL AND SHR NOT AND SWAP1 SWAP3 SSTORE POP POP PUSH1 0x1 SWAP1 DUP2 SHL ADD SWAP1 SSTORE POP JUMP INVALID LOG2 PUSH5 0x6970667358 0x22 SLT KECCAK256 PUSH32 0xE7BCF4609BCEF55D663E52ECD62BD02CE6D995B50617C785547DCCA35DA8D764 PUSH20 0x6F6C634300081200330000000000000000000000 "
		},
		"gasEstimates": {
			"creation": {
				"codeDepositCost": "5428800",
				"executionCost": "30787",
				"totalCost": "5459587"
			},
			"external": {
				"addProduct(string,uint256,uint256,uint32)": "infinite",
				"buyProducts(address,string,uint256,uint256)": "infinite",
				"changeRole(uint256)": "infinite",
				"checkDebts()": "4701",
				"getDiscount(uint256)": "33758",
				"getProductsHashesByTitle(address,string)": "infinite",
				"giveDiscount(address)": "infinite",
				"payOffDebt(uint256)": "infinite",
				"payOffDebts()": "infinite",
				"payOffReferal(uint256)": "infinite",
				"payOffReferals()": "infinite",
				"refund(uint256)": "infinite",
				"requestChangeRole(string)": "infinite",
				"requestRefund(uint256)": "134965",
				"showChangeRoleRequests()": "infinite",
				"showCredits()": "infinite",
				"showCreditsDebt()": "4598",
				"showDebtAddresses()": "infinite",
				"showDebtSum()": "infinite",
				"showHistory()": "infinite",
				"showProduct(address,string)": "infinite",
				"showProducts(address)": "infinite",
				"showProductsTitles(address)": "infinite",
				"showProfile()": "infinite",
				"showRefundRequests()": "infinite",
				"showRefundRequestsTime()": "infinite",
				"showStores()": "infinite",
				"showSuppliers()": "infinite",
				"showUsers()": "infinite",
				"signIn(uint16)": "245595"
			},
			"internal": {
				"addCredit()": "infinite",
				"decProduct(string memory,address,uint256,uint256,uint32,uint256)": "infinite",
				"generateHash(string memory)": "infinite",
				"generateHash(string memory,uint256,uint32,uint256)": "infinite",
				"incProduct(string memory,uint256,uint256,uint256,uint32)": "infinite",
				"randomNumber(uint32)": "infinite",
				"removeChangeRoleRequest(uint256)": "infinite",
				"removeCreditsElement(uint256)": "infinite",
				"removeProductTitle(address,string memory)": "infinite"
			}
		},
		"methodIdentifiers": {
			"addProduct(string,uint256,uint256,uint32)": "2fffffbb",
			"buyProducts(address,string,uint256,uint256)": "1af37578",
			"changeRole(uint256)": "429848d9",
			"checkDebts()": "48004b9a",
			"getDiscount(uint256)": "2336dbe4",
			"getProductsHashesByTitle(address,string)": "91c8d204",
			"giveDiscount(address)": "87aee8ad",
			"payOffDebt(uint256)": "ea77299d",
			"payOffDebts()": "13278cb8",
			"payOffReferal(uint256)": "bcc22c9a",
			"payOffReferals()": "a0ae3f1c",
			"refund(uint256)": "278ecde1",
			"requestChangeRole(string)": "57e425bc",
			"requestRefund(uint256)": "a4b2409e",
			"showChangeRoleRequests()": "b752a416",
			"showCredits()": "5af02dfa",
			"showCreditsDebt()": "279e56e4",
			"showDebtAddresses()": "569af213",
			"showDebtSum()": "695c92fb",
			"showHistory()": "040c4be8",
			"showProduct(address,string)": "8465d650",
			"showProducts(address)": "3e903270",
			"showProductsTitles(address)": "1a3c6b5c",
			"showProfile()": "279a6f4d",
			"showRefundRequests()": "9d7d2e8d",
			"showRefundRequestsTime()": "4e5a05df",
			"showStores()": "abe9f681",
			"showSuppliers()": "bdf13851",
			"showUsers()": "329dd364",
			"signIn(uint16)": "3d9d9a5c"
		}
	},
	"abi": [
		{
			"inputs": [
				{
					"internalType": "string",
					"name": "role",
					"type": "string"
				}
			],
			"name": "InvalidRole",
			"type": "error"
		},
		{
			"inputs": [
				{
					"internalType": "uint256",
					"name": "available",
					"type": "uint256"
				},
				{
					"internalType": "uint256",
					"name": "required",
					"type": "uint256"
				}
			],
			"name": "NotEnoughFunds",
			"type": "error"
		},
		{
			"inputs": [],
			"name": "PermissionDenied",
			"type": "error"
		},
		{
			"inputs": [
				{
					"internalType": "string",
					"name": "title",
					"type": "string"
				}
			],
			"name": "ProductDoesNotExists",
			"type": "error"
		},
		{
			"inputs": [],
			"name": "RoleNotSelected",
			"type": "error"
		},
		{
			"inputs": [
				{
					"internalType": "address",
					"name": "addr",
					"type": "address"
				}
			],
			"name": "UserDoesNotExists",
			"type": "error"
		},
		{
			"anonymous": false,
			"inputs": [
				{
					"indexed": false,
					"internalType": "uint256",
					"name": "id",
					"type": "uint256"
				}
			],
			"name": "refundApproved",
			"type": "event"
		},
		{
			"anonymous": false,
			"inputs": [
				{
					"indexed": false,
					"internalType": "uint256",
					"name": "id",
					"type": "uint256"
				}
			],
			"name": "refundRejected",
			"type": "event"
		},
		{
			"anonymous": false,
			"inputs": [
				{
					"indexed": false,
					"internalType": "address",
					"name": "addr",
					"type": "address"
				}
			],
			"name": "roleChanged",
			"type": "event"
		},
		{
			"inputs": [
				{
					"internalType": "string",
					"name": "_title",
					"type": "string"
				},
				{
					"internalType": "uint256",
					"name": "_cost_wei",
					"type": "uint256"
				},
				{
					"internalType": "uint256",
					"name": "_amount",
					"type": "uint256"
				},
				{
					"internalType": "uint32",
					"name": "_storage_life",
					"type": "uint32"
				}
			],
			"name": "addProduct",
			"outputs": [],
			"stateMutability": "nonpayable",
			"type": "function"
		},
		{
			"inputs": [
				{
					"internalType": "address payable",
					"name": "_seller",
					"type": "address"
				},
				{
					"internalType": "string",
					"name": "_title",
					"type": "string"
				},
				{
					"internalType": "uint256",
					"name": "_productHash",
					"type": "uint256"
				},
				{
					"internalType": "uint256",
					"name": "_amount",
					"type": "uint256"
				}
			],
			"name": "buyProducts",
			"outputs": [],
			"stateMutability": "payable",
			"type": "function"
		},
		{
			"inputs": [
				{
					"internalType": "uint256",
					"name": "_id",
					"type": "uint256"
				}
			],
			"name": "changeRole",
			"outputs": [],
			"stateMutability": "nonpayable",
			"type": "function"
		},
		{
			"inputs": [],
			"name": "checkDebts",
			"outputs": [
				{
					"internalType": "uint256",
					"name": "",
					"type": "uint256"
				}
			],
			"stateMutability": "view",
			"type": "function"
		},
		{
			"inputs": [
				{
					"internalType": "uint256",
					"name": "_code",
					"type": "uint256"
				}
			],
			"name": "getDiscount",
			"outputs": [],
			"stateMutability": "nonpayable",
			"type": "function"
		},
		{
			"inputs": [
				{
					"internalType": "address",
					"name": "_owner",
					"type": "address"
				},
				{
					"internalType": "string",
					"name": "_productTitle",
					"type": "string"
				}
			],
			"name": "getProductsHashesByTitle",
			"outputs": [
				{
					"internalType": "uint256[]",
					"name": "",
					"type": "uint256[]"
				}
			],
			"stateMutability": "view",
			"type": "function"
		},
		{
			"inputs": [
				{
					"internalType": "address",
					"name": "_target",
					"type": "address"
				}
			],
			"name": "giveDiscount",
			"outputs": [],
			"stateMutability": "nonpayable",
			"type": "function"
		},
		{
			"inputs": [
				{
					"internalType": "uint256",
					"name": "_id",
					"type": "uint256"
				}
			],
			"name": "payOffDebt",
			"outputs": [],
			"stateMutability": "payable",
			"type": "function"
		},
		{
			"inputs": [],
			"name": "payOffDebts",
			"outputs": [],
			"stateMutability": "payable",
			"type": "function"
		},
		{
			"inputs": [
				{
					"internalType": "uint256",
					"name": "_id",
					"type": "uint256"
				}
			],
			"name": "payOffReferal",
			"outputs": [],
			"stateMutability": "payable",
			"type": "function"
		},
		{
			"inputs": [],
			"name": "payOffReferals",
			"outputs": [],
			"stateMutability": "payable",
			"type": "function"
		},
		{
			"inputs": [
				{
					"internalType": "uint256",
					"name": "_id",
					"type": "uint256"
				}
			],
			"name": "refund",
			"outputs": [],
			"stateMutability": "nonpayable",
			"type": "function"
		},
		{
			"inputs": [
				{
					"internalType": "string",
					"name": "_role",
					"type": "string"
				}
			],
			"name": "requestChangeRole",
			"outputs": [],
			"stateMutability": "nonpayable",
			"type": "function"
		},
		{
			"inputs": [
				{
					"internalType": "uint256",
					"name": "_purchaseId",
					"type": "uint256"
				}
			],
			"name": "requestRefund",
			"outputs": [],
			"stateMutability": "nonpayable",
			"type": "function"
		},
		{
			"inputs": [],
			"name": "showChangeRoleRequests",
			"outputs": [
				{
					"internalType": "address[]",
					"name": "",
					"type": "address[]"
				}
			],
			"stateMutability": "view",
			"type": "function"
		},
		{
			"inputs": [],
			"name": "showCredits",
			"outputs": [
				{
					"internalType": "address payable[]",
					"name": "",
					"type": "address[]"
				}
			],
			"stateMutability": "view",
			"type": "function"
		},
		{
			"inputs": [],
			"name": "showCreditsDebt",
			"outputs": [
				{
					"internalType": "uint256",
					"name": "",
					"type": "uint256"
				}
			],
			"stateMutability": "view",
			"type": "function"
		},
		{
			"inputs": [],
			"name": "showDebtAddresses",
			"outputs": [
				{
					"internalType": "address payable[]",
					"name": "",
					"type": "address[]"
				}
			],
			"stateMutability": "view",
			"type": "function"
		},
		{
			"inputs": [],
			"name": "showDebtSum",
			"outputs": [
				{
					"internalType": "uint256",
					"name": "",
					"type": "uint256"
				}
			],
			"stateMutability": "view",
			"type": "function"
		},
		{
			"inputs": [],
			"name": "showHistory",
			"outputs": [
				{
					"components": [
						{
							"internalType": "address payable",
							"name": "buyer",
							"type": "address"
						},
						{
							"internalType": "address",
							"name": "seller",
							"type": "address"
						},
						{
							"internalType": "string",
							"name": "title",
							"type": "string"
						},
						{
							"internalType": "uint256",
							"name": "cost_wei",
							"type": "uint256"
						},
						{
							"internalType": "uint256",
							"name": "amount",
							"type": "uint256"
						},
						{
							"internalType": "uint256",
							"name": "production_date",
							"type": "uint256"
						},
						{
							"internalType": "uint32",
							"name": "storage_life_days",
							"type": "uint32"
						},
						{
							"internalType": "uint32",
							"name": "rand_nonce",
							"type": "uint32"
						},
						{
							"internalType": "bool",
							"name": "refunded",
							"type": "bool"
						},
						{
							"internalType": "bool",
							"name": "refund_rejected",
							"type": "bool"
						}
					],
					"internalType": "struct store.Record[]",
					"name": "",
					"type": "tuple[]"
				}
			],
			"stateMutability": "view",
			"type": "function"
		},
		{
			"inputs": [
				{
					"internalType": "address",
					"name": "_owner",
					"type": "address"
				},
				{
					"internalType": "string",
					"name": "_title",
					"type": "string"
				}
			],
			"name": "showProduct",
			"outputs": [
				{
					"components": [
						{
							"internalType": "string",
							"name": "title",
							"type": "string"
						},
						{
							"internalType": "uint256",
							"name": "cost_wei",
							"type": "uint256"
						},
						{
							"internalType": "uint256",
							"name": "amount",
							"type": "uint256"
						},
						{
							"internalType": "uint256",
							"name": "production_date",
							"type": "uint256"
						},
						{
							"internalType": "uint32",
							"name": "storage_life_days",
							"type": "uint32"
						},
						{
							"internalType": "enum store.Role",
							"name": "received_as",
							"type": "uint8"
						}
					],
					"internalType": "struct store.Product[]",
					"name": "",
					"type": "tuple[]"
				}
			],
			"stateMutability": "view",
			"type": "function"
		},
		{
			"inputs": [
				{
					"internalType": "address",
					"name": "_owner",
					"type": "address"
				}
			],
			"name": "showProducts",
			"outputs": [
				{
					"components": [
						{
							"internalType": "string",
							"name": "title",
							"type": "string"
						},
						{
							"internalType": "uint256",
							"name": "cost_wei",
							"type": "uint256"
						},
						{
							"internalType": "uint256",
							"name": "amount",
							"type": "uint256"
						},
						{
							"internalType": "uint256",
							"name": "production_date",
							"type": "uint256"
						},
						{
							"internalType": "uint32",
							"name": "storage_life_days",
							"type": "uint32"
						},
						{
							"internalType": "enum store.Role",
							"name": "received_as",
							"type": "uint8"
						}
					],
					"internalType": "struct store.Product[]",
					"name": "",
					"type": "tuple[]"
				}
			],
			"stateMutability": "view",
			"type": "function"
		},
		{
			"inputs": [
				{
					"internalType": "address",
					"name": "_owner",
					"type": "address"
				}
			],
			"name": "showProductsTitles",
			"outputs": [
				{
					"internalType": "string[]",
					"name": "",
					"type": "string[]"
				}
			],
			"stateMutability": "view",
			"type": "function"
		},
		{
			"inputs": [],
			"name": "showProfile",
			"outputs": [
				{
					"components": [
						{
							"internalType": "address",
							"name": "addr",
							"type": "address"
						},
						{
							"internalType": "enum store.Role",
							"name": "role",
							"type": "uint8"
						},
						{
							"internalType": "bool",
							"name": "registered",
							"type": "bool"
						},
						{
							"internalType": "uint8",
							"name": "discount",
							"type": "uint8"
						},
						{
							"internalType": "bool",
							"name": "requestedRoleChange",
							"type": "bool"
						},
						{
							"internalType": "enum store.Role",
							"name": "changeRoleTo",
							"type": "uint8"
						}
					],
					"internalType": "struct store.User",
					"name": "",
					"type": "tuple"
				}
			],
			"stateMutability": "view",
			"type": "function"
		},
		{
			"inputs": [],
			"name": "showRefundRequests",
			"outputs": [
				{
					"internalType": "uint256[]",
					"name": "",
					"type": "uint256[]"
				}
			],
			"stateMutability": "view",
			"type": "function"
		},
		{
			"inputs": [],
			"name": "showRefundRequestsTime",
			"outputs": [
				{
					"internalType": "uint256[]",
					"name": "",
					"type": "uint256[]"
				}
			],
			"stateMutability": "view",
			"type": "function"
		},
		{
			"inputs": [],
			"name": "showStores",
			"outputs": [
				{
					"internalType": "address[]",
					"name": "",
					"type": "address[]"
				}
			],
			"stateMutability": "view",
			"type": "function"
		},
		{
			"inputs": [],
			"name": "showSuppliers",
			"outputs": [
				{
					"internalType": "address[]",
					"name": "",
					"type": "address[]"
				}
			],
			"stateMutability": "view",
			"type": "function"
		},
		{
			"inputs": [],
			"name": "showUsers",
			"outputs": [
				{
					"internalType": "address[]",
					"name": "",
					"type": "address[]"
				}
			],
			"stateMutability": "view",
			"type": "function"
		},
		{
			"inputs": [
				{
					"internalType": "uint16",
					"name": "_code",
					"type": "uint16"
				}
			],
			"name": "signIn",
			"outputs": [],
			"stateMutability": "nonpayable",
			"type": "function"
		}
	]
}