{
	"data": {
		"bytecode": {
			"linkReferences": {},
			"object": "6080604052600880546001600160a01b0319163317905534801561002257600080fd5b506168c080620000336000396000f3fe6080604052600436106101cd5760003560e01c8063569af213116100f75780639d7d2e8d11610095578063b752a41611610064578063b752a416146104c3578063bcc22c9a146104d8578063bdf13851146104eb578063ea77299d1461050057600080fd5b80639d7d2e8d14610471578063a0ae3f1c14610486578063a4b2409e1461048e578063abe9f681146104ae57600080fd5b8063695c92fb116100d1578063695c92fb146103fc5780638465d6501461041157806387aee8ad1461043157806391c8d2041461045157600080fd5b8063569af213146103b257806357e425bc146103c75780635af02dfa146103e757600080fd5b8063279e56e41161016f5780633e9032701161013e5780633e9032701461032e578063429848d91461035b57806348004b9a1461037b5780634e5a05df1461039057600080fd5b8063279e56e4146102a95780632fffffbb146102cc578063329dd364146102ec5780633d9d9a5c1461030e57600080fd5b80631af37578116101ab5780631af37578146102345780632336dbe414610247578063278ecde114610267578063279a6f4d1461028757600080fd5b8063040c4be8146101d257806313278cb8146101fd5780631a3c6b5c14610207575b600080fd5b3480156101de57600080fd5b506101e7610513565b6040516101f49190615e83565b60405180910390f35b61020561068e565b005b34801561021357600080fd5b50610227610222366004615f88565b610a22565b6040516101f49190615fac565b6102056102423660046160b1565b610b53565b34801561025357600080fd5b50610205610262366004616111565b611619565b34801561027357600080fd5b50610205610282366004616111565b6117c5565b34801561029357600080fd5b5061029c611b35565b6040516101f49190616162565b3480156102b557600080fd5b506102be611ce9565b6040519081526020016101f4565b3480156102d857600080fd5b506102056102e73660046161c5565b611d31565b3480156102f857600080fd5b50610301612370565b6040516101f49190616231565b34801561031a57600080fd5b5061020561032936600461627e565b6123d2565b34801561033a57600080fd5b5061034e610349366004615f88565b612a62565b6040516101f491906162a2565b34801561036757600080fd5b50610205610376366004616111565b612ec7565b34801561038757600080fd5b506102be613555565b34801561039c57600080fd5b506103a56135b3565b6040516101f4919061632f565b3480156103be57600080fd5b50610301613635565b3480156103d357600080fd5b506102056103e2366004616367565b6136e6565b3480156103f357600080fd5b50610301613ab4565b34801561040857600080fd5b506102be613b3f565b34801561041d57600080fd5b5061034e61042c3660046163a4565b613bf3565b34801561043d57600080fd5b5061020561044c366004615f88565b613e25565b34801561045d57600080fd5b506103a561046c3660046163a4565b61418f565b34801561047d57600080fd5b506103a56146fe565b61020561477f565b34801561049a57600080fd5b506102056104a9366004616111565b614996565b3480156104ba57600080fd5b50610301614bdd565b3480156104cf57600080fd5b50610301614c3d565b6102056104e6366004616111565b614cc8565b3480156104f757600080fd5b50610301614e0c565b61020561050e366004616111565b614eb2565b60606000805480602002602001604051908101604052809291908181526020016000905b8282101561068557600084815260209081902060408051610140810182526007860290920180546001600160a01b039081168452600182015416938301939093526002830180549293929184019161058e906163f4565b80601f01602080910402602001604051908101604052809291908181526020018280546105ba906163f4565b80156106075780601f106105dc57610100808354040283529160200191610607565b820191906000526020600020905b8154815290600101906020018083116105ea57829003601f168201915b50505091835250506003820154602080830191909152600483015460408301526005830154606083015260069092015463ffffffff808216608084015264010000000082041660a083015260ff600160401b82048116151560c0840152600160481b90910416151560e0909101529082526001929092019101610537565b50505050905090565b6001803360009081526016602052604090205460ff1660028111156106b5576106b561612a565b146106d357604051630782484160e21b815260040160405180910390fd5b60006106dd613555565b90506000811161072a5760405162461bcd60e51b81526020600482015260136024820152724465627473206c69737420697320656d70747960681b60448201526064015b60405180910390fd5b6000805b8281101561078157336000908152600a602052604090208054829081106107575761075761642e565b90600052602060002001548261076d919061645a565b9150806107798161646d565b91505061072e565b50803410156107ac576040516311920a6d60e31b815234600482015260248101829052604401610721565b60006107b9600184616486565b90505b80156108df573360009081526009602052604090208054829081106107e3576107e361642e565b6000918252602080832090910154338352600a909152604090912080546001600160a01b03909216916108fc9190849081106108215761082161642e565b90600052602060002001549081150290604051600060405180830381858888f19350505050158015610857573d6000803e3d6000fd5b5033600090815260096020526040902080548061087657610876616499565b60008281526020808220830160001990810180546001600160a01b0319169055909201909255338252600a9052604090208054806108b6576108b6616499565b6001900381819060005260206000200160009055905580806108d7906164af565b9150506107bc565b5033600090815260096020526040812080549091906109005761090061642e565b6000918252602080832090910154338352600a9091526040822080546001600160a01b03909216926108fc926109385761093861642e565b90600052602060002001549081150290604051600060405180830381858888f1935050505015801561096e573d6000803e3d6000fd5b5033600090815260096020526040902080548061098d5761098d616499565b60008281526020808220830160001990810180546001600160a01b0319169055909201909255338252600a9052604090208054806109cd576109cd616499565b60019003818190600052602060002001600090559055336001600160a01b03166108fc479081150290604051600060405180830381858888f19350505050158015610a1c573d6000803e3d6000fd5b50505050565b6001600160a01b038116600090815260106020908152604080832060169092528220546060929060ff166002811115610a5d57610a5d61612a565b6002811115610a6e57610a6e61612a565b8152602001908152602001600020805480602002602001604051908101604052809291908181526020016000905b82821015610b48578382906000526020600020018054610abb906163f4565b80601f0160208091040260200160405190810160405280929190818152602001828054610ae7906163f4565b8015610b345780601f10610b0957610100808354040283529160200191610b34565b820191906000526020600020905b815481529060010190602001808311610b1757829003601f168201915b505050505081526020019060010190610a9c565b505050509050919050565b336000908152601560209081526040808320601690925282205490919060ff166002811115610b8457610b8461612a565b6002811115610b9557610b9561612a565b8152602081019190915260400160002054600160a81b900460ff16610bcf5760405163089129cf60e41b8152336004820152602401610721565b3360009081526015602090815260408083206016909252822054829060ff166002811115610bff57610bff61612a565b6002811115610c1057610c1061612a565b81526020808201929092526040908101600020815160c0810190925280546001600160a01b03811683529192909190830190600160a01b900460ff166002811115610c5d57610c5d61612a565b6002811115610c6e57610c6e61612a565b8152815460ff600160a81b8204811615156020840152600160b01b820481166040840152600160b81b8204811615156060840152608090920191600160c01b909104166002811115610cc257610cc261612a565b6002811115610cd357610cd361612a565b9052506001600160a01b038616600090815260156020908152604080832060169092528220549293509091829060ff166002811115610d1457610d1461612a565b6002811115610d2557610d2561612a565b81526020808201929092526040908101600020815160c0810190925280546001600160a01b03811683529192909190830190600160a01b900460ff166002811115610d7257610d7261612a565b6002811115610d8357610d8361612a565b8152815460ff600160a81b8204811615156020840152600160b01b820481166040840152600160b81b8204811615156060840152608090920191600160c01b909104166002811115610dd757610dd761612a565b6002811115610de857610de861612a565b90525090506001600160a01b0386163303610e535760405162461bcd60e51b815260206004820152602560248201527f596f752063616e27742062757920612070726f647563742066726f6d20796f756044820152643939b2b63360d91b6064820152608401610721565b600282602001516002811115610e6b57610e6b61612a565b03610ed65760405162461bcd60e51b815260206004820152603560248201527f54686520737570706c6965722063616e6e6f74206275792070726f64756374736044820152742066726f6d2073746f726573206f7220757365727360581b6064820152608401610721565b600182602001516002811115610eee57610eee61612a565b141580610f115750600081602001516002811115610f0e57610f0e61612a565b14155b610f6e5760405162461bcd60e51b815260206004820152602860248201527f5468652073746f72652063616e6e6f74206275792070726f64756374732066726044820152676f6d20757365727360c01b6064820152608401610721565b600082602001516002811115610f8657610f8661612a565b141580610fa95750600281602001516002811115610fa657610fa661612a565b14155b6110095760405162461bcd60e51b815260206004820152602b60248201527f54686520757365722063616e6e6f74206275792070726f64756374732066726f60448201526a6d20737570706c6965727360a81b6064820152608401610721565b6001600160a01b0386166000908152600f602090815260408083206016909252822054829060ff1660028111156110425761104261612a565b60028111156110535761105361612a565b815260200190815260200160002060008681526020019081526020016000206040518060a001604052908160008201805461108d906163f4565b80601f01602080910402602001604051908101604052809291908181526020018280546110b9906163f4565b80156111065780601f106110db57610100808354040283529160200191611106565b820191906000526020600020905b8154815290600101906020018083116110e957829003601f168201915b50505091835250506001820154602080830191909152600283015460408301526003830154606083015260049092015463ffffffff16608090910152810151909150611167578560405163ef0098d160e01b815260040161072191906164c6565b600084116111b75760405162461bcd60e51b815260206004820152601e60248201527f596f752063616e20627579206174206c6561737420312070726f6475637400006044820152606401610721565b83816040015110156112225760405162461bcd60e51b815260206004820152602e60248201527f5468657265206973206e6f2073756368207175616e74697479206f662070726f60448201526d647563747320696e2073746f636b60901b6064820152608401610721565b60008360600151606461123591906164d9565b60ff16606486846020015161124a91906164f2565b611254919061651f565b61125e91906164f2565b90508034101561128a576040516311920a6d60e31b815234600482015260248101829052604401610721565b6040516001600160a01b0389169082156108fc029083906000818181858888f193505050501580156112c0573d6000803e3d6000fd5b5060405133904780156108fc02916000818181858888f193505050501580156112ed573d6000803e3d6000fd5b5061130c8260000151898785606001518660800151876020015161503b565b6001846020015160028111156113245761132461612a565b036113575761135282600001516002846020015161134291906164f2565b8785606001518660800151615425565b611378565b61137882600001518360200151846040015185606001518660800151615425565b336000908152600b6020526040902054156113955761139561584e565b60006113a483608001516159a2565b90506113e46040518060400160405280601281526020017129ba37b930b3b2903634b332903230bcb99d60711b815250846080015163ffffffff16615a06565b6114196040518060400160405280600d81526020016c2930b73237b6903737b731b29d60991b8152508263ffffffff16615a06565b60408051610140810182523381526001600160a01b038b81166020808401918252875194840194855287015160608085019190915260808085018c90529088015160a085015287015163ffffffff90811660c0850152851660e08401526000610100840181905261012084018190528054600181018255908052835160079091027f290decd9548b62a8d60345a988386fc84ba6bc95484008f6362f93160ef3e563810180549285166001600160a01b031993841617815592517f290decd9548b62a8d60345a988386fc84ba6bc95484008f6362f93160ef3e564820180549190951692169190911790925592519192839290917f290decd9548b62a8d60345a988386fc84ba6bc95484008f6362f93160ef3e565019061153a908261657e565b50606082015160038201556080820151600482015560a0820151600582015560c08201516006909101805460e0840151610100850151610120909501511515600160481b0269ff00000000000000000019951515600160401b029590951669ffff00000000000000001963ffffffff9283166401000000000267ffffffffffffffff19909416929095169190911791909117929092169190911791909117905533600090815260196020526040812090546115f790600190616486565b8154600181018355600092835260209092209091015550505050505050505050565b6000803360009081526016602052604090205460ff1660028111156116405761164061612a565b1461165e57604051630782484160e21b815260040160405180910390fd5b336000908152600b602052604090205482146116ab5760405162461bcd60e51b815260206004820152600c60248201526b496e76616c696420636f646560a01b6044820152606401610721565b336000908152601660209081526040808320546015909252822060ff909116918260028111156116dd576116dd61612a565b60028111156116ee576116ee61612a565b8152602081019190915260400160002054600160b01b900460ff16156117625760405162461bcd60e51b8152602060048201526024808201527f596f75206861766520616c726561647920616374697661746564207468697320604482015263636f646560e01b6064820152608401610721565b336000908152601560205260408120600a918360028111156117865761178661612a565b60028111156117975761179761612a565b815260200190815260200160002060000160166101000a81548160ff021916908360ff160217905550505050565b6008546001600160a01b031633146117ef5760405162461bcd60e51b81526004016107219061663e565b6000818152600e602052604090205460ff166118575760405162461bcd60e51b815260206004820152602160248201527f546865207265717565737420686173206e6f74206265656e2073656e742079656044820152601d60fa1b6064820152608401610721565b600080828154811061186b5761186b61642e565b60009182526020918290206040805161014081018252600790930290910180546001600160a01b03908116845260018201541693830193909352600283018054929392918401916118bb906163f4565b80601f01602080910402602001604051908101604052809291908181526020018280546118e7906163f4565b80156119345780601f1061190957610100808354040283529160200191611934565b820191906000526020600020905b81548152906001019060200180831161191757829003601f168201915b505050918352505060038201546020820152600482015460408201526005820154606082015260069091015463ffffffff808216608084015264010000000082041660a083015260ff600160401b82048116151560c0840152600160481b90910416151560e0909101526101008101519091501580156119b75750806101200151155b611a125760405162461bcd60e51b815260206004820152602660248201527f54686520726571756573742068617320616c7265616479206265656e2070726f60448201526518d95cdcd95960d21b6064820152608401610721565b8060e0015163ffffffff168160c0015163ffffffff161015611af95760016101008201526020808201516001600160a01b03166000908152600a9091526040902060808201516060830151611a6791906164f2565b8154600180820184556000938452602080852090920192909255838101516001600160a01b0390811684526009825260408085208651815495860182559086529483902090930180546001600160a01b0319169490911693909317909255518381527fb5e697fd702daf79a1ea89f82c5aec1b019e3601c671314da084b85544c9c24591015b60405180910390a15050565b60016101208201526040518281527f19de89ea8960411ee72328ec26b63f03bae0d96bff70c5ce1934387a3ee6dc0390602001611aed565b5050565b6040805160c08101825260008082526020808301829052828401829052606083018290526080830182905260a083018290523382526015815283822060169091529281205491929160ff166002811115611b9157611b9161612a565b6002811115611ba257611ba261612a565b8152602081019190915260400160002054600160a81b900460ff16611bdc5760405163089129cf60e41b8152336004820152602401610721565b336000908152601560209081526040808320601690925282205490919060ff166002811115611c0d57611c0d61612a565b6002811115611c1e57611c1e61612a565b81526020808201929092526040908101600020815160c0810190925280546001600160a01b03811683529192909190830190600160a01b900460ff166002811115611c6b57611c6b61612a565b6002811115611c7c57611c7c61612a565b8152815460ff600160a81b8204811615156020840152600160b01b820481166040840152600160b81b8204811615156060840152608090920191600160c01b909104166002811115611cd057611cd061612a565b6002811115611ce157611ce161612a565b905250905090565b6008546000906001600160a01b03163314611d165760405162461bcd60e51b81526004016107219061663e565b600154611d2c90670de0b6b3a7640000906164f2565b905090565b6002803360009081526016602052604090205460ff166002811115611d5857611d5861612a565b14611d7657604051630782484160e21b815260040160405180910390fd5b611d8e60405180602001604052806000815250615a4b565b611d9786615a4b565b03611de45760405162461bcd60e51b815260206004820152601d60248201527f5468652070726f64756374206d75737420686176652061207469746c650000006044820152606401610721565b60008411611e495760405162461bcd60e51b815260206004820152602c60248201527f5468652070726f64756374206d7573742068617665206120707269636520677260448201526b06561746572207468616e20360a41b6064820152608401610721565b60008311611eaf5760405162461bcd60e51b815260206004820152602d60248201527f5468652070726f64756374206d7573742068617665206120616d6f756e74206760448201526c0726561746572207468616e203609c1b6064820152608401610721565b60008263ffffffff1611611f2b5760405162461bcd60e51b815260206004820152603860248201527f5468652070726f64756374206d757374206861766520612073746f726167652060448201527f6c6966652067726561746572207468616e2030206461797300000000000000006064820152608401610721565b6000611f3a620151804261666c565b611f449042616486565b90506000611f5487838689615a7c565b336000908152600f6020908152604080832060169092528220549293509091829060ff166002811115611f8957611f8961612a565b6002811115611f9a57611f9a61612a565b8152602001908152602001600020600083815260200190815260200160002060010154111561204157336000908152600f60209081526040808320601690925282205487929060ff166002811115611ff457611ff461612a565b60028111156120055761200561612a565b815260200190815260200160002060008381526020019081526020016000206002016000828254612036919061645a565b909155506123679050565b600061204c88615a4b565b6040805160a0810182528a815260208082018b90528183018a90526060820187905263ffffffff89166080830152336000908152600f8252838120601690925292832054939450909290919060ff1660028111156120ac576120ac61612a565b60028111156120bd576120bd61612a565b8152602080820192909252604090810160009081208682529092529020815181906120e8908261657e565b506020828101516001830155604080840151600280850191909155606085015160038501556080909401516004909301805463ffffffff191663ffffffff9094169390931790925533600090815260108252828120601690925291822054909260ff9091169081111561215d5761215d61612a565b600281111561216e5761216e61612a565b8152602080820192909252604001600090812080546001810182559082529190200161219a898261657e565b50336000908152601260209081526040808320601690925282205490919060ff1660028111156121cc576121cc61612a565b60028111156121dd576121dd61612a565b81526020808201929092526040908101600090812084825283528181208054600181018255908252838220018a90553381526013835281812060169093529081205460ff1660028111156122335761223361612a565b60028111156122445761224461612a565b81526020808201929092526040908101600090812084825283528181208054600181018255908252838220018690553381526014835281812060169093529081205460ff16600281111561229a5761229a61612a565b60028111156122ab576122ab61612a565b815260208082019290925260409081016000908120848252835281812080546001810182559082528382206008820401805460079092166004026101000a63ffffffff81810219909316928b16029190911790553381526011835281812060169093529081205460ff1660028111156123265761232661612a565b60028111156123375761233761612a565b81526020808201929092526040908101600090812084825290925281208054916123608361646d565b9190505550505b50505050505050565b606060048054806020026020016040519081016040528092919081815260200182805480156123c857602002820191906000526020600020905b81546001600160a01b031681526001909101906020018083116123aa575b5050505050905090565b6008546001600160a01b031633036124205760405162461bcd60e51b81526020600482015260116024820152702cb7ba9030b932903a34329037bbb732b960791b6044820152606401610721565b3360009081526018602052604090205460ff16156124805760405162461bcd60e51b815260206004820152601a60248201527f596f752061726520616c726561647920726567697374657265640000000000006044820152606401610721565b6040516001600160f01b031960f083901b1660208201526000906022016040516020818303038152906040528051906020012060001c90507f68a3979302a4cb21359668e4c72dd25d994ec899c117266caacb15e75cc586e981036126a8576040805160c08101825233808252600260208084018290526001848601526000606085018190526080850181905260a085018390529283526015905292812091928152602080820192909252604001600020825181546001600160a01b039091166001600160a01b031982168117835592840151919283916001600160a81b03191617600160a01b8360028111156125795761257961612a565b021790555060408201518154606084015160808501511515600160b81b0260ff60b81b1960ff92909216600160b01b0260ff60b01b19941515600160a81b029490941661ffff60a81b1990931692909217929092179182168117835560a084015191839160ff60c01b191661ffff60b81b1990911617600160c01b8360028111156126065761260661612a565b0217905550503360008181526016602090815260408083208054600260ff19909116811790915560178352908320805460018181018355918552838520938104909301805460ff601f9095166101000a948502191693830293909317909255805491820181559091527f405787fa12a823e0f2b7631cc41b3ba8828b3321ca811111fa75cd3aa3bb5ace0180546001600160a01b031916909117905550612a44565b7f3121b941577efddf5181e856378ebabeb436d6b0da310d5d74f0d334b60ab564810361288b576040805160c08101825233808252600160208084018281528486018390526000606086018190526080860181905260a0860184905293845260158252858420928452919052929020815181546001600160a01b039091166001600160a01b03198216811783559351929391929183916001600160a81b03191617600160a01b8360028111156127605761276061612a565b021790555060408201518154606084015160808501511515600160b81b0260ff60b81b1960ff92909216600160b01b0260ff60b01b19941515600160a81b029490941661ffff60a81b1990931692909217929092179182168117835560a084015191839160ff60c01b191661ffff60b81b1990911617600160c01b8360028111156127ed576127ed61612a565b021790555050336000818152601660209081526040808320805460ff1916600190811790915560178352908320805480830182559084528284209281049092018054601f9093166101000a60ff8102199093169092179091556003805491820181559091527fc2575a0e9e593c00f959f8c92f12db2869c3395a3b0502d05e2516446f71f85b0180546001600160a01b031916909117905550612a44565b8161ffff16600003612a44576040805160c0810182523380825260006020808401828152600185870152606085018390526080850183905260a0850183905292825260158152848220828052905292909220815181546001600160a01b039091166001600160a01b03198216811783559351929391929183916001600160a81b03191617600160a01b8360028111156129265761292661612a565b021790555060408201518154606084015160808501511515600160b81b0260ff60b81b1960ff92909216600160b01b0260ff60b01b19941515600160a81b029490941661ffff60a81b1990931692909217929092179182168117835560a084015191839160ff60c01b191661ffff60b81b1990911617600160c01b8360028111156129b3576129b361612a565b021790555050336000818152601660209081526040808320805460ff191690556017825282208054600181810183559184528284209281049092018054601f9093166101000a60ff02199092169091556004805491820181559091527f8a35acfbc15ff81a39ae7d344fd709f28e8600b4aa8c65c6b64bfe7fe36bd19b0180546001600160a01b0319169091179055505b5050336000908152601860205260409020805460ff19166001179055565b6001600160a01b038116600090815260106020908152604080832060169092528220546060929190829060ff166002811115612aa057612aa061612a565b6002811115612ab157612ab161612a565b8152602001908152602001600020805480602002602001604051908101604052809291908181526020016000905b82821015612b8b578382906000526020600020018054612afe906163f4565b80601f0160208091040260200160405190810160405280929190818152602001828054612b2a906163f4565b8015612b775780601f10612b4c57610100808354040283529160200191612b77565b820191906000526020600020905b815481529060010190602001808311612b5a57829003601f168201915b505050505081526020019060010190612adf565b5050505090506000815190506000808267ffffffffffffffff811115612bb357612bb361600e565b604051908082528060200260200182016040528015612be657816020015b6060815260200190600190039081612bd15790505b50905060005b83811015612c5c576000612c1988878481518110612c0c57612c0c61642e565b602002602001015161418f565b9050805184612c28919061645a565b935080838381518110612c3d57612c3d61642e565b6020026020010181905250508080612c549061646d565b915050612bec565b5060008267ffffffffffffffff811115612c7857612c7861600e565b604051908082528060200260200182016040528015612ce157816020015b612cce6040518060a0016040528060608152602001600081526020016000815260200160008152602001600063ffffffff1681525090565b815260200190600190039081612c965790505b5090506000925060005b84811015612ebc576000838281518110612d0757612d0761642e565b6020026020010151905060005b8151811015612ea7576001600160a01b038a166000908152600f60209081526040808320601690925282205490919060ff166002811115612d5757612d5761612a565b6002811115612d6857612d6861612a565b81526020019081526020016000206000838381518110612d8a57612d8a61642e565b602002602001015181526020019081526020016000206040518060a0016040529081600082018054612dbb906163f4565b80601f0160208091040260200160405190810160405280929190818152602001828054612de7906163f4565b8015612e345780601f10612e0957610100808354040283529160200191612e34565b820191906000526020600020905b815481529060010190602001808311612e1757829003601f168201915b505050918352505060018201546020820152600282015460408201526003820154606082015260049091015463ffffffff166080909101528487612e778161646d565b985081518110612e8957612e8961642e565b60200260200101819052508080612e9f9061646d565b915050612d14565b50508080612eb49061646d565b915050612ceb565b509695505050505050565b6008546001600160a01b03163314612ef15760405162461bcd60e51b81526004016107219061663e565b600060058281548110612f0657612f0661642e565b60009182526020808320909101546001600160a01b0316808352601682526040808420546015909352832090935060ff909116919081836002811115612f4e57612f4e61612a565b6002811115612f5f57612f5f61612a565b81526020808201929092526040908101600020815160c0810190925280546001600160a01b03811683529192909190830190600160a01b900460ff166002811115612fac57612fac61612a565b6002811115612fbd57612fbd61612a565b8152815460ff600160a81b8204811615156020840152600160b01b820481166040840152600160b81b8204811615156060840152608090920191600160c01b9091041660028111156130115761301161612a565b60028111156130225761302261612a565b9052506001600160a01b0384166000908152601660209081526040808320546015909252822092935060ff1691908460028111156130625761306261612a565b60028111156130735761307361612a565b81526020810191909152604001600020805460ff60c01b1916600160c01b8360028111156130a3576130a361612a565b02179055506001600160a01b0383166000908152601560205260408120818460028111156130d3576130d361612a565b60028111156130e4576130e461612a565b8152602080820192909252604090810160009081208054941515600160b81b0260ff60b81b199095169490941790935560a08401516001600160a01b03871684526017835281842080548351818602810186019094528084529194939091908301828280156131a257602002820191906000526020600020906000905b82829054906101000a900460ff1660028111156131805761318061612a565b8152602060019283018181049485019490930390920291018084116131615790505b5050505050905060006001905060005b82518160ff16101561321e578360028111156131d0576131d061612a565b838260ff16815181106131e5576131e561642e565b602002602001015160028111156131fe576131fe61612a565b0361320c576000915061321e565b8061321681616680565b9150506131b2565b5080156134cd576040518060c00160405280876001600160a01b031681526020018460028111156132515761325161612a565b815260016020820152600060408201819052606082015260800184600281111561327d5761327d61612a565b90526001600160a01b0387166000908152601560205260408120908560028111156132aa576132aa61612a565b60028111156132bb576132bb61612a565b8152602080820192909252604001600020825181546001600160a01b039091166001600160a01b031982168117835592840151919283916001600160a81b03191617600160a01b8360028111156133145761331461612a565b021790555060408201518154606084015160808501511515600160b81b0260ff60b81b1960ff92909216600160b01b0260ff60b01b19941515600160a81b029490941661ffff60a81b1990931692909217929092179182168117835560a084015191839160ff60c01b191661ffff60b81b1990911617600160c01b8360028111156133a1576133a161612a565b0217905550600291506133b19050565b8360028111156133c3576133c361612a565b0361341857600280546001810182556000919091527f405787fa12a823e0f2b7631cc41b3ba8828b3321ca811111fa75cd3aa3bb5ace0180546001600160a01b0319166001600160a01b0388161790556134cd565b600183600281111561342c5761342c61612a565b0361348157600380546001810182556000919091527fc2575a0e9e593c00f959f8c92f12db2869c3395a3b0502d05e2516446f71f85b0180546001600160a01b0319166001600160a01b0388161790556134cd565b600480546001810182556000919091527f8a35acfbc15ff81a39ae7d344fd709f28e8600b4aa8c65c6b64bfe7fe36bd19b0180546001600160a01b0319166001600160a01b0388161790555b6001600160a01b0386166000908152601660205260409020805484919060ff191660018360028111156135025761350261612a565b021790555061351087615ab6565b6040516001600160a01b03871681527fcb9054348eeb239e4b91fd1d9120cf1f3dde30908900f73321aa901553340f499060200160405180910390a150505050505050565b60006001803360009081526016602052604090205460ff16600281111561357e5761357e61612a565b1461359c57604051630782484160e21b815260040160405180910390fd5b3360009081526009602052604090205491505b5090565b6008546060906001600160a01b031633146135e05760405162461bcd60e51b81526004016107219061663e565b60078054806020026020016040519081016040528092919081815260200182805480156123c857602002820191906000526020600020905b815481526020019060010190808311613618575050505050905090565b60606001803360009081526016602052604090205460ff16600281111561365e5761365e61612a565b1461367c57604051630782484160e21b815260040160405180910390fd5b33600090815260096020908152604091829020805483518184028101840190945280845290918301828280156136db57602002820191906000526020600020905b81546001600160a01b031681526001909101906020018083116136bd575b505050505091505090565b336000908152601560209081526040808320601690925282205490919060ff1660028111156137175761371761612a565b60028111156137285761372861612a565b8152602081019190915260400160002054600160a81b900460ff166137625760405163089129cf60e41b8152336004820152602401610721565b6008546001600160a01b031633036137b05760405162461bcd60e51b81526020600482015260116024820152702cb7ba9030b932903a34329037bbb732b960791b6044820152606401610721565b336000908152601660209081526040808320546015909252822060ff909116918260028111156137e2576137e261612a565b60028111156137f3576137f361612a565b8152602081019190915260400160002054600160b81b900460ff16156138765760405162461bcd60e51b815260206004820152603260248201527f596f75206861766520616c72656164792073656e742061207265717565737420604482015271746f206368616e67652074686520726f6c6560701b6064820152608401610721565b600061388183615a4b565b905061389b60405180602001604052806000815250615a4b565b81036138ba576040516329b386c760e01b815260040160405180910390fd5b6138e36040518060400160405280600881526020016729aaa8282624a2a960c11b815250615a4b565b810361395757336000908152601560205260408120600291848381111561390c5761390c61612a565b600281111561391d5761391d61612a565b81526020810191909152604001600020805460ff60c01b1916600160c01b83600281111561394d5761394d61612a565b0217905550613a0f565b61397d6040518060400160405280600581526020016453544f524560d81b815250615a4b565b81036139a75733600090815260156020526040812060019184600281111561390c5761390c61612a565b6139cc604051806040016040528060048152602001632aa9a2a960e11b815250615a4b565b81036139f4573360009081526015602052604081208184600281111561390c5761390c61612a565b82604051634f63f9cd60e11b815260040161072191906164c6565b336000908152601560205260408120600191846002811115613a3357613a3361612a565b6002811115613a4457613a4461612a565b8152602081019190915260400160009081208054921515600160b81b0260ff60b81b19909316929092179091556005805460018101825591527f036b6384b5eca791c62761152d0c79bb0604c104a5fb6f4eb0703f3154bb3db00180546001600160a01b03191633179055505050565b6008546060906001600160a01b03163314613ae15760405162461bcd60e51b81526004016107219061663e565b60018054806020026020016040519081016040528092919081815260200182805480156123c8576020028201919060005260206000209081546001600160a01b031681526001909101906020018083116123aa575050505050905090565b60006001803360009081526016602052604090205460ff166002811115613b6857613b6861612a565b14613b8657604051630782484160e21b815260040160405180910390fd5b6000805b336000908152600a6020526040902054811015613bec57336000908152600a60205260409020805482908110613bc257613bc261642e565b906000526020600020015482613bd8919061645a565b915080613be48161646d565b915050613b8a565b5091505090565b60606000613c01848461418f565b805190915060008167ffffffffffffffff811115613c2157613c2161600e565b604051908082528060200260200182016040528015613c8a57816020015b613c776040518060a0016040528060608152602001600081526020016000815260200160008152602001600063ffffffff1681525090565b815260200190600190039081613c3f5790505b50905060005b82811015613e19576001600160a01b0387166000908152600f60209081526040808320601690925282205490919060ff166002811115613cd257613cd261612a565b6002811115613ce357613ce361612a565b81526020019081526020016000206000858381518110613d0557613d0561642e565b602002602001015181526020019081526020016000206040518060a0016040529081600082018054613d36906163f4565b80601f0160208091040260200160405190810160405280929190818152602001828054613d62906163f4565b8015613daf5780601f10613d8457610100808354040283529160200191613daf565b820191906000526020600020905b815481529060010190602001808311613d9257829003601f168201915b505050918352505060018201546020820152600282015460408201526003820154606082015260049091015463ffffffff166080909101528251839083908110613dfb57613dfb61642e565b60200260200101819052508080613e119061646d565b915050613c90565b50925050505b92915050565b336000908152601560209081526040808320601690925282205490919060ff166002811115613e5657613e5661612a565b6002811115613e6757613e6761612a565b8152602081019190915260400160002054600160a81b900460ff16613ea15760405163089129cf60e41b8152336004820152602401610721565b6001600160a01b0381163303613f075760405162461bcd60e51b815260206004820152602560248201527f596f752063616e27742067697665206120646973636f756e7420746f20796f756044820152643939b2b63360d91b6064820152608401610721565b6001600160a01b03811660009081526015602090815260408083206016909252822054829060ff166002811115613f4057613f4061612a565b6002811115613f5157613f5161612a565b8152602081019190915260400160002054600160a01b900460ff166002811115613f7d57613f7d61612a565b14613fdd5760405162461bcd60e51b815260206004820152602a60248201527f54686520646973636f756e742063616e206f6e6c7920626520676976656e20626044820152693c903a3432903ab9b2b960b11b6064820152608401610721565b336000908152600d602090815260408083206001600160a01b038516845290915290205460ff16156140685760405162461bcd60e51b815260206004820152602e60248201527f596f75206861766520616c726561647920676976656e206120646973636f756e60448201526d3a103a37903a3434b9903ab9b2b960911b6064820152608401610721565b6001600160a01b0381166000908152600b6020526040902054156140ce5760405162461bcd60e51b815260206004820181905260248201527f54686973207573657220616c726561647920686173206120646973636f756e746044820152606401610721565b6040516bffffffffffffffffffffffff19606083811b8216602084015242603484015233901b16605482015260009060680160408051601f198184030181528282528051602091820120336000818152600d84528481206001600160a01b03891682528452848120805460ff19166001179055600b8452848120839055600c845284902080546001600160a01b0319169091179055838301909252600e83526d2932b332b93930b61031b7b2329d60911b908301529150611b319082615a06565b6001600160a01b0382166000908152601060209081526040808320601690925282205460609285928592829190829060ff1660028111156141d2576141d261612a565b60028111156141e3576141e361612a565b8152602001908152602001600020805480602002602001604051908101604052809291908181526020016000905b828210156142bd578382906000526020600020018054614230906163f4565b80601f016020809104026020016040519081016040528092919081815260200182805461425c906163f4565b80156142a95780601f1061427e576101008083540402835291602001916142a9565b820191906000526020600020905b81548152906001019060200180831161428c57829003601f168201915b505050505081526020019060010190614211565b50505050905060005b815181101561431a576142d884615a4b565b6142fa8383815181106142ed576142ed61642e565b6020026020010151615a4b565b03614308576001925061431a565b806143128161646d565b9150506142c6565b508161433b578260405163ef0098d160e01b815260040161072191906164c6565b600061434687615a4b565b6001600160a01b038916600090815260116020908152604080832060169092528220549293509091829060ff1660028111156143845761438461612a565b60028111156143955761439561612a565b8152602080820192909252604090810160009081208582528352818120546001600160a01b038d168252601284528282206016909452918120549193509190829060ff1660028111156143ea576143ea61612a565b60028111156143fb576143fb61612a565b8152602001908152602001600020600084815260200190815260200160002080548060200260200160405190810160405280929190818152602001828054801561446457602002820191906000526020600020905b815481526020019060010190808311614450575b5050506001600160a01b038d1660009081526013602090815260408083206016909252822054949550909390925083915060ff1660028111156144a9576144a961612a565b60028111156144ba576144ba61612a565b8152602001908152602001600020600085815260200190815260200160002080548060200260200160405190810160405280929190818152602001828054801561452357602002820191906000526020600020905b81548152602001906001019080831161450f575b5050506001600160a01b038e1660009081526014602090815260408083206016909252822054949550909390925083915060ff1660028111156145685761456861612a565b60028111156145795761457961612a565b8152602001908152602001600020600086815260200190815260200160002080548060200260200160405190810160405280929190818152602001828054801561460e57602002820191906000526020600020906000905b82829054906101000a900463ffffffff1663ffffffff16815260200190600401906020826003010492830192600103820291508084116145d15790505b5050505050905060008467ffffffffffffffff8111156146305761463061600e565b604051908082528060200260200182016040528015614659578160200160208202803683370190505b50905060005b858110156146ed576146be8d85838151811061467d5761467d61642e565b60200260200101518584815181106146975761469761642e565b60200260200101518885815181106146b1576146b161642e565b6020026020010151615a7c565b8282815181106146d0576146d061642e565b6020908102919091010152806146e58161646d565b91505061465f565b509c9b505050505050505050505050565b6008546060906001600160a01b0316331461472b5760405162461bcd60e51b81526004016107219061663e565b60068054806020026020016040519081016040528092919081815260200182805480156123c85760200282019190600052602060002090815481526020019060010190808311613618575050505050905090565b6008546001600160a01b031633146147a95760405162461bcd60e51b81526004016107219061663e565b60006147b3611ce9565b9050803410156147df576040516311920a6d60e31b815234600482015260248101829052604401610721565b6001546148265760405162461bcd60e51b815260206004820152601560248201527443726564697473206c69737420697320656d70747960581b6044820152606401610721565b6001805460009161483691616486565b90505b80156148db57600181815481106148525761485261642e565b60009182526020822001546040516001600160a01b039091169190670de0b6b3a76400009082818181858883f19350505050158015614895573d6000803e3d6000fd5b5060018054806148a7576148a7616499565b600082815260209020810160001990810180546001600160a01b0319169055019055806148d3816164af565b915050614839565b5060016000815481106148f0576148f061642e565b60009182526020822001546040516001600160a01b039091169190670de0b6b3a76400009082818181858883f19350505050158015614933573d6000803e3d6000fd5b50600180548061494557614945616499565b600082815260208120820160001990810180546001600160a01b031916905590910190915560405133914780156108fc02929091818181858888f19350505050158015611b31573d6000803e3d6000fd5b336000908152601560209081526040808320601690925282205490919060ff1660028111156149c7576149c761612a565b60028111156149d8576149d861612a565b8152602081019190915260400160002054600160a81b900460ff16614a125760405163089129cf60e41b8152336004820152602401610721565b3360009081526019602052604081208054600e92919084908110614a3857614a3861642e565b6000918252602080832090910154835282019290925260400190205460ff1615614aae5760405162461bcd60e51b815260206004820152602160248201527f54686520726571756573742068617320616c7265616479206265656e2073656e6044820152601d60fa1b6064820152608401610721565b60023360009081526016602052604090205460ff166002811115614ad457614ad461612a565b03614b315760405162461bcd60e51b815260206004820152602760248201527f4120737570706c6965722063616e6e6f742073656e64206120726566756e64206044820152661c995c5d595cdd60ca1b6064820152608401610721565b336000908152601960205260408120805483908110614b5257614b5261642e565b60009182526020808320909101546006805460018181019092557ff652222313e28459528d920b65115c16c04f3efc82aaedc97be59f3f377c0d3f01829055908352600e90915260408220805460ff191682179055600780549182018155909152427fa66cc928b5edb82af9bd49922954155ab7b0942694bea4ce44661d9a8736c688909101555050565b606060038054806020026020016040519081016040528092919081815260200182805480156123c8576020028201919060005260206000209081546001600160a01b031681526001909101906020018083116123aa575050505050905090565b6008546060906001600160a01b03163314614c6a5760405162461bcd60e51b81526004016107219061663e565b60058054806020026020016040519081016040528092919081815260200182805480156123c8576020028201919060005260206000209081546001600160a01b031681526001909101906020018083116123aa575050505050905090565b6008546001600160a01b03163314614cf25760405162461bcd60e51b81526004016107219061663e565b670de0b6b3a7640000341015614d2b576040516311920a6d60e31b8152346004820152670de0b6b3a76400006024820152604401610721565b6001548110614d7c5760405162461bcd60e51b815260206004820152601960248201527f546869732063726564697420646f65736e2774206578697374000000000000006044820152606401610721565b60018181548110614d8f57614d8f61642e565b60009182526020822001546040516001600160a01b039091169190670de0b6b3a76400009082818181858883f19350505050158015614dd2573d6000803e3d6000fd5b5060405133904780156108fc02916000818181858888f19350505050158015614dff573d6000803e3d6000fd5b50614e0981615b86565b50565b60606001803360009081526016602052604090205460ff166002811115614e3557614e3561612a565b14614e5357604051630782484160e21b815260040160405180910390fd5b60028054806020026020016040519081016040528092919081815260200182805480156136db576020028201919060005260206000209081546001600160a01b031681526001909101906020018083116136bd57505050505091505090565b6001803360009081526016602052604090205460ff166002811115614ed957614ed961612a565b14614ef757604051630782484160e21b815260040160405180910390fd5b336000908152600960205260409020548210614f555760405162461bcd60e51b815260206004820152601760248201527f54686973206465627420646f65736e27742065786973740000000000000000006044820152606401610721565b336000908152600a60205260408120805484908110614f7657614f7661642e565b9060005260206000200154905080341015614fad576040516311920a6d60e31b815234600482015260248101829052604401610721565b336000908152600960205260409020805484908110614fce57614fce61642e565b60009182526020822001546040516001600160a01b039091169183156108fc02918491818181858888f1935050505015801561500e573d6000803e3d6000fd5b5060405133904780156108fc02916000818181858888f19350505050158015610a1c573d6000803e3d6000fd5b600061504987858585615a7c565b6001600160a01b0387166000908152600f602090815260408083206016909252822054929350879290919060ff1660028111156150885761508861612a565b60028111156150995761509961612a565b8152602001908152602001600020600083815260200190815260200160002060020160008282546150ca9190616486565b90915550506001600160a01b0386166000908152600f60209081526040808320601690925282205490919060ff1660028111156151095761510961612a565b600281111561511a5761511a61612a565b815260200190815260200160002060008281526020019081526020016000206002015460000361236757600061514f88615a4b565b6001600160a01b0388166000908152600f6020908152604080832060169092528220549293509160ff16600281111561518a5761518a61612a565b600281111561519b5761519b61612a565b8152602080820192909252604090810160009081208582529092528120906151c38282615de9565b50600060018201819055600282018190556003820155600401805463ffffffff191690556151f18789615c27565b6001600160a01b0387166000908152601260209081526040808320601690925282205490919060ff16600281111561522b5761522b61612a565b600281111561523c5761523c61612a565b8152602001908152602001600020600082815260200190815260200160002080548061526a5761526a616499565b6000828152602080822083016000199081018390559092019092556001600160a01b0389168252601381526040808320601690925282205490919060ff1660028111156152b9576152b961612a565b60028111156152ca576152ca61612a565b815260200190815260200160002060008281526020019081526020016000208054806152f8576152f8616499565b6000828152602080822083016000199081018390559092019092556001600160a01b0389168252601481526040808320601690925282205490919060ff1660028111156153475761534761612a565b60028111156153585761535861612a565b8152602001908152602001600020600082815260200190815260200160002080548061538657615386616499565b60008281526020808220600860001990940193840401805463ffffffff600460078716026101000a0219169055919092556001600160a01b0389168252601181526040808320601690925282205490919060ff1660028111156153eb576153eb61612a565b60028111156153fc576153fc61612a565b8152602080820192909252604090810160009081208482529092528120805491612360836164af565b600061543386848488615a7c565b336000908152600f6020908152604080832060169092528220549293509091829060ff1660028111156154685761546861612a565b60028111156154795761547961612a565b8152602001908152602001600020600083815260200190815260200160002060010154111561552057336000908152600f60209081526040808320601690925282205486929060ff1660028111156154d3576154d361612a565b60028111156154e4576154e461612a565b815260200190815260200160002060008381526020019081526020016000206002016000828254615515919061645a565b909155506158469050565b600061552b87615a4b565b6040805160a08101825289815260208082018a90528183018990526060820188905263ffffffff87166080830152336000908152600f8252838120601690925292832054939450909290919060ff16600281111561558b5761558b61612a565b600281111561559c5761559c61612a565b8152602080820192909252604090810160009081208682529092529020815181906155c7908261657e565b506020828101516001830155604080840151600280850191909155606085015160038501556080909401516004909301805463ffffffff191663ffffffff9094169390931790925533600090815260108252828120601690925291822054909260ff9091169081111561563c5761563c61612a565b600281111561564d5761564d61612a565b81526020808201929092526040016000908120805460018101825590825291902001615679888261657e565b50336000908152601260209081526040808320601690925282205490919060ff1660028111156156ab576156ab61612a565b60028111156156bc576156bc61612a565b81526020808201929092526040908101600090812084825283528181208054600181018255908252838220018990553381526013835281812060169093529081205460ff1660028111156157125761571261612a565b60028111156157235761572361612a565b81526020808201929092526040908101600090812084825283528181208054600181018255908252838220018790553381526014835281812060169093529081205460ff1660028111156157795761577961612a565b600281111561578a5761578a61612a565b815260208082019290925260409081016000908120848252835281812080546001810182559082528382206008820401805460079092166004026101000a63ffffffff81810219909316928916029190911790553381526011835281812060169093529081205460ff1660028111156158055761580561612a565b60028111156158165761581661612a565b815260208082019290925260409081016000908120848252909252812080549161583f8361646d565b9190505550505b505050505050565b336000908152601560209081526040808320601690925282205490919060ff16600281111561587f5761587f61612a565b60028111156158905761589061612a565b8152602081019190915260400160002054600160a81b900460ff166158ca5760405163089129cf60e41b8152336004820152602401610721565b336000908152600b60209081526040808320839055601582528083206016909252822054829060ff1660028111156159045761590461612a565b60028111156159155761591561612a565b815260208082019290925260409081016000908120805460ff95909516600160b01b0260ff60b01b1990951694909417909355338352600c90915281205460018054808201825592527fb10e2d527612073b26eecdfd717e6a320cf44b4afac2b0732d9fcbe2b7fa0cf690910180546001600160a01b0319166001600160a01b0392909216919091179055565b6000620151806159b383600261669f565b6159c0906201518061669f565b63ffffffff16426040516020016159d991815260200190565b6040516020818303038152906040528051906020012060001c6159fc919061666c565b613e1f919061651f565b611b318282604051602401615a1c9291906166c7565b60408051601f198184030181529190526020810180516001600160e01b0316632d839cb360e21b179052615dc4565b600081604051602001615a5e91906166e9565b60408051601f19818403018152919052805160209091012092915050565b600084848484604051602001615a959493929190616705565b60408051601f19818403018152919052805160209091012095945050505050565b600554615ac590600190616486565b811015615b50576005615ad982600161645a565b81548110615ae957615ae961642e565b600091825260209091200154600580546001600160a01b039092169183908110615b1557615b1561642e565b600091825260209091200180546001600160a01b0319166001600160a01b039290921691909117905580615b488161646d565b915050615ab6565b6005805480615b6157615b61616499565b600082815260209020810160001990810180546001600160a01b031916905501905550565b805b600154811015615c15576001615b9e828261645a565b81548110615bae57615bae61642e565b600091825260209091200154600180546001600160a01b039092169183908110615bda57615bda61642e565b600091825260209091200180546001600160a01b0319166001600160a01b039290921691909117905580615c0d8161646d565b915050615b88565b506001805480615b6157615b61616499565b6001600160a01b03821660009081526010602090815260408083206016909252822054829190829060ff166002811115615c6357615c6361612a565b6002811115615c7457615c7461612a565b81526020019081526020016000209050600083604051602001615c9791906166e9565b6040516020818303038152906040528051906020012090505b8154831015615dbd5780828481548110615ccc57615ccc61642e565b90600052602060002001604051602001615ce69190616741565b6040516020818303038152906040528051906020012003615dab575b8154615d1090600190616486565b831015615d785781615d2384600161645a565b81548110615d3357615d3361642e565b90600052602060002001828481548110615d4f57615d4f61642e565b906000526020600020019081615d6591906167b7565b5082615d708161646d565b935050615d02565b81805480615d8857615d88616499565b600190038181906000526020600020016000615da49190615de9565b9055615dbd565b82615db58161646d565b935050615cb0565b5050505050565b614e098160006a636f6e736f6c652e6c6f679050600080835160208501845afa505050565b508054615df5906163f4565b6000825580601f10615e05575050565b601f016020900490600052602060002090810190614e0991905b808211156135af5760008155600101615e1f565b60005b83811015615e4e578181015183820152602001615e36565b50506000910152565b60008151808452615e6f816020860160208601615e33565b601f01601f19169290920160200192915050565b60006020808301818452808551808352604092508286019150828160051b87010184880160005b83811015615f6557888303603f19018552815180516001600160a01b03168452610140818901516001600160a01b038116868b015250878201518189870152615ef582870182615e57565b606084810151908801526080808501519088015260a0808501519088015260c08085015163ffffffff9081169189019190915260e0808601519091169088015261010080850151151590880152610120938401511515939096019290925250509386019390860190600101615eaa565b509098975050505050505050565b6001600160a01b0381168114614e0957600080fd5b600060208284031215615f9a57600080fd5b8135615fa581615f73565b9392505050565b6000602080830181845280855180835260408601915060408160051b870101925083870160005b8281101561600157603f19888603018452615fef858351615e57565b94509285019290850190600101615fd3565b5092979650505050505050565b634e487b7160e01b600052604160045260246000fd5b600082601f83011261603557600080fd5b813567ffffffffffffffff808211156160505761605061600e565b604051601f8301601f19908116603f011681019082821181831017156160785761607861600e565b8160405283815286602085880101111561609157600080fd5b836020870160208301376000602085830101528094505050505092915050565b600080600080608085870312156160c757600080fd5b84356160d281615f73565b9350602085013567ffffffffffffffff8111156160ee57600080fd5b6160fa87828801616024565b949794965050505060408301359260600135919050565b60006020828403121561612357600080fd5b5035919050565b634e487b7160e01b600052602160045260246000fd5b6003811061615e57634e487b7160e01b600052602160045260246000fd5b9052565b81516001600160a01b0316815260208083015160c083019161618690840182616140565b5060408301511515604083015260ff606084015116606083015260808301511515608083015260a08301516161be60a0840182616140565b5092915050565b600080600080608085870312156161db57600080fd5b843567ffffffffffffffff8111156161f257600080fd5b6161fe87828801616024565b9450506020850135925060408501359150606085013563ffffffff8116811461622657600080fd5b939692955090935050565b6020808252825182820181905260009190848201906040850190845b818110156162725783516001600160a01b03168352928401929184019160010161624d565b50909695505050505050565b60006020828403121561629057600080fd5b813561ffff81168114615fa557600080fd5b60006020808301818452808551808352604092508286019150828160051b87010184880160005b83811015615f6557603f19898403018552815160a081518186526162ef82870182615e57565b838b0151878c0152898401518a8801526060808501519088015260809384015163ffffffff169390960192909252505093860193908601906001016162c9565b6020808252825182820181905260009190848201906040850190845b818110156162725783518352928401929184019160010161634b565b60006020828403121561637957600080fd5b813567ffffffffffffffff81111561639057600080fd5b61639c84828501616024565b949350505050565b600080604083850312156163b757600080fd5b82356163c281615f73565b9150602083013567ffffffffffffffff8111156163de57600080fd5b6163ea85828601616024565b9150509250929050565b600181811c9082168061640857607f821691505b60208210810361642857634e487b7160e01b600052602260045260246000fd5b50919050565b634e487b7160e01b600052603260045260246000fd5b634e487b7160e01b600052601160045260246000fd5b80820180821115613e1f57613e1f616444565b60006001820161647f5761647f616444565b5060010190565b81810381811115613e1f57613e1f616444565b634e487b7160e01b600052603160045260246000fd5b6000816164be576164be616444565b506000190190565b602081526000615fa56020830184615e57565b60ff8281168282160390811115613e1f57613e1f616444565b8082028115828204841417613e1f57613e1f616444565b634e487b7160e01b600052601260045260246000fd5b60008261652e5761652e616509565b500490565b601f82111561657957600081815260208120601f850160051c8101602086101561655a5750805b601f850160051c820191505b8181101561584657828155600101616566565b505050565b815167ffffffffffffffff8111156165985761659861600e565b6165ac816165a684546163f4565b84616533565b602080601f8311600181146165e157600084156165c95750858301515b600019600386901b1c1916600185901b178555615846565b600085815260208120601f198616915b82811015616610578886015182559484019460019091019084016165f1565b508582101561662e5787850151600019600388901b60f8161c191681555b5050505050600190811b01905550565b6020808252601490820152732cb7ba9030b932b713ba103a34329037bbb732b960611b604082015260600190565b60008261667b5761667b616509565b500690565b600060ff821660ff810361669657616696616444565b60010192915050565b63ffffffff8181168382160280821691908281146166bf576166bf616444565b505092915050565b6040815260006166da6040830185615e57565b90508260208301529392505050565b600082516166fb818460208701615e33565b9190910192915050565b60008551616717818460208a01615e33565b919091019384525060e09190911b6001600160e01b03191660208301526024820152604401919050565b600080835461674f816163f4565b60018281168015616767576001811461677c576167ab565b60ff19841687528215158302870194506167ab565b8760005260208060002060005b858110156167a25781548a820152908401908201616789565b50505082870194505b50929695505050505050565b8181036167c2575050565b6167cc82546163f4565b67ffffffffffffffff8111156167e4576167e461600e565b6167f2816165a684546163f4565b6000601f821160018114616826576000831561680e5750848201545b600019600385901b1c1916600184901b178455615dbd565b600085815260209020601f19841690600086815260209020845b838110156168605782860154825560019586019590910190602001616840565b508583101561662e5793015460001960f8600387901b161c19169092555050600190811b0190555056fea2646970667358221220ed316d808bb31920152c5bbfd08e08d560e297c8c012157b3173077ead560de764736f6c63430008120033",
			"opcodes": "PUSH1 0x80 PUSH1 0x40 MSTORE PUSH1 0x8 DUP1 SLOAD PUSH1 0x1 PUSH1 0x1 PUSH1 0xA0 SHL SUB NOT AND CALLER OR SWAP1 SSTORE CALLVALUE DUP1 ISZERO PUSH2 0x22 JUMPI PUSH1 0x0 DUP1 REVERT JUMPDEST POP PUSH2 0x68C0 DUP1 PUSH3 0x33 PUSH1 0x0 CODECOPY PUSH1 0x0 RETURN INVALID PUSH1 0x80 PUSH1 0x40 MSTORE PUSH1 0x4 CALLDATASIZE LT PUSH2 0x1CD JUMPI PUSH1 0x0 CALLDATALOAD PUSH1 0xE0 SHR DUP1 PUSH4 0x569AF213 GT PUSH2 0xF7 JUMPI DUP1 PUSH4 0x9D7D2E8D GT PUSH2 0x95 JUMPI DUP1 PUSH4 0xB752A416 GT PUSH2 0x64 JUMPI DUP1 PUSH4 0xB752A416 EQ PUSH2 0x4C3 JUMPI DUP1 PUSH4 0xBCC22C9A EQ PUSH2 0x4D8 JUMPI DUP1 PUSH4 0xBDF13851 EQ PUSH2 0x4EB JUMPI DUP1 PUSH4 0xEA77299D EQ PUSH2 0x500 JUMPI PUSH1 0x0 DUP1 REVERT JUMPDEST DUP1 PUSH4 0x9D7D2E8D EQ PUSH2 0x471 JUMPI DUP1 PUSH4 0xA0AE3F1C EQ PUSH2 0x486 JUMPI DUP1 PUSH4 0xA4B2409E EQ PUSH2 0x48E JUMPI DUP1 PUSH4 0xABE9F681 EQ PUSH2 0x4AE JUMPI PUSH1 0x0 DUP1 REVERT JUMPDEST DUP1 PUSH4 0x695C92FB GT PUSH2 0xD1 JUMPI DUP1 PUSH4 0x695C92FB EQ PUSH2 0x3FC JUMPI DUP1 PUSH4 0x8465D650 EQ PUSH2 0x411 JUMPI DUP1 PUSH4 0x87AEE8AD EQ PUSH2 0x431 JUMPI DUP1 PUSH4 0x91C8D204 EQ PUSH2 0x451 JUMPI PUSH1 0x0 DUP1 REVERT JUMPDEST DUP1 PUSH4 0x569AF213 EQ PUSH2 0x3B2 JUMPI DUP1 PUSH4 0x57E425BC EQ PUSH2 0x3C7 JUMPI DUP1 PUSH4 0x5AF02DFA EQ PUSH2 0x3E7 JUMPI PUSH1 0x0 DUP1 REVERT JUMPDEST DUP1 PUSH4 0x279E56E4 GT PUSH2 0x16F JUMPI DUP1 PUSH4 0x3E903270 GT PUSH2 0x13E JUMPI DUP1 PUSH4 0x3E903270 EQ PUSH2 0x32E JUMPI DUP1 PUSH4 0x429848D9 EQ PUSH2 0x35B JUMPI DUP1 PUSH4 0x48004B9A EQ PUSH2 0x37B JUMPI DUP1 PUSH4 0x4E5A05DF EQ PUSH2 0x390 JUMPI PUSH1 0x0 DUP1 REVERT JUMPDEST DUP1 PUSH4 0x279E56E4 EQ PUSH2 0x2A9 JUMPI DUP1 PUSH4 0x2FFFFFBB EQ PUSH2 0x2CC JUMPI DUP1 PUSH4 0x329DD364 EQ PUSH2 0x2EC JUMPI DUP1 PUSH4 0x3D9D9A5C EQ PUSH2 0x30E JUMPI PUSH1 0x0 DUP1 REVERT JUMPDEST DUP1 PUSH4 0x1AF37578 GT PUSH2 0x1AB JUMPI DUP1 PUSH4 0x1AF37578 EQ PUSH2 0x234 JUMPI DUP1 PUSH4 0x2336DBE4 EQ PUSH2 0x247 JUMPI DUP1 PUSH4 0x278ECDE1 EQ PUSH2 0x267 JUMPI DUP1 PUSH4 0x279A6F4D EQ PUSH2 0x287 JUMPI PUSH1 0x0 DUP1 REVERT JUMPDEST DUP1 PUSH4 0x40C4BE8 EQ PUSH2 0x1D2 JUMPI DUP1 PUSH4 0x13278CB8 EQ PUSH2 0x1FD JUMPI DUP1 PUSH4 0x1A3C6B5C EQ PUSH2 0x207 JUMPI JUMPDEST PUSH1 0x0 DUP1 REVERT JUMPDEST CALLVALUE DUP1 ISZERO PUSH2 0x1DE JUMPI PUSH1 0x0 DUP1 REVERT JUMPDEST POP PUSH2 0x1E7 PUSH2 0x513 JUMP JUMPDEST PUSH1 0x40 MLOAD PUSH2 0x1F4 SWAP2 SWAP1 PUSH2 0x5E83 JUMP JUMPDEST PUSH1 0x40 MLOAD DUP1 SWAP2 SUB SWAP1 RETURN JUMPDEST PUSH2 0x205 PUSH2 0x68E JUMP JUMPDEST STOP JUMPDEST CALLVALUE DUP1 ISZERO PUSH2 0x213 JUMPI PUSH1 0x0 DUP1 REVERT JUMPDEST POP PUSH2 0x227 PUSH2 0x222 CALLDATASIZE PUSH1 0x4 PUSH2 0x5F88 JUMP JUMPDEST PUSH2 0xA22 JUMP JUMPDEST PUSH1 0x40 MLOAD PUSH2 0x1F4 SWAP2 SWAP1 PUSH2 0x5FAC JUMP JUMPDEST PUSH2 0x205 PUSH2 0x242 CALLDATASIZE PUSH1 0x4 PUSH2 0x60B1 JUMP JUMPDEST PUSH2 0xB53 JUMP JUMPDEST CALLVALUE DUP1 ISZERO PUSH2 0x253 JUMPI PUSH1 0x0 DUP1 REVERT JUMPDEST POP PUSH2 0x205 PUSH2 0x262 CALLDATASIZE PUSH1 0x4 PUSH2 0x6111 JUMP JUMPDEST PUSH2 0x1619 JUMP JUMPDEST CALLVALUE DUP1 ISZERO PUSH2 0x273 JUMPI PUSH1 0x0 DUP1 REVERT JUMPDEST POP PUSH2 0x205 PUSH2 0x282 CALLDATASIZE PUSH1 0x4 PUSH2 0x6111 JUMP JUMPDEST PUSH2 0x17C5 JUMP JUMPDEST CALLVALUE DUP1 ISZERO PUSH2 0x293 JUMPI PUSH1 0x0 DUP1 REVERT JUMPDEST POP PUSH2 0x29C PUSH2 0x1B35 JUMP JUMPDEST PUSH1 0x40 MLOAD PUSH2 0x1F4 SWAP2 SWAP1 PUSH2 0x6162 JUMP JUMPDEST CALLVALUE DUP1 ISZERO PUSH2 0x2B5 JUMPI PUSH1 0x0 DUP1 REVERT JUMPDEST POP PUSH2 0x2BE PUSH2 0x1CE9 JUMP JUMPDEST PUSH1 0x40 MLOAD SWAP1 DUP2 MSTORE PUSH1 0x20 ADD PUSH2 0x1F4 JUMP JUMPDEST CALLVALUE DUP1 ISZERO PUSH2 0x2D8 JUMPI PUSH1 0x0 DUP1 REVERT JUMPDEST POP PUSH2 0x205 PUSH2 0x2E7 CALLDATASIZE PUSH1 0x4 PUSH2 0x61C5 JUMP JUMPDEST PUSH2 0x1D31 JUMP JUMPDEST CALLVALUE DUP1 ISZERO PUSH2 0x2F8 JUMPI PUSH1 0x0 DUP1 REVERT JUMPDEST POP PUSH2 0x301 PUSH2 0x2370 JUMP JUMPDEST PUSH1 0x40 MLOAD PUSH2 0x1F4 SWAP2 SWAP1 PUSH2 0x6231 JUMP JUMPDEST CALLVALUE DUP1 ISZERO PUSH2 0x31A JUMPI PUSH1 0x0 DUP1 REVERT JUMPDEST POP PUSH2 0x205 PUSH2 0x329 CALLDATASIZE PUSH1 0x4 PUSH2 0x627E JUMP JUMPDEST PUSH2 0x23D2 JUMP JUMPDEST CALLVALUE DUP1 ISZERO PUSH2 0x33A JUMPI PUSH1 0x0 DUP1 REVERT JUMPDEST POP PUSH2 0x34E PUSH2 0x349 CALLDATASIZE PUSH1 0x4 PUSH2 0x5F88 JUMP JUMPDEST PUSH2 0x2A62 JUMP JUMPDEST PUSH1 0x40 MLOAD PUSH2 0x1F4 SWAP2 SWAP1 PUSH2 0x62A2 JUMP JUMPDEST CALLVALUE DUP1 ISZERO PUSH2 0x367 JUMPI PUSH1 0x0 DUP1 REVERT JUMPDEST POP PUSH2 0x205 PUSH2 0x376 CALLDATASIZE PUSH1 0x4 PUSH2 0x6111 JUMP JUMPDEST PUSH2 0x2EC7 JUMP JUMPDEST CALLVALUE DUP1 ISZERO PUSH2 0x387 JUMPI PUSH1 0x0 DUP1 REVERT JUMPDEST POP PUSH2 0x2BE PUSH2 0x3555 JUMP JUMPDEST CALLVALUE DUP1 ISZERO PUSH2 0x39C JUMPI PUSH1 0x0 DUP1 REVERT JUMPDEST POP PUSH2 0x3A5 PUSH2 0x35B3 JUMP JUMPDEST PUSH1 0x40 MLOAD PUSH2 0x1F4 SWAP2 SWAP1 PUSH2 0x632F JUMP JUMPDEST CALLVALUE DUP1 ISZERO PUSH2 0x3BE JUMPI PUSH1 0x0 DUP1 REVERT JUMPDEST POP PUSH2 0x301 PUSH2 0x3635 JUMP JUMPDEST CALLVALUE DUP1 ISZERO PUSH2 0x3D3 JUMPI PUSH1 0x0 DUP1 REVERT JUMPDEST POP PUSH2 0x205 PUSH2 0x3E2 CALLDATASIZE PUSH1 0x4 PUSH2 0x6367 JUMP JUMPDEST PUSH2 0x36E6 JUMP JUMPDEST CALLVALUE DUP1 ISZERO PUSH2 0x3F3 JUMPI PUSH1 0x0 DUP1 REVERT JUMPDEST POP PUSH2 0x301 PUSH2 0x3AB4 JUMP JUMPDEST CALLVALUE DUP1 ISZERO PUSH2 0x408 JUMPI PUSH1 0x0 DUP1 REVERT JUMPDEST POP PUSH2 0x2BE PUSH2 0x3B3F JUMP JUMPDEST CALLVALUE DUP1 ISZERO PUSH2 0x41D JUMPI PUSH1 0x0 DUP1 REVERT JUMPDEST POP PUSH2 0x34E PUSH2 0x42C CALLDATASIZE PUSH1 0x4 PUSH2 0x63A4 JUMP JUMPDEST PUSH2 0x3BF3 JUMP JUMPDEST CALLVALUE DUP1 ISZERO PUSH2 0x43D JUMPI PUSH1 0x0 DUP1 REVERT JUMPDEST POP PUSH2 0x205 PUSH2 0x44C CALLDATASIZE PUSH1 0x4 PUSH2 0x5F88 JUMP JUMPDEST PUSH2 0x3E25 JUMP JUMPDEST CALLVALUE DUP1 ISZERO PUSH2 0x45D JUMPI PUSH1 0x0 DUP1 REVERT JUMPDEST POP PUSH2 0x3A5 PUSH2 0x46C CALLDATASIZE PUSH1 0x4 PUSH2 0x63A4 JUMP JUMPDEST PUSH2 0x418F JUMP JUMPDEST CALLVALUE DUP1 ISZERO PUSH2 0x47D JUMPI PUSH1 0x0 DUP1 REVERT JUMPDEST POP PUSH2 0x3A5 PUSH2 0x46FE JUMP JUMPDEST PUSH2 0x205 PUSH2 0x477F JUMP JUMPDEST CALLVALUE DUP1 ISZERO PUSH2 0x49A JUMPI PUSH1 0x0 DUP1 REVERT JUMPDEST POP PUSH2 0x205 PUSH2 0x4A9 CALLDATASIZE PUSH1 0x4 PUSH2 0x6111 JUMP JUMPDEST PUSH2 0x4996 JUMP JUMPDEST CALLVALUE DUP1 ISZERO PUSH2 0x4BA JUMPI PUSH1 0x0 DUP1 REVERT JUMPDEST POP PUSH2 0x301 PUSH2 0x4BDD JUMP JUMPDEST CALLVALUE DUP1 ISZERO PUSH2 0x4CF JUMPI PUSH1 0x0 DUP1 REVERT JUMPDEST POP PUSH2 0x301 PUSH2 0x4C3D JUMP JUMPDEST PUSH2 0x205 PUSH2 0x4E6 CALLDATASIZE PUSH1 0x4 PUSH2 0x6111 JUMP JUMPDEST PUSH2 0x4CC8 JUMP JUMPDEST CALLVALUE DUP1 ISZERO PUSH2 0x4F7 JUMPI PUSH1 0x0 DUP1 REVERT JUMPDEST POP PUSH2 0x301 PUSH2 0x4E0C JUMP JUMPDEST PUSH2 0x205 PUSH2 0x50E CALLDATASIZE PUSH1 0x4 PUSH2 0x6111 JUMP JUMPDEST PUSH2 0x4EB2 JUMP JUMPDEST PUSH1 0x60 PUSH1 0x0 DUP1 SLOAD DUP1 PUSH1 0x20 MUL PUSH1 0x20 ADD PUSH1 0x40 MLOAD SWAP1 DUP2 ADD PUSH1 0x40 MSTORE DUP1 SWAP3 SWAP2 SWAP1 DUP2 DUP2 MSTORE PUSH1 0x20 ADD PUSH1 0x0 SWAP1 JUMPDEST DUP3 DUP3 LT ISZERO PUSH2 0x685 JUMPI PUSH1 0x0 DUP5 DUP2 MSTORE PUSH1 0x20 SWAP1 DUP2 SWAP1 KECCAK256 PUSH1 0x40 DUP1 MLOAD PUSH2 0x140 DUP2 ADD DUP3 MSTORE PUSH1 0x7 DUP7 MUL SWAP1 SWAP3 ADD DUP1 SLOAD PUSH1 0x1 PUSH1 0x1 PUSH1 0xA0 SHL SUB SWAP1 DUP2 AND DUP5 MSTORE PUSH1 0x1 DUP3 ADD SLOAD AND SWAP4 DUP4 ADD SWAP4 SWAP1 SWAP4 MSTORE PUSH1 0x2 DUP4 ADD DUP1 SLOAD SWAP3 SWAP4 SWAP3 SWAP2 DUP5 ADD SWAP2 PUSH2 0x58E SWAP1 PUSH2 0x63F4 JUMP JUMPDEST DUP1 PUSH1 0x1F ADD PUSH1 0x20 DUP1 SWAP2 DIV MUL PUSH1 0x20 ADD PUSH1 0x40 MLOAD SWAP1 DUP2 ADD PUSH1 0x40 MSTORE DUP1 SWAP3 SWAP2 SWAP1 DUP2 DUP2 MSTORE PUSH1 0x20 ADD DUP3 DUP1 SLOAD PUSH2 0x5BA SWAP1 PUSH2 0x63F4 JUMP JUMPDEST DUP1 ISZERO PUSH2 0x607 JUMPI DUP1 PUSH1 0x1F LT PUSH2 0x5DC JUMPI PUSH2 0x100 DUP1 DUP4 SLOAD DIV MUL DUP4 MSTORE SWAP2 PUSH1 0x20 ADD SWAP2 PUSH2 0x607 JUMP JUMPDEST DUP3 ADD SWAP2 SWAP1 PUSH1 0x0 MSTORE PUSH1 0x20 PUSH1 0x0 KECCAK256 SWAP1 JUMPDEST DUP2 SLOAD DUP2 MSTORE SWAP1 PUSH1 0x1 ADD SWAP1 PUSH1 0x20 ADD DUP1 DUP4 GT PUSH2 0x5EA JUMPI DUP3 SWAP1 SUB PUSH1 0x1F AND DUP3 ADD SWAP2 JUMPDEST POP POP POP SWAP2 DUP4 MSTORE POP POP PUSH1 0x3 DUP3 ADD SLOAD PUSH1 0x20 DUP1 DUP4 ADD SWAP2 SWAP1 SWAP2 MSTORE PUSH1 0x4 DUP4 ADD SLOAD PUSH1 0x40 DUP4 ADD MSTORE PUSH1 0x5 DUP4 ADD SLOAD PUSH1 0x60 DUP4 ADD MSTORE PUSH1 0x6 SWAP1 SWAP3 ADD SLOAD PUSH4 0xFFFFFFFF DUP1 DUP3 AND PUSH1 0x80 DUP5 ADD MSTORE PUSH5 0x100000000 DUP3 DIV AND PUSH1 0xA0 DUP4 ADD MSTORE PUSH1 0xFF PUSH1 0x1 PUSH1 0x40 SHL DUP3 DIV DUP2 AND ISZERO ISZERO PUSH1 0xC0 DUP5 ADD MSTORE PUSH1 0x1 PUSH1 0x48 SHL SWAP1 SWAP2 DIV AND ISZERO ISZERO PUSH1 0xE0 SWAP1 SWAP2 ADD MSTORE SWAP1 DUP3 MSTORE PUSH1 0x1 SWAP3 SWAP1 SWAP3 ADD SWAP2 ADD PUSH2 0x537 JUMP JUMPDEST POP POP POP POP SWAP1 POP SWAP1 JUMP JUMPDEST PUSH1 0x1 DUP1 CALLER PUSH1 0x0 SWAP1 DUP2 MSTORE PUSH1 0x16 PUSH1 0x20 MSTORE PUSH1 0x40 SWAP1 KECCAK256 SLOAD PUSH1 0xFF AND PUSH1 0x2 DUP2 GT ISZERO PUSH2 0x6B5 JUMPI PUSH2 0x6B5 PUSH2 0x612A JUMP JUMPDEST EQ PUSH2 0x6D3 JUMPI PUSH1 0x40 MLOAD PUSH4 0x7824841 PUSH1 0xE2 SHL DUP2 MSTORE PUSH1 0x4 ADD PUSH1 0x40 MLOAD DUP1 SWAP2 SUB SWAP1 REVERT JUMPDEST PUSH1 0x0 PUSH2 0x6DD PUSH2 0x3555 JUMP JUMPDEST SWAP1 POP PUSH1 0x0 DUP2 GT PUSH2 0x72A JUMPI PUSH1 0x40 MLOAD PUSH3 0x461BCD PUSH1 0xE5 SHL DUP2 MSTORE PUSH1 0x20 PUSH1 0x4 DUP3 ADD MSTORE PUSH1 0x13 PUSH1 0x24 DUP3 ADD MSTORE PUSH19 0x4465627473206C69737420697320656D707479 PUSH1 0x68 SHL PUSH1 0x44 DUP3 ADD MSTORE PUSH1 0x64 ADD JUMPDEST PUSH1 0x40 MLOAD DUP1 SWAP2 SUB SWAP1 REVERT JUMPDEST PUSH1 0x0 DUP1 JUMPDEST DUP3 DUP2 LT ISZERO PUSH2 0x781 JUMPI CALLER PUSH1 0x0 SWAP1 DUP2 MSTORE PUSH1 0xA PUSH1 0x20 MSTORE PUSH1 0x40 SWAP1 KECCAK256 DUP1 SLOAD DUP3 SWAP1 DUP2 LT PUSH2 0x757 JUMPI PUSH2 0x757 PUSH2 0x642E JUMP JUMPDEST SWAP1 PUSH1 0x0 MSTORE PUSH1 0x20 PUSH1 0x0 KECCAK256 ADD SLOAD DUP3 PUSH2 0x76D SWAP2 SWAP1 PUSH2 0x645A JUMP JUMPDEST SWAP2 POP DUP1 PUSH2 0x779 DUP2 PUSH2 0x646D JUMP JUMPDEST SWAP2 POP POP PUSH2 0x72E JUMP JUMPDEST POP DUP1 CALLVALUE LT ISZERO PUSH2 0x7AC JUMPI PUSH1 0x40 MLOAD PUSH4 0x11920A6D PUSH1 0xE3 SHL DUP2 MSTORE CALLVALUE PUSH1 0x4 DUP3 ADD MSTORE PUSH1 0x24 DUP2 ADD DUP3 SWAP1 MSTORE PUSH1 0x44 ADD PUSH2 0x721 JUMP JUMPDEST PUSH1 0x0 PUSH2 0x7B9 PUSH1 0x1 DUP5 PUSH2 0x6486 JUMP JUMPDEST SWAP1 POP JUMPDEST DUP1 ISZERO PUSH2 0x8DF JUMPI CALLER PUSH1 0x0 SWAP1 DUP2 MSTORE PUSH1 0x9 PUSH1 0x20 MSTORE PUSH1 0x40 SWAP1 KECCAK256 DUP1 SLOAD DUP3 SWAP1 DUP2 LT PUSH2 0x7E3 JUMPI PUSH2 0x7E3 PUSH2 0x642E JUMP JUMPDEST PUSH1 0x0 SWAP2 DUP3 MSTORE PUSH1 0x20 DUP1 DUP4 KECCAK256 SWAP1 SWAP2 ADD SLOAD CALLER DUP4 MSTORE PUSH1 0xA SWAP1 SWAP2 MSTORE PUSH1 0x40 SWAP1 SWAP2 KECCAK256 DUP1 SLOAD PUSH1 0x1 PUSH1 0x1 PUSH1 0xA0 SHL SUB SWAP1 SWAP3 AND SWAP2 PUSH2 0x8FC SWAP2 SWAP1 DUP5 SWAP1 DUP2 LT PUSH2 0x821 JUMPI PUSH2 0x821 PUSH2 0x642E JUMP JUMPDEST SWAP1 PUSH1 0x0 MSTORE PUSH1 0x20 PUSH1 0x0 KECCAK256 ADD SLOAD SWAP1 DUP2 ISZERO MUL SWAP1 PUSH1 0x40 MLOAD PUSH1 0x0 PUSH1 0x40 MLOAD DUP1 DUP4 SUB DUP2 DUP6 DUP9 DUP9 CALL SWAP4 POP POP POP POP ISZERO DUP1 ISZERO PUSH2 0x857 JUMPI RETURNDATASIZE PUSH1 0x0 DUP1 RETURNDATACOPY RETURNDATASIZE PUSH1 0x0 REVERT JUMPDEST POP CALLER PUSH1 0x0 SWAP1 DUP2 MSTORE PUSH1 0x9 PUSH1 0x20 MSTORE PUSH1 0x40 SWAP1 KECCAK256 DUP1 SLOAD DUP1 PUSH2 0x876 JUMPI PUSH2 0x876 PUSH2 0x6499 JUMP JUMPDEST PUSH1 0x0 DUP3 DUP2 MSTORE PUSH1 0x20 DUP1 DUP3 KECCAK256 DUP4 ADD PUSH1 0x0 NOT SWAP1 DUP2 ADD DUP1 SLOAD PUSH1 0x1 PUSH1 0x1 PUSH1 0xA0 SHL SUB NOT AND SWAP1 SSTORE SWAP1 SWAP3 ADD SWAP1 SWAP3 SSTORE CALLER DUP3 MSTORE PUSH1 0xA SWAP1 MSTORE PUSH1 0x40 SWAP1 KECCAK256 DUP1 SLOAD DUP1 PUSH2 0x8B6 JUMPI PUSH2 0x8B6 PUSH2 0x6499 JUMP JUMPDEST PUSH1 0x1 SWAP1 SUB DUP2 DUP2 SWAP1 PUSH1 0x0 MSTORE PUSH1 0x20 PUSH1 0x0 KECCAK256 ADD PUSH1 0x0 SWAP1 SSTORE SWAP1 SSTORE DUP1 DUP1 PUSH2 0x8D7 SWAP1 PUSH2 0x64AF JUMP JUMPDEST SWAP2 POP POP PUSH2 0x7BC JUMP JUMPDEST POP CALLER PUSH1 0x0 SWAP1 DUP2 MSTORE PUSH1 0x9 PUSH1 0x20 MSTORE PUSH1 0x40 DUP2 KECCAK256 DUP1 SLOAD SWAP1 SWAP2 SWAP1 PUSH2 0x900 JUMPI PUSH2 0x900 PUSH2 0x642E JUMP JUMPDEST PUSH1 0x0 SWAP2 DUP3 MSTORE PUSH1 0x20 DUP1 DUP4 KECCAK256 SWAP1 SWAP2 ADD SLOAD CALLER DUP4 MSTORE PUSH1 0xA SWAP1 SWAP2 MSTORE PUSH1 0x40 DUP3 KECCAK256 DUP1 SLOAD PUSH1 0x1 PUSH1 0x1 PUSH1 0xA0 SHL SUB SWAP1 SWAP3 AND SWAP3 PUSH2 0x8FC SWAP3 PUSH2 0x938 JUMPI PUSH2 0x938 PUSH2 0x642E JUMP JUMPDEST SWAP1 PUSH1 0x0 MSTORE PUSH1 0x20 PUSH1 0x0 KECCAK256 ADD SLOAD SWAP1 DUP2 ISZERO MUL SWAP1 PUSH1 0x40 MLOAD PUSH1 0x0 PUSH1 0x40 MLOAD DUP1 DUP4 SUB DUP2 DUP6 DUP9 DUP9 CALL SWAP4 POP POP POP POP ISZERO DUP1 ISZERO PUSH2 0x96E JUMPI RETURNDATASIZE PUSH1 0x0 DUP1 RETURNDATACOPY RETURNDATASIZE PUSH1 0x0 REVERT JUMPDEST POP CALLER PUSH1 0x0 SWAP1 DUP2 MSTORE PUSH1 0x9 PUSH1 0x20 MSTORE PUSH1 0x40 SWAP1 KECCAK256 DUP1 SLOAD DUP1 PUSH2 0x98D JUMPI PUSH2 0x98D PUSH2 0x6499 JUMP JUMPDEST PUSH1 0x0 DUP3 DUP2 MSTORE PUSH1 0x20 DUP1 DUP3 KECCAK256 DUP4 ADD PUSH1 0x0 NOT SWAP1 DUP2 ADD DUP1 SLOAD PUSH1 0x1 PUSH1 0x1 PUSH1 0xA0 SHL SUB NOT AND SWAP1 SSTORE SWAP1 SWAP3 ADD SWAP1 SWAP3 SSTORE CALLER DUP3 MSTORE PUSH1 0xA SWAP1 MSTORE PUSH1 0x40 SWAP1 KECCAK256 DUP1 SLOAD DUP1 PUSH2 0x9CD JUMPI PUSH2 0x9CD PUSH2 0x6499 JUMP JUMPDEST PUSH1 0x1 SWAP1 SUB DUP2 DUP2 SWAP1 PUSH1 0x0 MSTORE PUSH1 0x20 PUSH1 0x0 KECCAK256 ADD PUSH1 0x0 SWAP1 SSTORE SWAP1 SSTORE CALLER PUSH1 0x1 PUSH1 0x1 PUSH1 0xA0 SHL SUB AND PUSH2 0x8FC SELFBALANCE SWAP1 DUP2 ISZERO MUL SWAP1 PUSH1 0x40 MLOAD PUSH1 0x0 PUSH1 0x40 MLOAD DUP1 DUP4 SUB DUP2 DUP6 DUP9 DUP9 CALL SWAP4 POP POP POP POP ISZERO DUP1 ISZERO PUSH2 0xA1C JUMPI RETURNDATASIZE PUSH1 0x0 DUP1 RETURNDATACOPY RETURNDATASIZE PUSH1 0x0 REVERT JUMPDEST POP POP POP POP JUMP JUMPDEST PUSH1 0x1 PUSH1 0x1 PUSH1 0xA0 SHL SUB DUP2 AND PUSH1 0x0 SWAP1 DUP2 MSTORE PUSH1 0x10 PUSH1 0x20 SWAP1 DUP2 MSTORE PUSH1 0x40 DUP1 DUP4 KECCAK256 PUSH1 0x16 SWAP1 SWAP3 MSTORE DUP3 KECCAK256 SLOAD PUSH1 0x60 SWAP3 SWAP1 PUSH1 0xFF AND PUSH1 0x2 DUP2 GT ISZERO PUSH2 0xA5D JUMPI PUSH2 0xA5D PUSH2 0x612A JUMP JUMPDEST PUSH1 0x2 DUP2 GT ISZERO PUSH2 0xA6E JUMPI PUSH2 0xA6E PUSH2 0x612A JUMP JUMPDEST DUP2 MSTORE PUSH1 0x20 ADD SWAP1 DUP2 MSTORE PUSH1 0x20 ADD PUSH1 0x0 KECCAK256 DUP1 SLOAD DUP1 PUSH1 0x20 MUL PUSH1 0x20 ADD PUSH1 0x40 MLOAD SWAP1 DUP2 ADD PUSH1 0x40 MSTORE DUP1 SWAP3 SWAP2 SWAP1 DUP2 DUP2 MSTORE PUSH1 0x20 ADD PUSH1 0x0 SWAP1 JUMPDEST DUP3 DUP3 LT ISZERO PUSH2 0xB48 JUMPI DUP4 DUP3 SWAP1 PUSH1 0x0 MSTORE PUSH1 0x20 PUSH1 0x0 KECCAK256 ADD DUP1 SLOAD PUSH2 0xABB SWAP1 PUSH2 0x63F4 JUMP JUMPDEST DUP1 PUSH1 0x1F ADD PUSH1 0x20 DUP1 SWAP2 DIV MUL PUSH1 0x20 ADD PUSH1 0x40 MLOAD SWAP1 DUP2 ADD PUSH1 0x40 MSTORE DUP1 SWAP3 SWAP2 SWAP1 DUP2 DUP2 MSTORE PUSH1 0x20 ADD DUP3 DUP1 SLOAD PUSH2 0xAE7 SWAP1 PUSH2 0x63F4 JUMP JUMPDEST DUP1 ISZERO PUSH2 0xB34 JUMPI DUP1 PUSH1 0x1F LT PUSH2 0xB09 JUMPI PUSH2 0x100 DUP1 DUP4 SLOAD DIV MUL DUP4 MSTORE SWAP2 PUSH1 0x20 ADD SWAP2 PUSH2 0xB34 JUMP JUMPDEST DUP3 ADD SWAP2 SWAP1 PUSH1 0x0 MSTORE PUSH1 0x20 PUSH1 0x0 KECCAK256 SWAP1 JUMPDEST DUP2 SLOAD DUP2 MSTORE SWAP1 PUSH1 0x1 ADD SWAP1 PUSH1 0x20 ADD DUP1 DUP4 GT PUSH2 0xB17 JUMPI DUP3 SWAP1 SUB PUSH1 0x1F AND DUP3 ADD SWAP2 JUMPDEST POP POP POP POP POP DUP2 MSTORE PUSH1 0x20 ADD SWAP1 PUSH1 0x1 ADD SWAP1 PUSH2 0xA9C JUMP JUMPDEST POP POP POP POP SWAP1 POP SWAP2 SWAP1 POP JUMP JUMPDEST CALLER PUSH1 0x0 SWAP1 DUP2 MSTORE PUSH1 0x15 PUSH1 0x20 SWAP1 DUP2 MSTORE PUSH1 0x40 DUP1 DUP4 KECCAK256 PUSH1 0x16 SWAP1 SWAP3 MSTORE DUP3 KECCAK256 SLOAD SWAP1 SWAP2 SWAP1 PUSH1 0xFF AND PUSH1 0x2 DUP2 GT ISZERO PUSH2 0xB84 JUMPI PUSH2 0xB84 PUSH2 0x612A JUMP JUMPDEST PUSH1 0x2 DUP2 GT ISZERO PUSH2 0xB95 JUMPI PUSH2 0xB95 PUSH2 0x612A JUMP JUMPDEST DUP2 MSTORE PUSH1 0x20 DUP2 ADD SWAP2 SWAP1 SWAP2 MSTORE PUSH1 0x40 ADD PUSH1 0x0 KECCAK256 SLOAD PUSH1 0x1 PUSH1 0xA8 SHL SWAP1 DIV PUSH1 0xFF AND PUSH2 0xBCF JUMPI PUSH1 0x40 MLOAD PUSH4 0x89129CF PUSH1 0xE4 SHL DUP2 MSTORE CALLER PUSH1 0x4 DUP3 ADD MSTORE PUSH1 0x24 ADD PUSH2 0x721 JUMP JUMPDEST CALLER PUSH1 0x0 SWAP1 DUP2 MSTORE PUSH1 0x15 PUSH1 0x20 SWAP1 DUP2 MSTORE PUSH1 0x40 DUP1 DUP4 KECCAK256 PUSH1 0x16 SWAP1 SWAP3 MSTORE DUP3 KECCAK256 SLOAD DUP3 SWAP1 PUSH1 0xFF AND PUSH1 0x2 DUP2 GT ISZERO PUSH2 0xBFF JUMPI PUSH2 0xBFF PUSH2 0x612A JUMP JUMPDEST PUSH1 0x2 DUP2 GT ISZERO PUSH2 0xC10 JUMPI PUSH2 0xC10 PUSH2 0x612A JUMP JUMPDEST DUP2 MSTORE PUSH1 0x20 DUP1 DUP3 ADD SWAP3 SWAP1 SWAP3 MSTORE PUSH1 0x40 SWAP1 DUP2 ADD PUSH1 0x0 KECCAK256 DUP2 MLOAD PUSH1 0xC0 DUP2 ADD SWAP1 SWAP3 MSTORE DUP1 SLOAD PUSH1 0x1 PUSH1 0x1 PUSH1 0xA0 SHL SUB DUP2 AND DUP4 MSTORE SWAP2 SWAP3 SWAP1 SWAP2 SWAP1 DUP4 ADD SWAP1 PUSH1 0x1 PUSH1 0xA0 SHL SWAP1 DIV PUSH1 0xFF AND PUSH1 0x2 DUP2 GT ISZERO PUSH2 0xC5D JUMPI PUSH2 0xC5D PUSH2 0x612A JUMP JUMPDEST PUSH1 0x2 DUP2 GT ISZERO PUSH2 0xC6E JUMPI PUSH2 0xC6E PUSH2 0x612A JUMP JUMPDEST DUP2 MSTORE DUP2 SLOAD PUSH1 0xFF PUSH1 0x1 PUSH1 0xA8 SHL DUP3 DIV DUP2 AND ISZERO ISZERO PUSH1 0x20 DUP5 ADD MSTORE PUSH1 0x1 PUSH1 0xB0 SHL DUP3 DIV DUP2 AND PUSH1 0x40 DUP5 ADD MSTORE PUSH1 0x1 PUSH1 0xB8 SHL DUP3 DIV DUP2 AND ISZERO ISZERO PUSH1 0x60 DUP5 ADD MSTORE PUSH1 0x80 SWAP1 SWAP3 ADD SWAP2 PUSH1 0x1 PUSH1 0xC0 SHL SWAP1 SWAP2 DIV AND PUSH1 0x2 DUP2 GT ISZERO PUSH2 0xCC2 JUMPI PUSH2 0xCC2 PUSH2 0x612A JUMP JUMPDEST PUSH1 0x2 DUP2 GT ISZERO PUSH2 0xCD3 JUMPI PUSH2 0xCD3 PUSH2 0x612A JUMP JUMPDEST SWAP1 MSTORE POP PUSH1 0x1 PUSH1 0x1 PUSH1 0xA0 SHL SUB DUP7 AND PUSH1 0x0 SWAP1 DUP2 MSTORE PUSH1 0x15 PUSH1 0x20 SWAP1 DUP2 MSTORE PUSH1 0x40 DUP1 DUP4 KECCAK256 PUSH1 0x16 SWAP1 SWAP3 MSTORE DUP3 KECCAK256 SLOAD SWAP3 SWAP4 POP SWAP1 SWAP2 DUP3 SWAP1 PUSH1 0xFF AND PUSH1 0x2 DUP2 GT ISZERO PUSH2 0xD14 JUMPI PUSH2 0xD14 PUSH2 0x612A JUMP JUMPDEST PUSH1 0x2 DUP2 GT ISZERO PUSH2 0xD25 JUMPI PUSH2 0xD25 PUSH2 0x612A JUMP JUMPDEST DUP2 MSTORE PUSH1 0x20 DUP1 DUP3 ADD SWAP3 SWAP1 SWAP3 MSTORE PUSH1 0x40 SWAP1 DUP2 ADD PUSH1 0x0 KECCAK256 DUP2 MLOAD PUSH1 0xC0 DUP2 ADD SWAP1 SWAP3 MSTORE DUP1 SLOAD PUSH1 0x1 PUSH1 0x1 PUSH1 0xA0 SHL SUB DUP2 AND DUP4 MSTORE SWAP2 SWAP3 SWAP1 SWAP2 SWAP1 DUP4 ADD SWAP1 PUSH1 0x1 PUSH1 0xA0 SHL SWAP1 DIV PUSH1 0xFF AND PUSH1 0x2 DUP2 GT ISZERO PUSH2 0xD72 JUMPI PUSH2 0xD72 PUSH2 0x612A JUMP JUMPDEST PUSH1 0x2 DUP2 GT ISZERO PUSH2 0xD83 JUMPI PUSH2 0xD83 PUSH2 0x612A JUMP JUMPDEST DUP2 MSTORE DUP2 SLOAD PUSH1 0xFF PUSH1 0x1 PUSH1 0xA8 SHL DUP3 DIV DUP2 AND ISZERO ISZERO PUSH1 0x20 DUP5 ADD MSTORE PUSH1 0x1 PUSH1 0xB0 SHL DUP3 DIV DUP2 AND PUSH1 0x40 DUP5 ADD MSTORE PUSH1 0x1 PUSH1 0xB8 SHL DUP3 DIV DUP2 AND ISZERO ISZERO PUSH1 0x60 DUP5 ADD MSTORE PUSH1 0x80 SWAP1 SWAP3 ADD SWAP2 PUSH1 0x1 PUSH1 0xC0 SHL SWAP1 SWAP2 DIV AND PUSH1 0x2 DUP2 GT ISZERO PUSH2 0xDD7 JUMPI PUSH2 0xDD7 PUSH2 0x612A JUMP JUMPDEST PUSH1 0x2 DUP2 GT ISZERO PUSH2 0xDE8 JUMPI PUSH2 0xDE8 PUSH2 0x612A JUMP JUMPDEST SWAP1 MSTORE POP SWAP1 POP PUSH1 0x1 PUSH1 0x1 PUSH1 0xA0 SHL SUB DUP7 AND CALLER SUB PUSH2 0xE53 JUMPI PUSH1 0x40 MLOAD PUSH3 0x461BCD PUSH1 0xE5 SHL DUP2 MSTORE PUSH1 0x20 PUSH1 0x4 DUP3 ADD MSTORE PUSH1 0x25 PUSH1 0x24 DUP3 ADD MSTORE PUSH32 0x596F752063616E27742062757920612070726F647563742066726F6D20796F75 PUSH1 0x44 DUP3 ADD MSTORE PUSH5 0x3939B2B633 PUSH1 0xD9 SHL PUSH1 0x64 DUP3 ADD MSTORE PUSH1 0x84 ADD PUSH2 0x721 JUMP JUMPDEST PUSH1 0x2 DUP3 PUSH1 0x20 ADD MLOAD PUSH1 0x2 DUP2 GT ISZERO PUSH2 0xE6B JUMPI PUSH2 0xE6B PUSH2 0x612A JUMP JUMPDEST SUB PUSH2 0xED6 JUMPI PUSH1 0x40 MLOAD PUSH3 0x461BCD PUSH1 0xE5 SHL DUP2 MSTORE PUSH1 0x20 PUSH1 0x4 DUP3 ADD MSTORE PUSH1 0x35 PUSH1 0x24 DUP3 ADD MSTORE PUSH32 0x54686520737570706C6965722063616E6E6F74206275792070726F6475637473 PUSH1 0x44 DUP3 ADD MSTORE PUSH21 0x2066726F6D2073746F726573206F72207573657273 PUSH1 0x58 SHL PUSH1 0x64 DUP3 ADD MSTORE PUSH1 0x84 ADD PUSH2 0x721 JUMP JUMPDEST PUSH1 0x1 DUP3 PUSH1 0x20 ADD MLOAD PUSH1 0x2 DUP2 GT ISZERO PUSH2 0xEEE JUMPI PUSH2 0xEEE PUSH2 0x612A JUMP JUMPDEST EQ ISZERO DUP1 PUSH2 0xF11 JUMPI POP PUSH1 0x0 DUP2 PUSH1 0x20 ADD MLOAD PUSH1 0x2 DUP2 GT ISZERO PUSH2 0xF0E JUMPI PUSH2 0xF0E PUSH2 0x612A JUMP JUMPDEST EQ ISZERO JUMPDEST PUSH2 0xF6E JUMPI PUSH1 0x40 MLOAD PUSH3 0x461BCD PUSH1 0xE5 SHL DUP2 MSTORE PUSH1 0x20 PUSH1 0x4 DUP3 ADD MSTORE PUSH1 0x28 PUSH1 0x24 DUP3 ADD MSTORE PUSH32 0x5468652073746F72652063616E6E6F74206275792070726F6475637473206672 PUSH1 0x44 DUP3 ADD MSTORE PUSH8 0x6F6D207573657273 PUSH1 0xC0 SHL PUSH1 0x64 DUP3 ADD MSTORE PUSH1 0x84 ADD PUSH2 0x721 JUMP JUMPDEST PUSH1 0x0 DUP3 PUSH1 0x20 ADD MLOAD PUSH1 0x2 DUP2 GT ISZERO PUSH2 0xF86 JUMPI PUSH2 0xF86 PUSH2 0x612A JUMP JUMPDEST EQ ISZERO DUP1 PUSH2 0xFA9 JUMPI POP PUSH1 0x2 DUP2 PUSH1 0x20 ADD MLOAD PUSH1 0x2 DUP2 GT ISZERO PUSH2 0xFA6 JUMPI PUSH2 0xFA6 PUSH2 0x612A JUMP JUMPDEST EQ ISZERO JUMPDEST PUSH2 0x1009 JUMPI PUSH1 0x40 MLOAD PUSH3 0x461BCD PUSH1 0xE5 SHL DUP2 MSTORE PUSH1 0x20 PUSH1 0x4 DUP3 ADD MSTORE PUSH1 0x2B PUSH1 0x24 DUP3 ADD MSTORE PUSH32 0x54686520757365722063616E6E6F74206275792070726F64756374732066726F PUSH1 0x44 DUP3 ADD MSTORE PUSH11 0x6D20737570706C69657273 PUSH1 0xA8 SHL PUSH1 0x64 DUP3 ADD MSTORE PUSH1 0x84 ADD PUSH2 0x721 JUMP JUMPDEST PUSH1 0x1 PUSH1 0x1 PUSH1 0xA0 SHL SUB DUP7 AND PUSH1 0x0 SWAP1 DUP2 MSTORE PUSH1 0xF PUSH1 0x20 SWAP1 DUP2 MSTORE PUSH1 0x40 DUP1 DUP4 KECCAK256 PUSH1 0x16 SWAP1 SWAP3 MSTORE DUP3 KECCAK256 SLOAD DUP3 SWAP1 PUSH1 0xFF AND PUSH1 0x2 DUP2 GT ISZERO PUSH2 0x1042 JUMPI PUSH2 0x1042 PUSH2 0x612A JUMP JUMPDEST PUSH1 0x2 DUP2 GT ISZERO PUSH2 0x1053 JUMPI PUSH2 0x1053 PUSH2 0x612A JUMP JUMPDEST DUP2 MSTORE PUSH1 0x20 ADD SWAP1 DUP2 MSTORE PUSH1 0x20 ADD PUSH1 0x0 KECCAK256 PUSH1 0x0 DUP7 DUP2 MSTORE PUSH1 0x20 ADD SWAP1 DUP2 MSTORE PUSH1 0x20 ADD PUSH1 0x0 KECCAK256 PUSH1 0x40 MLOAD DUP1 PUSH1 0xA0 ADD PUSH1 0x40 MSTORE SWAP1 DUP2 PUSH1 0x0 DUP3 ADD DUP1 SLOAD PUSH2 0x108D SWAP1 PUSH2 0x63F4 JUMP JUMPDEST DUP1 PUSH1 0x1F ADD PUSH1 0x20 DUP1 SWAP2 DIV MUL PUSH1 0x20 ADD PUSH1 0x40 MLOAD SWAP1 DUP2 ADD PUSH1 0x40 MSTORE DUP1 SWAP3 SWAP2 SWAP1 DUP2 DUP2 MSTORE PUSH1 0x20 ADD DUP3 DUP1 SLOAD PUSH2 0x10B9 SWAP1 PUSH2 0x63F4 JUMP JUMPDEST DUP1 ISZERO PUSH2 0x1106 JUMPI DUP1 PUSH1 0x1F LT PUSH2 0x10DB JUMPI PUSH2 0x100 DUP1 DUP4 SLOAD DIV MUL DUP4 MSTORE SWAP2 PUSH1 0x20 ADD SWAP2 PUSH2 0x1106 JUMP JUMPDEST DUP3 ADD SWAP2 SWAP1 PUSH1 0x0 MSTORE PUSH1 0x20 PUSH1 0x0 KECCAK256 SWAP1 JUMPDEST DUP2 SLOAD DUP2 MSTORE SWAP1 PUSH1 0x1 ADD SWAP1 PUSH1 0x20 ADD DUP1 DUP4 GT PUSH2 0x10E9 JUMPI DUP3 SWAP1 SUB PUSH1 0x1F AND DUP3 ADD SWAP2 JUMPDEST POP POP POP SWAP2 DUP4 MSTORE POP POP PUSH1 0x1 DUP3 ADD SLOAD PUSH1 0x20 DUP1 DUP4 ADD SWAP2 SWAP1 SWAP2 MSTORE PUSH1 0x2 DUP4 ADD SLOAD PUSH1 0x40 DUP4 ADD MSTORE PUSH1 0x3 DUP4 ADD SLOAD PUSH1 0x60 DUP4 ADD MSTORE PUSH1 0x4 SWAP1 SWAP3 ADD SLOAD PUSH4 0xFFFFFFFF AND PUSH1 0x80 SWAP1 SWAP2 ADD MSTORE DUP2 ADD MLOAD SWAP1 SWAP2 POP PUSH2 0x1167 JUMPI DUP6 PUSH1 0x40 MLOAD PUSH4 0xEF0098D1 PUSH1 0xE0 SHL DUP2 MSTORE PUSH1 0x4 ADD PUSH2 0x721 SWAP2 SWAP1 PUSH2 0x64C6 JUMP JUMPDEST PUSH1 0x0 DUP5 GT PUSH2 0x11B7 JUMPI PUSH1 0x40 MLOAD PUSH3 0x461BCD PUSH1 0xE5 SHL DUP2 MSTORE PUSH1 0x20 PUSH1 0x4 DUP3 ADD MSTORE PUSH1 0x1E PUSH1 0x24 DUP3 ADD MSTORE PUSH32 0x596F752063616E20627579206174206C6561737420312070726F647563740000 PUSH1 0x44 DUP3 ADD MSTORE PUSH1 0x64 ADD PUSH2 0x721 JUMP JUMPDEST DUP4 DUP2 PUSH1 0x40 ADD MLOAD LT ISZERO PUSH2 0x1222 JUMPI PUSH1 0x40 MLOAD PUSH3 0x461BCD PUSH1 0xE5 SHL DUP2 MSTORE PUSH1 0x20 PUSH1 0x4 DUP3 ADD MSTORE PUSH1 0x2E PUSH1 0x24 DUP3 ADD MSTORE PUSH32 0x5468657265206973206E6F2073756368207175616E74697479206F662070726F PUSH1 0x44 DUP3 ADD MSTORE PUSH14 0x647563747320696E2073746F636B PUSH1 0x90 SHL PUSH1 0x64 DUP3 ADD MSTORE PUSH1 0x84 ADD PUSH2 0x721 JUMP JUMPDEST PUSH1 0x0 DUP4 PUSH1 0x60 ADD MLOAD PUSH1 0x64 PUSH2 0x1235 SWAP2 SWAP1 PUSH2 0x64D9 JUMP JUMPDEST PUSH1 0xFF AND PUSH1 0x64 DUP7 DUP5 PUSH1 0x20 ADD MLOAD PUSH2 0x124A SWAP2 SWAP1 PUSH2 0x64F2 JUMP JUMPDEST PUSH2 0x1254 SWAP2 SWAP1 PUSH2 0x651F JUMP JUMPDEST PUSH2 0x125E SWAP2 SWAP1 PUSH2 0x64F2 JUMP JUMPDEST SWAP1 POP DUP1 CALLVALUE LT ISZERO PUSH2 0x128A JUMPI PUSH1 0x40 MLOAD PUSH4 0x11920A6D PUSH1 0xE3 SHL DUP2 MSTORE CALLVALUE PUSH1 0x4 DUP3 ADD MSTORE PUSH1 0x24 DUP2 ADD DUP3 SWAP1 MSTORE PUSH1 0x44 ADD PUSH2 0x721 JUMP JUMPDEST PUSH1 0x40 MLOAD PUSH1 0x1 PUSH1 0x1 PUSH1 0xA0 SHL SUB DUP10 AND SWAP1 DUP3 ISZERO PUSH2 0x8FC MUL SWAP1 DUP4 SWAP1 PUSH1 0x0 DUP2 DUP2 DUP2 DUP6 DUP9 DUP9 CALL SWAP4 POP POP POP POP ISZERO DUP1 ISZERO PUSH2 0x12C0 JUMPI RETURNDATASIZE PUSH1 0x0 DUP1 RETURNDATACOPY RETURNDATASIZE PUSH1 0x0 REVERT JUMPDEST POP PUSH1 0x40 MLOAD CALLER SWAP1 SELFBALANCE DUP1 ISZERO PUSH2 0x8FC MUL SWAP2 PUSH1 0x0 DUP2 DUP2 DUP2 DUP6 DUP9 DUP9 CALL SWAP4 POP POP POP POP ISZERO DUP1 ISZERO PUSH2 0x12ED JUMPI RETURNDATASIZE PUSH1 0x0 DUP1 RETURNDATACOPY RETURNDATASIZE PUSH1 0x0 REVERT JUMPDEST POP PUSH2 0x130C DUP3 PUSH1 0x0 ADD MLOAD DUP10 DUP8 DUP6 PUSH1 0x60 ADD MLOAD DUP7 PUSH1 0x80 ADD MLOAD DUP8 PUSH1 0x20 ADD MLOAD PUSH2 0x503B JUMP JUMPDEST PUSH1 0x1 DUP5 PUSH1 0x20 ADD MLOAD PUSH1 0x2 DUP2 GT ISZERO PUSH2 0x1324 JUMPI PUSH2 0x1324 PUSH2 0x612A JUMP JUMPDEST SUB PUSH2 0x1357 JUMPI PUSH2 0x1352 DUP3 PUSH1 0x0 ADD MLOAD PUSH1 0x2 DUP5 PUSH1 0x20 ADD MLOAD PUSH2 0x1342 SWAP2 SWAP1 PUSH2 0x64F2 JUMP JUMPDEST DUP8 DUP6 PUSH1 0x60 ADD MLOAD DUP7 PUSH1 0x80 ADD MLOAD PUSH2 0x5425 JUMP JUMPDEST PUSH2 0x1378 JUMP JUMPDEST PUSH2 0x1378 DUP3 PUSH1 0x0 ADD MLOAD DUP4 PUSH1 0x20 ADD MLOAD DUP5 PUSH1 0x40 ADD MLOAD DUP6 PUSH1 0x60 ADD MLOAD DUP7 PUSH1 0x80 ADD MLOAD PUSH2 0x5425 JUMP JUMPDEST CALLER PUSH1 0x0 SWAP1 DUP2 MSTORE PUSH1 0xB PUSH1 0x20 MSTORE PUSH1 0x40 SWAP1 KECCAK256 SLOAD ISZERO PUSH2 0x1395 JUMPI PUSH2 0x1395 PUSH2 0x584E JUMP JUMPDEST PUSH1 0x0 PUSH2 0x13A4 DUP4 PUSH1 0x80 ADD MLOAD PUSH2 0x59A2 JUMP JUMPDEST SWAP1 POP PUSH2 0x13E4 PUSH1 0x40 MLOAD DUP1 PUSH1 0x40 ADD PUSH1 0x40 MSTORE DUP1 PUSH1 0x12 DUP2 MSTORE PUSH1 0x20 ADD PUSH18 0x29BA37B930B3B2903634B332903230BCB99D PUSH1 0x71 SHL DUP2 MSTORE POP DUP5 PUSH1 0x80 ADD MLOAD PUSH4 0xFFFFFFFF AND PUSH2 0x5A06 JUMP JUMPDEST PUSH2 0x1419 PUSH1 0x40 MLOAD DUP1 PUSH1 0x40 ADD PUSH1 0x40 MSTORE DUP1 PUSH1 0xD DUP2 MSTORE PUSH1 0x20 ADD PUSH13 0x2930B73237B6903737B731B29D PUSH1 0x99 SHL DUP2 MSTORE POP DUP3 PUSH4 0xFFFFFFFF AND PUSH2 0x5A06 JUMP JUMPDEST PUSH1 0x40 DUP1 MLOAD PUSH2 0x140 DUP2 ADD DUP3 MSTORE CALLER DUP2 MSTORE PUSH1 0x1 PUSH1 0x1 PUSH1 0xA0 SHL SUB DUP12 DUP2 AND PUSH1 0x20 DUP1 DUP5 ADD SWAP2 DUP3 MSTORE DUP8 MLOAD SWAP5 DUP5 ADD SWAP5 DUP6 MSTORE DUP8 ADD MLOAD PUSH1 0x60 DUP1 DUP6 ADD SWAP2 SWAP1 SWAP2 MSTORE PUSH1 0x80 DUP1 DUP6 ADD DUP13 SWAP1 MSTORE SWAP1 DUP9 ADD MLOAD PUSH1 0xA0 DUP6 ADD MSTORE DUP8 ADD MLOAD PUSH4 0xFFFFFFFF SWAP1 DUP2 AND PUSH1 0xC0 DUP6 ADD MSTORE DUP6 AND PUSH1 0xE0 DUP5 ADD MSTORE PUSH1 0x0 PUSH2 0x100 DUP5 ADD DUP2 SWAP1 MSTORE PUSH2 0x120 DUP5 ADD DUP2 SWAP1 MSTORE DUP1 SLOAD PUSH1 0x1 DUP2 ADD DUP3 SSTORE SWAP1 DUP1 MSTORE DUP4 MLOAD PUSH1 0x7 SWAP1 SWAP2 MUL PUSH32 0x290DECD9548B62A8D60345A988386FC84BA6BC95484008F6362F93160EF3E563 DUP2 ADD DUP1 SLOAD SWAP3 DUP6 AND PUSH1 0x1 PUSH1 0x1 PUSH1 0xA0 SHL SUB NOT SWAP4 DUP5 AND OR DUP2 SSTORE SWAP3 MLOAD PUSH32 0x290DECD9548B62A8D60345A988386FC84BA6BC95484008F6362F93160EF3E564 DUP3 ADD DUP1 SLOAD SWAP2 SWAP1 SWAP6 AND SWAP3 AND SWAP2 SWAP1 SWAP2 OR SWAP1 SWAP3 SSTORE SWAP3 MLOAD SWAP2 SWAP3 DUP4 SWAP3 SWAP1 SWAP2 PUSH32 0x290DECD9548B62A8D60345A988386FC84BA6BC95484008F6362F93160EF3E565 ADD SWAP1 PUSH2 0x153A SWAP1 DUP3 PUSH2 0x657E JUMP JUMPDEST POP PUSH1 0x60 DUP3 ADD MLOAD PUSH1 0x3 DUP3 ADD SSTORE PUSH1 0x80 DUP3 ADD MLOAD PUSH1 0x4 DUP3 ADD SSTORE PUSH1 0xA0 DUP3 ADD MLOAD PUSH1 0x5 DUP3 ADD SSTORE PUSH1 0xC0 DUP3 ADD MLOAD PUSH1 0x6 SWAP1 SWAP2 ADD DUP1 SLOAD PUSH1 0xE0 DUP5 ADD MLOAD PUSH2 0x100 DUP6 ADD MLOAD PUSH2 0x120 SWAP1 SWAP6 ADD MLOAD ISZERO ISZERO PUSH1 0x1 PUSH1 0x48 SHL MUL PUSH10 0xFF000000000000000000 NOT SWAP6 ISZERO ISZERO PUSH1 0x1 PUSH1 0x40 SHL MUL SWAP6 SWAP1 SWAP6 AND PUSH10 0xFFFF0000000000000000 NOT PUSH4 0xFFFFFFFF SWAP3 DUP4 AND PUSH5 0x100000000 MUL PUSH8 0xFFFFFFFFFFFFFFFF NOT SWAP1 SWAP5 AND SWAP3 SWAP1 SWAP6 AND SWAP2 SWAP1 SWAP2 OR SWAP2 SWAP1 SWAP2 OR SWAP3 SWAP1 SWAP3 AND SWAP2 SWAP1 SWAP2 OR SWAP2 SWAP1 SWAP2 OR SWAP1 SSTORE CALLER PUSH1 0x0 SWAP1 DUP2 MSTORE PUSH1 0x19 PUSH1 0x20 MSTORE PUSH1 0x40 DUP2 KECCAK256 SWAP1 SLOAD PUSH2 0x15F7 SWAP1 PUSH1 0x1 SWAP1 PUSH2 0x6486 JUMP JUMPDEST DUP2 SLOAD PUSH1 0x1 DUP2 ADD DUP4 SSTORE PUSH1 0x0 SWAP3 DUP4 MSTORE PUSH1 0x20 SWAP1 SWAP3 KECCAK256 SWAP1 SWAP2 ADD SSTORE POP POP POP POP POP POP POP POP POP POP JUMP JUMPDEST PUSH1 0x0 DUP1 CALLER PUSH1 0x0 SWAP1 DUP2 MSTORE PUSH1 0x16 PUSH1 0x20 MSTORE PUSH1 0x40 SWAP1 KECCAK256 SLOAD PUSH1 0xFF AND PUSH1 0x2 DUP2 GT ISZERO PUSH2 0x1640 JUMPI PUSH2 0x1640 PUSH2 0x612A JUMP JUMPDEST EQ PUSH2 0x165E JUMPI PUSH1 0x40 MLOAD PUSH4 0x7824841 PUSH1 0xE2 SHL DUP2 MSTORE PUSH1 0x4 ADD PUSH1 0x40 MLOAD DUP1 SWAP2 SUB SWAP1 REVERT JUMPDEST CALLER PUSH1 0x0 SWAP1 DUP2 MSTORE PUSH1 0xB PUSH1 0x20 MSTORE PUSH1 0x40 SWAP1 KECCAK256 SLOAD DUP3 EQ PUSH2 0x16AB JUMPI PUSH1 0x40 MLOAD PUSH3 0x461BCD PUSH1 0xE5 SHL DUP2 MSTORE PUSH1 0x20 PUSH1 0x4 DUP3 ADD MSTORE PUSH1 0xC PUSH1 0x24 DUP3 ADD MSTORE PUSH12 0x496E76616C696420636F6465 PUSH1 0xA0 SHL PUSH1 0x44 DUP3 ADD MSTORE PUSH1 0x64 ADD PUSH2 0x721 JUMP JUMPDEST CALLER PUSH1 0x0 SWAP1 DUP2 MSTORE PUSH1 0x16 PUSH1 0x20 SWAP1 DUP2 MSTORE PUSH1 0x40 DUP1 DUP4 KECCAK256 SLOAD PUSH1 0x15 SWAP1 SWAP3 MSTORE DUP3 KECCAK256 PUSH1 0xFF SWAP1 SWAP2 AND SWAP2 DUP3 PUSH1 0x2 DUP2 GT ISZERO PUSH2 0x16DD JUMPI PUSH2 0x16DD PUSH2 0x612A JUMP JUMPDEST PUSH1 0x2 DUP2 GT ISZERO PUSH2 0x16EE JUMPI PUSH2 0x16EE PUSH2 0x612A JUMP JUMPDEST DUP2 MSTORE PUSH1 0x20 DUP2 ADD SWAP2 SWAP1 SWAP2 MSTORE PUSH1 0x40 ADD PUSH1 0x0 KECCAK256 SLOAD PUSH1 0x1 PUSH1 0xB0 SHL SWAP1 DIV PUSH1 0xFF AND ISZERO PUSH2 0x1762 JUMPI PUSH1 0x40 MLOAD PUSH3 0x461BCD PUSH1 0xE5 SHL DUP2 MSTORE PUSH1 0x20 PUSH1 0x4 DUP3 ADD MSTORE PUSH1 0x24 DUP1 DUP3 ADD MSTORE PUSH32 0x596F75206861766520616C726561647920616374697661746564207468697320 PUSH1 0x44 DUP3 ADD MSTORE PUSH4 0x636F6465 PUSH1 0xE0 SHL PUSH1 0x64 DUP3 ADD MSTORE PUSH1 0x84 ADD PUSH2 0x721 JUMP JUMPDEST CALLER PUSH1 0x0 SWAP1 DUP2 MSTORE PUSH1 0x15 PUSH1 0x20 MSTORE PUSH1 0x40 DUP2 KECCAK256 PUSH1 0xA SWAP2 DUP4 PUSH1 0x2 DUP2 GT ISZERO PUSH2 0x1786 JUMPI PUSH2 0x1786 PUSH2 0x612A JUMP JUMPDEST PUSH1 0x2 DUP2 GT ISZERO PUSH2 0x1797 JUMPI PUSH2 0x1797 PUSH2 0x612A JUMP JUMPDEST DUP2 MSTORE PUSH1 0x20 ADD SWAP1 DUP2 MSTORE PUSH1 0x20 ADD PUSH1 0x0 KECCAK256 PUSH1 0x0 ADD PUSH1 0x16 PUSH2 0x100 EXP DUP2 SLOAD DUP2 PUSH1 0xFF MUL NOT AND SWAP1 DUP4 PUSH1 0xFF AND MUL OR SWAP1 SSTORE POP POP POP POP JUMP JUMPDEST PUSH1 0x8 SLOAD PUSH1 0x1 PUSH1 0x1 PUSH1 0xA0 SHL SUB AND CALLER EQ PUSH2 0x17EF JUMPI PUSH1 0x40 MLOAD PUSH3 0x461BCD PUSH1 0xE5 SHL DUP2 MSTORE PUSH1 0x4 ADD PUSH2 0x721 SWAP1 PUSH2 0x663E JUMP JUMPDEST PUSH1 0x0 DUP2 DUP2 MSTORE PUSH1 0xE PUSH1 0x20 MSTORE PUSH1 0x40 SWAP1 KECCAK256 SLOAD PUSH1 0xFF AND PUSH2 0x1857 JUMPI PUSH1 0x40 MLOAD PUSH3 0x461BCD PUSH1 0xE5 SHL DUP2 MSTORE PUSH1 0x20 PUSH1 0x4 DUP3 ADD MSTORE PUSH1 0x21 PUSH1 0x24 DUP3 ADD MSTORE PUSH32 0x546865207265717565737420686173206E6F74206265656E2073656E74207965 PUSH1 0x44 DUP3 ADD MSTORE PUSH1 0x1D PUSH1 0xFA SHL PUSH1 0x64 DUP3 ADD MSTORE PUSH1 0x84 ADD PUSH2 0x721 JUMP JUMPDEST PUSH1 0x0 DUP1 DUP3 DUP2 SLOAD DUP2 LT PUSH2 0x186B JUMPI PUSH2 0x186B PUSH2 0x642E JUMP JUMPDEST PUSH1 0x0 SWAP2 DUP3 MSTORE PUSH1 0x20 SWAP2 DUP3 SWAP1 KECCAK256 PUSH1 0x40 DUP1 MLOAD PUSH2 0x140 DUP2 ADD DUP3 MSTORE PUSH1 0x7 SWAP1 SWAP4 MUL SWAP1 SWAP2 ADD DUP1 SLOAD PUSH1 0x1 PUSH1 0x1 PUSH1 0xA0 SHL SUB SWAP1 DUP2 AND DUP5 MSTORE PUSH1 0x1 DUP3 ADD SLOAD AND SWAP4 DUP4 ADD SWAP4 SWAP1 SWAP4 MSTORE PUSH1 0x2 DUP4 ADD DUP1 SLOAD SWAP3 SWAP4 SWAP3 SWAP2 DUP5 ADD SWAP2 PUSH2 0x18BB SWAP1 PUSH2 0x63F4 JUMP JUMPDEST DUP1 PUSH1 0x1F ADD PUSH1 0x20 DUP1 SWAP2 DIV MUL PUSH1 0x20 ADD PUSH1 0x40 MLOAD SWAP1 DUP2 ADD PUSH1 0x40 MSTORE DUP1 SWAP3 SWAP2 SWAP1 DUP2 DUP2 MSTORE PUSH1 0x20 ADD DUP3 DUP1 SLOAD PUSH2 0x18E7 SWAP1 PUSH2 0x63F4 JUMP JUMPDEST DUP1 ISZERO PUSH2 0x1934 JUMPI DUP1 PUSH1 0x1F LT PUSH2 0x1909 JUMPI PUSH2 0x100 DUP1 DUP4 SLOAD DIV MUL DUP4 MSTORE SWAP2 PUSH1 0x20 ADD SWAP2 PUSH2 0x1934 JUMP JUMPDEST DUP3 ADD SWAP2 SWAP1 PUSH1 0x0 MSTORE PUSH1 0x20 PUSH1 0x0 KECCAK256 SWAP1 JUMPDEST DUP2 SLOAD DUP2 MSTORE SWAP1 PUSH1 0x1 ADD SWAP1 PUSH1 0x20 ADD DUP1 DUP4 GT PUSH2 0x1917 JUMPI DUP3 SWAP1 SUB PUSH1 0x1F AND DUP3 ADD SWAP2 JUMPDEST POP POP POP SWAP2 DUP4 MSTORE POP POP PUSH1 0x3 DUP3 ADD SLOAD PUSH1 0x20 DUP3 ADD MSTORE PUSH1 0x4 DUP3 ADD SLOAD PUSH1 0x40 DUP3 ADD MSTORE PUSH1 0x5 DUP3 ADD SLOAD PUSH1 0x60 DUP3 ADD MSTORE PUSH1 0x6 SWAP1 SWAP2 ADD SLOAD PUSH4 0xFFFFFFFF DUP1 DUP3 AND PUSH1 0x80 DUP5 ADD MSTORE PUSH5 0x100000000 DUP3 DIV AND PUSH1 0xA0 DUP4 ADD MSTORE PUSH1 0xFF PUSH1 0x1 PUSH1 0x40 SHL DUP3 DIV DUP2 AND ISZERO ISZERO PUSH1 0xC0 DUP5 ADD MSTORE PUSH1 0x1 PUSH1 0x48 SHL SWAP1 SWAP2 DIV AND ISZERO ISZERO PUSH1 0xE0 SWAP1 SWAP2 ADD MSTORE PUSH2 0x100 DUP2 ADD MLOAD SWAP1 SWAP2 POP ISZERO DUP1 ISZERO PUSH2 0x19B7 JUMPI POP DUP1 PUSH2 0x120 ADD MLOAD ISZERO JUMPDEST PUSH2 0x1A12 JUMPI PUSH1 0x40 MLOAD PUSH3 0x461BCD PUSH1 0xE5 SHL DUP2 MSTORE PUSH1 0x20 PUSH1 0x4 DUP3 ADD MSTORE PUSH1 0x26 PUSH1 0x24 DUP3 ADD MSTORE PUSH32 0x54686520726571756573742068617320616C7265616479206265656E2070726F PUSH1 0x44 DUP3 ADD MSTORE PUSH6 0x18D95CDCD959 PUSH1 0xD2 SHL PUSH1 0x64 DUP3 ADD MSTORE PUSH1 0x84 ADD PUSH2 0x721 JUMP JUMPDEST DUP1 PUSH1 0xE0 ADD MLOAD PUSH4 0xFFFFFFFF AND DUP2 PUSH1 0xC0 ADD MLOAD PUSH4 0xFFFFFFFF AND LT ISZERO PUSH2 0x1AF9 JUMPI PUSH1 0x1 PUSH2 0x100 DUP3 ADD MSTORE PUSH1 0x20 DUP1 DUP3 ADD MLOAD PUSH1 0x1 PUSH1 0x1 PUSH1 0xA0 SHL SUB AND PUSH1 0x0 SWAP1 DUP2 MSTORE PUSH1 0xA SWAP1 SWAP2 MSTORE PUSH1 0x40 SWAP1 KECCAK256 PUSH1 0x80 DUP3 ADD MLOAD PUSH1 0x60 DUP4 ADD MLOAD PUSH2 0x1A67 SWAP2 SWAP1 PUSH2 0x64F2 JUMP JUMPDEST DUP2 SLOAD PUSH1 0x1 DUP1 DUP3 ADD DUP5 SSTORE PUSH1 0x0 SWAP4 DUP5 MSTORE PUSH1 0x20 DUP1 DUP6 KECCAK256 SWAP1 SWAP3 ADD SWAP3 SWAP1 SWAP3 SSTORE DUP4 DUP2 ADD MLOAD PUSH1 0x1 PUSH1 0x1 PUSH1 0xA0 SHL SUB SWAP1 DUP2 AND DUP5 MSTORE PUSH1 0x9 DUP3 MSTORE PUSH1 0x40 DUP1 DUP6 KECCAK256 DUP7 MLOAD DUP2 SLOAD SWAP6 DUP7 ADD DUP3 SSTORE SWAP1 DUP7 MSTORE SWAP5 DUP4 SWAP1 KECCAK256 SWAP1 SWAP4 ADD DUP1 SLOAD PUSH1 0x1 PUSH1 0x1 PUSH1 0xA0 SHL SUB NOT AND SWAP5 SWAP1 SWAP2 AND SWAP4 SWAP1 SWAP4 OR SWAP1 SWAP3 SSTORE MLOAD DUP4 DUP2 MSTORE PUSH32 0xB5E697FD702DAF79A1EA89F82C5AEC1B019E3601C671314DA084B85544C9C245 SWAP2 ADD JUMPDEST PUSH1 0x40 MLOAD DUP1 SWAP2 SUB SWAP1 LOG1 POP POP JUMP JUMPDEST PUSH1 0x1 PUSH2 0x120 DUP3 ADD MSTORE PUSH1 0x40 MLOAD DUP3 DUP2 MSTORE PUSH32 0x19DE89EA8960411EE72328EC26B63F03BAE0D96BFF70C5CE1934387A3EE6DC03 SWAP1 PUSH1 0x20 ADD PUSH2 0x1AED JUMP JUMPDEST POP POP JUMP JUMPDEST PUSH1 0x40 DUP1 MLOAD PUSH1 0xC0 DUP2 ADD DUP3 MSTORE PUSH1 0x0 DUP1 DUP3 MSTORE PUSH1 0x20 DUP1 DUP4 ADD DUP3 SWAP1 MSTORE DUP3 DUP5 ADD DUP3 SWAP1 MSTORE PUSH1 0x60 DUP4 ADD DUP3 SWAP1 MSTORE PUSH1 0x80 DUP4 ADD DUP3 SWAP1 MSTORE PUSH1 0xA0 DUP4 ADD DUP3 SWAP1 MSTORE CALLER DUP3 MSTORE PUSH1 0x15 DUP2 MSTORE DUP4 DUP3 KECCAK256 PUSH1 0x16 SWAP1 SWAP2 MSTORE SWAP3 DUP2 KECCAK256 SLOAD SWAP2 SWAP3 SWAP2 PUSH1 0xFF AND PUSH1 0x2 DUP2 GT ISZERO PUSH2 0x1B91 JUMPI PUSH2 0x1B91 PUSH2 0x612A JUMP JUMPDEST PUSH1 0x2 DUP2 GT ISZERO PUSH2 0x1BA2 JUMPI PUSH2 0x1BA2 PUSH2 0x612A JUMP JUMPDEST DUP2 MSTORE PUSH1 0x20 DUP2 ADD SWAP2 SWAP1 SWAP2 MSTORE PUSH1 0x40 ADD PUSH1 0x0 KECCAK256 SLOAD PUSH1 0x1 PUSH1 0xA8 SHL SWAP1 DIV PUSH1 0xFF AND PUSH2 0x1BDC JUMPI PUSH1 0x40 MLOAD PUSH4 0x89129CF PUSH1 0xE4 SHL DUP2 MSTORE CALLER PUSH1 0x4 DUP3 ADD MSTORE PUSH1 0x24 ADD PUSH2 0x721 JUMP JUMPDEST CALLER PUSH1 0x0 SWAP1 DUP2 MSTORE PUSH1 0x15 PUSH1 0x20 SWAP1 DUP2 MSTORE PUSH1 0x40 DUP1 DUP4 KECCAK256 PUSH1 0x16 SWAP1 SWAP3 MSTORE DUP3 KECCAK256 SLOAD SWAP1 SWAP2 SWAP1 PUSH1 0xFF AND PUSH1 0x2 DUP2 GT ISZERO PUSH2 0x1C0D JUMPI PUSH2 0x1C0D PUSH2 0x612A JUMP JUMPDEST PUSH1 0x2 DUP2 GT ISZERO PUSH2 0x1C1E JUMPI PUSH2 0x1C1E PUSH2 0x612A JUMP JUMPDEST DUP2 MSTORE PUSH1 0x20 DUP1 DUP3 ADD SWAP3 SWAP1 SWAP3 MSTORE PUSH1 0x40 SWAP1 DUP2 ADD PUSH1 0x0 KECCAK256 DUP2 MLOAD PUSH1 0xC0 DUP2 ADD SWAP1 SWAP3 MSTORE DUP1 SLOAD PUSH1 0x1 PUSH1 0x1 PUSH1 0xA0 SHL SUB DUP2 AND DUP4 MSTORE SWAP2 SWAP3 SWAP1 SWAP2 SWAP1 DUP4 ADD SWAP1 PUSH1 0x1 PUSH1 0xA0 SHL SWAP1 DIV PUSH1 0xFF AND PUSH1 0x2 DUP2 GT ISZERO PUSH2 0x1C6B JUMPI PUSH2 0x1C6B PUSH2 0x612A JUMP JUMPDEST PUSH1 0x2 DUP2 GT ISZERO PUSH2 0x1C7C JUMPI PUSH2 0x1C7C PUSH2 0x612A JUMP JUMPDEST DUP2 MSTORE DUP2 SLOAD PUSH1 0xFF PUSH1 0x1 PUSH1 0xA8 SHL DUP3 DIV DUP2 AND ISZERO ISZERO PUSH1 0x20 DUP5 ADD MSTORE PUSH1 0x1 PUSH1 0xB0 SHL DUP3 DIV DUP2 AND PUSH1 0x40 DUP5 ADD MSTORE PUSH1 0x1 PUSH1 0xB8 SHL DUP3 DIV DUP2 AND ISZERO ISZERO PUSH1 0x60 DUP5 ADD MSTORE PUSH1 0x80 SWAP1 SWAP3 ADD SWAP2 PUSH1 0x1 PUSH1 0xC0 SHL SWAP1 SWAP2 DIV AND PUSH1 0x2 DUP2 GT ISZERO PUSH2 0x1CD0 JUMPI PUSH2 0x1CD0 PUSH2 0x612A JUMP JUMPDEST PUSH1 0x2 DUP2 GT ISZERO PUSH2 0x1CE1 JUMPI PUSH2 0x1CE1 PUSH2 0x612A JUMP JUMPDEST SWAP1 MSTORE POP SWAP1 POP SWAP1 JUMP JUMPDEST PUSH1 0x8 SLOAD PUSH1 0x0 SWAP1 PUSH1 0x1 PUSH1 0x1 PUSH1 0xA0 SHL SUB AND CALLER EQ PUSH2 0x1D16 JUMPI PUSH1 0x40 MLOAD PUSH3 0x461BCD PUSH1 0xE5 SHL DUP2 MSTORE PUSH1 0x4 ADD PUSH2 0x721 SWAP1 PUSH2 0x663E JUMP JUMPDEST PUSH1 0x1 SLOAD PUSH2 0x1D2C SWAP1 PUSH8 0xDE0B6B3A7640000 SWAP1 PUSH2 0x64F2 JUMP JUMPDEST SWAP1 POP SWAP1 JUMP JUMPDEST PUSH1 0x2 DUP1 CALLER PUSH1 0x0 SWAP1 DUP2 MSTORE PUSH1 0x16 PUSH1 0x20 MSTORE PUSH1 0x40 SWAP1 KECCAK256 SLOAD PUSH1 0xFF AND PUSH1 0x2 DUP2 GT ISZERO PUSH2 0x1D58 JUMPI PUSH2 0x1D58 PUSH2 0x612A JUMP JUMPDEST EQ PUSH2 0x1D76 JUMPI PUSH1 0x40 MLOAD PUSH4 0x7824841 PUSH1 0xE2 SHL DUP2 MSTORE PUSH1 0x4 ADD PUSH1 0x40 MLOAD DUP1 SWAP2 SUB SWAP1 REVERT JUMPDEST PUSH2 0x1D8E PUSH1 0x40 MLOAD DUP1 PUSH1 0x20 ADD PUSH1 0x40 MSTORE DUP1 PUSH1 0x0 DUP2 MSTORE POP PUSH2 0x5A4B JUMP JUMPDEST PUSH2 0x1D97 DUP7 PUSH2 0x5A4B JUMP JUMPDEST SUB PUSH2 0x1DE4 JUMPI PUSH1 0x40 MLOAD PUSH3 0x461BCD PUSH1 0xE5 SHL DUP2 MSTORE PUSH1 0x20 PUSH1 0x4 DUP3 ADD MSTORE PUSH1 0x1D PUSH1 0x24 DUP3 ADD MSTORE PUSH32 0x5468652070726F64756374206D75737420686176652061207469746C65000000 PUSH1 0x44 DUP3 ADD MSTORE PUSH1 0x64 ADD PUSH2 0x721 JUMP JUMPDEST PUSH1 0x0 DUP5 GT PUSH2 0x1E49 JUMPI PUSH1 0x40 MLOAD PUSH3 0x461BCD PUSH1 0xE5 SHL DUP2 MSTORE PUSH1 0x20 PUSH1 0x4 DUP3 ADD MSTORE PUSH1 0x2C PUSH1 0x24 DUP3 ADD MSTORE PUSH32 0x5468652070726F64756374206D75737420686176652061207072696365206772 PUSH1 0x44 DUP3 ADD MSTORE PUSH12 0x6561746572207468616E203 PUSH1 0xA4 SHL PUSH1 0x64 DUP3 ADD MSTORE PUSH1 0x84 ADD PUSH2 0x721 JUMP JUMPDEST PUSH1 0x0 DUP4 GT PUSH2 0x1EAF JUMPI PUSH1 0x40 MLOAD PUSH3 0x461BCD PUSH1 0xE5 SHL DUP2 MSTORE PUSH1 0x20 PUSH1 0x4 DUP3 ADD MSTORE PUSH1 0x2D PUSH1 0x24 DUP3 ADD MSTORE PUSH32 0x5468652070726F64756374206D7573742068617665206120616D6F756E742067 PUSH1 0x44 DUP3 ADD MSTORE PUSH13 0x726561746572207468616E203 PUSH1 0x9C SHL PUSH1 0x64 DUP3 ADD MSTORE PUSH1 0x84 ADD PUSH2 0x721 JUMP JUMPDEST PUSH1 0x0 DUP3 PUSH4 0xFFFFFFFF AND GT PUSH2 0x1F2B JUMPI PUSH1 0x40 MLOAD PUSH3 0x461BCD PUSH1 0xE5 SHL DUP2 MSTORE PUSH1 0x20 PUSH1 0x4 DUP3 ADD MSTORE PUSH1 0x38 PUSH1 0x24 DUP3 ADD MSTORE PUSH32 0x5468652070726F64756374206D757374206861766520612073746F7261676520 PUSH1 0x44 DUP3 ADD MSTORE PUSH32 0x6C6966652067726561746572207468616E203020646179730000000000000000 PUSH1 0x64 DUP3 ADD MSTORE PUSH1 0x84 ADD PUSH2 0x721 JUMP JUMPDEST PUSH1 0x0 PUSH2 0x1F3A PUSH3 0x15180 TIMESTAMP PUSH2 0x666C JUMP JUMPDEST PUSH2 0x1F44 SWAP1 TIMESTAMP PUSH2 0x6486 JUMP JUMPDEST SWAP1 POP PUSH1 0x0 PUSH2 0x1F54 DUP8 DUP4 DUP7 DUP10 PUSH2 0x5A7C JUMP JUMPDEST CALLER PUSH1 0x0 SWAP1 DUP2 MSTORE PUSH1 0xF PUSH1 0x20 SWAP1 DUP2 MSTORE PUSH1 0x40 DUP1 DUP4 KECCAK256 PUSH1 0x16 SWAP1 SWAP3 MSTORE DUP3 KECCAK256 SLOAD SWAP3 SWAP4 POP SWAP1 SWAP2 DUP3 SWAP1 PUSH1 0xFF AND PUSH1 0x2 DUP2 GT ISZERO PUSH2 0x1F89 JUMPI PUSH2 0x1F89 PUSH2 0x612A JUMP JUMPDEST PUSH1 0x2 DUP2 GT ISZERO PUSH2 0x1F9A JUMPI PUSH2 0x1F9A PUSH2 0x612A JUMP JUMPDEST DUP2 MSTORE PUSH1 0x20 ADD SWAP1 DUP2 MSTORE PUSH1 0x20 ADD PUSH1 0x0 KECCAK256 PUSH1 0x0 DUP4 DUP2 MSTORE PUSH1 0x20 ADD SWAP1 DUP2 MSTORE PUSH1 0x20 ADD PUSH1 0x0 KECCAK256 PUSH1 0x1 ADD SLOAD GT ISZERO PUSH2 0x2041 JUMPI CALLER PUSH1 0x0 SWAP1 DUP2 MSTORE PUSH1 0xF PUSH1 0x20 SWAP1 DUP2 MSTORE PUSH1 0x40 DUP1 DUP4 KECCAK256 PUSH1 0x16 SWAP1 SWAP3 MSTORE DUP3 KECCAK256 SLOAD DUP8 SWAP3 SWAP1 PUSH1 0xFF AND PUSH1 0x2 DUP2 GT ISZERO PUSH2 0x1FF4 JUMPI PUSH2 0x1FF4 PUSH2 0x612A JUMP JUMPDEST PUSH1 0x2 DUP2 GT ISZERO PUSH2 0x2005 JUMPI PUSH2 0x2005 PUSH2 0x612A JUMP JUMPDEST DUP2 MSTORE PUSH1 0x20 ADD SWAP1 DUP2 MSTORE PUSH1 0x20 ADD PUSH1 0x0 KECCAK256 PUSH1 0x0 DUP4 DUP2 MSTORE PUSH1 0x20 ADD SWAP1 DUP2 MSTORE PUSH1 0x20 ADD PUSH1 0x0 KECCAK256 PUSH1 0x2 ADD PUSH1 0x0 DUP3 DUP3 SLOAD PUSH2 0x2036 SWAP2 SWAP1 PUSH2 0x645A JUMP JUMPDEST SWAP1 SWAP2 SSTORE POP PUSH2 0x2367 SWAP1 POP JUMP JUMPDEST PUSH1 0x0 PUSH2 0x204C DUP9 PUSH2 0x5A4B JUMP JUMPDEST PUSH1 0x40 DUP1 MLOAD PUSH1 0xA0 DUP2 ADD DUP3 MSTORE DUP11 DUP2 MSTORE PUSH1 0x20 DUP1 DUP3 ADD DUP12 SWAP1 MSTORE DUP2 DUP4 ADD DUP11 SWAP1 MSTORE PUSH1 0x60 DUP3 ADD DUP8 SWAP1 MSTORE PUSH4 0xFFFFFFFF DUP10 AND PUSH1 0x80 DUP4 ADD MSTORE CALLER PUSH1 0x0 SWAP1 DUP2 MSTORE PUSH1 0xF DUP3 MSTORE DUP4 DUP2 KECCAK256 PUSH1 0x16 SWAP1 SWAP3 MSTORE SWAP3 DUP4 KECCAK256 SLOAD SWAP4 SWAP5 POP SWAP1 SWAP3 SWAP1 SWAP2 SWAP1 PUSH1 0xFF AND PUSH1 0x2 DUP2 GT ISZERO PUSH2 0x20AC JUMPI PUSH2 0x20AC PUSH2 0x612A JUMP JUMPDEST PUSH1 0x2 DUP2 GT ISZERO PUSH2 0x20BD JUMPI PUSH2 0x20BD PUSH2 0x612A JUMP JUMPDEST DUP2 MSTORE PUSH1 0x20 DUP1 DUP3 ADD SWAP3 SWAP1 SWAP3 MSTORE PUSH1 0x40 SWAP1 DUP2 ADD PUSH1 0x0 SWAP1 DUP2 KECCAK256 DUP7 DUP3 MSTORE SWAP1 SWAP3 MSTORE SWAP1 KECCAK256 DUP2 MLOAD DUP2 SWAP1 PUSH2 0x20E8 SWAP1 DUP3 PUSH2 0x657E JUMP JUMPDEST POP PUSH1 0x20 DUP3 DUP2 ADD MLOAD PUSH1 0x1 DUP4 ADD SSTORE PUSH1 0x40 DUP1 DUP5 ADD MLOAD PUSH1 0x2 DUP1 DUP6 ADD SWAP2 SWAP1 SWAP2 SSTORE PUSH1 0x60 DUP6 ADD MLOAD PUSH1 0x3 DUP6 ADD SSTORE PUSH1 0x80 SWAP1 SWAP5 ADD MLOAD PUSH1 0x4 SWAP1 SWAP4 ADD DUP1 SLOAD PUSH4 0xFFFFFFFF NOT AND PUSH4 0xFFFFFFFF SWAP1 SWAP5 AND SWAP4 SWAP1 SWAP4 OR SWAP1 SWAP3 SSTORE CALLER PUSH1 0x0 SWAP1 DUP2 MSTORE PUSH1 0x10 DUP3 MSTORE DUP3 DUP2 KECCAK256 PUSH1 0x16 SWAP1 SWAP3 MSTORE SWAP2 DUP3 KECCAK256 SLOAD SWAP1 SWAP3 PUSH1 0xFF SWAP1 SWAP2 AND SWAP1 DUP2 GT ISZERO PUSH2 0x215D JUMPI PUSH2 0x215D PUSH2 0x612A JUMP JUMPDEST PUSH1 0x2 DUP2 GT ISZERO PUSH2 0x216E JUMPI PUSH2 0x216E PUSH2 0x612A JUMP JUMPDEST DUP2 MSTORE PUSH1 0x20 DUP1 DUP3 ADD SWAP3 SWAP1 SWAP3 MSTORE PUSH1 0x40 ADD PUSH1 0x0 SWAP1 DUP2 KECCAK256 DUP1 SLOAD PUSH1 0x1 DUP2 ADD DUP3 SSTORE SWAP1 DUP3 MSTORE SWAP2 SWAP1 KECCAK256 ADD PUSH2 0x219A DUP10 DUP3 PUSH2 0x657E JUMP JUMPDEST POP CALLER PUSH1 0x0 SWAP1 DUP2 MSTORE PUSH1 0x12 PUSH1 0x20 SWAP1 DUP2 MSTORE PUSH1 0x40 DUP1 DUP4 KECCAK256 PUSH1 0x16 SWAP1 SWAP3 MSTORE DUP3 KECCAK256 SLOAD SWAP1 SWAP2 SWAP1 PUSH1 0xFF AND PUSH1 0x2 DUP2 GT ISZERO PUSH2 0x21CC JUMPI PUSH2 0x21CC PUSH2 0x612A JUMP JUMPDEST PUSH1 0x2 DUP2 GT ISZERO PUSH2 0x21DD JUMPI PUSH2 0x21DD PUSH2 0x612A JUMP JUMPDEST DUP2 MSTORE PUSH1 0x20 DUP1 DUP3 ADD SWAP3 SWAP1 SWAP3 MSTORE PUSH1 0x40 SWAP1 DUP2 ADD PUSH1 0x0 SWAP1 DUP2 KECCAK256 DUP5 DUP3 MSTORE DUP4 MSTORE DUP2 DUP2 KECCAK256 DUP1 SLOAD PUSH1 0x1 DUP2 ADD DUP3 SSTORE SWAP1 DUP3 MSTORE DUP4 DUP3 KECCAK256 ADD DUP11 SWAP1 SSTORE CALLER DUP2 MSTORE PUSH1 0x13 DUP4 MSTORE DUP2 DUP2 KECCAK256 PUSH1 0x16 SWAP1 SWAP4 MSTORE SWAP1 DUP2 KECCAK256 SLOAD PUSH1 0xFF AND PUSH1 0x2 DUP2 GT ISZERO PUSH2 0x2233 JUMPI PUSH2 0x2233 PUSH2 0x612A JUMP JUMPDEST PUSH1 0x2 DUP2 GT ISZERO PUSH2 0x2244 JUMPI PUSH2 0x2244 PUSH2 0x612A JUMP JUMPDEST DUP2 MSTORE PUSH1 0x20 DUP1 DUP3 ADD SWAP3 SWAP1 SWAP3 MSTORE PUSH1 0x40 SWAP1 DUP2 ADD PUSH1 0x0 SWAP1 DUP2 KECCAK256 DUP5 DUP3 MSTORE DUP4 MSTORE DUP2 DUP2 KECCAK256 DUP1 SLOAD PUSH1 0x1 DUP2 ADD DUP3 SSTORE SWAP1 DUP3 MSTORE DUP4 DUP3 KECCAK256 ADD DUP7 SWAP1 SSTORE CALLER DUP2 MSTORE PUSH1 0x14 DUP4 MSTORE DUP2 DUP2 KECCAK256 PUSH1 0x16 SWAP1 SWAP4 MSTORE SWAP1 DUP2 KECCAK256 SLOAD PUSH1 0xFF AND PUSH1 0x2 DUP2 GT ISZERO PUSH2 0x229A JUMPI PUSH2 0x229A PUSH2 0x612A JUMP JUMPDEST PUSH1 0x2 DUP2 GT ISZERO PUSH2 0x22AB JUMPI PUSH2 0x22AB PUSH2 0x612A JUMP JUMPDEST DUP2 MSTORE PUSH1 0x20 DUP1 DUP3 ADD SWAP3 SWAP1 SWAP3 MSTORE PUSH1 0x40 SWAP1 DUP2 ADD PUSH1 0x0 SWAP1 DUP2 KECCAK256 DUP5 DUP3 MSTORE DUP4 MSTORE DUP2 DUP2 KECCAK256 DUP1 SLOAD PUSH1 0x1 DUP2 ADD DUP3 SSTORE SWAP1 DUP3 MSTORE DUP4 DUP3 KECCAK256 PUSH1 0x8 DUP3 DIV ADD DUP1 SLOAD PUSH1 0x7 SWAP1 SWAP3 AND PUSH1 0x4 MUL PUSH2 0x100 EXP PUSH4 0xFFFFFFFF DUP2 DUP2 MUL NOT SWAP1 SWAP4 AND SWAP3 DUP12 AND MUL SWAP2 SWAP1 SWAP2 OR SWAP1 SSTORE CALLER DUP2 MSTORE PUSH1 0x11 DUP4 MSTORE DUP2 DUP2 KECCAK256 PUSH1 0x16 SWAP1 SWAP4 MSTORE SWAP1 DUP2 KECCAK256 SLOAD PUSH1 0xFF AND PUSH1 0x2 DUP2 GT ISZERO PUSH2 0x2326 JUMPI PUSH2 0x2326 PUSH2 0x612A JUMP JUMPDEST PUSH1 0x2 DUP2 GT ISZERO PUSH2 0x2337 JUMPI PUSH2 0x2337 PUSH2 0x612A JUMP JUMPDEST DUP2 MSTORE PUSH1 0x20 DUP1 DUP3 ADD SWAP3 SWAP1 SWAP3 MSTORE PUSH1 0x40 SWAP1 DUP2 ADD PUSH1 0x0 SWAP1 DUP2 KECCAK256 DUP5 DUP3 MSTORE SWAP1 SWAP3 MSTORE DUP2 KECCAK256 DUP1 SLOAD SWAP2 PUSH2 0x2360 DUP4 PUSH2 0x646D JUMP JUMPDEST SWAP2 SWAP1 POP SSTORE POP POP JUMPDEST POP POP POP POP POP POP POP JUMP JUMPDEST PUSH1 0x60 PUSH1 0x4 DUP1 SLOAD DUP1 PUSH1 0x20 MUL PUSH1 0x20 ADD PUSH1 0x40 MLOAD SWAP1 DUP2 ADD PUSH1 0x40 MSTORE DUP1 SWAP3 SWAP2 SWAP1 DUP2 DUP2 MSTORE PUSH1 0x20 ADD DUP3 DUP1 SLOAD DUP1 ISZERO PUSH2 0x23C8 JUMPI PUSH1 0x20 MUL DUP3 ADD SWAP2 SWAP1 PUSH1 0x0 MSTORE PUSH1 0x20 PUSH1 0x0 KECCAK256 SWAP1 JUMPDEST DUP2 SLOAD PUSH1 0x1 PUSH1 0x1 PUSH1 0xA0 SHL SUB AND DUP2 MSTORE PUSH1 0x1 SWAP1 SWAP2 ADD SWAP1 PUSH1 0x20 ADD DUP1 DUP4 GT PUSH2 0x23AA JUMPI JUMPDEST POP POP POP POP POP SWAP1 POP SWAP1 JUMP JUMPDEST PUSH1 0x8 SLOAD PUSH1 0x1 PUSH1 0x1 PUSH1 0xA0 SHL SUB AND CALLER SUB PUSH2 0x2420 JUMPI PUSH1 0x40 MLOAD PUSH3 0x461BCD PUSH1 0xE5 SHL DUP2 MSTORE PUSH1 0x20 PUSH1 0x4 DUP3 ADD MSTORE PUSH1 0x11 PUSH1 0x24 DUP3 ADD MSTORE PUSH17 0x2CB7BA9030B932903A34329037BBB732B9 PUSH1 0x79 SHL PUSH1 0x44 DUP3 ADD MSTORE PUSH1 0x64 ADD PUSH2 0x721 JUMP JUMPDEST CALLER PUSH1 0x0 SWAP1 DUP2 MSTORE PUSH1 0x18 PUSH1 0x20 MSTORE PUSH1 0x40 SWAP1 KECCAK256 SLOAD PUSH1 0xFF AND ISZERO PUSH2 0x2480 JUMPI PUSH1 0x40 MLOAD PUSH3 0x461BCD PUSH1 0xE5 SHL DUP2 MSTORE PUSH1 0x20 PUSH1 0x4 DUP3 ADD MSTORE PUSH1 0x1A PUSH1 0x24 DUP3 ADD MSTORE PUSH32 0x596F752061726520616C72656164792072656769737465726564000000000000 PUSH1 0x44 DUP3 ADD MSTORE PUSH1 0x64 ADD PUSH2 0x721 JUMP JUMPDEST PUSH1 0x40 MLOAD PUSH1 0x1 PUSH1 0x1 PUSH1 0xF0 SHL SUB NOT PUSH1 0xF0 DUP4 SWAP1 SHL AND PUSH1 0x20 DUP3 ADD MSTORE PUSH1 0x0 SWAP1 PUSH1 0x22 ADD PUSH1 0x40 MLOAD PUSH1 0x20 DUP2 DUP4 SUB SUB DUP2 MSTORE SWAP1 PUSH1 0x40 MSTORE DUP1 MLOAD SWAP1 PUSH1 0x20 ADD KECCAK256 PUSH1 0x0 SHR SWAP1 POP PUSH32 0x68A3979302A4CB21359668E4C72DD25D994EC899C117266CAACB15E75CC586E9 DUP2 SUB PUSH2 0x26A8 JUMPI PUSH1 0x40 DUP1 MLOAD PUSH1 0xC0 DUP2 ADD DUP3 MSTORE CALLER DUP1 DUP3 MSTORE PUSH1 0x2 PUSH1 0x20 DUP1 DUP5 ADD DUP3 SWAP1 MSTORE PUSH1 0x1 DUP5 DUP7 ADD MSTORE PUSH1 0x0 PUSH1 0x60 DUP6 ADD DUP2 SWAP1 MSTORE PUSH1 0x80 DUP6 ADD DUP2 SWAP1 MSTORE PUSH1 0xA0 DUP6 ADD DUP4 SWAP1 MSTORE SWAP3 DUP4 MSTORE PUSH1 0x15 SWAP1 MSTORE SWAP3 DUP2 KECCAK256 SWAP2 SWAP3 DUP2 MSTORE PUSH1 0x20 DUP1 DUP3 ADD SWAP3 SWAP1 SWAP3 MSTORE PUSH1 0x40 ADD PUSH1 0x0 KECCAK256 DUP3 MLOAD DUP2 SLOAD PUSH1 0x1 PUSH1 0x1 PUSH1 0xA0 SHL SUB SWAP1 SWAP2 AND PUSH1 0x1 PUSH1 0x1 PUSH1 0xA0 SHL SUB NOT DUP3 AND DUP2 OR DUP4 SSTORE SWAP3 DUP5 ADD MLOAD SWAP2 SWAP3 DUP4 SWAP2 PUSH1 0x1 PUSH1 0x1 PUSH1 0xA8 SHL SUB NOT AND OR PUSH1 0x1 PUSH1 0xA0 SHL DUP4 PUSH1 0x2 DUP2 GT ISZERO PUSH2 0x2579 JUMPI PUSH2 0x2579 PUSH2 0x612A JUMP JUMPDEST MUL OR SWAP1 SSTORE POP PUSH1 0x40 DUP3 ADD MLOAD DUP2 SLOAD PUSH1 0x60 DUP5 ADD MLOAD PUSH1 0x80 DUP6 ADD MLOAD ISZERO ISZERO PUSH1 0x1 PUSH1 0xB8 SHL MUL PUSH1 0xFF PUSH1 0xB8 SHL NOT PUSH1 0xFF SWAP3 SWAP1 SWAP3 AND PUSH1 0x1 PUSH1 0xB0 SHL MUL PUSH1 0xFF PUSH1 0xB0 SHL NOT SWAP5 ISZERO ISZERO PUSH1 0x1 PUSH1 0xA8 SHL MUL SWAP5 SWAP1 SWAP5 AND PUSH2 0xFFFF PUSH1 0xA8 SHL NOT SWAP1 SWAP4 AND SWAP3 SWAP1 SWAP3 OR SWAP3 SWAP1 SWAP3 OR SWAP2 DUP3 AND DUP2 OR DUP4 SSTORE PUSH1 0xA0 DUP5 ADD MLOAD SWAP2 DUP4 SWAP2 PUSH1 0xFF PUSH1 0xC0 SHL NOT AND PUSH2 0xFFFF PUSH1 0xB8 SHL NOT SWAP1 SWAP2 AND OR PUSH1 0x1 PUSH1 0xC0 SHL DUP4 PUSH1 0x2 DUP2 GT ISZERO PUSH2 0x2606 JUMPI PUSH2 0x2606 PUSH2 0x612A JUMP JUMPDEST MUL OR SWAP1 SSTORE POP POP CALLER PUSH1 0x0 DUP2 DUP2 MSTORE PUSH1 0x16 PUSH1 0x20 SWAP1 DUP2 MSTORE PUSH1 0x40 DUP1 DUP4 KECCAK256 DUP1 SLOAD PUSH1 0x2 PUSH1 0xFF NOT SWAP1 SWAP2 AND DUP2 OR SWAP1 SWAP2 SSTORE PUSH1 0x17 DUP4 MSTORE SWAP1 DUP4 KECCAK256 DUP1 SLOAD PUSH1 0x1 DUP2 DUP2 ADD DUP4 SSTORE SWAP2 DUP6 MSTORE DUP4 DUP6 KECCAK256 SWAP4 DUP2 DIV SWAP1 SWAP4 ADD DUP1 SLOAD PUSH1 0xFF PUSH1 0x1F SWAP1 SWAP6 AND PUSH2 0x100 EXP SWAP5 DUP6 MUL NOT AND SWAP4 DUP4 MUL SWAP4 SWAP1 SWAP4 OR SWAP1 SWAP3 SSTORE DUP1 SLOAD SWAP2 DUP3 ADD DUP2 SSTORE SWAP1 SWAP2 MSTORE PUSH32 0x405787FA12A823E0F2B7631CC41B3BA8828B3321CA811111FA75CD3AA3BB5ACE ADD DUP1 SLOAD PUSH1 0x1 PUSH1 0x1 PUSH1 0xA0 SHL SUB NOT AND SWAP1 SWAP2 OR SWAP1 SSTORE POP PUSH2 0x2A44 JUMP JUMPDEST PUSH32 0x3121B941577EFDDF5181E856378EBABEB436D6B0DA310D5D74F0D334B60AB564 DUP2 SUB PUSH2 0x288B JUMPI PUSH1 0x40 DUP1 MLOAD PUSH1 0xC0 DUP2 ADD DUP3 MSTORE CALLER DUP1 DUP3 MSTORE PUSH1 0x1 PUSH1 0x20 DUP1 DUP5 ADD DUP3 DUP2 MSTORE DUP5 DUP7 ADD DUP4 SWAP1 MSTORE PUSH1 0x0 PUSH1 0x60 DUP7 ADD DUP2 SWAP1 MSTORE PUSH1 0x80 DUP7 ADD DUP2 SWAP1 MSTORE PUSH1 0xA0 DUP7 ADD DUP5 SWAP1 MSTORE SWAP4 DUP5 MSTORE PUSH1 0x15 DUP3 MSTORE DUP6 DUP5 KECCAK256 SWAP3 DUP5 MSTORE SWAP2 SWAP1 MSTORE SWAP3 SWAP1 KECCAK256 DUP2 MLOAD DUP2 SLOAD PUSH1 0x1 PUSH1 0x1 PUSH1 0xA0 SHL SUB SWAP1 SWAP2 AND PUSH1 0x1 PUSH1 0x1 PUSH1 0xA0 SHL SUB NOT DUP3 AND DUP2 OR DUP4 SSTORE SWAP4 MLOAD SWAP3 SWAP4 SWAP2 SWAP3 SWAP2 DUP4 SWAP2 PUSH1 0x1 PUSH1 0x1 PUSH1 0xA8 SHL SUB NOT AND OR PUSH1 0x1 PUSH1 0xA0 SHL DUP4 PUSH1 0x2 DUP2 GT ISZERO PUSH2 0x2760 JUMPI PUSH2 0x2760 PUSH2 0x612A JUMP JUMPDEST MUL OR SWAP1 SSTORE POP PUSH1 0x40 DUP3 ADD MLOAD DUP2 SLOAD PUSH1 0x60 DUP5 ADD MLOAD PUSH1 0x80 DUP6 ADD MLOAD ISZERO ISZERO PUSH1 0x1 PUSH1 0xB8 SHL MUL PUSH1 0xFF PUSH1 0xB8 SHL NOT PUSH1 0xFF SWAP3 SWAP1 SWAP3 AND PUSH1 0x1 PUSH1 0xB0 SHL MUL PUSH1 0xFF PUSH1 0xB0 SHL NOT SWAP5 ISZERO ISZERO PUSH1 0x1 PUSH1 0xA8 SHL MUL SWAP5 SWAP1 SWAP5 AND PUSH2 0xFFFF PUSH1 0xA8 SHL NOT SWAP1 SWAP4 AND SWAP3 SWAP1 SWAP3 OR SWAP3 SWAP1 SWAP3 OR SWAP2 DUP3 AND DUP2 OR DUP4 SSTORE PUSH1 0xA0 DUP5 ADD MLOAD SWAP2 DUP4 SWAP2 PUSH1 0xFF PUSH1 0xC0 SHL NOT AND PUSH2 0xFFFF PUSH1 0xB8 SHL NOT SWAP1 SWAP2 AND OR PUSH1 0x1 PUSH1 0xC0 SHL DUP4 PUSH1 0x2 DUP2 GT ISZERO PUSH2 0x27ED JUMPI PUSH2 0x27ED PUSH2 0x612A JUMP JUMPDEST MUL OR SWAP1 SSTORE POP POP CALLER PUSH1 0x0 DUP2 DUP2 MSTORE PUSH1 0x16 PUSH1 0x20 SWAP1 DUP2 MSTORE PUSH1 0x40 DUP1 DUP4 KECCAK256 DUP1 SLOAD PUSH1 0xFF NOT AND PUSH1 0x1 SWAP1 DUP2 OR SWAP1 SWAP2 SSTORE PUSH1 0x17 DUP4 MSTORE SWAP1 DUP4 KECCAK256 DUP1 SLOAD DUP1 DUP4 ADD DUP3 SSTORE SWAP1 DUP5 MSTORE DUP3 DUP5 KECCAK256 SWAP3 DUP2 DIV SWAP1 SWAP3 ADD DUP1 SLOAD PUSH1 0x1F SWAP1 SWAP4 AND PUSH2 0x100 EXP PUSH1 0xFF DUP2 MUL NOT SWAP1 SWAP4 AND SWAP1 SWAP3 OR SWAP1 SWAP2 SSTORE PUSH1 0x3 DUP1 SLOAD SWAP2 DUP3 ADD DUP2 SSTORE SWAP1 SWAP2 MSTORE PUSH32 0xC2575A0E9E593C00F959F8C92F12DB2869C3395A3B0502D05E2516446F71F85B ADD DUP1 SLOAD PUSH1 0x1 PUSH1 0x1 PUSH1 0xA0 SHL SUB NOT AND SWAP1 SWAP2 OR SWAP1 SSTORE POP PUSH2 0x2A44 JUMP JUMPDEST DUP2 PUSH2 0xFFFF AND PUSH1 0x0 SUB PUSH2 0x2A44 JUMPI PUSH1 0x40 DUP1 MLOAD PUSH1 0xC0 DUP2 ADD DUP3 MSTORE CALLER DUP1 DUP3 MSTORE PUSH1 0x0 PUSH1 0x20 DUP1 DUP5 ADD DUP3 DUP2 MSTORE PUSH1 0x1 DUP6 DUP8 ADD MSTORE PUSH1 0x60 DUP6 ADD DUP4 SWAP1 MSTORE PUSH1 0x80 DUP6 ADD DUP4 SWAP1 MSTORE PUSH1 0xA0 DUP6 ADD DUP4 SWAP1 MSTORE SWAP3 DUP3 MSTORE PUSH1 0x15 DUP2 MSTORE DUP5 DUP3 KECCAK256 DUP3 DUP1 MSTORE SWAP1 MSTORE SWAP3 SWAP1 SWAP3 KECCAK256 DUP2 MLOAD DUP2 SLOAD PUSH1 0x1 PUSH1 0x1 PUSH1 0xA0 SHL SUB SWAP1 SWAP2 AND PUSH1 0x1 PUSH1 0x1 PUSH1 0xA0 SHL SUB NOT DUP3 AND DUP2 OR DUP4 SSTORE SWAP4 MLOAD SWAP3 SWAP4 SWAP2 SWAP3 SWAP2 DUP4 SWAP2 PUSH1 0x1 PUSH1 0x1 PUSH1 0xA8 SHL SUB NOT AND OR PUSH1 0x1 PUSH1 0xA0 SHL DUP4 PUSH1 0x2 DUP2 GT ISZERO PUSH2 0x2926 JUMPI PUSH2 0x2926 PUSH2 0x612A JUMP JUMPDEST MUL OR SWAP1 SSTORE POP PUSH1 0x40 DUP3 ADD MLOAD DUP2 SLOAD PUSH1 0x60 DUP5 ADD MLOAD PUSH1 0x80 DUP6 ADD MLOAD ISZERO ISZERO PUSH1 0x1 PUSH1 0xB8 SHL MUL PUSH1 0xFF PUSH1 0xB8 SHL NOT PUSH1 0xFF SWAP3 SWAP1 SWAP3 AND PUSH1 0x1 PUSH1 0xB0 SHL MUL PUSH1 0xFF PUSH1 0xB0 SHL NOT SWAP5 ISZERO ISZERO PUSH1 0x1 PUSH1 0xA8 SHL MUL SWAP5 SWAP1 SWAP5 AND PUSH2 0xFFFF PUSH1 0xA8 SHL NOT SWAP1 SWAP4 AND SWAP3 SWAP1 SWAP3 OR SWAP3 SWAP1 SWAP3 OR SWAP2 DUP3 AND DUP2 OR DUP4 SSTORE PUSH1 0xA0 DUP5 ADD MLOAD SWAP2 DUP4 SWAP2 PUSH1 0xFF PUSH1 0xC0 SHL NOT AND PUSH2 0xFFFF PUSH1 0xB8 SHL NOT SWAP1 SWAP2 AND OR PUSH1 0x1 PUSH1 0xC0 SHL DUP4 PUSH1 0x2 DUP2 GT ISZERO PUSH2 0x29B3 JUMPI PUSH2 0x29B3 PUSH2 0x612A JUMP JUMPDEST MUL OR SWAP1 SSTORE POP POP CALLER PUSH1 0x0 DUP2 DUP2 MSTORE PUSH1 0x16 PUSH1 0x20 SWAP1 DUP2 MSTORE PUSH1 0x40 DUP1 DUP4 KECCAK256 DUP1 SLOAD PUSH1 0xFF NOT AND SWAP1 SSTORE PUSH1 0x17 DUP3 MSTORE DUP3 KECCAK256 DUP1 SLOAD PUSH1 0x1 DUP2 DUP2 ADD DUP4 SSTORE SWAP2 DUP5 MSTORE DUP3 DUP5 KECCAK256 SWAP3 DUP2 DIV SWAP1 SWAP3 ADD DUP1 SLOAD PUSH1 0x1F SWAP1 SWAP4 AND PUSH2 0x100 EXP PUSH1 0xFF MUL NOT SWAP1 SWAP3 AND SWAP1 SWAP2 SSTORE PUSH1 0x4 DUP1 SLOAD SWAP2 DUP3 ADD DUP2 SSTORE SWAP1 SWAP2 MSTORE PUSH32 0x8A35ACFBC15FF81A39AE7D344FD709F28E8600B4AA8C65C6B64BFE7FE36BD19B ADD DUP1 SLOAD PUSH1 0x1 PUSH1 0x1 PUSH1 0xA0 SHL SUB NOT AND SWAP1 SWAP2 OR SWAP1 SSTORE POP JUMPDEST POP POP CALLER PUSH1 0x0 SWAP1 DUP2 MSTORE PUSH1 0x18 PUSH1 0x20 MSTORE PUSH1 0x40 SWAP1 KECCAK256 DUP1 SLOAD PUSH1 0xFF NOT AND PUSH1 0x1 OR SWAP1 SSTORE JUMP JUMPDEST PUSH1 0x1 PUSH1 0x1 PUSH1 0xA0 SHL SUB DUP2 AND PUSH1 0x0 SWAP1 DUP2 MSTORE PUSH1 0x10 PUSH1 0x20 SWAP1 DUP2 MSTORE PUSH1 0x40 DUP1 DUP4 KECCAK256 PUSH1 0x16 SWAP1 SWAP3 MSTORE DUP3 KECCAK256 SLOAD PUSH1 0x60 SWAP3 SWAP2 SWAP1 DUP3 SWAP1 PUSH1 0xFF AND PUSH1 0x2 DUP2 GT ISZERO PUSH2 0x2AA0 JUMPI PUSH2 0x2AA0 PUSH2 0x612A JUMP JUMPDEST PUSH1 0x2 DUP2 GT ISZERO PUSH2 0x2AB1 JUMPI PUSH2 0x2AB1 PUSH2 0x612A JUMP JUMPDEST DUP2 MSTORE PUSH1 0x20 ADD SWAP1 DUP2 MSTORE PUSH1 0x20 ADD PUSH1 0x0 KECCAK256 DUP1 SLOAD DUP1 PUSH1 0x20 MUL PUSH1 0x20 ADD PUSH1 0x40 MLOAD SWAP1 DUP2 ADD PUSH1 0x40 MSTORE DUP1 SWAP3 SWAP2 SWAP1 DUP2 DUP2 MSTORE PUSH1 0x20 ADD PUSH1 0x0 SWAP1 JUMPDEST DUP3 DUP3 LT ISZERO PUSH2 0x2B8B JUMPI DUP4 DUP3 SWAP1 PUSH1 0x0 MSTORE PUSH1 0x20 PUSH1 0x0 KECCAK256 ADD DUP1 SLOAD PUSH2 0x2AFE SWAP1 PUSH2 0x63F4 JUMP JUMPDEST DUP1 PUSH1 0x1F ADD PUSH1 0x20 DUP1 SWAP2 DIV MUL PUSH1 0x20 ADD PUSH1 0x40 MLOAD SWAP1 DUP2 ADD PUSH1 0x40 MSTORE DUP1 SWAP3 SWAP2 SWAP1 DUP2 DUP2 MSTORE PUSH1 0x20 ADD DUP3 DUP1 SLOAD PUSH2 0x2B2A SWAP1 PUSH2 0x63F4 JUMP JUMPDEST DUP1 ISZERO PUSH2 0x2B77 JUMPI DUP1 PUSH1 0x1F LT PUSH2 0x2B4C JUMPI PUSH2 0x100 DUP1 DUP4 SLOAD DIV MUL DUP4 MSTORE SWAP2 PUSH1 0x20 ADD SWAP2 PUSH2 0x2B77 JUMP JUMPDEST DUP3 ADD SWAP2 SWAP1 PUSH1 0x0 MSTORE PUSH1 0x20 PUSH1 0x0 KECCAK256 SWAP1 JUMPDEST DUP2 SLOAD DUP2 MSTORE SWAP1 PUSH1 0x1 ADD SWAP1 PUSH1 0x20 ADD DUP1 DUP4 GT PUSH2 0x2B5A JUMPI DUP3 SWAP1 SUB PUSH1 0x1F AND DUP3 ADD SWAP2 JUMPDEST POP POP POP POP POP DUP2 MSTORE PUSH1 0x20 ADD SWAP1 PUSH1 0x1 ADD SWAP1 PUSH2 0x2ADF JUMP JUMPDEST POP POP POP POP SWAP1 POP PUSH1 0x0 DUP2 MLOAD SWAP1 POP PUSH1 0x0 DUP1 DUP3 PUSH8 0xFFFFFFFFFFFFFFFF DUP2 GT ISZERO PUSH2 0x2BB3 JUMPI PUSH2 0x2BB3 PUSH2 0x600E JUMP JUMPDEST PUSH1 0x40 MLOAD SWAP1 DUP1 DUP3 MSTORE DUP1 PUSH1 0x20 MUL PUSH1 0x20 ADD DUP3 ADD PUSH1 0x40 MSTORE DUP1 ISZERO PUSH2 0x2BE6 JUMPI DUP2 PUSH1 0x20 ADD JUMPDEST PUSH1 0x60 DUP2 MSTORE PUSH1 0x20 ADD SWAP1 PUSH1 0x1 SWAP1 SUB SWAP1 DUP2 PUSH2 0x2BD1 JUMPI SWAP1 POP JUMPDEST POP SWAP1 POP PUSH1 0x0 JUMPDEST DUP4 DUP2 LT ISZERO PUSH2 0x2C5C JUMPI PUSH1 0x0 PUSH2 0x2C19 DUP9 DUP8 DUP5 DUP2 MLOAD DUP2 LT PUSH2 0x2C0C JUMPI PUSH2 0x2C0C PUSH2 0x642E JUMP JUMPDEST PUSH1 0x20 MUL PUSH1 0x20 ADD ADD MLOAD PUSH2 0x418F JUMP JUMPDEST SWAP1 POP DUP1 MLOAD DUP5 PUSH2 0x2C28 SWAP2 SWAP1 PUSH2 0x645A JUMP JUMPDEST SWAP4 POP DUP1 DUP4 DUP4 DUP2 MLOAD DUP2 LT PUSH2 0x2C3D JUMPI PUSH2 0x2C3D PUSH2 0x642E JUMP JUMPDEST PUSH1 0x20 MUL PUSH1 0x20 ADD ADD DUP2 SWAP1 MSTORE POP POP DUP1 DUP1 PUSH2 0x2C54 SWAP1 PUSH2 0x646D JUMP JUMPDEST SWAP2 POP POP PUSH2 0x2BEC JUMP JUMPDEST POP PUSH1 0x0 DUP3 PUSH8 0xFFFFFFFFFFFFFFFF DUP2 GT ISZERO PUSH2 0x2C78 JUMPI PUSH2 0x2C78 PUSH2 0x600E JUMP JUMPDEST PUSH1 0x40 MLOAD SWAP1 DUP1 DUP3 MSTORE DUP1 PUSH1 0x20 MUL PUSH1 0x20 ADD DUP3 ADD PUSH1 0x40 MSTORE DUP1 ISZERO PUSH2 0x2CE1 JUMPI DUP2 PUSH1 0x20 ADD JUMPDEST PUSH2 0x2CCE PUSH1 0x40 MLOAD DUP1 PUSH1 0xA0 ADD PUSH1 0x40 MSTORE DUP1 PUSH1 0x60 DUP2 MSTORE PUSH1 0x20 ADD PUSH1 0x0 DUP2 MSTORE PUSH1 0x20 ADD PUSH1 0x0 DUP2 MSTORE PUSH1 0x20 ADD PUSH1 0x0 DUP2 MSTORE PUSH1 0x20 ADD PUSH1 0x0 PUSH4 0xFFFFFFFF AND DUP2 MSTORE POP SWAP1 JUMP JUMPDEST DUP2 MSTORE PUSH1 0x20 ADD SWAP1 PUSH1 0x1 SWAP1 SUB SWAP1 DUP2 PUSH2 0x2C96 JUMPI SWAP1 POP JUMPDEST POP SWAP1 POP PUSH1 0x0 SWAP3 POP PUSH1 0x0 JUMPDEST DUP5 DUP2 LT ISZERO PUSH2 0x2EBC JUMPI PUSH1 0x0 DUP4 DUP3 DUP2 MLOAD DUP2 LT PUSH2 0x2D07 JUMPI PUSH2 0x2D07 PUSH2 0x642E JUMP JUMPDEST PUSH1 0x20 MUL PUSH1 0x20 ADD ADD MLOAD SWAP1 POP PUSH1 0x0 JUMPDEST DUP2 MLOAD DUP2 LT ISZERO PUSH2 0x2EA7 JUMPI PUSH1 0x1 PUSH1 0x1 PUSH1 0xA0 SHL SUB DUP11 AND PUSH1 0x0 SWAP1 DUP2 MSTORE PUSH1 0xF PUSH1 0x20 SWAP1 DUP2 MSTORE PUSH1 0x40 DUP1 DUP4 KECCAK256 PUSH1 0x16 SWAP1 SWAP3 MSTORE DUP3 KECCAK256 SLOAD SWAP1 SWAP2 SWAP1 PUSH1 0xFF AND PUSH1 0x2 DUP2 GT ISZERO PUSH2 0x2D57 JUMPI PUSH2 0x2D57 PUSH2 0x612A JUMP JUMPDEST PUSH1 0x2 DUP2 GT ISZERO PUSH2 0x2D68 JUMPI PUSH2 0x2D68 PUSH2 0x612A JUMP JUMPDEST DUP2 MSTORE PUSH1 0x20 ADD SWAP1 DUP2 MSTORE PUSH1 0x20 ADD PUSH1 0x0 KECCAK256 PUSH1 0x0 DUP4 DUP4 DUP2 MLOAD DUP2 LT PUSH2 0x2D8A JUMPI PUSH2 0x2D8A PUSH2 0x642E JUMP JUMPDEST PUSH1 0x20 MUL PUSH1 0x20 ADD ADD MLOAD DUP2 MSTORE PUSH1 0x20 ADD SWAP1 DUP2 MSTORE PUSH1 0x20 ADD PUSH1 0x0 KECCAK256 PUSH1 0x40 MLOAD DUP1 PUSH1 0xA0 ADD PUSH1 0x40 MSTORE SWAP1 DUP2 PUSH1 0x0 DUP3 ADD DUP1 SLOAD PUSH2 0x2DBB SWAP1 PUSH2 0x63F4 JUMP JUMPDEST DUP1 PUSH1 0x1F ADD PUSH1 0x20 DUP1 SWAP2 DIV MUL PUSH1 0x20 ADD PUSH1 0x40 MLOAD SWAP1 DUP2 ADD PUSH1 0x40 MSTORE DUP1 SWAP3 SWAP2 SWAP1 DUP2 DUP2 MSTORE PUSH1 0x20 ADD DUP3 DUP1 SLOAD PUSH2 0x2DE7 SWAP1 PUSH2 0x63F4 JUMP JUMPDEST DUP1 ISZERO PUSH2 0x2E34 JUMPI DUP1 PUSH1 0x1F LT PUSH2 0x2E09 JUMPI PUSH2 0x100 DUP1 DUP4 SLOAD DIV MUL DUP4 MSTORE SWAP2 PUSH1 0x20 ADD SWAP2 PUSH2 0x2E34 JUMP JUMPDEST DUP3 ADD SWAP2 SWAP1 PUSH1 0x0 MSTORE PUSH1 0x20 PUSH1 0x0 KECCAK256 SWAP1 JUMPDEST DUP2 SLOAD DUP2 MSTORE SWAP1 PUSH1 0x1 ADD SWAP1 PUSH1 0x20 ADD DUP1 DUP4 GT PUSH2 0x2E17 JUMPI DUP3 SWAP1 SUB PUSH1 0x1F AND DUP3 ADD SWAP2 JUMPDEST POP POP POP SWAP2 DUP4 MSTORE POP POP PUSH1 0x1 DUP3 ADD SLOAD PUSH1 0x20 DUP3 ADD MSTORE PUSH1 0x2 DUP3 ADD SLOAD PUSH1 0x40 DUP3 ADD MSTORE PUSH1 0x3 DUP3 ADD SLOAD PUSH1 0x60 DUP3 ADD MSTORE PUSH1 0x4 SWAP1 SWAP2 ADD SLOAD PUSH4 0xFFFFFFFF AND PUSH1 0x80 SWAP1 SWAP2 ADD MSTORE DUP5 DUP8 PUSH2 0x2E77 DUP2 PUSH2 0x646D JUMP JUMPDEST SWAP9 POP DUP2 MLOAD DUP2 LT PUSH2 0x2E89 JUMPI PUSH2 0x2E89 PUSH2 0x642E JUMP JUMPDEST PUSH1 0x20 MUL PUSH1 0x20 ADD ADD DUP2 SWAP1 MSTORE POP DUP1 DUP1 PUSH2 0x2E9F SWAP1 PUSH2 0x646D JUMP JUMPDEST SWAP2 POP POP PUSH2 0x2D14 JUMP JUMPDEST POP POP DUP1 DUP1 PUSH2 0x2EB4 SWAP1 PUSH2 0x646D JUMP JUMPDEST SWAP2 POP POP PUSH2 0x2CEB JUMP JUMPDEST POP SWAP7 SWAP6 POP POP POP POP POP POP JUMP JUMPDEST PUSH1 0x8 SLOAD PUSH1 0x1 PUSH1 0x1 PUSH1 0xA0 SHL SUB AND CALLER EQ PUSH2 0x2EF1 JUMPI PUSH1 0x40 MLOAD PUSH3 0x461BCD PUSH1 0xE5 SHL DUP2 MSTORE PUSH1 0x4 ADD PUSH2 0x721 SWAP1 PUSH2 0x663E JUMP JUMPDEST PUSH1 0x0 PUSH1 0x5 DUP3 DUP2 SLOAD DUP2 LT PUSH2 0x2F06 JUMPI PUSH2 0x2F06 PUSH2 0x642E JUMP JUMPDEST PUSH1 0x0 SWAP2 DUP3 MSTORE PUSH1 0x20 DUP1 DUP4 KECCAK256 SWAP1 SWAP2 ADD SLOAD PUSH1 0x1 PUSH1 0x1 PUSH1 0xA0 SHL SUB AND DUP1 DUP4 MSTORE PUSH1 0x16 DUP3 MSTORE PUSH1 0x40 DUP1 DUP5 KECCAK256 SLOAD PUSH1 0x15 SWAP1 SWAP4 MSTORE DUP4 KECCAK256 SWAP1 SWAP4 POP PUSH1 0xFF SWAP1 SWAP2 AND SWAP2 SWAP1 DUP2 DUP4 PUSH1 0x2 DUP2 GT ISZERO PUSH2 0x2F4E JUMPI PUSH2 0x2F4E PUSH2 0x612A JUMP JUMPDEST PUSH1 0x2 DUP2 GT ISZERO PUSH2 0x2F5F JUMPI PUSH2 0x2F5F PUSH2 0x612A JUMP JUMPDEST DUP2 MSTORE PUSH1 0x20 DUP1 DUP3 ADD SWAP3 SWAP1 SWAP3 MSTORE PUSH1 0x40 SWAP1 DUP2 ADD PUSH1 0x0 KECCAK256 DUP2 MLOAD PUSH1 0xC0 DUP2 ADD SWAP1 SWAP3 MSTORE DUP1 SLOAD PUSH1 0x1 PUSH1 0x1 PUSH1 0xA0 SHL SUB DUP2 AND DUP4 MSTORE SWAP2 SWAP3 SWAP1 SWAP2 SWAP1 DUP4 ADD SWAP1 PUSH1 0x1 PUSH1 0xA0 SHL SWAP1 DIV PUSH1 0xFF AND PUSH1 0x2 DUP2 GT ISZERO PUSH2 0x2FAC JUMPI PUSH2 0x2FAC PUSH2 0x612A JUMP JUMPDEST PUSH1 0x2 DUP2 GT ISZERO PUSH2 0x2FBD JUMPI PUSH2 0x2FBD PUSH2 0x612A JUMP JUMPDEST DUP2 MSTORE DUP2 SLOAD PUSH1 0xFF PUSH1 0x1 PUSH1 0xA8 SHL DUP3 DIV DUP2 AND ISZERO ISZERO PUSH1 0x20 DUP5 ADD MSTORE PUSH1 0x1 PUSH1 0xB0 SHL DUP3 DIV DUP2 AND PUSH1 0x40 DUP5 ADD MSTORE PUSH1 0x1 PUSH1 0xB8 SHL DUP3 DIV DUP2 AND ISZERO ISZERO PUSH1 0x60 DUP5 ADD MSTORE PUSH1 0x80 SWAP1 SWAP3 ADD SWAP2 PUSH1 0x1 PUSH1 0xC0 SHL SWAP1 SWAP2 DIV AND PUSH1 0x2 DUP2 GT ISZERO PUSH2 0x3011 JUMPI PUSH2 0x3011 PUSH2 0x612A JUMP JUMPDEST PUSH1 0x2 DUP2 GT ISZERO PUSH2 0x3022 JUMPI PUSH2 0x3022 PUSH2 0x612A JUMP JUMPDEST SWAP1 MSTORE POP PUSH1 0x1 PUSH1 0x1 PUSH1 0xA0 SHL SUB DUP5 AND PUSH1 0x0 SWAP1 DUP2 MSTORE PUSH1 0x16 PUSH1 0x20 SWAP1 DUP2 MSTORE PUSH1 0x40 DUP1 DUP4 KECCAK256 SLOAD PUSH1 0x15 SWAP1 SWAP3 MSTORE DUP3 KECCAK256 SWAP3 SWAP4 POP PUSH1 0xFF AND SWAP2 SWAP1 DUP5 PUSH1 0x2 DUP2 GT ISZERO PUSH2 0x3062 JUMPI PUSH2 0x3062 PUSH2 0x612A JUMP JUMPDEST PUSH1 0x2 DUP2 GT ISZERO PUSH2 0x3073 JUMPI PUSH2 0x3073 PUSH2 0x612A JUMP JUMPDEST DUP2 MSTORE PUSH1 0x20 DUP2 ADD SWAP2 SWAP1 SWAP2 MSTORE PUSH1 0x40 ADD PUSH1 0x0 KECCAK256 DUP1 SLOAD PUSH1 0xFF PUSH1 0xC0 SHL NOT AND PUSH1 0x1 PUSH1 0xC0 SHL DUP4 PUSH1 0x2 DUP2 GT ISZERO PUSH2 0x30A3 JUMPI PUSH2 0x30A3 PUSH2 0x612A JUMP JUMPDEST MUL OR SWAP1 SSTORE POP PUSH1 0x1 PUSH1 0x1 PUSH1 0xA0 SHL SUB DUP4 AND PUSH1 0x0 SWAP1 DUP2 MSTORE PUSH1 0x15 PUSH1 0x20 MSTORE PUSH1 0x40 DUP2 KECCAK256 DUP2 DUP5 PUSH1 0x2 DUP2 GT ISZERO PUSH2 0x30D3 JUMPI PUSH2 0x30D3 PUSH2 0x612A JUMP JUMPDEST PUSH1 0x2 DUP2 GT ISZERO PUSH2 0x30E4 JUMPI PUSH2 0x30E4 PUSH2 0x612A JUMP JUMPDEST DUP2 MSTORE PUSH1 0x20 DUP1 DUP3 ADD SWAP3 SWAP1 SWAP3 MSTORE PUSH1 0x40 SWAP1 DUP2 ADD PUSH1 0x0 SWAP1 DUP2 KECCAK256 DUP1 SLOAD SWAP5 ISZERO ISZERO PUSH1 0x1 PUSH1 0xB8 SHL MUL PUSH1 0xFF PUSH1 0xB8 SHL NOT SWAP1 SWAP6 AND SWAP5 SWAP1 SWAP5 OR SWAP1 SWAP4 SSTORE PUSH1 0xA0 DUP5 ADD MLOAD PUSH1 0x1 PUSH1 0x1 PUSH1 0xA0 SHL SUB DUP8 AND DUP5 MSTORE PUSH1 0x17 DUP4 MSTORE DUP2 DUP5 KECCAK256 DUP1 SLOAD DUP4 MLOAD DUP2 DUP7 MUL DUP2 ADD DUP7 ADD SWAP1 SWAP5 MSTORE DUP1 DUP5 MSTORE SWAP2 SWAP5 SWAP4 SWAP1 SWAP2 SWAP1 DUP4 ADD DUP3 DUP3 DUP1 ISZERO PUSH2 0x31A2 JUMPI PUSH1 0x20 MUL DUP3 ADD SWAP2 SWAP1 PUSH1 0x0 MSTORE PUSH1 0x20 PUSH1 0x0 KECCAK256 SWAP1 PUSH1 0x0 SWAP1 JUMPDEST DUP3 DUP3 SWAP1 SLOAD SWAP1 PUSH2 0x100 EXP SWAP1 DIV PUSH1 0xFF AND PUSH1 0x2 DUP2 GT ISZERO PUSH2 0x3180 JUMPI PUSH2 0x3180 PUSH2 0x612A JUMP JUMPDEST DUP2 MSTORE PUSH1 0x20 PUSH1 0x1 SWAP3 DUP4 ADD DUP2 DUP2 DIV SWAP5 DUP6 ADD SWAP5 SWAP1 SWAP4 SUB SWAP1 SWAP3 MUL SWAP2 ADD DUP1 DUP5 GT PUSH2 0x3161 JUMPI SWAP1 POP JUMPDEST POP POP POP POP POP SWAP1 POP PUSH1 0x0 PUSH1 0x1 SWAP1 POP PUSH1 0x0 JUMPDEST DUP3 MLOAD DUP2 PUSH1 0xFF AND LT ISZERO PUSH2 0x321E JUMPI DUP4 PUSH1 0x2 DUP2 GT ISZERO PUSH2 0x31D0 JUMPI PUSH2 0x31D0 PUSH2 0x612A JUMP JUMPDEST DUP4 DUP3 PUSH1 0xFF AND DUP2 MLOAD DUP2 LT PUSH2 0x31E5 JUMPI PUSH2 0x31E5 PUSH2 0x642E JUMP JUMPDEST PUSH1 0x20 MUL PUSH1 0x20 ADD ADD MLOAD PUSH1 0x2 DUP2 GT ISZERO PUSH2 0x31FE JUMPI PUSH2 0x31FE PUSH2 0x612A JUMP JUMPDEST SUB PUSH2 0x320C JUMPI PUSH1 0x0 SWAP2 POP PUSH2 0x321E JUMP JUMPDEST DUP1 PUSH2 0x3216 DUP2 PUSH2 0x6680 JUMP JUMPDEST SWAP2 POP POP PUSH2 0x31B2 JUMP JUMPDEST POP DUP1 ISZERO PUSH2 0x34CD JUMPI PUSH1 0x40 MLOAD DUP1 PUSH1 0xC0 ADD PUSH1 0x40 MSTORE DUP1 DUP8 PUSH1 0x1 PUSH1 0x1 PUSH1 0xA0 SHL SUB AND DUP2 MSTORE PUSH1 0x20 ADD DUP5 PUSH1 0x2 DUP2 GT ISZERO PUSH2 0x3251 JUMPI PUSH2 0x3251 PUSH2 0x612A JUMP JUMPDEST DUP2 MSTORE PUSH1 0x1 PUSH1 0x20 DUP3 ADD MSTORE PUSH1 0x0 PUSH1 0x40 DUP3 ADD DUP2 SWAP1 MSTORE PUSH1 0x60 DUP3 ADD MSTORE PUSH1 0x80 ADD DUP5 PUSH1 0x2 DUP2 GT ISZERO PUSH2 0x327D JUMPI PUSH2 0x327D PUSH2 0x612A JUMP JUMPDEST SWAP1 MSTORE PUSH1 0x1 PUSH1 0x1 PUSH1 0xA0 SHL SUB DUP8 AND PUSH1 0x0 SWAP1 DUP2 MSTORE PUSH1 0x15 PUSH1 0x20 MSTORE PUSH1 0x40 DUP2 KECCAK256 SWAP1 DUP6 PUSH1 0x2 DUP2 GT ISZERO PUSH2 0x32AA JUMPI PUSH2 0x32AA PUSH2 0x612A JUMP JUMPDEST PUSH1 0x2 DUP2 GT ISZERO PUSH2 0x32BB JUMPI PUSH2 0x32BB PUSH2 0x612A JUMP JUMPDEST DUP2 MSTORE PUSH1 0x20 DUP1 DUP3 ADD SWAP3 SWAP1 SWAP3 MSTORE PUSH1 0x40 ADD PUSH1 0x0 KECCAK256 DUP3 MLOAD DUP2 SLOAD PUSH1 0x1 PUSH1 0x1 PUSH1 0xA0 SHL SUB SWAP1 SWAP2 AND PUSH1 0x1 PUSH1 0x1 PUSH1 0xA0 SHL SUB NOT DUP3 AND DUP2 OR DUP4 SSTORE SWAP3 DUP5 ADD MLOAD SWAP2 SWAP3 DUP4 SWAP2 PUSH1 0x1 PUSH1 0x1 PUSH1 0xA8 SHL SUB NOT AND OR PUSH1 0x1 PUSH1 0xA0 SHL DUP4 PUSH1 0x2 DUP2 GT ISZERO PUSH2 0x3314 JUMPI PUSH2 0x3314 PUSH2 0x612A JUMP JUMPDEST MUL OR SWAP1 SSTORE POP PUSH1 0x40 DUP3 ADD MLOAD DUP2 SLOAD PUSH1 0x60 DUP5 ADD MLOAD PUSH1 0x80 DUP6 ADD MLOAD ISZERO ISZERO PUSH1 0x1 PUSH1 0xB8 SHL MUL PUSH1 0xFF PUSH1 0xB8 SHL NOT PUSH1 0xFF SWAP3 SWAP1 SWAP3 AND PUSH1 0x1 PUSH1 0xB0 SHL MUL PUSH1 0xFF PUSH1 0xB0 SHL NOT SWAP5 ISZERO ISZERO PUSH1 0x1 PUSH1 0xA8 SHL MUL SWAP5 SWAP1 SWAP5 AND PUSH2 0xFFFF PUSH1 0xA8 SHL NOT SWAP1 SWAP4 AND SWAP3 SWAP1 SWAP3 OR SWAP3 SWAP1 SWAP3 OR SWAP2 DUP3 AND DUP2 OR DUP4 SSTORE PUSH1 0xA0 DUP5 ADD MLOAD SWAP2 DUP4 SWAP2 PUSH1 0xFF PUSH1 0xC0 SHL NOT AND PUSH2 0xFFFF PUSH1 0xB8 SHL NOT SWAP1 SWAP2 AND OR PUSH1 0x1 PUSH1 0xC0 SHL DUP4 PUSH1 0x2 DUP2 GT ISZERO PUSH2 0x33A1 JUMPI PUSH2 0x33A1 PUSH2 0x612A JUMP JUMPDEST MUL OR SWAP1 SSTORE POP PUSH1 0x2 SWAP2 POP PUSH2 0x33B1 SWAP1 POP JUMP JUMPDEST DUP4 PUSH1 0x2 DUP2 GT ISZERO PUSH2 0x33C3 JUMPI PUSH2 0x33C3 PUSH2 0x612A JUMP JUMPDEST SUB PUSH2 0x3418 JUMPI PUSH1 0x2 DUP1 SLOAD PUSH1 0x1 DUP2 ADD DUP3 SSTORE PUSH1 0x0 SWAP2 SWAP1 SWAP2 MSTORE PUSH32 0x405787FA12A823E0F2B7631CC41B3BA8828B3321CA811111FA75CD3AA3BB5ACE ADD DUP1 SLOAD PUSH1 0x1 PUSH1 0x1 PUSH1 0xA0 SHL SUB NOT AND PUSH1 0x1 PUSH1 0x1 PUSH1 0xA0 SHL SUB DUP9 AND OR SWAP1 SSTORE PUSH2 0x34CD JUMP JUMPDEST PUSH1 0x1 DUP4 PUSH1 0x2 DUP2 GT ISZERO PUSH2 0x342C JUMPI PUSH2 0x342C PUSH2 0x612A JUMP JUMPDEST SUB PUSH2 0x3481 JUMPI PUSH1 0x3 DUP1 SLOAD PUSH1 0x1 DUP2 ADD DUP3 SSTORE PUSH1 0x0 SWAP2 SWAP1 SWAP2 MSTORE PUSH32 0xC2575A0E9E593C00F959F8C92F12DB2869C3395A3B0502D05E2516446F71F85B ADD DUP1 SLOAD PUSH1 0x1 PUSH1 0x1 PUSH1 0xA0 SHL SUB NOT AND PUSH1 0x1 PUSH1 0x1 PUSH1 0xA0 SHL SUB DUP9 AND OR SWAP1 SSTORE PUSH2 0x34CD JUMP JUMPDEST PUSH1 0x4 DUP1 SLOAD PUSH1 0x1 DUP2 ADD DUP3 SSTORE PUSH1 0x0 SWAP2 SWAP1 SWAP2 MSTORE PUSH32 0x8A35ACFBC15FF81A39AE7D344FD709F28E8600B4AA8C65C6B64BFE7FE36BD19B ADD DUP1 SLOAD PUSH1 0x1 PUSH1 0x1 PUSH1 0xA0 SHL SUB NOT AND PUSH1 0x1 PUSH1 0x1 PUSH1 0xA0 SHL SUB DUP9 AND OR SWAP1 SSTORE JUMPDEST PUSH1 0x1 PUSH1 0x1 PUSH1 0xA0 SHL SUB DUP7 AND PUSH1 0x0 SWAP1 DUP2 MSTORE PUSH1 0x16 PUSH1 0x20 MSTORE PUSH1 0x40 SWAP1 KECCAK256 DUP1 SLOAD DUP5 SWAP2 SWAP1 PUSH1 0xFF NOT AND PUSH1 0x1 DUP4 PUSH1 0x2 DUP2 GT ISZERO PUSH2 0x3502 JUMPI PUSH2 0x3502 PUSH2 0x612A JUMP JUMPDEST MUL OR SWAP1 SSTORE POP PUSH2 0x3510 DUP8 PUSH2 0x5AB6 JUMP JUMPDEST PUSH1 0x40 MLOAD PUSH1 0x1 PUSH1 0x1 PUSH1 0xA0 SHL SUB DUP8 AND DUP2 MSTORE PUSH32 0xCB9054348EEB239E4B91FD1D9120CF1F3DDE30908900F73321AA901553340F49 SWAP1 PUSH1 0x20 ADD PUSH1 0x40 MLOAD DUP1 SWAP2 SUB SWAP1 LOG1 POP POP POP POP POP POP POP JUMP JUMPDEST PUSH1 0x0 PUSH1 0x1 DUP1 CALLER PUSH1 0x0 SWAP1 DUP2 MSTORE PUSH1 0x16 PUSH1 0x20 MSTORE PUSH1 0x40 SWAP1 KECCAK256 SLOAD PUSH1 0xFF AND PUSH1 0x2 DUP2 GT ISZERO PUSH2 0x357E JUMPI PUSH2 0x357E PUSH2 0x612A JUMP JUMPDEST EQ PUSH2 0x359C JUMPI PUSH1 0x40 MLOAD PUSH4 0x7824841 PUSH1 0xE2 SHL DUP2 MSTORE PUSH1 0x4 ADD PUSH1 0x40 MLOAD DUP1 SWAP2 SUB SWAP1 REVERT JUMPDEST CALLER PUSH1 0x0 SWAP1 DUP2 MSTORE PUSH1 0x9 PUSH1 0x20 MSTORE PUSH1 0x40 SWAP1 KECCAK256 SLOAD SWAP2 POP JUMPDEST POP SWAP1 JUMP JUMPDEST PUSH1 0x8 SLOAD PUSH1 0x60 SWAP1 PUSH1 0x1 PUSH1 0x1 PUSH1 0xA0 SHL SUB AND CALLER EQ PUSH2 0x35E0 JUMPI PUSH1 0x40 MLOAD PUSH3 0x461BCD PUSH1 0xE5 SHL DUP2 MSTORE PUSH1 0x4 ADD PUSH2 0x721 SWAP1 PUSH2 0x663E JUMP JUMPDEST PUSH1 0x7 DUP1 SLOAD DUP1 PUSH1 0x20 MUL PUSH1 0x20 ADD PUSH1 0x40 MLOAD SWAP1 DUP2 ADD PUSH1 0x40 MSTORE DUP1 SWAP3 SWAP2 SWAP1 DUP2 DUP2 MSTORE PUSH1 0x20 ADD DUP3 DUP1 SLOAD DUP1 ISZERO PUSH2 0x23C8 JUMPI PUSH1 0x20 MUL DUP3 ADD SWAP2 SWAP1 PUSH1 0x0 MSTORE PUSH1 0x20 PUSH1 0x0 KECCAK256 SWAP1 JUMPDEST DUP2 SLOAD DUP2 MSTORE PUSH1 0x20 ADD SWAP1 PUSH1 0x1 ADD SWAP1 DUP1 DUP4 GT PUSH2 0x3618 JUMPI POP POP POP POP POP SWAP1 POP SWAP1 JUMP JUMPDEST PUSH1 0x60 PUSH1 0x1 DUP1 CALLER PUSH1 0x0 SWAP1 DUP2 MSTORE PUSH1 0x16 PUSH1 0x20 MSTORE PUSH1 0x40 SWAP1 KECCAK256 SLOAD PUSH1 0xFF AND PUSH1 0x2 DUP2 GT ISZERO PUSH2 0x365E JUMPI PUSH2 0x365E PUSH2 0x612A JUMP JUMPDEST EQ PUSH2 0x367C JUMPI PUSH1 0x40 MLOAD PUSH4 0x7824841 PUSH1 0xE2 SHL DUP2 MSTORE PUSH1 0x4 ADD PUSH1 0x40 MLOAD DUP1 SWAP2 SUB SWAP1 REVERT JUMPDEST CALLER PUSH1 0x0 SWAP1 DUP2 MSTORE PUSH1 0x9 PUSH1 0x20 SWAP1 DUP2 MSTORE PUSH1 0x40 SWAP2 DUP3 SWAP1 KECCAK256 DUP1 SLOAD DUP4 MLOAD DUP2 DUP5 MUL DUP2 ADD DUP5 ADD SWAP1 SWAP5 MSTORE DUP1 DUP5 MSTORE SWAP1 SWAP2 DUP4 ADD DUP3 DUP3 DUP1 ISZERO PUSH2 0x36DB JUMPI PUSH1 0x20 MUL DUP3 ADD SWAP2 SWAP1 PUSH1 0x0 MSTORE PUSH1 0x20 PUSH1 0x0 KECCAK256 SWAP1 JUMPDEST DUP2 SLOAD PUSH1 0x1 PUSH1 0x1 PUSH1 0xA0 SHL SUB AND DUP2 MSTORE PUSH1 0x1 SWAP1 SWAP2 ADD SWAP1 PUSH1 0x20 ADD DUP1 DUP4 GT PUSH2 0x36BD JUMPI JUMPDEST POP POP POP POP POP SWAP2 POP POP SWAP1 JUMP JUMPDEST CALLER PUSH1 0x0 SWAP1 DUP2 MSTORE PUSH1 0x15 PUSH1 0x20 SWAP1 DUP2 MSTORE PUSH1 0x40 DUP1 DUP4 KECCAK256 PUSH1 0x16 SWAP1 SWAP3 MSTORE DUP3 KECCAK256 SLOAD SWAP1 SWAP2 SWAP1 PUSH1 0xFF AND PUSH1 0x2 DUP2 GT ISZERO PUSH2 0x3717 JUMPI PUSH2 0x3717 PUSH2 0x612A JUMP JUMPDEST PUSH1 0x2 DUP2 GT ISZERO PUSH2 0x3728 JUMPI PUSH2 0x3728 PUSH2 0x612A JUMP JUMPDEST DUP2 MSTORE PUSH1 0x20 DUP2 ADD SWAP2 SWAP1 SWAP2 MSTORE PUSH1 0x40 ADD PUSH1 0x0 KECCAK256 SLOAD PUSH1 0x1 PUSH1 0xA8 SHL SWAP1 DIV PUSH1 0xFF AND PUSH2 0x3762 JUMPI PUSH1 0x40 MLOAD PUSH4 0x89129CF PUSH1 0xE4 SHL DUP2 MSTORE CALLER PUSH1 0x4 DUP3 ADD MSTORE PUSH1 0x24 ADD PUSH2 0x721 JUMP JUMPDEST PUSH1 0x8 SLOAD PUSH1 0x1 PUSH1 0x1 PUSH1 0xA0 SHL SUB AND CALLER SUB PUSH2 0x37B0 JUMPI PUSH1 0x40 MLOAD PUSH3 0x461BCD PUSH1 0xE5 SHL DUP2 MSTORE PUSH1 0x20 PUSH1 0x4 DUP3 ADD MSTORE PUSH1 0x11 PUSH1 0x24 DUP3 ADD MSTORE PUSH17 0x2CB7BA9030B932903A34329037BBB732B9 PUSH1 0x79 SHL PUSH1 0x44 DUP3 ADD MSTORE PUSH1 0x64 ADD PUSH2 0x721 JUMP JUMPDEST CALLER PUSH1 0x0 SWAP1 DUP2 MSTORE PUSH1 0x16 PUSH1 0x20 SWAP1 DUP2 MSTORE PUSH1 0x40 DUP1 DUP4 KECCAK256 SLOAD PUSH1 0x15 SWAP1 SWAP3 MSTORE DUP3 KECCAK256 PUSH1 0xFF SWAP1 SWAP2 AND SWAP2 DUP3 PUSH1 0x2 DUP2 GT ISZERO PUSH2 0x37E2 JUMPI PUSH2 0x37E2 PUSH2 0x612A JUMP JUMPDEST PUSH1 0x2 DUP2 GT ISZERO PUSH2 0x37F3 JUMPI PUSH2 0x37F3 PUSH2 0x612A JUMP JUMPDEST DUP2 MSTORE PUSH1 0x20 DUP2 ADD SWAP2 SWAP1 SWAP2 MSTORE PUSH1 0x40 ADD PUSH1 0x0 KECCAK256 SLOAD PUSH1 0x1 PUSH1 0xB8 SHL SWAP1 DIV PUSH1 0xFF AND ISZERO PUSH2 0x3876 JUMPI PUSH1 0x40 MLOAD PUSH3 0x461BCD PUSH1 0xE5 SHL DUP2 MSTORE PUSH1 0x20 PUSH1 0x4 DUP3 ADD MSTORE PUSH1 0x32 PUSH1 0x24 DUP3 ADD MSTORE PUSH32 0x596F75206861766520616C72656164792073656E742061207265717565737420 PUSH1 0x44 DUP3 ADD MSTORE PUSH18 0x746F206368616E67652074686520726F6C65 PUSH1 0x70 SHL PUSH1 0x64 DUP3 ADD MSTORE PUSH1 0x84 ADD PUSH2 0x721 JUMP JUMPDEST PUSH1 0x0 PUSH2 0x3881 DUP4 PUSH2 0x5A4B JUMP JUMPDEST SWAP1 POP PUSH2 0x389B PUSH1 0x40 MLOAD DUP1 PUSH1 0x20 ADD PUSH1 0x40 MSTORE DUP1 PUSH1 0x0 DUP2 MSTORE POP PUSH2 0x5A4B JUMP JUMPDEST DUP2 SUB PUSH2 0x38BA JUMPI PUSH1 0x40 MLOAD PUSH4 0x29B386C7 PUSH1 0xE0 SHL DUP2 MSTORE PUSH1 0x4 ADD PUSH1 0x40 MLOAD DUP1 SWAP2 SUB SWAP1 REVERT JUMPDEST PUSH2 0x38E3 PUSH1 0x40 MLOAD DUP1 PUSH1 0x40 ADD PUSH1 0x40 MSTORE DUP1 PUSH1 0x8 DUP2 MSTORE PUSH1 0x20 ADD PUSH8 0x29AAA8282624A2A9 PUSH1 0xC1 SHL DUP2 MSTORE POP PUSH2 0x5A4B JUMP JUMPDEST DUP2 SUB PUSH2 0x3957 JUMPI CALLER PUSH1 0x0 SWAP1 DUP2 MSTORE PUSH1 0x15 PUSH1 0x20 MSTORE PUSH1 0x40 DUP2 KECCAK256 PUSH1 0x2 SWAP2 DUP5 DUP4 DUP2 GT ISZERO PUSH2 0x390C JUMPI PUSH2 0x390C PUSH2 0x612A JUMP JUMPDEST PUSH1 0x2 DUP2 GT ISZERO PUSH2 0x391D JUMPI PUSH2 0x391D PUSH2 0x612A JUMP JUMPDEST DUP2 MSTORE PUSH1 0x20 DUP2 ADD SWAP2 SWAP1 SWAP2 MSTORE PUSH1 0x40 ADD PUSH1 0x0 KECCAK256 DUP1 SLOAD PUSH1 0xFF PUSH1 0xC0 SHL NOT AND PUSH1 0x1 PUSH1 0xC0 SHL DUP4 PUSH1 0x2 DUP2 GT ISZERO PUSH2 0x394D JUMPI PUSH2 0x394D PUSH2 0x612A JUMP JUMPDEST MUL OR SWAP1 SSTORE POP PUSH2 0x3A0F JUMP JUMPDEST PUSH2 0x397D PUSH1 0x40 MLOAD DUP1 PUSH1 0x40 ADD PUSH1 0x40 MSTORE DUP1 PUSH1 0x5 DUP2 MSTORE PUSH1 0x20 ADD PUSH5 0x53544F5245 PUSH1 0xD8 SHL DUP2 MSTORE POP PUSH2 0x5A4B JUMP JUMPDEST DUP2 SUB PUSH2 0x39A7 JUMPI CALLER PUSH1 0x0 SWAP1 DUP2 MSTORE PUSH1 0x15 PUSH1 0x20 MSTORE PUSH1 0x40 DUP2 KECCAK256 PUSH1 0x1 SWAP2 DUP5 PUSH1 0x2 DUP2 GT ISZERO PUSH2 0x390C JUMPI PUSH2 0x390C PUSH2 0x612A JUMP JUMPDEST PUSH2 0x39CC PUSH1 0x40 MLOAD DUP1 PUSH1 0x40 ADD PUSH1 0x40 MSTORE DUP1 PUSH1 0x4 DUP2 MSTORE PUSH1 0x20 ADD PUSH4 0x2AA9A2A9 PUSH1 0xE1 SHL DUP2 MSTORE POP PUSH2 0x5A4B JUMP JUMPDEST DUP2 SUB PUSH2 0x39F4 JUMPI CALLER PUSH1 0x0 SWAP1 DUP2 MSTORE PUSH1 0x15 PUSH1 0x20 MSTORE PUSH1 0x40 DUP2 KECCAK256 DUP2 DUP5 PUSH1 0x2 DUP2 GT ISZERO PUSH2 0x390C JUMPI PUSH2 0x390C PUSH2 0x612A JUMP JUMPDEST DUP3 PUSH1 0x40 MLOAD PUSH4 0x4F63F9CD PUSH1 0xE1 SHL DUP2 MSTORE PUSH1 0x4 ADD PUSH2 0x721 SWAP2 SWAP1 PUSH2 0x64C6 JUMP JUMPDEST CALLER PUSH1 0x0 SWAP1 DUP2 MSTORE PUSH1 0x15 PUSH1 0x20 MSTORE PUSH1 0x40 DUP2 KECCAK256 PUSH1 0x1 SWAP2 DUP5 PUSH1 0x2 DUP2 GT ISZERO PUSH2 0x3A33 JUMPI PUSH2 0x3A33 PUSH2 0x612A JUMP JUMPDEST PUSH1 0x2 DUP2 GT ISZERO PUSH2 0x3A44 JUMPI PUSH2 0x3A44 PUSH2 0x612A JUMP JUMPDEST DUP2 MSTORE PUSH1 0x20 DUP2 ADD SWAP2 SWAP1 SWAP2 MSTORE PUSH1 0x40 ADD PUSH1 0x0 SWAP1 DUP2 KECCAK256 DUP1 SLOAD SWAP3 ISZERO ISZERO PUSH1 0x1 PUSH1 0xB8 SHL MUL PUSH1 0xFF PUSH1 0xB8 SHL NOT SWAP1 SWAP4 AND SWAP3 SWAP1 SWAP3 OR SWAP1 SWAP2 SSTORE PUSH1 0x5 DUP1 SLOAD PUSH1 0x1 DUP2 ADD DUP3 SSTORE SWAP2 MSTORE PUSH32 0x36B6384B5ECA791C62761152D0C79BB0604C104A5FB6F4EB0703F3154BB3DB0 ADD DUP1 SLOAD PUSH1 0x1 PUSH1 0x1 PUSH1 0xA0 SHL SUB NOT AND CALLER OR SWAP1 SSTORE POP POP POP JUMP JUMPDEST PUSH1 0x8 SLOAD PUSH1 0x60 SWAP1 PUSH1 0x1 PUSH1 0x1 PUSH1 0xA0 SHL SUB AND CALLER EQ PUSH2 0x3AE1 JUMPI PUSH1 0x40 MLOAD PUSH3 0x461BCD PUSH1 0xE5 SHL DUP2 MSTORE PUSH1 0x4 ADD PUSH2 0x721 SWAP1 PUSH2 0x663E JUMP JUMPDEST PUSH1 0x1 DUP1 SLOAD DUP1 PUSH1 0x20 MUL PUSH1 0x20 ADD PUSH1 0x40 MLOAD SWAP1 DUP2 ADD PUSH1 0x40 MSTORE DUP1 SWAP3 SWAP2 SWAP1 DUP2 DUP2 MSTORE PUSH1 0x20 ADD DUP3 DUP1 SLOAD DUP1 ISZERO PUSH2 0x23C8 JUMPI PUSH1 0x20 MUL DUP3 ADD SWAP2 SWAP1 PUSH1 0x0 MSTORE PUSH1 0x20 PUSH1 0x0 KECCAK256 SWAP1 DUP2 SLOAD PUSH1 0x1 PUSH1 0x1 PUSH1 0xA0 SHL SUB AND DUP2 MSTORE PUSH1 0x1 SWAP1 SWAP2 ADD SWAP1 PUSH1 0x20 ADD DUP1 DUP4 GT PUSH2 0x23AA JUMPI POP POP POP POP POP SWAP1 POP SWAP1 JUMP JUMPDEST PUSH1 0x0 PUSH1 0x1 DUP1 CALLER PUSH1 0x0 SWAP1 DUP2 MSTORE PUSH1 0x16 PUSH1 0x20 MSTORE PUSH1 0x40 SWAP1 KECCAK256 SLOAD PUSH1 0xFF AND PUSH1 0x2 DUP2 GT ISZERO PUSH2 0x3B68 JUMPI PUSH2 0x3B68 PUSH2 0x612A JUMP JUMPDEST EQ PUSH2 0x3B86 JUMPI PUSH1 0x40 MLOAD PUSH4 0x7824841 PUSH1 0xE2 SHL DUP2 MSTORE PUSH1 0x4 ADD PUSH1 0x40 MLOAD DUP1 SWAP2 SUB SWAP1 REVERT JUMPDEST PUSH1 0x0 DUP1 JUMPDEST CALLER PUSH1 0x0 SWAP1 DUP2 MSTORE PUSH1 0xA PUSH1 0x20 MSTORE PUSH1 0x40 SWAP1 KECCAK256 SLOAD DUP2 LT ISZERO PUSH2 0x3BEC JUMPI CALLER PUSH1 0x0 SWAP1 DUP2 MSTORE PUSH1 0xA PUSH1 0x20 MSTORE PUSH1 0x40 SWAP1 KECCAK256 DUP1 SLOAD DUP3 SWAP1 DUP2 LT PUSH2 0x3BC2 JUMPI PUSH2 0x3BC2 PUSH2 0x642E JUMP JUMPDEST SWAP1 PUSH1 0x0 MSTORE PUSH1 0x20 PUSH1 0x0 KECCAK256 ADD SLOAD DUP3 PUSH2 0x3BD8 SWAP2 SWAP1 PUSH2 0x645A JUMP JUMPDEST SWAP2 POP DUP1 PUSH2 0x3BE4 DUP2 PUSH2 0x646D JUMP JUMPDEST SWAP2 POP POP PUSH2 0x3B8A JUMP JUMPDEST POP SWAP2 POP POP SWAP1 JUMP JUMPDEST PUSH1 0x60 PUSH1 0x0 PUSH2 0x3C01 DUP5 DUP5 PUSH2 0x418F JUMP JUMPDEST DUP1 MLOAD SWAP1 SWAP2 POP PUSH1 0x0 DUP2 PUSH8 0xFFFFFFFFFFFFFFFF DUP2 GT ISZERO PUSH2 0x3C21 JUMPI PUSH2 0x3C21 PUSH2 0x600E JUMP JUMPDEST PUSH1 0x40 MLOAD SWAP1 DUP1 DUP3 MSTORE DUP1 PUSH1 0x20 MUL PUSH1 0x20 ADD DUP3 ADD PUSH1 0x40 MSTORE DUP1 ISZERO PUSH2 0x3C8A JUMPI DUP2 PUSH1 0x20 ADD JUMPDEST PUSH2 0x3C77 PUSH1 0x40 MLOAD DUP1 PUSH1 0xA0 ADD PUSH1 0x40 MSTORE DUP1 PUSH1 0x60 DUP2 MSTORE PUSH1 0x20 ADD PUSH1 0x0 DUP2 MSTORE PUSH1 0x20 ADD PUSH1 0x0 DUP2 MSTORE PUSH1 0x20 ADD PUSH1 0x0 DUP2 MSTORE PUSH1 0x20 ADD PUSH1 0x0 PUSH4 0xFFFFFFFF AND DUP2 MSTORE POP SWAP1 JUMP JUMPDEST DUP2 MSTORE PUSH1 0x20 ADD SWAP1 PUSH1 0x1 SWAP1 SUB SWAP1 DUP2 PUSH2 0x3C3F JUMPI SWAP1 POP JUMPDEST POP SWAP1 POP PUSH1 0x0 JUMPDEST DUP3 DUP2 LT ISZERO PUSH2 0x3E19 JUMPI PUSH1 0x1 PUSH1 0x1 PUSH1 0xA0 SHL SUB DUP8 AND PUSH1 0x0 SWAP1 DUP2 MSTORE PUSH1 0xF PUSH1 0x20 SWAP1 DUP2 MSTORE PUSH1 0x40 DUP1 DUP4 KECCAK256 PUSH1 0x16 SWAP1 SWAP3 MSTORE DUP3 KECCAK256 SLOAD SWAP1 SWAP2 SWAP1 PUSH1 0xFF AND PUSH1 0x2 DUP2 GT ISZERO PUSH2 0x3CD2 JUMPI PUSH2 0x3CD2 PUSH2 0x612A JUMP JUMPDEST PUSH1 0x2 DUP2 GT ISZERO PUSH2 0x3CE3 JUMPI PUSH2 0x3CE3 PUSH2 0x612A JUMP JUMPDEST DUP2 MSTORE PUSH1 0x20 ADD SWAP1 DUP2 MSTORE PUSH1 0x20 ADD PUSH1 0x0 KECCAK256 PUSH1 0x0 DUP6 DUP4 DUP2 MLOAD DUP2 LT PUSH2 0x3D05 JUMPI PUSH2 0x3D05 PUSH2 0x642E JUMP JUMPDEST PUSH1 0x20 MUL PUSH1 0x20 ADD ADD MLOAD DUP2 MSTORE PUSH1 0x20 ADD SWAP1 DUP2 MSTORE PUSH1 0x20 ADD PUSH1 0x0 KECCAK256 PUSH1 0x40 MLOAD DUP1 PUSH1 0xA0 ADD PUSH1 0x40 MSTORE SWAP1 DUP2 PUSH1 0x0 DUP3 ADD DUP1 SLOAD PUSH2 0x3D36 SWAP1 PUSH2 0x63F4 JUMP JUMPDEST DUP1 PUSH1 0x1F ADD PUSH1 0x20 DUP1 SWAP2 DIV MUL PUSH1 0x20 ADD PUSH1 0x40 MLOAD SWAP1 DUP2 ADD PUSH1 0x40 MSTORE DUP1 SWAP3 SWAP2 SWAP1 DUP2 DUP2 MSTORE PUSH1 0x20 ADD DUP3 DUP1 SLOAD PUSH2 0x3D62 SWAP1 PUSH2 0x63F4 JUMP JUMPDEST DUP1 ISZERO PUSH2 0x3DAF JUMPI DUP1 PUSH1 0x1F LT PUSH2 0x3D84 JUMPI PUSH2 0x100 DUP1 DUP4 SLOAD DIV MUL DUP4 MSTORE SWAP2 PUSH1 0x20 ADD SWAP2 PUSH2 0x3DAF JUMP JUMPDEST DUP3 ADD SWAP2 SWAP1 PUSH1 0x0 MSTORE PUSH1 0x20 PUSH1 0x0 KECCAK256 SWAP1 JUMPDEST DUP2 SLOAD DUP2 MSTORE SWAP1 PUSH1 0x1 ADD SWAP1 PUSH1 0x20 ADD DUP1 DUP4 GT PUSH2 0x3D92 JUMPI DUP3 SWAP1 SUB PUSH1 0x1F AND DUP3 ADD SWAP2 JUMPDEST POP POP POP SWAP2 DUP4 MSTORE POP POP PUSH1 0x1 DUP3 ADD SLOAD PUSH1 0x20 DUP3 ADD MSTORE PUSH1 0x2 DUP3 ADD SLOAD PUSH1 0x40 DUP3 ADD MSTORE PUSH1 0x3 DUP3 ADD SLOAD PUSH1 0x60 DUP3 ADD MSTORE PUSH1 0x4 SWAP1 SWAP2 ADD SLOAD PUSH4 0xFFFFFFFF AND PUSH1 0x80 SWAP1 SWAP2 ADD MSTORE DUP3 MLOAD DUP4 SWAP1 DUP4 SWAP1 DUP2 LT PUSH2 0x3DFB JUMPI PUSH2 0x3DFB PUSH2 0x642E JUMP JUMPDEST PUSH1 0x20 MUL PUSH1 0x20 ADD ADD DUP2 SWAP1 MSTORE POP DUP1 DUP1 PUSH2 0x3E11 SWAP1 PUSH2 0x646D JUMP JUMPDEST SWAP2 POP POP PUSH2 0x3C90 JUMP JUMPDEST POP SWAP3 POP POP POP JUMPDEST SWAP3 SWAP2 POP POP JUMP JUMPDEST CALLER PUSH1 0x0 SWAP1 DUP2 MSTORE PUSH1 0x15 PUSH1 0x20 SWAP1 DUP2 MSTORE PUSH1 0x40 DUP1 DUP4 KECCAK256 PUSH1 0x16 SWAP1 SWAP3 MSTORE DUP3 KECCAK256 SLOAD SWAP1 SWAP2 SWAP1 PUSH1 0xFF AND PUSH1 0x2 DUP2 GT ISZERO PUSH2 0x3E56 JUMPI PUSH2 0x3E56 PUSH2 0x612A JUMP JUMPDEST PUSH1 0x2 DUP2 GT ISZERO PUSH2 0x3E67 JUMPI PUSH2 0x3E67 PUSH2 0x612A JUMP JUMPDEST DUP2 MSTORE PUSH1 0x20 DUP2 ADD SWAP2 SWAP1 SWAP2 MSTORE PUSH1 0x40 ADD PUSH1 0x0 KECCAK256 SLOAD PUSH1 0x1 PUSH1 0xA8 SHL SWAP1 DIV PUSH1 0xFF AND PUSH2 0x3EA1 JUMPI PUSH1 0x40 MLOAD PUSH4 0x89129CF PUSH1 0xE4 SHL DUP2 MSTORE CALLER PUSH1 0x4 DUP3 ADD MSTORE PUSH1 0x24 ADD PUSH2 0x721 JUMP JUMPDEST PUSH1 0x1 PUSH1 0x1 PUSH1 0xA0 SHL SUB DUP2 AND CALLER SUB PUSH2 0x3F07 JUMPI PUSH1 0x40 MLOAD PUSH3 0x461BCD PUSH1 0xE5 SHL DUP2 MSTORE PUSH1 0x20 PUSH1 0x4 DUP3 ADD MSTORE PUSH1 0x25 PUSH1 0x24 DUP3 ADD MSTORE PUSH32 0x596F752063616E27742067697665206120646973636F756E7420746F20796F75 PUSH1 0x44 DUP3 ADD MSTORE PUSH5 0x3939B2B633 PUSH1 0xD9 SHL PUSH1 0x64 DUP3 ADD MSTORE PUSH1 0x84 ADD PUSH2 0x721 JUMP JUMPDEST PUSH1 0x1 PUSH1 0x1 PUSH1 0xA0 SHL SUB DUP2 AND PUSH1 0x0 SWAP1 DUP2 MSTORE PUSH1 0x15 PUSH1 0x20 SWAP1 DUP2 MSTORE PUSH1 0x40 DUP1 DUP4 KECCAK256 PUSH1 0x16 SWAP1 SWAP3 MSTORE DUP3 KECCAK256 SLOAD DUP3 SWAP1 PUSH1 0xFF AND PUSH1 0x2 DUP2 GT ISZERO PUSH2 0x3F40 JUMPI PUSH2 0x3F40 PUSH2 0x612A JUMP JUMPDEST PUSH1 0x2 DUP2 GT ISZERO PUSH2 0x3F51 JUMPI PUSH2 0x3F51 PUSH2 0x612A JUMP JUMPDEST DUP2 MSTORE PUSH1 0x20 DUP2 ADD SWAP2 SWAP1 SWAP2 MSTORE PUSH1 0x40 ADD PUSH1 0x0 KECCAK256 SLOAD PUSH1 0x1 PUSH1 0xA0 SHL SWAP1 DIV PUSH1 0xFF AND PUSH1 0x2 DUP2 GT ISZERO PUSH2 0x3F7D JUMPI PUSH2 0x3F7D PUSH2 0x612A JUMP JUMPDEST EQ PUSH2 0x3FDD JUMPI PUSH1 0x40 MLOAD PUSH3 0x461BCD PUSH1 0xE5 SHL DUP2 MSTORE PUSH1 0x20 PUSH1 0x4 DUP3 ADD MSTORE PUSH1 0x2A PUSH1 0x24 DUP3 ADD MSTORE PUSH32 0x54686520646973636F756E742063616E206F6E6C7920626520676976656E2062 PUSH1 0x44 DUP3 ADD MSTORE PUSH10 0x3C903A3432903AB9B2B9 PUSH1 0xB1 SHL PUSH1 0x64 DUP3 ADD MSTORE PUSH1 0x84 ADD PUSH2 0x721 JUMP JUMPDEST CALLER PUSH1 0x0 SWAP1 DUP2 MSTORE PUSH1 0xD PUSH1 0x20 SWAP1 DUP2 MSTORE PUSH1 0x40 DUP1 DUP4 KECCAK256 PUSH1 0x1 PUSH1 0x1 PUSH1 0xA0 SHL SUB DUP6 AND DUP5 MSTORE SWAP1 SWAP2 MSTORE SWAP1 KECCAK256 SLOAD PUSH1 0xFF AND ISZERO PUSH2 0x4068 JUMPI PUSH1 0x40 MLOAD PUSH3 0x461BCD PUSH1 0xE5 SHL DUP2 MSTORE PUSH1 0x20 PUSH1 0x4 DUP3 ADD MSTORE PUSH1 0x2E PUSH1 0x24 DUP3 ADD MSTORE PUSH32 0x596F75206861766520616C726561647920676976656E206120646973636F756E PUSH1 0x44 DUP3 ADD MSTORE PUSH14 0x3A103A37903A3434B9903AB9B2B9 PUSH1 0x91 SHL PUSH1 0x64 DUP3 ADD MSTORE PUSH1 0x84 ADD PUSH2 0x721 JUMP JUMPDEST PUSH1 0x1 PUSH1 0x1 PUSH1 0xA0 SHL SUB DUP2 AND PUSH1 0x0 SWAP1 DUP2 MSTORE PUSH1 0xB PUSH1 0x20 MSTORE PUSH1 0x40 SWAP1 KECCAK256 SLOAD ISZERO PUSH2 0x40CE JUMPI PUSH1 0x40 MLOAD PUSH3 0x461BCD PUSH1 0xE5 SHL DUP2 MSTORE PUSH1 0x20 PUSH1 0x4 DUP3 ADD DUP2 SWAP1 MSTORE PUSH1 0x24 DUP3 ADD MSTORE PUSH32 0x54686973207573657220616C726561647920686173206120646973636F756E74 PUSH1 0x44 DUP3 ADD MSTORE PUSH1 0x64 ADD PUSH2 0x721 JUMP JUMPDEST PUSH1 0x40 MLOAD PUSH12 0xFFFFFFFFFFFFFFFFFFFFFFFF NOT PUSH1 0x60 DUP4 DUP2 SHL DUP3 AND PUSH1 0x20 DUP5 ADD MSTORE TIMESTAMP PUSH1 0x34 DUP5 ADD MSTORE CALLER SWAP1 SHL AND PUSH1 0x54 DUP3 ADD MSTORE PUSH1 0x0 SWAP1 PUSH1 0x68 ADD PUSH1 0x40 DUP1 MLOAD PUSH1 0x1F NOT DUP2 DUP5 SUB ADD DUP2 MSTORE DUP3 DUP3 MSTORE DUP1 MLOAD PUSH1 0x20 SWAP2 DUP3 ADD KECCAK256 CALLER PUSH1 0x0 DUP2 DUP2 MSTORE PUSH1 0xD DUP5 MSTORE DUP5 DUP2 KECCAK256 PUSH1 0x1 PUSH1 0x1 PUSH1 0xA0 SHL SUB DUP10 AND DUP3 MSTORE DUP5 MSTORE DUP5 DUP2 KECCAK256 DUP1 SLOAD PUSH1 0xFF NOT AND PUSH1 0x1 OR SWAP1 SSTORE PUSH1 0xB DUP5 MSTORE DUP5 DUP2 KECCAK256 DUP4 SWAP1 SSTORE PUSH1 0xC DUP5 MSTORE DUP5 SWAP1 KECCAK256 DUP1 SLOAD PUSH1 0x1 PUSH1 0x1 PUSH1 0xA0 SHL SUB NOT AND SWAP1 SWAP2 OR SWAP1 SSTORE DUP4 DUP4 ADD SWAP1 SWAP3 MSTORE PUSH1 0xE DUP4 MSTORE PUSH14 0x2932B332B93930B61031B7B2329D PUSH1 0x91 SHL SWAP1 DUP4 ADD MSTORE SWAP2 POP PUSH2 0x1B31 SWAP1 DUP3 PUSH2 0x5A06 JUMP JUMPDEST PUSH1 0x1 PUSH1 0x1 PUSH1 0xA0 SHL SUB DUP3 AND PUSH1 0x0 SWAP1 DUP2 MSTORE PUSH1 0x10 PUSH1 0x20 SWAP1 DUP2 MSTORE PUSH1 0x40 DUP1 DUP4 KECCAK256 PUSH1 0x16 SWAP1 SWAP3 MSTORE DUP3 KECCAK256 SLOAD PUSH1 0x60 SWAP3 DUP6 SWAP3 DUP6 SWAP3 DUP3 SWAP2 SWAP1 DUP3 SWAP1 PUSH1 0xFF AND PUSH1 0x2 DUP2 GT ISZERO PUSH2 0x41D2 JUMPI PUSH2 0x41D2 PUSH2 0x612A JUMP JUMPDEST PUSH1 0x2 DUP2 GT ISZERO PUSH2 0x41E3 JUMPI PUSH2 0x41E3 PUSH2 0x612A JUMP JUMPDEST DUP2 MSTORE PUSH1 0x20 ADD SWAP1 DUP2 MSTORE PUSH1 0x20 ADD PUSH1 0x0 KECCAK256 DUP1 SLOAD DUP1 PUSH1 0x20 MUL PUSH1 0x20 ADD PUSH1 0x40 MLOAD SWAP1 DUP2 ADD PUSH1 0x40 MSTORE DUP1 SWAP3 SWAP2 SWAP1 DUP2 DUP2 MSTORE PUSH1 0x20 ADD PUSH1 0x0 SWAP1 JUMPDEST DUP3 DUP3 LT ISZERO PUSH2 0x42BD JUMPI DUP4 DUP3 SWAP1 PUSH1 0x0 MSTORE PUSH1 0x20 PUSH1 0x0 KECCAK256 ADD DUP1 SLOAD PUSH2 0x4230 SWAP1 PUSH2 0x63F4 JUMP JUMPDEST DUP1 PUSH1 0x1F ADD PUSH1 0x20 DUP1 SWAP2 DIV MUL PUSH1 0x20 ADD PUSH1 0x40 MLOAD SWAP1 DUP2 ADD PUSH1 0x40 MSTORE DUP1 SWAP3 SWAP2 SWAP1 DUP2 DUP2 MSTORE PUSH1 0x20 ADD DUP3 DUP1 SLOAD PUSH2 0x425C SWAP1 PUSH2 0x63F4 JUMP JUMPDEST DUP1 ISZERO PUSH2 0x42A9 JUMPI DUP1 PUSH1 0x1F LT PUSH2 0x427E JUMPI PUSH2 0x100 DUP1 DUP4 SLOAD DIV MUL DUP4 MSTORE SWAP2 PUSH1 0x20 ADD SWAP2 PUSH2 0x42A9 JUMP JUMPDEST DUP3 ADD SWAP2 SWAP1 PUSH1 0x0 MSTORE PUSH1 0x20 PUSH1 0x0 KECCAK256 SWAP1 JUMPDEST DUP2 SLOAD DUP2 MSTORE SWAP1 PUSH1 0x1 ADD SWAP1 PUSH1 0x20 ADD DUP1 DUP4 GT PUSH2 0x428C JUMPI DUP3 SWAP1 SUB PUSH1 0x1F AND DUP3 ADD SWAP2 JUMPDEST POP POP POP POP POP DUP2 MSTORE PUSH1 0x20 ADD SWAP1 PUSH1 0x1 ADD SWAP1 PUSH2 0x4211 JUMP JUMPDEST POP POP POP POP SWAP1 POP PUSH1 0x0 JUMPDEST DUP2 MLOAD DUP2 LT ISZERO PUSH2 0x431A JUMPI PUSH2 0x42D8 DUP5 PUSH2 0x5A4B JUMP JUMPDEST PUSH2 0x42FA DUP4 DUP4 DUP2 MLOAD DUP2 LT PUSH2 0x42ED JUMPI PUSH2 0x42ED PUSH2 0x642E JUMP JUMPDEST PUSH1 0x20 MUL PUSH1 0x20 ADD ADD MLOAD PUSH2 0x5A4B JUMP JUMPDEST SUB PUSH2 0x4308 JUMPI PUSH1 0x1 SWAP3 POP PUSH2 0x431A JUMP JUMPDEST DUP1 PUSH2 0x4312 DUP2 PUSH2 0x646D JUMP JUMPDEST SWAP2 POP POP PUSH2 0x42C6 JUMP JUMPDEST POP DUP2 PUSH2 0x433B JUMPI DUP3 PUSH1 0x40 MLOAD PUSH4 0xEF0098D1 PUSH1 0xE0 SHL DUP2 MSTORE PUSH1 0x4 ADD PUSH2 0x721 SWAP2 SWAP1 PUSH2 0x64C6 JUMP JUMPDEST PUSH1 0x0 PUSH2 0x4346 DUP8 PUSH2 0x5A4B JUMP JUMPDEST PUSH1 0x1 PUSH1 0x1 PUSH1 0xA0 SHL SUB DUP10 AND PUSH1 0x0 SWAP1 DUP2 MSTORE PUSH1 0x11 PUSH1 0x20 SWAP1 DUP2 MSTORE PUSH1 0x40 DUP1 DUP4 KECCAK256 PUSH1 0x16 SWAP1 SWAP3 MSTORE DUP3 KECCAK256 SLOAD SWAP3 SWAP4 POP SWAP1 SWAP2 DUP3 SWAP1 PUSH1 0xFF AND PUSH1 0x2 DUP2 GT ISZERO PUSH2 0x4384 JUMPI PUSH2 0x4384 PUSH2 0x612A JUMP JUMPDEST PUSH1 0x2 DUP2 GT ISZERO PUSH2 0x4395 JUMPI PUSH2 0x4395 PUSH2 0x612A JUMP JUMPDEST DUP2 MSTORE PUSH1 0x20 DUP1 DUP3 ADD SWAP3 SWAP1 SWAP3 MSTORE PUSH1 0x40 SWAP1 DUP2 ADD PUSH1 0x0 SWAP1 DUP2 KECCAK256 DUP6 DUP3 MSTORE DUP4 MSTORE DUP2 DUP2 KECCAK256 SLOAD PUSH1 0x1 PUSH1 0x1 PUSH1 0xA0 SHL SUB DUP14 AND DUP3 MSTORE PUSH1 0x12 DUP5 MSTORE DUP3 DUP3 KECCAK256 PUSH1 0x16 SWAP1 SWAP5 MSTORE SWAP2 DUP2 KECCAK256 SLOAD SWAP2 SWAP4 POP SWAP2 SWAP1 DUP3 SWAP1 PUSH1 0xFF AND PUSH1 0x2 DUP2 GT ISZERO PUSH2 0x43EA JUMPI PUSH2 0x43EA PUSH2 0x612A JUMP JUMPDEST PUSH1 0x2 DUP2 GT ISZERO PUSH2 0x43FB JUMPI PUSH2 0x43FB PUSH2 0x612A JUMP JUMPDEST DUP2 MSTORE PUSH1 0x20 ADD SWAP1 DUP2 MSTORE PUSH1 0x20 ADD PUSH1 0x0 KECCAK256 PUSH1 0x0 DUP5 DUP2 MSTORE PUSH1 0x20 ADD SWAP1 DUP2 MSTORE PUSH1 0x20 ADD PUSH1 0x0 KECCAK256 DUP1 SLOAD DUP1 PUSH1 0x20 MUL PUSH1 0x20 ADD PUSH1 0x40 MLOAD SWAP1 DUP2 ADD PUSH1 0x40 MSTORE DUP1 SWAP3 SWAP2 SWAP1 DUP2 DUP2 MSTORE PUSH1 0x20 ADD DUP3 DUP1 SLOAD DUP1 ISZERO PUSH2 0x4464 JUMPI PUSH1 0x20 MUL DUP3 ADD SWAP2 SWAP1 PUSH1 0x0 MSTORE PUSH1 0x20 PUSH1 0x0 KECCAK256 SWAP1 JUMPDEST DUP2 SLOAD DUP2 MSTORE PUSH1 0x20 ADD SWAP1 PUSH1 0x1 ADD SWAP1 DUP1 DUP4 GT PUSH2 0x4450 JUMPI JUMPDEST POP POP POP PUSH1 0x1 PUSH1 0x1 PUSH1 0xA0 SHL SUB DUP14 AND PUSH1 0x0 SWAP1 DUP2 MSTORE PUSH1 0x13 PUSH1 0x20 SWAP1 DUP2 MSTORE PUSH1 0x40 DUP1 DUP4 KECCAK256 PUSH1 0x16 SWAP1 SWAP3 MSTORE DUP3 KECCAK256 SLOAD SWAP5 SWAP6 POP SWAP1 SWAP4 SWAP1 SWAP3 POP DUP4 SWAP2 POP PUSH1 0xFF AND PUSH1 0x2 DUP2 GT ISZERO PUSH2 0x44A9 JUMPI PUSH2 0x44A9 PUSH2 0x612A JUMP JUMPDEST PUSH1 0x2 DUP2 GT ISZERO PUSH2 0x44BA JUMPI PUSH2 0x44BA PUSH2 0x612A JUMP JUMPDEST DUP2 MSTORE PUSH1 0x20 ADD SWAP1 DUP2 MSTORE PUSH1 0x20 ADD PUSH1 0x0 KECCAK256 PUSH1 0x0 DUP6 DUP2 MSTORE PUSH1 0x20 ADD SWAP1 DUP2 MSTORE PUSH1 0x20 ADD PUSH1 0x0 KECCAK256 DUP1 SLOAD DUP1 PUSH1 0x20 MUL PUSH1 0x20 ADD PUSH1 0x40 MLOAD SWAP1 DUP2 ADD PUSH1 0x40 MSTORE DUP1 SWAP3 SWAP2 SWAP1 DUP2 DUP2 MSTORE PUSH1 0x20 ADD DUP3 DUP1 SLOAD DUP1 ISZERO PUSH2 0x4523 JUMPI PUSH1 0x20 MUL DUP3 ADD SWAP2 SWAP1 PUSH1 0x0 MSTORE PUSH1 0x20 PUSH1 0x0 KECCAK256 SWAP1 JUMPDEST DUP2 SLOAD DUP2 MSTORE PUSH1 0x20 ADD SWAP1 PUSH1 0x1 ADD SWAP1 DUP1 DUP4 GT PUSH2 0x450F JUMPI JUMPDEST POP POP POP PUSH1 0x1 PUSH1 0x1 PUSH1 0xA0 SHL SUB DUP15 AND PUSH1 0x0 SWAP1 DUP2 MSTORE PUSH1 0x14 PUSH1 0x20 SWAP1 DUP2 MSTORE PUSH1 0x40 DUP1 DUP4 KECCAK256 PUSH1 0x16 SWAP1 SWAP3 MSTORE DUP3 KECCAK256 SLOAD SWAP5 SWAP6 POP SWAP1 SWAP4 SWAP1 SWAP3 POP DUP4 SWAP2 POP PUSH1 0xFF AND PUSH1 0x2 DUP2 GT ISZERO PUSH2 0x4568 JUMPI PUSH2 0x4568 PUSH2 0x612A JUMP JUMPDEST PUSH1 0x2 DUP2 GT ISZERO PUSH2 0x4579 JUMPI PUSH2 0x4579 PUSH2 0x612A JUMP JUMPDEST DUP2 MSTORE PUSH1 0x20 ADD SWAP1 DUP2 MSTORE PUSH1 0x20 ADD PUSH1 0x0 KECCAK256 PUSH1 0x0 DUP7 DUP2 MSTORE PUSH1 0x20 ADD SWAP1 DUP2 MSTORE PUSH1 0x20 ADD PUSH1 0x0 KECCAK256 DUP1 SLOAD DUP1 PUSH1 0x20 MUL PUSH1 0x20 ADD PUSH1 0x40 MLOAD SWAP1 DUP2 ADD PUSH1 0x40 MSTORE DUP1 SWAP3 SWAP2 SWAP1 DUP2 DUP2 MSTORE PUSH1 0x20 ADD DUP3 DUP1 SLOAD DUP1 ISZERO PUSH2 0x460E JUMPI PUSH1 0x20 MUL DUP3 ADD SWAP2 SWAP1 PUSH1 0x0 MSTORE PUSH1 0x20 PUSH1 0x0 KECCAK256 SWAP1 PUSH1 0x0 SWAP1 JUMPDEST DUP3 DUP3 SWAP1 SLOAD SWAP1 PUSH2 0x100 EXP SWAP1 DIV PUSH4 0xFFFFFFFF AND PUSH4 0xFFFFFFFF AND DUP2 MSTORE PUSH1 0x20 ADD SWAP1 PUSH1 0x4 ADD SWAP1 PUSH1 0x20 DUP3 PUSH1 0x3 ADD DIV SWAP3 DUP4 ADD SWAP3 PUSH1 0x1 SUB DUP3 MUL SWAP2 POP DUP1 DUP5 GT PUSH2 0x45D1 JUMPI SWAP1 POP JUMPDEST POP POP POP POP POP SWAP1 POP PUSH1 0x0 DUP5 PUSH8 0xFFFFFFFFFFFFFFFF DUP2 GT ISZERO PUSH2 0x4630 JUMPI PUSH2 0x4630 PUSH2 0x600E JUMP JUMPDEST PUSH1 0x40 MLOAD SWAP1 DUP1 DUP3 MSTORE DUP1 PUSH1 0x20 MUL PUSH1 0x20 ADD DUP3 ADD PUSH1 0x40 MSTORE DUP1 ISZERO PUSH2 0x4659 JUMPI DUP2 PUSH1 0x20 ADD PUSH1 0x20 DUP3 MUL DUP1 CALLDATASIZE DUP4 CALLDATACOPY ADD SWAP1 POP JUMPDEST POP SWAP1 POP PUSH1 0x0 JUMPDEST DUP6 DUP2 LT ISZERO PUSH2 0x46ED JUMPI PUSH2 0x46BE DUP14 DUP6 DUP4 DUP2 MLOAD DUP2 LT PUSH2 0x467D JUMPI PUSH2 0x467D PUSH2 0x642E JUMP JUMPDEST PUSH1 0x20 MUL PUSH1 0x20 ADD ADD MLOAD DUP6 DUP5 DUP2 MLOAD DUP2 LT PUSH2 0x4697 JUMPI PUSH2 0x4697 PUSH2 0x642E JUMP JUMPDEST PUSH1 0x20 MUL PUSH1 0x20 ADD ADD MLOAD DUP9 DUP6 DUP2 MLOAD DUP2 LT PUSH2 0x46B1 JUMPI PUSH2 0x46B1 PUSH2 0x642E JUMP JUMPDEST PUSH1 0x20 MUL PUSH1 0x20 ADD ADD MLOAD PUSH2 0x5A7C JUMP JUMPDEST DUP3 DUP3 DUP2 MLOAD DUP2 LT PUSH2 0x46D0 JUMPI PUSH2 0x46D0 PUSH2 0x642E JUMP JUMPDEST PUSH1 0x20 SWAP1 DUP2 MUL SWAP2 SWAP1 SWAP2 ADD ADD MSTORE DUP1 PUSH2 0x46E5 DUP2 PUSH2 0x646D JUMP JUMPDEST SWAP2 POP POP PUSH2 0x465F JUMP JUMPDEST POP SWAP13 SWAP12 POP POP POP POP POP POP POP POP POP POP POP POP JUMP JUMPDEST PUSH1 0x8 SLOAD PUSH1 0x60 SWAP1 PUSH1 0x1 PUSH1 0x1 PUSH1 0xA0 SHL SUB AND CALLER EQ PUSH2 0x472B JUMPI PUSH1 0x40 MLOAD PUSH3 0x461BCD PUSH1 0xE5 SHL DUP2 MSTORE PUSH1 0x4 ADD PUSH2 0x721 SWAP1 PUSH2 0x663E JUMP JUMPDEST PUSH1 0x6 DUP1 SLOAD DUP1 PUSH1 0x20 MUL PUSH1 0x20 ADD PUSH1 0x40 MLOAD SWAP1 DUP2 ADD PUSH1 0x40 MSTORE DUP1 SWAP3 SWAP2 SWAP1 DUP2 DUP2 MSTORE PUSH1 0x20 ADD DUP3 DUP1 SLOAD DUP1 ISZERO PUSH2 0x23C8 JUMPI PUSH1 0x20 MUL DUP3 ADD SWAP2 SWAP1 PUSH1 0x0 MSTORE PUSH1 0x20 PUSH1 0x0 KECCAK256 SWAP1 DUP2 SLOAD DUP2 MSTORE PUSH1 0x20 ADD SWAP1 PUSH1 0x1 ADD SWAP1 DUP1 DUP4 GT PUSH2 0x3618 JUMPI POP POP POP POP POP SWAP1 POP SWAP1 JUMP JUMPDEST PUSH1 0x8 SLOAD PUSH1 0x1 PUSH1 0x1 PUSH1 0xA0 SHL SUB AND CALLER EQ PUSH2 0x47A9 JUMPI PUSH1 0x40 MLOAD PUSH3 0x461BCD PUSH1 0xE5 SHL DUP2 MSTORE PUSH1 0x4 ADD PUSH2 0x721 SWAP1 PUSH2 0x663E JUMP JUMPDEST PUSH1 0x0 PUSH2 0x47B3 PUSH2 0x1CE9 JUMP JUMPDEST SWAP1 POP DUP1 CALLVALUE LT ISZERO PUSH2 0x47DF JUMPI PUSH1 0x40 MLOAD PUSH4 0x11920A6D PUSH1 0xE3 SHL DUP2 MSTORE CALLVALUE PUSH1 0x4 DUP3 ADD MSTORE PUSH1 0x24 DUP2 ADD DUP3 SWAP1 MSTORE PUSH1 0x44 ADD PUSH2 0x721 JUMP JUMPDEST PUSH1 0x1 SLOAD PUSH2 0x4826 JUMPI PUSH1 0x40 MLOAD PUSH3 0x461BCD PUSH1 0xE5 SHL DUP2 MSTORE PUSH1 0x20 PUSH1 0x4 DUP3 ADD MSTORE PUSH1 0x15 PUSH1 0x24 DUP3 ADD MSTORE PUSH21 0x43726564697473206C69737420697320656D707479 PUSH1 0x58 SHL PUSH1 0x44 DUP3 ADD MSTORE PUSH1 0x64 ADD PUSH2 0x721 JUMP JUMPDEST PUSH1 0x1 DUP1 SLOAD PUSH1 0x0 SWAP2 PUSH2 0x4836 SWAP2 PUSH2 0x6486 JUMP JUMPDEST SWAP1 POP JUMPDEST DUP1 ISZERO PUSH2 0x48DB JUMPI PUSH1 0x1 DUP2 DUP2 SLOAD DUP2 LT PUSH2 0x4852 JUMPI PUSH2 0x4852 PUSH2 0x642E JUMP JUMPDEST PUSH1 0x0 SWAP2 DUP3 MSTORE PUSH1 0x20 DUP3 KECCAK256 ADD SLOAD PUSH1 0x40 MLOAD PUSH1 0x1 PUSH1 0x1 PUSH1 0xA0 SHL SUB SWAP1 SWAP2 AND SWAP2 SWAP1 PUSH8 0xDE0B6B3A7640000 SWAP1 DUP3 DUP2 DUP2 DUP2 DUP6 DUP9 DUP4 CALL SWAP4 POP POP POP POP ISZERO DUP1 ISZERO PUSH2 0x4895 JUMPI RETURNDATASIZE PUSH1 0x0 DUP1 RETURNDATACOPY RETURNDATASIZE PUSH1 0x0 REVERT JUMPDEST POP PUSH1 0x1 DUP1 SLOAD DUP1 PUSH2 0x48A7 JUMPI PUSH2 0x48A7 PUSH2 0x6499 JUMP JUMPDEST PUSH1 0x0 DUP3 DUP2 MSTORE PUSH1 0x20 SWAP1 KECCAK256 DUP2 ADD PUSH1 0x0 NOT SWAP1 DUP2 ADD DUP1 SLOAD PUSH1 0x1 PUSH1 0x1 PUSH1 0xA0 SHL SUB NOT AND SWAP1 SSTORE ADD SWAP1 SSTORE DUP1 PUSH2 0x48D3 DUP2 PUSH2 0x64AF JUMP JUMPDEST SWAP2 POP POP PUSH2 0x4839 JUMP JUMPDEST POP PUSH1 0x1 PUSH1 0x0 DUP2 SLOAD DUP2 LT PUSH2 0x48F0 JUMPI PUSH2 0x48F0 PUSH2 0x642E JUMP JUMPDEST PUSH1 0x0 SWAP2 DUP3 MSTORE PUSH1 0x20 DUP3 KECCAK256 ADD SLOAD PUSH1 0x40 MLOAD PUSH1 0x1 PUSH1 0x1 PUSH1 0xA0 SHL SUB SWAP1 SWAP2 AND SWAP2 SWAP1 PUSH8 0xDE0B6B3A7640000 SWAP1 DUP3 DUP2 DUP2 DUP2 DUP6 DUP9 DUP4 CALL SWAP4 POP POP POP POP ISZERO DUP1 ISZERO PUSH2 0x4933 JUMPI RETURNDATASIZE PUSH1 0x0 DUP1 RETURNDATACOPY RETURNDATASIZE PUSH1 0x0 REVERT JUMPDEST POP PUSH1 0x1 DUP1 SLOAD DUP1 PUSH2 0x4945 JUMPI PUSH2 0x4945 PUSH2 0x6499 JUMP JUMPDEST PUSH1 0x0 DUP3 DUP2 MSTORE PUSH1 0x20 DUP2 KECCAK256 DUP3 ADD PUSH1 0x0 NOT SWAP1 DUP2 ADD DUP1 SLOAD PUSH1 0x1 PUSH1 0x1 PUSH1 0xA0 SHL SUB NOT AND SWAP1 SSTORE SWAP1 SWAP2 ADD SWAP1 SWAP2 SSTORE PUSH1 0x40 MLOAD CALLER SWAP2 SELFBALANCE DUP1 ISZERO PUSH2 0x8FC MUL SWAP3 SWAP1 SWAP2 DUP2 DUP2 DUP2 DUP6 DUP9 DUP9 CALL SWAP4 POP POP POP POP ISZERO DUP1 ISZERO PUSH2 0x1B31 JUMPI RETURNDATASIZE PUSH1 0x0 DUP1 RETURNDATACOPY RETURNDATASIZE PUSH1 0x0 REVERT JUMPDEST CALLER PUSH1 0x0 SWAP1 DUP2 MSTORE PUSH1 0x15 PUSH1 0x20 SWAP1 DUP2 MSTORE PUSH1 0x40 DUP1 DUP4 KECCAK256 PUSH1 0x16 SWAP1 SWAP3 MSTORE DUP3 KECCAK256 SLOAD SWAP1 SWAP2 SWAP1 PUSH1 0xFF AND PUSH1 0x2 DUP2 GT ISZERO PUSH2 0x49C7 JUMPI PUSH2 0x49C7 PUSH2 0x612A JUMP JUMPDEST PUSH1 0x2 DUP2 GT ISZERO PUSH2 0x49D8 JUMPI PUSH2 0x49D8 PUSH2 0x612A JUMP JUMPDEST DUP2 MSTORE PUSH1 0x20 DUP2 ADD SWAP2 SWAP1 SWAP2 MSTORE PUSH1 0x40 ADD PUSH1 0x0 KECCAK256 SLOAD PUSH1 0x1 PUSH1 0xA8 SHL SWAP1 DIV PUSH1 0xFF AND PUSH2 0x4A12 JUMPI PUSH1 0x40 MLOAD PUSH4 0x89129CF PUSH1 0xE4 SHL DUP2 MSTORE CALLER PUSH1 0x4 DUP3 ADD MSTORE PUSH1 0x24 ADD PUSH2 0x721 JUMP JUMPDEST CALLER PUSH1 0x0 SWAP1 DUP2 MSTORE PUSH1 0x19 PUSH1 0x20 MSTORE PUSH1 0x40 DUP2 KECCAK256 DUP1 SLOAD PUSH1 0xE SWAP3 SWAP2 SWAP1 DUP5 SWAP1 DUP2 LT PUSH2 0x4A38 JUMPI PUSH2 0x4A38 PUSH2 0x642E JUMP JUMPDEST PUSH1 0x0 SWAP2 DUP3 MSTORE PUSH1 0x20 DUP1 DUP4 KECCAK256 SWAP1 SWAP2 ADD SLOAD DUP4 MSTORE DUP3 ADD SWAP3 SWAP1 SWAP3 MSTORE PUSH1 0x40 ADD SWAP1 KECCAK256 SLOAD PUSH1 0xFF AND ISZERO PUSH2 0x4AAE JUMPI PUSH1 0x40 MLOAD PUSH3 0x461BCD PUSH1 0xE5 SHL DUP2 MSTORE PUSH1 0x20 PUSH1 0x4 DUP3 ADD MSTORE PUSH1 0x21 PUSH1 0x24 DUP3 ADD MSTORE PUSH32 0x54686520726571756573742068617320616C7265616479206265656E2073656E PUSH1 0x44 DUP3 ADD MSTORE PUSH1 0x1D PUSH1 0xFA SHL PUSH1 0x64 DUP3 ADD MSTORE PUSH1 0x84 ADD PUSH2 0x721 JUMP JUMPDEST PUSH1 0x2 CALLER PUSH1 0x0 SWAP1 DUP2 MSTORE PUSH1 0x16 PUSH1 0x20 MSTORE PUSH1 0x40 SWAP1 KECCAK256 SLOAD PUSH1 0xFF AND PUSH1 0x2 DUP2 GT ISZERO PUSH2 0x4AD4 JUMPI PUSH2 0x4AD4 PUSH2 0x612A JUMP JUMPDEST SUB PUSH2 0x4B31 JUMPI PUSH1 0x40 MLOAD PUSH3 0x461BCD PUSH1 0xE5 SHL DUP2 MSTORE PUSH1 0x20 PUSH1 0x4 DUP3 ADD MSTORE PUSH1 0x27 PUSH1 0x24 DUP3 ADD MSTORE PUSH32 0x4120737570706C6965722063616E6E6F742073656E64206120726566756E6420 PUSH1 0x44 DUP3 ADD MSTORE PUSH7 0x1C995C5D595CDD PUSH1 0xCA SHL PUSH1 0x64 DUP3 ADD MSTORE PUSH1 0x84 ADD PUSH2 0x721 JUMP JUMPDEST CALLER PUSH1 0x0 SWAP1 DUP2 MSTORE PUSH1 0x19 PUSH1 0x20 MSTORE PUSH1 0x40 DUP2 KECCAK256 DUP1 SLOAD DUP4 SWAP1 DUP2 LT PUSH2 0x4B52 JUMPI PUSH2 0x4B52 PUSH2 0x642E JUMP JUMPDEST PUSH1 0x0 SWAP2 DUP3 MSTORE PUSH1 0x20 DUP1 DUP4 KECCAK256 SWAP1 SWAP2 ADD SLOAD PUSH1 0x6 DUP1 SLOAD PUSH1 0x1 DUP2 DUP2 ADD SWAP1 SWAP3 SSTORE PUSH32 0xF652222313E28459528D920B65115C16C04F3EFC82AAEDC97BE59F3F377C0D3F ADD DUP3 SWAP1 SSTORE SWAP1 DUP4 MSTORE PUSH1 0xE SWAP1 SWAP2 MSTORE PUSH1 0x40 DUP3 KECCAK256 DUP1 SLOAD PUSH1 0xFF NOT AND DUP3 OR SWAP1 SSTORE PUSH1 0x7 DUP1 SLOAD SWAP2 DUP3 ADD DUP2 SSTORE SWAP1 SWAP2 MSTORE TIMESTAMP PUSH32 0xA66CC928B5EDB82AF9BD49922954155AB7B0942694BEA4CE44661D9A8736C688 SWAP1 SWAP2 ADD SSTORE POP POP JUMP JUMPDEST PUSH1 0x60 PUSH1 0x3 DUP1 SLOAD DUP1 PUSH1 0x20 MUL PUSH1 0x20 ADD PUSH1 0x40 MLOAD SWAP1 DUP2 ADD PUSH1 0x40 MSTORE DUP1 SWAP3 SWAP2 SWAP1 DUP2 DUP2 MSTORE PUSH1 0x20 ADD DUP3 DUP1 SLOAD DUP1 ISZERO PUSH2 0x23C8 JUMPI PUSH1 0x20 MUL DUP3 ADD SWAP2 SWAP1 PUSH1 0x0 MSTORE PUSH1 0x20 PUSH1 0x0 KECCAK256 SWAP1 DUP2 SLOAD PUSH1 0x1 PUSH1 0x1 PUSH1 0xA0 SHL SUB AND DUP2 MSTORE PUSH1 0x1 SWAP1 SWAP2 ADD SWAP1 PUSH1 0x20 ADD DUP1 DUP4 GT PUSH2 0x23AA JUMPI POP POP POP POP POP SWAP1 POP SWAP1 JUMP JUMPDEST PUSH1 0x8 SLOAD PUSH1 0x60 SWAP1 PUSH1 0x1 PUSH1 0x1 PUSH1 0xA0 SHL SUB AND CALLER EQ PUSH2 0x4C6A JUMPI PUSH1 0x40 MLOAD PUSH3 0x461BCD PUSH1 0xE5 SHL DUP2 MSTORE PUSH1 0x4 ADD PUSH2 0x721 SWAP1 PUSH2 0x663E JUMP JUMPDEST PUSH1 0x5 DUP1 SLOAD DUP1 PUSH1 0x20 MUL PUSH1 0x20 ADD PUSH1 0x40 MLOAD SWAP1 DUP2 ADD PUSH1 0x40 MSTORE DUP1 SWAP3 SWAP2 SWAP1 DUP2 DUP2 MSTORE PUSH1 0x20 ADD DUP3 DUP1 SLOAD DUP1 ISZERO PUSH2 0x23C8 JUMPI PUSH1 0x20 MUL DUP3 ADD SWAP2 SWAP1 PUSH1 0x0 MSTORE PUSH1 0x20 PUSH1 0x0 KECCAK256 SWAP1 DUP2 SLOAD PUSH1 0x1 PUSH1 0x1 PUSH1 0xA0 SHL SUB AND DUP2 MSTORE PUSH1 0x1 SWAP1 SWAP2 ADD SWAP1 PUSH1 0x20 ADD DUP1 DUP4 GT PUSH2 0x23AA JUMPI POP POP POP POP POP SWAP1 POP SWAP1 JUMP JUMPDEST PUSH1 0x8 SLOAD PUSH1 0x1 PUSH1 0x1 PUSH1 0xA0 SHL SUB AND CALLER EQ PUSH2 0x4CF2 JUMPI PUSH1 0x40 MLOAD PUSH3 0x461BCD PUSH1 0xE5 SHL DUP2 MSTORE PUSH1 0x4 ADD PUSH2 0x721 SWAP1 PUSH2 0x663E JUMP JUMPDEST PUSH8 0xDE0B6B3A7640000 CALLVALUE LT ISZERO PUSH2 0x4D2B JUMPI PUSH1 0x40 MLOAD PUSH4 0x11920A6D PUSH1 0xE3 SHL DUP2 MSTORE CALLVALUE PUSH1 0x4 DUP3 ADD MSTORE PUSH8 0xDE0B6B3A7640000 PUSH1 0x24 DUP3 ADD MSTORE PUSH1 0x44 ADD PUSH2 0x721 JUMP JUMPDEST PUSH1 0x1 SLOAD DUP2 LT PUSH2 0x4D7C JUMPI PUSH1 0x40 MLOAD PUSH3 0x461BCD PUSH1 0xE5 SHL DUP2 MSTORE PUSH1 0x20 PUSH1 0x4 DUP3 ADD MSTORE PUSH1 0x19 PUSH1 0x24 DUP3 ADD MSTORE PUSH32 0x546869732063726564697420646F65736E277420657869737400000000000000 PUSH1 0x44 DUP3 ADD MSTORE PUSH1 0x64 ADD PUSH2 0x721 JUMP JUMPDEST PUSH1 0x1 DUP2 DUP2 SLOAD DUP2 LT PUSH2 0x4D8F JUMPI PUSH2 0x4D8F PUSH2 0x642E JUMP JUMPDEST PUSH1 0x0 SWAP2 DUP3 MSTORE PUSH1 0x20 DUP3 KECCAK256 ADD SLOAD PUSH1 0x40 MLOAD PUSH1 0x1 PUSH1 0x1 PUSH1 0xA0 SHL SUB SWAP1 SWAP2 AND SWAP2 SWAP1 PUSH8 0xDE0B6B3A7640000 SWAP1 DUP3 DUP2 DUP2 DUP2 DUP6 DUP9 DUP4 CALL SWAP4 POP POP POP POP ISZERO DUP1 ISZERO PUSH2 0x4DD2 JUMPI RETURNDATASIZE PUSH1 0x0 DUP1 RETURNDATACOPY RETURNDATASIZE PUSH1 0x0 REVERT JUMPDEST POP PUSH1 0x40 MLOAD CALLER SWAP1 SELFBALANCE DUP1 ISZERO PUSH2 0x8FC MUL SWAP2 PUSH1 0x0 DUP2 DUP2 DUP2 DUP6 DUP9 DUP9 CALL SWAP4 POP POP POP POP ISZERO DUP1 ISZERO PUSH2 0x4DFF JUMPI RETURNDATASIZE PUSH1 0x0 DUP1 RETURNDATACOPY RETURNDATASIZE PUSH1 0x0 REVERT JUMPDEST POP PUSH2 0x4E09 DUP2 PUSH2 0x5B86 JUMP JUMPDEST POP JUMP JUMPDEST PUSH1 0x60 PUSH1 0x1 DUP1 CALLER PUSH1 0x0 SWAP1 DUP2 MSTORE PUSH1 0x16 PUSH1 0x20 MSTORE PUSH1 0x40 SWAP1 KECCAK256 SLOAD PUSH1 0xFF AND PUSH1 0x2 DUP2 GT ISZERO PUSH2 0x4E35 JUMPI PUSH2 0x4E35 PUSH2 0x612A JUMP JUMPDEST EQ PUSH2 0x4E53 JUMPI PUSH1 0x40 MLOAD PUSH4 0x7824841 PUSH1 0xE2 SHL DUP2 MSTORE PUSH1 0x4 ADD PUSH1 0x40 MLOAD DUP1 SWAP2 SUB SWAP1 REVERT JUMPDEST PUSH1 0x2 DUP1 SLOAD DUP1 PUSH1 0x20 MUL PUSH1 0x20 ADD PUSH1 0x40 MLOAD SWAP1 DUP2 ADD PUSH1 0x40 MSTORE DUP1 SWAP3 SWAP2 SWAP1 DUP2 DUP2 MSTORE PUSH1 0x20 ADD DUP3 DUP1 SLOAD DUP1 ISZERO PUSH2 0x36DB JUMPI PUSH1 0x20 MUL DUP3 ADD SWAP2 SWAP1 PUSH1 0x0 MSTORE PUSH1 0x20 PUSH1 0x0 KECCAK256 SWAP1 DUP2 SLOAD PUSH1 0x1 PUSH1 0x1 PUSH1 0xA0 SHL SUB AND DUP2 MSTORE PUSH1 0x1 SWAP1 SWAP2 ADD SWAP1 PUSH1 0x20 ADD DUP1 DUP4 GT PUSH2 0x36BD JUMPI POP POP POP POP POP SWAP2 POP POP SWAP1 JUMP JUMPDEST PUSH1 0x1 DUP1 CALLER PUSH1 0x0 SWAP1 DUP2 MSTORE PUSH1 0x16 PUSH1 0x20 MSTORE PUSH1 0x40 SWAP1 KECCAK256 SLOAD PUSH1 0xFF AND PUSH1 0x2 DUP2 GT ISZERO PUSH2 0x4ED9 JUMPI PUSH2 0x4ED9 PUSH2 0x612A JUMP JUMPDEST EQ PUSH2 0x4EF7 JUMPI PUSH1 0x40 MLOAD PUSH4 0x7824841 PUSH1 0xE2 SHL DUP2 MSTORE PUSH1 0x4 ADD PUSH1 0x40 MLOAD DUP1 SWAP2 SUB SWAP1 REVERT JUMPDEST CALLER PUSH1 0x0 SWAP1 DUP2 MSTORE PUSH1 0x9 PUSH1 0x20 MSTORE PUSH1 0x40 SWAP1 KECCAK256 SLOAD DUP3 LT PUSH2 0x4F55 JUMPI PUSH1 0x40 MLOAD PUSH3 0x461BCD PUSH1 0xE5 SHL DUP2 MSTORE PUSH1 0x20 PUSH1 0x4 DUP3 ADD MSTORE PUSH1 0x17 PUSH1 0x24 DUP3 ADD MSTORE PUSH32 0x54686973206465627420646F65736E2774206578697374000000000000000000 PUSH1 0x44 DUP3 ADD MSTORE PUSH1 0x64 ADD PUSH2 0x721 JUMP JUMPDEST CALLER PUSH1 0x0 SWAP1 DUP2 MSTORE PUSH1 0xA PUSH1 0x20 MSTORE PUSH1 0x40 DUP2 KECCAK256 DUP1 SLOAD DUP5 SWAP1 DUP2 LT PUSH2 0x4F76 JUMPI PUSH2 0x4F76 PUSH2 0x642E JUMP JUMPDEST SWAP1 PUSH1 0x0 MSTORE PUSH1 0x20 PUSH1 0x0 KECCAK256 ADD SLOAD SWAP1 POP DUP1 CALLVALUE LT ISZERO PUSH2 0x4FAD JUMPI PUSH1 0x40 MLOAD PUSH4 0x11920A6D PUSH1 0xE3 SHL DUP2 MSTORE CALLVALUE PUSH1 0x4 DUP3 ADD MSTORE PUSH1 0x24 DUP2 ADD DUP3 SWAP1 MSTORE PUSH1 0x44 ADD PUSH2 0x721 JUMP JUMPDEST CALLER PUSH1 0x0 SWAP1 DUP2 MSTORE PUSH1 0x9 PUSH1 0x20 MSTORE PUSH1 0x40 SWAP1 KECCAK256 DUP1 SLOAD DUP5 SWAP1 DUP2 LT PUSH2 0x4FCE JUMPI PUSH2 0x4FCE PUSH2 0x642E JUMP JUMPDEST PUSH1 0x0 SWAP2 DUP3 MSTORE PUSH1 0x20 DUP3 KECCAK256 ADD SLOAD PUSH1 0x40 MLOAD PUSH1 0x1 PUSH1 0x1 PUSH1 0xA0 SHL SUB SWAP1 SWAP2 AND SWAP2 DUP4 ISZERO PUSH2 0x8FC MUL SWAP2 DUP5 SWAP2 DUP2 DUP2 DUP2 DUP6 DUP9 DUP9 CALL SWAP4 POP POP POP POP ISZERO DUP1 ISZERO PUSH2 0x500E JUMPI RETURNDATASIZE PUSH1 0x0 DUP1 RETURNDATACOPY RETURNDATASIZE PUSH1 0x0 REVERT JUMPDEST POP PUSH1 0x40 MLOAD CALLER SWAP1 SELFBALANCE DUP1 ISZERO PUSH2 0x8FC MUL SWAP2 PUSH1 0x0 DUP2 DUP2 DUP2 DUP6 DUP9 DUP9 CALL SWAP4 POP POP POP POP ISZERO DUP1 ISZERO PUSH2 0xA1C JUMPI RETURNDATASIZE PUSH1 0x0 DUP1 RETURNDATACOPY RETURNDATASIZE PUSH1 0x0 REVERT JUMPDEST PUSH1 0x0 PUSH2 0x5049 DUP8 DUP6 DUP6 DUP6 PUSH2 0x5A7C JUMP JUMPDEST PUSH1 0x1 PUSH1 0x1 PUSH1 0xA0 SHL SUB DUP8 AND PUSH1 0x0 SWAP1 DUP2 MSTORE PUSH1 0xF PUSH1 0x20 SWAP1 DUP2 MSTORE PUSH1 0x40 DUP1 DUP4 KECCAK256 PUSH1 0x16 SWAP1 SWAP3 MSTORE DUP3 KECCAK256 SLOAD SWAP3 SWAP4 POP DUP8 SWAP3 SWAP1 SWAP2 SWAP1 PUSH1 0xFF AND PUSH1 0x2 DUP2 GT ISZERO PUSH2 0x5088 JUMPI PUSH2 0x5088 PUSH2 0x612A JUMP JUMPDEST PUSH1 0x2 DUP2 GT ISZERO PUSH2 0x5099 JUMPI PUSH2 0x5099 PUSH2 0x612A JUMP JUMPDEST DUP2 MSTORE PUSH1 0x20 ADD SWAP1 DUP2 MSTORE PUSH1 0x20 ADD PUSH1 0x0 KECCAK256 PUSH1 0x0 DUP4 DUP2 MSTORE PUSH1 0x20 ADD SWAP1 DUP2 MSTORE PUSH1 0x20 ADD PUSH1 0x0 KECCAK256 PUSH1 0x2 ADD PUSH1 0x0 DUP3 DUP3 SLOAD PUSH2 0x50CA SWAP2 SWAP1 PUSH2 0x6486 JUMP JUMPDEST SWAP1 SWAP2 SSTORE POP POP PUSH1 0x1 PUSH1 0x1 PUSH1 0xA0 SHL SUB DUP7 AND PUSH1 0x0 SWAP1 DUP2 MSTORE PUSH1 0xF PUSH1 0x20 SWAP1 DUP2 MSTORE PUSH1 0x40 DUP1 DUP4 KECCAK256 PUSH1 0x16 SWAP1 SWAP3 MSTORE DUP3 KECCAK256 SLOAD SWAP1 SWAP2 SWAP1 PUSH1 0xFF AND PUSH1 0x2 DUP2 GT ISZERO PUSH2 0x5109 JUMPI PUSH2 0x5109 PUSH2 0x612A JUMP JUMPDEST PUSH1 0x2 DUP2 GT ISZERO PUSH2 0x511A JUMPI PUSH2 0x511A PUSH2 0x612A JUMP JUMPDEST DUP2 MSTORE PUSH1 0x20 ADD SWAP1 DUP2 MSTORE PUSH1 0x20 ADD PUSH1 0x0 KECCAK256 PUSH1 0x0 DUP3 DUP2 MSTORE PUSH1 0x20 ADD SWAP1 DUP2 MSTORE PUSH1 0x20 ADD PUSH1 0x0 KECCAK256 PUSH1 0x2 ADD SLOAD PUSH1 0x0 SUB PUSH2 0x2367 JUMPI PUSH1 0x0 PUSH2 0x514F DUP9 PUSH2 0x5A4B JUMP JUMPDEST PUSH1 0x1 PUSH1 0x1 PUSH1 0xA0 SHL SUB DUP9 AND PUSH1 0x0 SWAP1 DUP2 MSTORE PUSH1 0xF PUSH1 0x20 SWAP1 DUP2 MSTORE PUSH1 0x40 DUP1 DUP4 KECCAK256 PUSH1 0x16 SWAP1 SWAP3 MSTORE DUP3 KECCAK256 SLOAD SWAP3 SWAP4 POP SWAP2 PUSH1 0xFF AND PUSH1 0x2 DUP2 GT ISZERO PUSH2 0x518A JUMPI PUSH2 0x518A PUSH2 0x612A JUMP JUMPDEST PUSH1 0x2 DUP2 GT ISZERO PUSH2 0x519B JUMPI PUSH2 0x519B PUSH2 0x612A JUMP JUMPDEST DUP2 MSTORE PUSH1 0x20 DUP1 DUP3 ADD SWAP3 SWAP1 SWAP3 MSTORE PUSH1 0x40 SWAP1 DUP2 ADD PUSH1 0x0 SWAP1 DUP2 KECCAK256 DUP6 DUP3 MSTORE SWAP1 SWAP3 MSTORE DUP2 KECCAK256 SWAP1 PUSH2 0x51C3 DUP3 DUP3 PUSH2 0x5DE9 JUMP JUMPDEST POP PUSH1 0x0 PUSH1 0x1 DUP3 ADD DUP2 SWAP1 SSTORE PUSH1 0x2 DUP3 ADD DUP2 SWAP1 SSTORE PUSH1 0x3 DUP3 ADD SSTORE PUSH1 0x4 ADD DUP1 SLOAD PUSH4 0xFFFFFFFF NOT AND SWAP1 SSTORE PUSH2 0x51F1 DUP8 DUP10 PUSH2 0x5C27 JUMP JUMPDEST PUSH1 0x1 PUSH1 0x1 PUSH1 0xA0 SHL SUB DUP8 AND PUSH1 0x0 SWAP1 DUP2 MSTORE PUSH1 0x12 PUSH1 0x20 SWAP1 DUP2 MSTORE PUSH1 0x40 DUP1 DUP4 KECCAK256 PUSH1 0x16 SWAP1 SWAP3 MSTORE DUP3 KECCAK256 SLOAD SWAP1 SWAP2 SWAP1 PUSH1 0xFF AND PUSH1 0x2 DUP2 GT ISZERO PUSH2 0x522B JUMPI PUSH2 0x522B PUSH2 0x612A JUMP JUMPDEST PUSH1 0x2 DUP2 GT ISZERO PUSH2 0x523C JUMPI PUSH2 0x523C PUSH2 0x612A JUMP JUMPDEST DUP2 MSTORE PUSH1 0x20 ADD SWAP1 DUP2 MSTORE PUSH1 0x20 ADD PUSH1 0x0 KECCAK256 PUSH1 0x0 DUP3 DUP2 MSTORE PUSH1 0x20 ADD SWAP1 DUP2 MSTORE PUSH1 0x20 ADD PUSH1 0x0 KECCAK256 DUP1 SLOAD DUP1 PUSH2 0x526A JUMPI PUSH2 0x526A PUSH2 0x6499 JUMP JUMPDEST PUSH1 0x0 DUP3 DUP2 MSTORE PUSH1 0x20 DUP1 DUP3 KECCAK256 DUP4 ADD PUSH1 0x0 NOT SWAP1 DUP2 ADD DUP4 SWAP1 SSTORE SWAP1 SWAP3 ADD SWAP1 SWAP3 SSTORE PUSH1 0x1 PUSH1 0x1 PUSH1 0xA0 SHL SUB DUP10 AND DUP3 MSTORE PUSH1 0x13 DUP2 MSTORE PUSH1 0x40 DUP1 DUP4 KECCAK256 PUSH1 0x16 SWAP1 SWAP3 MSTORE DUP3 KECCAK256 SLOAD SWAP1 SWAP2 SWAP1 PUSH1 0xFF AND PUSH1 0x2 DUP2 GT ISZERO PUSH2 0x52B9 JUMPI PUSH2 0x52B9 PUSH2 0x612A JUMP JUMPDEST PUSH1 0x2 DUP2 GT ISZERO PUSH2 0x52CA JUMPI PUSH2 0x52CA PUSH2 0x612A JUMP JUMPDEST DUP2 MSTORE PUSH1 0x20 ADD SWAP1 DUP2 MSTORE PUSH1 0x20 ADD PUSH1 0x0 KECCAK256 PUSH1 0x0 DUP3 DUP2 MSTORE PUSH1 0x20 ADD SWAP1 DUP2 MSTORE PUSH1 0x20 ADD PUSH1 0x0 KECCAK256 DUP1 SLOAD DUP1 PUSH2 0x52F8 JUMPI PUSH2 0x52F8 PUSH2 0x6499 JUMP JUMPDEST PUSH1 0x0 DUP3 DUP2 MSTORE PUSH1 0x20 DUP1 DUP3 KECCAK256 DUP4 ADD PUSH1 0x0 NOT SWAP1 DUP2 ADD DUP4 SWAP1 SSTORE SWAP1 SWAP3 ADD SWAP1 SWAP3 SSTORE PUSH1 0x1 PUSH1 0x1 PUSH1 0xA0 SHL SUB DUP10 AND DUP3 MSTORE PUSH1 0x14 DUP2 MSTORE PUSH1 0x40 DUP1 DUP4 KECCAK256 PUSH1 0x16 SWAP1 SWAP3 MSTORE DUP3 KECCAK256 SLOAD SWAP1 SWAP2 SWAP1 PUSH1 0xFF AND PUSH1 0x2 DUP2 GT ISZERO PUSH2 0x5347 JUMPI PUSH2 0x5347 PUSH2 0x612A JUMP JUMPDEST PUSH1 0x2 DUP2 GT ISZERO PUSH2 0x5358 JUMPI PUSH2 0x5358 PUSH2 0x612A JUMP JUMPDEST DUP2 MSTORE PUSH1 0x20 ADD SWAP1 DUP2 MSTORE PUSH1 0x20 ADD PUSH1 0x0 KECCAK256 PUSH1 0x0 DUP3 DUP2 MSTORE PUSH1 0x20 ADD SWAP1 DUP2 MSTORE PUSH1 0x20 ADD PUSH1 0x0 KECCAK256 DUP1 SLOAD DUP1 PUSH2 0x5386 JUMPI PUSH2 0x5386 PUSH2 0x6499 JUMP JUMPDEST PUSH1 0x0 DUP3 DUP2 MSTORE PUSH1 0x20 DUP1 DUP3 KECCAK256 PUSH1 0x8 PUSH1 0x0 NOT SWAP1 SWAP5 ADD SWAP4 DUP5 DIV ADD DUP1 SLOAD PUSH4 0xFFFFFFFF PUSH1 0x4 PUSH1 0x7 DUP8 AND MUL PUSH2 0x100 EXP MUL NOT AND SWAP1 SSTORE SWAP2 SWAP1 SWAP3 SSTORE PUSH1 0x1 PUSH1 0x1 PUSH1 0xA0 SHL SUB DUP10 AND DUP3 MSTORE PUSH1 0x11 DUP2 MSTORE PUSH1 0x40 DUP1 DUP4 KECCAK256 PUSH1 0x16 SWAP1 SWAP3 MSTORE DUP3 KECCAK256 SLOAD SWAP1 SWAP2 SWAP1 PUSH1 0xFF AND PUSH1 0x2 DUP2 GT ISZERO PUSH2 0x53EB JUMPI PUSH2 0x53EB PUSH2 0x612A JUMP JUMPDEST PUSH1 0x2 DUP2 GT ISZERO PUSH2 0x53FC JUMPI PUSH2 0x53FC PUSH2 0x612A JUMP JUMPDEST DUP2 MSTORE PUSH1 0x20 DUP1 DUP3 ADD SWAP3 SWAP1 SWAP3 MSTORE PUSH1 0x40 SWAP1 DUP2 ADD PUSH1 0x0 SWAP1 DUP2 KECCAK256 DUP5 DUP3 MSTORE SWAP1 SWAP3 MSTORE DUP2 KECCAK256 DUP1 SLOAD SWAP2 PUSH2 0x2360 DUP4 PUSH2 0x64AF JUMP JUMPDEST PUSH1 0x0 PUSH2 0x5433 DUP7 DUP5 DUP5 DUP9 PUSH2 0x5A7C JUMP JUMPDEST CALLER PUSH1 0x0 SWAP1 DUP2 MSTORE PUSH1 0xF PUSH1 0x20 SWAP1 DUP2 MSTORE PUSH1 0x40 DUP1 DUP4 KECCAK256 PUSH1 0x16 SWAP1 SWAP3 MSTORE DUP3 KECCAK256 SLOAD SWAP3 SWAP4 POP SWAP1 SWAP2 DUP3 SWAP1 PUSH1 0xFF AND PUSH1 0x2 DUP2 GT ISZERO PUSH2 0x5468 JUMPI PUSH2 0x5468 PUSH2 0x612A JUMP JUMPDEST PUSH1 0x2 DUP2 GT ISZERO PUSH2 0x5479 JUMPI PUSH2 0x5479 PUSH2 0x612A JUMP JUMPDEST DUP2 MSTORE PUSH1 0x20 ADD SWAP1 DUP2 MSTORE PUSH1 0x20 ADD PUSH1 0x0 KECCAK256 PUSH1 0x0 DUP4 DUP2 MSTORE PUSH1 0x20 ADD SWAP1 DUP2 MSTORE PUSH1 0x20 ADD PUSH1 0x0 KECCAK256 PUSH1 0x1 ADD SLOAD GT ISZERO PUSH2 0x5520 JUMPI CALLER PUSH1 0x0 SWAP1 DUP2 MSTORE PUSH1 0xF PUSH1 0x20 SWAP1 DUP2 MSTORE PUSH1 0x40 DUP1 DUP4 KECCAK256 PUSH1 0x16 SWAP1 SWAP3 MSTORE DUP3 KECCAK256 SLOAD DUP7 SWAP3 SWAP1 PUSH1 0xFF AND PUSH1 0x2 DUP2 GT ISZERO PUSH2 0x54D3 JUMPI PUSH2 0x54D3 PUSH2 0x612A JUMP JUMPDEST PUSH1 0x2 DUP2 GT ISZERO PUSH2 0x54E4 JUMPI PUSH2 0x54E4 PUSH2 0x612A JUMP JUMPDEST DUP2 MSTORE PUSH1 0x20 ADD SWAP1 DUP2 MSTORE PUSH1 0x20 ADD PUSH1 0x0 KECCAK256 PUSH1 0x0 DUP4 DUP2 MSTORE PUSH1 0x20 ADD SWAP1 DUP2 MSTORE PUSH1 0x20 ADD PUSH1 0x0 KECCAK256 PUSH1 0x2 ADD PUSH1 0x0 DUP3 DUP3 SLOAD PUSH2 0x5515 SWAP2 SWAP1 PUSH2 0x645A JUMP JUMPDEST SWAP1 SWAP2 SSTORE POP PUSH2 0x5846 SWAP1 POP JUMP JUMPDEST PUSH1 0x0 PUSH2 0x552B DUP8 PUSH2 0x5A4B JUMP JUMPDEST PUSH1 0x40 DUP1 MLOAD PUSH1 0xA0 DUP2 ADD DUP3 MSTORE DUP10 DUP2 MSTORE PUSH1 0x20 DUP1 DUP3 ADD DUP11 SWAP1 MSTORE DUP2 DUP4 ADD DUP10 SWAP1 MSTORE PUSH1 0x60 DUP3 ADD DUP9 SWAP1 MSTORE PUSH4 0xFFFFFFFF DUP8 AND PUSH1 0x80 DUP4 ADD MSTORE CALLER PUSH1 0x0 SWAP1 DUP2 MSTORE PUSH1 0xF DUP3 MSTORE DUP4 DUP2 KECCAK256 PUSH1 0x16 SWAP1 SWAP3 MSTORE SWAP3 DUP4 KECCAK256 SLOAD SWAP4 SWAP5 POP SWAP1 SWAP3 SWAP1 SWAP2 SWAP1 PUSH1 0xFF AND PUSH1 0x2 DUP2 GT ISZERO PUSH2 0x558B JUMPI PUSH2 0x558B PUSH2 0x612A JUMP JUMPDEST PUSH1 0x2 DUP2 GT ISZERO PUSH2 0x559C JUMPI PUSH2 0x559C PUSH2 0x612A JUMP JUMPDEST DUP2 MSTORE PUSH1 0x20 DUP1 DUP3 ADD SWAP3 SWAP1 SWAP3 MSTORE PUSH1 0x40 SWAP1 DUP2 ADD PUSH1 0x0 SWAP1 DUP2 KECCAK256 DUP7 DUP3 MSTORE SWAP1 SWAP3 MSTORE SWAP1 KECCAK256 DUP2 MLOAD DUP2 SWAP1 PUSH2 0x55C7 SWAP1 DUP3 PUSH2 0x657E JUMP JUMPDEST POP PUSH1 0x20 DUP3 DUP2 ADD MLOAD PUSH1 0x1 DUP4 ADD SSTORE PUSH1 0x40 DUP1 DUP5 ADD MLOAD PUSH1 0x2 DUP1 DUP6 ADD SWAP2 SWAP1 SWAP2 SSTORE PUSH1 0x60 DUP6 ADD MLOAD PUSH1 0x3 DUP6 ADD SSTORE PUSH1 0x80 SWAP1 SWAP5 ADD MLOAD PUSH1 0x4 SWAP1 SWAP4 ADD DUP1 SLOAD PUSH4 0xFFFFFFFF NOT AND PUSH4 0xFFFFFFFF SWAP1 SWAP5 AND SWAP4 SWAP1 SWAP4 OR SWAP1 SWAP3 SSTORE CALLER PUSH1 0x0 SWAP1 DUP2 MSTORE PUSH1 0x10 DUP3 MSTORE DUP3 DUP2 KECCAK256 PUSH1 0x16 SWAP1 SWAP3 MSTORE SWAP2 DUP3 KECCAK256 SLOAD SWAP1 SWAP3 PUSH1 0xFF SWAP1 SWAP2 AND SWAP1 DUP2 GT ISZERO PUSH2 0x563C JUMPI PUSH2 0x563C PUSH2 0x612A JUMP JUMPDEST PUSH1 0x2 DUP2 GT ISZERO PUSH2 0x564D JUMPI PUSH2 0x564D PUSH2 0x612A JUMP JUMPDEST DUP2 MSTORE PUSH1 0x20 DUP1 DUP3 ADD SWAP3 SWAP1 SWAP3 MSTORE PUSH1 0x40 ADD PUSH1 0x0 SWAP1 DUP2 KECCAK256 DUP1 SLOAD PUSH1 0x1 DUP2 ADD DUP3 SSTORE SWAP1 DUP3 MSTORE SWAP2 SWAP1 KECCAK256 ADD PUSH2 0x5679 DUP9 DUP3 PUSH2 0x657E JUMP JUMPDEST POP CALLER PUSH1 0x0 SWAP1 DUP2 MSTORE PUSH1 0x12 PUSH1 0x20 SWAP1 DUP2 MSTORE PUSH1 0x40 DUP1 DUP4 KECCAK256 PUSH1 0x16 SWAP1 SWAP3 MSTORE DUP3 KECCAK256 SLOAD SWAP1 SWAP2 SWAP1 PUSH1 0xFF AND PUSH1 0x2 DUP2 GT ISZERO PUSH2 0x56AB JUMPI PUSH2 0x56AB PUSH2 0x612A JUMP JUMPDEST PUSH1 0x2 DUP2 GT ISZERO PUSH2 0x56BC JUMPI PUSH2 0x56BC PUSH2 0x612A JUMP JUMPDEST DUP2 MSTORE PUSH1 0x20 DUP1 DUP3 ADD SWAP3 SWAP1 SWAP3 MSTORE PUSH1 0x40 SWAP1 DUP2 ADD PUSH1 0x0 SWAP1 DUP2 KECCAK256 DUP5 DUP3 MSTORE DUP4 MSTORE DUP2 DUP2 KECCAK256 DUP1 SLOAD PUSH1 0x1 DUP2 ADD DUP3 SSTORE SWAP1 DUP3 MSTORE DUP4 DUP3 KECCAK256 ADD DUP10 SWAP1 SSTORE CALLER DUP2 MSTORE PUSH1 0x13 DUP4 MSTORE DUP2 DUP2 KECCAK256 PUSH1 0x16 SWAP1 SWAP4 MSTORE SWAP1 DUP2 KECCAK256 SLOAD PUSH1 0xFF AND PUSH1 0x2 DUP2 GT ISZERO PUSH2 0x5712 JUMPI PUSH2 0x5712 PUSH2 0x612A JUMP JUMPDEST PUSH1 0x2 DUP2 GT ISZERO PUSH2 0x5723 JUMPI PUSH2 0x5723 PUSH2 0x612A JUMP JUMPDEST DUP2 MSTORE PUSH1 0x20 DUP1 DUP3 ADD SWAP3 SWAP1 SWAP3 MSTORE PUSH1 0x40 SWAP1 DUP2 ADD PUSH1 0x0 SWAP1 DUP2 KECCAK256 DUP5 DUP3 MSTORE DUP4 MSTORE DUP2 DUP2 KECCAK256 DUP1 SLOAD PUSH1 0x1 DUP2 ADD DUP3 SSTORE SWAP1 DUP3 MSTORE DUP4 DUP3 KECCAK256 ADD DUP8 SWAP1 SSTORE CALLER DUP2 MSTORE PUSH1 0x14 DUP4 MSTORE DUP2 DUP2 KECCAK256 PUSH1 0x16 SWAP1 SWAP4 MSTORE SWAP1 DUP2 KECCAK256 SLOAD PUSH1 0xFF AND PUSH1 0x2 DUP2 GT ISZERO PUSH2 0x5779 JUMPI PUSH2 0x5779 PUSH2 0x612A JUMP JUMPDEST PUSH1 0x2 DUP2 GT ISZERO PUSH2 0x578A JUMPI PUSH2 0x578A PUSH2 0x612A JUMP JUMPDEST DUP2 MSTORE PUSH1 0x20 DUP1 DUP3 ADD SWAP3 SWAP1 SWAP3 MSTORE PUSH1 0x40 SWAP1 DUP2 ADD PUSH1 0x0 SWAP1 DUP2 KECCAK256 DUP5 DUP3 MSTORE DUP4 MSTORE DUP2 DUP2 KECCAK256 DUP1 SLOAD PUSH1 0x1 DUP2 ADD DUP3 SSTORE SWAP1 DUP3 MSTORE DUP4 DUP3 KECCAK256 PUSH1 0x8 DUP3 DIV ADD DUP1 SLOAD PUSH1 0x7 SWAP1 SWAP3 AND PUSH1 0x4 MUL PUSH2 0x100 EXP PUSH4 0xFFFFFFFF DUP2 DUP2 MUL NOT SWAP1 SWAP4 AND SWAP3 DUP10 AND MUL SWAP2 SWAP1 SWAP2 OR SWAP1 SSTORE CALLER DUP2 MSTORE PUSH1 0x11 DUP4 MSTORE DUP2 DUP2 KECCAK256 PUSH1 0x16 SWAP1 SWAP4 MSTORE SWAP1 DUP2 KECCAK256 SLOAD PUSH1 0xFF AND PUSH1 0x2 DUP2 GT ISZERO PUSH2 0x5805 JUMPI PUSH2 0x5805 PUSH2 0x612A JUMP JUMPDEST PUSH1 0x2 DUP2 GT ISZERO PUSH2 0x5816 JUMPI PUSH2 0x5816 PUSH2 0x612A JUMP JUMPDEST DUP2 MSTORE PUSH1 0x20 DUP1 DUP3 ADD SWAP3 SWAP1 SWAP3 MSTORE PUSH1 0x40 SWAP1 DUP2 ADD PUSH1 0x0 SWAP1 DUP2 KECCAK256 DUP5 DUP3 MSTORE SWAP1 SWAP3 MSTORE DUP2 KECCAK256 DUP1 SLOAD SWAP2 PUSH2 0x583F DUP4 PUSH2 0x646D JUMP JUMPDEST SWAP2 SWAP1 POP SSTORE POP POP JUMPDEST POP POP POP POP POP POP JUMP JUMPDEST CALLER PUSH1 0x0 SWAP1 DUP2 MSTORE PUSH1 0x15 PUSH1 0x20 SWAP1 DUP2 MSTORE PUSH1 0x40 DUP1 DUP4 KECCAK256 PUSH1 0x16 SWAP1 SWAP3 MSTORE DUP3 KECCAK256 SLOAD SWAP1 SWAP2 SWAP1 PUSH1 0xFF AND PUSH1 0x2 DUP2 GT ISZERO PUSH2 0x587F JUMPI PUSH2 0x587F PUSH2 0x612A JUMP JUMPDEST PUSH1 0x2 DUP2 GT ISZERO PUSH2 0x5890 JUMPI PUSH2 0x5890 PUSH2 0x612A JUMP JUMPDEST DUP2 MSTORE PUSH1 0x20 DUP2 ADD SWAP2 SWAP1 SWAP2 MSTORE PUSH1 0x40 ADD PUSH1 0x0 KECCAK256 SLOAD PUSH1 0x1 PUSH1 0xA8 SHL SWAP1 DIV PUSH1 0xFF AND PUSH2 0x58CA JUMPI PUSH1 0x40 MLOAD PUSH4 0x89129CF PUSH1 0xE4 SHL DUP2 MSTORE CALLER PUSH1 0x4 DUP3 ADD MSTORE PUSH1 0x24 ADD PUSH2 0x721 JUMP JUMPDEST CALLER PUSH1 0x0 SWAP1 DUP2 MSTORE PUSH1 0xB PUSH1 0x20 SWAP1 DUP2 MSTORE PUSH1 0x40 DUP1 DUP4 KECCAK256 DUP4 SWAP1 SSTORE PUSH1 0x15 DUP3 MSTORE DUP1 DUP4 KECCAK256 PUSH1 0x16 SWAP1 SWAP3 MSTORE DUP3 KECCAK256 SLOAD DUP3 SWAP1 PUSH1 0xFF AND PUSH1 0x2 DUP2 GT ISZERO PUSH2 0x5904 JUMPI PUSH2 0x5904 PUSH2 0x612A JUMP JUMPDEST PUSH1 0x2 DUP2 GT ISZERO PUSH2 0x5915 JUMPI PUSH2 0x5915 PUSH2 0x612A JUMP JUMPDEST DUP2 MSTORE PUSH1 0x20 DUP1 DUP3 ADD SWAP3 SWAP1 SWAP3 MSTORE PUSH1 0x40 SWAP1 DUP2 ADD PUSH1 0x0 SWAP1 DUP2 KECCAK256 DUP1 SLOAD PUSH1 0xFF SWAP6 SWAP1 SWAP6 AND PUSH1 0x1 PUSH1 0xB0 SHL MUL PUSH1 0xFF PUSH1 0xB0 SHL NOT SWAP1 SWAP6 AND SWAP5 SWAP1 SWAP5 OR SWAP1 SWAP4 SSTORE CALLER DUP4 MSTORE PUSH1 0xC SWAP1 SWAP2 MSTORE DUP2 KECCAK256 SLOAD PUSH1 0x1 DUP1 SLOAD DUP1 DUP3 ADD DUP3 SSTORE SWAP3 MSTORE PUSH32 0xB10E2D527612073B26EECDFD717E6A320CF44B4AFAC2B0732D9FCBE2B7FA0CF6 SWAP1 SWAP2 ADD DUP1 SLOAD PUSH1 0x1 PUSH1 0x1 PUSH1 0xA0 SHL SUB NOT AND PUSH1 0x1 PUSH1 0x1 PUSH1 0xA0 SHL SUB SWAP3 SWAP1 SWAP3 AND SWAP2 SWAP1 SWAP2 OR SWAP1 SSTORE JUMP JUMPDEST PUSH1 0x0 PUSH3 0x15180 PUSH2 0x59B3 DUP4 PUSH1 0x2 PUSH2 0x669F JUMP JUMPDEST PUSH2 0x59C0 SWAP1 PUSH3 0x15180 PUSH2 0x669F JUMP JUMPDEST PUSH4 0xFFFFFFFF AND TIMESTAMP PUSH1 0x40 MLOAD PUSH1 0x20 ADD PUSH2 0x59D9 SWAP2 DUP2 MSTORE PUSH1 0x20 ADD SWAP1 JUMP JUMPDEST PUSH1 0x40 MLOAD PUSH1 0x20 DUP2 DUP4 SUB SUB DUP2 MSTORE SWAP1 PUSH1 0x40 MSTORE DUP1 MLOAD SWAP1 PUSH1 0x20 ADD KECCAK256 PUSH1 0x0 SHR PUSH2 0x59FC SWAP2 SWAP1 PUSH2 0x666C JUMP JUMPDEST PUSH2 0x3E1F SWAP2 SWAP1 PUSH2 0x651F JUMP JUMPDEST PUSH2 0x1B31 DUP3 DUP3 PUSH1 0x40 MLOAD PUSH1 0x24 ADD PUSH2 0x5A1C SWAP3 SWAP2 SWAP1 PUSH2 0x66C7 JUMP JUMPDEST PUSH1 0x40 DUP1 MLOAD PUSH1 0x1F NOT DUP2 DUP5 SUB ADD DUP2 MSTORE SWAP2 SWAP1 MSTORE PUSH1 0x20 DUP2 ADD DUP1 MLOAD PUSH1 0x1 PUSH1 0x1 PUSH1 0xE0 SHL SUB AND PUSH4 0x2D839CB3 PUSH1 0xE2 SHL OR SWAP1 MSTORE PUSH2 0x5DC4 JUMP JUMPDEST PUSH1 0x0 DUP2 PUSH1 0x40 MLOAD PUSH1 0x20 ADD PUSH2 0x5A5E SWAP2 SWAP1 PUSH2 0x66E9 JUMP JUMPDEST PUSH1 0x40 DUP1 MLOAD PUSH1 0x1F NOT DUP2 DUP5 SUB ADD DUP2 MSTORE SWAP2 SWAP1 MSTORE DUP1 MLOAD PUSH1 0x20 SWAP1 SWAP2 ADD KECCAK256 SWAP3 SWAP2 POP POP JUMP JUMPDEST PUSH1 0x0 DUP5 DUP5 DUP5 DUP5 PUSH1 0x40 MLOAD PUSH1 0x20 ADD PUSH2 0x5A95 SWAP5 SWAP4 SWAP3 SWAP2 SWAP1 PUSH2 0x6705 JUMP JUMPDEST PUSH1 0x40 DUP1 MLOAD PUSH1 0x1F NOT DUP2 DUP5 SUB ADD DUP2 MSTORE SWAP2 SWAP1 MSTORE DUP1 MLOAD PUSH1 0x20 SWAP1 SWAP2 ADD KECCAK256 SWAP6 SWAP5 POP POP POP POP POP JUMP JUMPDEST PUSH1 0x5 SLOAD PUSH2 0x5AC5 SWAP1 PUSH1 0x1 SWAP1 PUSH2 0x6486 JUMP JUMPDEST DUP2 LT ISZERO PUSH2 0x5B50 JUMPI PUSH1 0x5 PUSH2 0x5AD9 DUP3 PUSH1 0x1 PUSH2 0x645A JUMP JUMPDEST DUP2 SLOAD DUP2 LT PUSH2 0x5AE9 JUMPI PUSH2 0x5AE9 PUSH2 0x642E JUMP JUMPDEST PUSH1 0x0 SWAP2 DUP3 MSTORE PUSH1 0x20 SWAP1 SWAP2 KECCAK256 ADD SLOAD PUSH1 0x5 DUP1 SLOAD PUSH1 0x1 PUSH1 0x1 PUSH1 0xA0 SHL SUB SWAP1 SWAP3 AND SWAP2 DUP4 SWAP1 DUP2 LT PUSH2 0x5B15 JUMPI PUSH2 0x5B15 PUSH2 0x642E JUMP JUMPDEST PUSH1 0x0 SWAP2 DUP3 MSTORE PUSH1 0x20 SWAP1 SWAP2 KECCAK256 ADD DUP1 SLOAD PUSH1 0x1 PUSH1 0x1 PUSH1 0xA0 SHL SUB NOT AND PUSH1 0x1 PUSH1 0x1 PUSH1 0xA0 SHL SUB SWAP3 SWAP1 SWAP3 AND SWAP2 SWAP1 SWAP2 OR SWAP1 SSTORE DUP1 PUSH2 0x5B48 DUP2 PUSH2 0x646D JUMP JUMPDEST SWAP2 POP POP PUSH2 0x5AB6 JUMP JUMPDEST PUSH1 0x5 DUP1 SLOAD DUP1 PUSH2 0x5B61 JUMPI PUSH2 0x5B61 PUSH2 0x6499 JUMP JUMPDEST PUSH1 0x0 DUP3 DUP2 MSTORE PUSH1 0x20 SWAP1 KECCAK256 DUP2 ADD PUSH1 0x0 NOT SWAP1 DUP2 ADD DUP1 SLOAD PUSH1 0x1 PUSH1 0x1 PUSH1 0xA0 SHL SUB NOT AND SWAP1 SSTORE ADD SWAP1 SSTORE POP JUMP JUMPDEST DUP1 JUMPDEST PUSH1 0x1 SLOAD DUP2 LT ISZERO PUSH2 0x5C15 JUMPI PUSH1 0x1 PUSH2 0x5B9E DUP3 DUP3 PUSH2 0x645A JUMP JUMPDEST DUP2 SLOAD DUP2 LT PUSH2 0x5BAE JUMPI PUSH2 0x5BAE PUSH2 0x642E JUMP JUMPDEST PUSH1 0x0 SWAP2 DUP3 MSTORE PUSH1 0x20 SWAP1 SWAP2 KECCAK256 ADD SLOAD PUSH1 0x1 DUP1 SLOAD PUSH1 0x1 PUSH1 0x1 PUSH1 0xA0 SHL SUB SWAP1 SWAP3 AND SWAP2 DUP4 SWAP1 DUP2 LT PUSH2 0x5BDA JUMPI PUSH2 0x5BDA PUSH2 0x642E JUMP JUMPDEST PUSH1 0x0 SWAP2 DUP3 MSTORE PUSH1 0x20 SWAP1 SWAP2 KECCAK256 ADD DUP1 SLOAD PUSH1 0x1 PUSH1 0x1 PUSH1 0xA0 SHL SUB NOT AND PUSH1 0x1 PUSH1 0x1 PUSH1 0xA0 SHL SUB SWAP3 SWAP1 SWAP3 AND SWAP2 SWAP1 SWAP2 OR SWAP1 SSTORE DUP1 PUSH2 0x5C0D DUP2 PUSH2 0x646D JUMP JUMPDEST SWAP2 POP POP PUSH2 0x5B88 JUMP JUMPDEST POP PUSH1 0x1 DUP1 SLOAD DUP1 PUSH2 0x5B61 JUMPI PUSH2 0x5B61 PUSH2 0x6499 JUMP JUMPDEST PUSH1 0x1 PUSH1 0x1 PUSH1 0xA0 SHL SUB DUP3 AND PUSH1 0x0 SWAP1 DUP2 MSTORE PUSH1 0x10 PUSH1 0x20 SWAP1 DUP2 MSTORE PUSH1 0x40 DUP1 DUP4 KECCAK256 PUSH1 0x16 SWAP1 SWAP3 MSTORE DUP3 KECCAK256 SLOAD DUP3 SWAP2 SWAP1 DUP3 SWAP1 PUSH1 0xFF AND PUSH1 0x2 DUP2 GT ISZERO PUSH2 0x5C63 JUMPI PUSH2 0x5C63 PUSH2 0x612A JUMP JUMPDEST PUSH1 0x2 DUP2 GT ISZERO PUSH2 0x5C74 JUMPI PUSH2 0x5C74 PUSH2 0x612A JUMP JUMPDEST DUP2 MSTORE PUSH1 0x20 ADD SWAP1 DUP2 MSTORE PUSH1 0x20 ADD PUSH1 0x0 KECCAK256 SWAP1 POP PUSH1 0x0 DUP4 PUSH1 0x40 MLOAD PUSH1 0x20 ADD PUSH2 0x5C97 SWAP2 SWAP1 PUSH2 0x66E9 JUMP JUMPDEST PUSH1 0x40 MLOAD PUSH1 0x20 DUP2 DUP4 SUB SUB DUP2 MSTORE SWAP1 PUSH1 0x40 MSTORE DUP1 MLOAD SWAP1 PUSH1 0x20 ADD KECCAK256 SWAP1 POP JUMPDEST DUP2 SLOAD DUP4 LT ISZERO PUSH2 0x5DBD JUMPI DUP1 DUP3 DUP5 DUP2 SLOAD DUP2 LT PUSH2 0x5CCC JUMPI PUSH2 0x5CCC PUSH2 0x642E JUMP JUMPDEST SWAP1 PUSH1 0x0 MSTORE PUSH1 0x20 PUSH1 0x0 KECCAK256 ADD PUSH1 0x40 MLOAD PUSH1 0x20 ADD PUSH2 0x5CE6 SWAP2 SWAP1 PUSH2 0x6741 JUMP JUMPDEST PUSH1 0x40 MLOAD PUSH1 0x20 DUP2 DUP4 SUB SUB DUP2 MSTORE SWAP1 PUSH1 0x40 MSTORE DUP1 MLOAD SWAP1 PUSH1 0x20 ADD KECCAK256 SUB PUSH2 0x5DAB JUMPI JUMPDEST DUP2 SLOAD PUSH2 0x5D10 SWAP1 PUSH1 0x1 SWAP1 PUSH2 0x6486 JUMP JUMPDEST DUP4 LT ISZERO PUSH2 0x5D78 JUMPI DUP2 PUSH2 0x5D23 DUP5 PUSH1 0x1 PUSH2 0x645A JUMP JUMPDEST DUP2 SLOAD DUP2 LT PUSH2 0x5D33 JUMPI PUSH2 0x5D33 PUSH2 0x642E JUMP JUMPDEST SWAP1 PUSH1 0x0 MSTORE PUSH1 0x20 PUSH1 0x0 KECCAK256 ADD DUP3 DUP5 DUP2 SLOAD DUP2 LT PUSH2 0x5D4F JUMPI PUSH2 0x5D4F PUSH2 0x642E JUMP JUMPDEST SWAP1 PUSH1 0x0 MSTORE PUSH1 0x20 PUSH1 0x0 KECCAK256 ADD SWAP1 DUP2 PUSH2 0x5D65 SWAP2 SWAP1 PUSH2 0x67B7 JUMP JUMPDEST POP DUP3 PUSH2 0x5D70 DUP2 PUSH2 0x646D JUMP JUMPDEST SWAP4 POP POP PUSH2 0x5D02 JUMP JUMPDEST DUP2 DUP1 SLOAD DUP1 PUSH2 0x5D88 JUMPI PUSH2 0x5D88 PUSH2 0x6499 JUMP JUMPDEST PUSH1 0x1 SWAP1 SUB DUP2 DUP2 SWAP1 PUSH1 0x0 MSTORE PUSH1 0x20 PUSH1 0x0 KECCAK256 ADD PUSH1 0x0 PUSH2 0x5DA4 SWAP2 SWAP1 PUSH2 0x5DE9 JUMP JUMPDEST SWAP1 SSTORE PUSH2 0x5DBD JUMP JUMPDEST DUP3 PUSH2 0x5DB5 DUP2 PUSH2 0x646D JUMP JUMPDEST SWAP4 POP POP PUSH2 0x5CB0 JUMP JUMPDEST POP POP POP POP POP JUMP JUMPDEST PUSH2 0x4E09 DUP2 PUSH1 0x0 PUSH11 0x636F6E736F6C652E6C6F67 SWAP1 POP PUSH1 0x0 DUP1 DUP4 MLOAD PUSH1 0x20 DUP6 ADD DUP5 GAS STATICCALL POP POP POP JUMP JUMPDEST POP DUP1 SLOAD PUSH2 0x5DF5 SWAP1 PUSH2 0x63F4 JUMP JUMPDEST PUSH1 0x0 DUP3 SSTORE DUP1 PUSH1 0x1F LT PUSH2 0x5E05 JUMPI POP POP JUMP JUMPDEST PUSH1 0x1F ADD PUSH1 0x20 SWAP1 DIV SWAP1 PUSH1 0x0 MSTORE PUSH1 0x20 PUSH1 0x0 KECCAK256 SWAP1 DUP2 ADD SWAP1 PUSH2 0x4E09 SWAP2 SWAP1 JUMPDEST DUP1 DUP3 GT ISZERO PUSH2 0x35AF JUMPI PUSH1 0x0 DUP2 SSTORE PUSH1 0x1 ADD PUSH2 0x5E1F JUMP JUMPDEST PUSH1 0x0 JUMPDEST DUP4 DUP2 LT ISZERO PUSH2 0x5E4E JUMPI DUP2 DUP2 ADD MLOAD DUP4 DUP3 ADD MSTORE PUSH1 0x20 ADD PUSH2 0x5E36 JUMP JUMPDEST POP POP PUSH1 0x0 SWAP2 ADD MSTORE JUMP JUMPDEST PUSH1 0x0 DUP2 MLOAD DUP1 DUP5 MSTORE PUSH2 0x5E6F DUP2 PUSH1 0x20 DUP7 ADD PUSH1 0x20 DUP7 ADD PUSH2 0x5E33 JUMP JUMPDEST PUSH1 0x1F ADD PUSH1 0x1F NOT AND SWAP3 SWAP1 SWAP3 ADD PUSH1 0x20 ADD SWAP3 SWAP2 POP POP JUMP JUMPDEST PUSH1 0x0 PUSH1 0x20 DUP1 DUP4 ADD DUP2 DUP5 MSTORE DUP1 DUP6 MLOAD DUP1 DUP4 MSTORE PUSH1 0x40 SWAP3 POP DUP3 DUP7 ADD SWAP2 POP DUP3 DUP2 PUSH1 0x5 SHL DUP8 ADD ADD DUP5 DUP9 ADD PUSH1 0x0 JUMPDEST DUP4 DUP2 LT ISZERO PUSH2 0x5F65 JUMPI DUP9 DUP4 SUB PUSH1 0x3F NOT ADD DUP6 MSTORE DUP2 MLOAD DUP1 MLOAD PUSH1 0x1 PUSH1 0x1 PUSH1 0xA0 SHL SUB AND DUP5 MSTORE PUSH2 0x140 DUP2 DUP10 ADD MLOAD PUSH1 0x1 PUSH1 0x1 PUSH1 0xA0 SHL SUB DUP2 AND DUP7 DUP12 ADD MSTORE POP DUP8 DUP3 ADD MLOAD DUP2 DUP10 DUP8 ADD MSTORE PUSH2 0x5EF5 DUP3 DUP8 ADD DUP3 PUSH2 0x5E57 JUMP JUMPDEST PUSH1 0x60 DUP5 DUP2 ADD MLOAD SWAP1 DUP9 ADD MSTORE PUSH1 0x80 DUP1 DUP6 ADD MLOAD SWAP1 DUP9 ADD MSTORE PUSH1 0xA0 DUP1 DUP6 ADD MLOAD SWAP1 DUP9 ADD MSTORE PUSH1 0xC0 DUP1 DUP6 ADD MLOAD PUSH4 0xFFFFFFFF SWAP1 DUP2 AND SWAP2 DUP10 ADD SWAP2 SWAP1 SWAP2 MSTORE PUSH1 0xE0 DUP1 DUP7 ADD MLOAD SWAP1 SWAP2 AND SWAP1 DUP9 ADD MSTORE PUSH2 0x100 DUP1 DUP6 ADD MLOAD ISZERO ISZERO SWAP1 DUP9 ADD MSTORE PUSH2 0x120 SWAP4 DUP5 ADD MLOAD ISZERO ISZERO SWAP4 SWAP1 SWAP7 ADD SWAP3 SWAP1 SWAP3 MSTORE POP POP SWAP4 DUP7 ADD SWAP4 SWAP1 DUP7 ADD SWAP1 PUSH1 0x1 ADD PUSH2 0x5EAA JUMP JUMPDEST POP SWAP1 SWAP9 SWAP8 POP POP POP POP POP POP POP POP JUMP JUMPDEST PUSH1 0x1 PUSH1 0x1 PUSH1 0xA0 SHL SUB DUP2 AND DUP2 EQ PUSH2 0x4E09 JUMPI PUSH1 0x0 DUP1 REVERT JUMPDEST PUSH1 0x0 PUSH1 0x20 DUP3 DUP5 SUB SLT ISZERO PUSH2 0x5F9A JUMPI PUSH1 0x0 DUP1 REVERT JUMPDEST DUP2 CALLDATALOAD PUSH2 0x5FA5 DUP2 PUSH2 0x5F73 JUMP JUMPDEST SWAP4 SWAP3 POP POP POP JUMP JUMPDEST PUSH1 0x0 PUSH1 0x20 DUP1 DUP4 ADD DUP2 DUP5 MSTORE DUP1 DUP6 MLOAD DUP1 DUP4 MSTORE PUSH1 0x40 DUP7 ADD SWAP2 POP PUSH1 0x40 DUP2 PUSH1 0x5 SHL DUP8 ADD ADD SWAP3 POP DUP4 DUP8 ADD PUSH1 0x0 JUMPDEST DUP3 DUP2 LT ISZERO PUSH2 0x6001 JUMPI PUSH1 0x3F NOT DUP9 DUP7 SUB ADD DUP5 MSTORE PUSH2 0x5FEF DUP6 DUP4 MLOAD PUSH2 0x5E57 JUMP JUMPDEST SWAP5 POP SWAP3 DUP6 ADD SWAP3 SWAP1 DUP6 ADD SWAP1 PUSH1 0x1 ADD PUSH2 0x5FD3 JUMP JUMPDEST POP SWAP3 SWAP8 SWAP7 POP POP POP POP POP POP POP JUMP JUMPDEST PUSH4 0x4E487B71 PUSH1 0xE0 SHL PUSH1 0x0 MSTORE PUSH1 0x41 PUSH1 0x4 MSTORE PUSH1 0x24 PUSH1 0x0 REVERT JUMPDEST PUSH1 0x0 DUP3 PUSH1 0x1F DUP4 ADD SLT PUSH2 0x6035 JUMPI PUSH1 0x0 DUP1 REVERT JUMPDEST DUP2 CALLDATALOAD PUSH8 0xFFFFFFFFFFFFFFFF DUP1 DUP3 GT ISZERO PUSH2 0x6050 JUMPI PUSH2 0x6050 PUSH2 0x600E JUMP JUMPDEST PUSH1 0x40 MLOAD PUSH1 0x1F DUP4 ADD PUSH1 0x1F NOT SWAP1 DUP2 AND PUSH1 0x3F ADD AND DUP2 ADD SWAP1 DUP3 DUP3 GT DUP2 DUP4 LT OR ISZERO PUSH2 0x6078 JUMPI PUSH2 0x6078 PUSH2 0x600E JUMP JUMPDEST DUP2 PUSH1 0x40 MSTORE DUP4 DUP2 MSTORE DUP7 PUSH1 0x20 DUP6 DUP9 ADD ADD GT ISZERO PUSH2 0x6091 JUMPI PUSH1 0x0 DUP1 REVERT JUMPDEST DUP4 PUSH1 0x20 DUP8 ADD PUSH1 0x20 DUP4 ADD CALLDATACOPY PUSH1 0x0 PUSH1 0x20 DUP6 DUP4 ADD ADD MSTORE DUP1 SWAP5 POP POP POP POP POP SWAP3 SWAP2 POP POP JUMP JUMPDEST PUSH1 0x0 DUP1 PUSH1 0x0 DUP1 PUSH1 0x80 DUP6 DUP8 SUB SLT ISZERO PUSH2 0x60C7 JUMPI PUSH1 0x0 DUP1 REVERT JUMPDEST DUP5 CALLDATALOAD PUSH2 0x60D2 DUP2 PUSH2 0x5F73 JUMP JUMPDEST SWAP4 POP PUSH1 0x20 DUP6 ADD CALLDATALOAD PUSH8 0xFFFFFFFFFFFFFFFF DUP2 GT ISZERO PUSH2 0x60EE JUMPI PUSH1 0x0 DUP1 REVERT JUMPDEST PUSH2 0x60FA DUP8 DUP3 DUP9 ADD PUSH2 0x6024 JUMP JUMPDEST SWAP5 SWAP8 SWAP5 SWAP7 POP POP POP POP PUSH1 0x40 DUP4 ADD CALLDATALOAD SWAP3 PUSH1 0x60 ADD CALLDATALOAD SWAP2 SWAP1 POP JUMP JUMPDEST PUSH1 0x0 PUSH1 0x20 DUP3 DUP5 SUB SLT ISZERO PUSH2 0x6123 JUMPI PUSH1 0x0 DUP1 REVERT JUMPDEST POP CALLDATALOAD SWAP2 SWAP1 POP JUMP JUMPDEST PUSH4 0x4E487B71 PUSH1 0xE0 SHL PUSH1 0x0 MSTORE PUSH1 0x21 PUSH1 0x4 MSTORE PUSH1 0x24 PUSH1 0x0 REVERT JUMPDEST PUSH1 0x3 DUP2 LT PUSH2 0x615E JUMPI PUSH4 0x4E487B71 PUSH1 0xE0 SHL PUSH1 0x0 MSTORE PUSH1 0x21 PUSH1 0x4 MSTORE PUSH1 0x24 PUSH1 0x0 REVERT JUMPDEST SWAP1 MSTORE JUMP JUMPDEST DUP2 MLOAD PUSH1 0x1 PUSH1 0x1 PUSH1 0xA0 SHL SUB AND DUP2 MSTORE PUSH1 0x20 DUP1 DUP4 ADD MLOAD PUSH1 0xC0 DUP4 ADD SWAP2 PUSH2 0x6186 SWAP1 DUP5 ADD DUP3 PUSH2 0x6140 JUMP JUMPDEST POP PUSH1 0x40 DUP4 ADD MLOAD ISZERO ISZERO PUSH1 0x40 DUP4 ADD MSTORE PUSH1 0xFF PUSH1 0x60 DUP5 ADD MLOAD AND PUSH1 0x60 DUP4 ADD MSTORE PUSH1 0x80 DUP4 ADD MLOAD ISZERO ISZERO PUSH1 0x80 DUP4 ADD MSTORE PUSH1 0xA0 DUP4 ADD MLOAD PUSH2 0x61BE PUSH1 0xA0 DUP5 ADD DUP3 PUSH2 0x6140 JUMP JUMPDEST POP SWAP3 SWAP2 POP POP JUMP JUMPDEST PUSH1 0x0 DUP1 PUSH1 0x0 DUP1 PUSH1 0x80 DUP6 DUP8 SUB SLT ISZERO PUSH2 0x61DB JUMPI PUSH1 0x0 DUP1 REVERT JUMPDEST DUP5 CALLDATALOAD PUSH8 0xFFFFFFFFFFFFFFFF DUP2 GT ISZERO PUSH2 0x61F2 JUMPI PUSH1 0x0 DUP1 REVERT JUMPDEST PUSH2 0x61FE DUP8 DUP3 DUP9 ADD PUSH2 0x6024 JUMP JUMPDEST SWAP5 POP POP PUSH1 0x20 DUP6 ADD CALLDATALOAD SWAP3 POP PUSH1 0x40 DUP6 ADD CALLDATALOAD SWAP2 POP PUSH1 0x60 DUP6 ADD CALLDATALOAD PUSH4 0xFFFFFFFF DUP2 AND DUP2 EQ PUSH2 0x6226 JUMPI PUSH1 0x0 DUP1 REVERT JUMPDEST SWAP4 SWAP7 SWAP3 SWAP6 POP SWAP1 SWAP4 POP POP JUMP JUMPDEST PUSH1 0x20 DUP1 DUP3 MSTORE DUP3 MLOAD DUP3 DUP3 ADD DUP2 SWAP1 MSTORE PUSH1 0x0 SWAP2 SWAP1 DUP5 DUP3 ADD SWAP1 PUSH1 0x40 DUP6 ADD SWAP1 DUP5 JUMPDEST DUP2 DUP2 LT ISZERO PUSH2 0x6272 JUMPI DUP4 MLOAD PUSH1 0x1 PUSH1 0x1 PUSH1 0xA0 SHL SUB AND DUP4 MSTORE SWAP3 DUP5 ADD SWAP3 SWAP2 DUP5 ADD SWAP2 PUSH1 0x1 ADD PUSH2 0x624D JUMP JUMPDEST POP SWAP1 SWAP7 SWAP6 POP POP POP POP POP POP JUMP JUMPDEST PUSH1 0x0 PUSH1 0x20 DUP3 DUP5 SUB SLT ISZERO PUSH2 0x6290 JUMPI PUSH1 0x0 DUP1 REVERT JUMPDEST DUP2 CALLDATALOAD PUSH2 0xFFFF DUP2 AND DUP2 EQ PUSH2 0x5FA5 JUMPI PUSH1 0x0 DUP1 REVERT JUMPDEST PUSH1 0x0 PUSH1 0x20 DUP1 DUP4 ADD DUP2 DUP5 MSTORE DUP1 DUP6 MLOAD DUP1 DUP4 MSTORE PUSH1 0x40 SWAP3 POP DUP3 DUP7 ADD SWAP2 POP DUP3 DUP2 PUSH1 0x5 SHL DUP8 ADD ADD DUP5 DUP9 ADD PUSH1 0x0 JUMPDEST DUP4 DUP2 LT ISZERO PUSH2 0x5F65 JUMPI PUSH1 0x3F NOT DUP10 DUP5 SUB ADD DUP6 MSTORE DUP2 MLOAD PUSH1 0xA0 DUP2 MLOAD DUP2 DUP7 MSTORE PUSH2 0x62EF DUP3 DUP8 ADD DUP3 PUSH2 0x5E57 JUMP JUMPDEST DUP4 DUP12 ADD MLOAD DUP8 DUP13 ADD MSTORE DUP10 DUP5 ADD MLOAD DUP11 DUP9 ADD MSTORE PUSH1 0x60 DUP1 DUP6 ADD MLOAD SWAP1 DUP9 ADD MSTORE PUSH1 0x80 SWAP4 DUP5 ADD MLOAD PUSH4 0xFFFFFFFF AND SWAP4 SWAP1 SWAP7 ADD SWAP3 SWAP1 SWAP3 MSTORE POP POP SWAP4 DUP7 ADD SWAP4 SWAP1 DUP7 ADD SWAP1 PUSH1 0x1 ADD PUSH2 0x62C9 JUMP JUMPDEST PUSH1 0x20 DUP1 DUP3 MSTORE DUP3 MLOAD DUP3 DUP3 ADD DUP2 SWAP1 MSTORE PUSH1 0x0 SWAP2 SWAP1 DUP5 DUP3 ADD SWAP1 PUSH1 0x40 DUP6 ADD SWAP1 DUP5 JUMPDEST DUP2 DUP2 LT ISZERO PUSH2 0x6272 JUMPI DUP4 MLOAD DUP4 MSTORE SWAP3 DUP5 ADD SWAP3 SWAP2 DUP5 ADD SWAP2 PUSH1 0x1 ADD PUSH2 0x634B JUMP JUMPDEST PUSH1 0x0 PUSH1 0x20 DUP3 DUP5 SUB SLT ISZERO PUSH2 0x6379 JUMPI PUSH1 0x0 DUP1 REVERT JUMPDEST DUP2 CALLDATALOAD PUSH8 0xFFFFFFFFFFFFFFFF DUP2 GT ISZERO PUSH2 0x6390 JUMPI PUSH1 0x0 DUP1 REVERT JUMPDEST PUSH2 0x639C DUP5 DUP3 DUP6 ADD PUSH2 0x6024 JUMP JUMPDEST SWAP5 SWAP4 POP POP POP POP JUMP JUMPDEST PUSH1 0x0 DUP1 PUSH1 0x40 DUP4 DUP6 SUB SLT ISZERO PUSH2 0x63B7 JUMPI PUSH1 0x0 DUP1 REVERT JUMPDEST DUP3 CALLDATALOAD PUSH2 0x63C2 DUP2 PUSH2 0x5F73 JUMP JUMPDEST SWAP2 POP PUSH1 0x20 DUP4 ADD CALLDATALOAD PUSH8 0xFFFFFFFFFFFFFFFF DUP2 GT ISZERO PUSH2 0x63DE JUMPI PUSH1 0x0 DUP1 REVERT JUMPDEST PUSH2 0x63EA DUP6 DUP3 DUP7 ADD PUSH2 0x6024 JUMP JUMPDEST SWAP2 POP POP SWAP3 POP SWAP3 SWAP1 POP JUMP JUMPDEST PUSH1 0x1 DUP2 DUP2 SHR SWAP1 DUP3 AND DUP1 PUSH2 0x6408 JUMPI PUSH1 0x7F DUP3 AND SWAP2 POP JUMPDEST PUSH1 0x20 DUP3 LT DUP2 SUB PUSH2 0x6428 JUMPI PUSH4 0x4E487B71 PUSH1 0xE0 SHL PUSH1 0x0 MSTORE PUSH1 0x22 PUSH1 0x4 MSTORE PUSH1 0x24 PUSH1 0x0 REVERT JUMPDEST POP SWAP2 SWAP1 POP JUMP JUMPDEST PUSH4 0x4E487B71 PUSH1 0xE0 SHL PUSH1 0x0 MSTORE PUSH1 0x32 PUSH1 0x4 MSTORE PUSH1 0x24 PUSH1 0x0 REVERT JUMPDEST PUSH4 0x4E487B71 PUSH1 0xE0 SHL PUSH1 0x0 MSTORE PUSH1 0x11 PUSH1 0x4 MSTORE PUSH1 0x24 PUSH1 0x0 REVERT JUMPDEST DUP1 DUP3 ADD DUP1 DUP3 GT ISZERO PUSH2 0x3E1F JUMPI PUSH2 0x3E1F PUSH2 0x6444 JUMP JUMPDEST PUSH1 0x0 PUSH1 0x1 DUP3 ADD PUSH2 0x647F JUMPI PUSH2 0x647F PUSH2 0x6444 JUMP JUMPDEST POP PUSH1 0x1 ADD SWAP1 JUMP JUMPDEST DUP2 DUP2 SUB DUP2 DUP2 GT ISZERO PUSH2 0x3E1F JUMPI PUSH2 0x3E1F PUSH2 0x6444 JUMP JUMPDEST PUSH4 0x4E487B71 PUSH1 0xE0 SHL PUSH1 0x0 MSTORE PUSH1 0x31 PUSH1 0x4 MSTORE PUSH1 0x24 PUSH1 0x0 REVERT JUMPDEST PUSH1 0x0 DUP2 PUSH2 0x64BE JUMPI PUSH2 0x64BE PUSH2 0x6444 JUMP JUMPDEST POP PUSH1 0x0 NOT ADD SWAP1 JUMP JUMPDEST PUSH1 0x20 DUP2 MSTORE PUSH1 0x0 PUSH2 0x5FA5 PUSH1 0x20 DUP4 ADD DUP5 PUSH2 0x5E57 JUMP JUMPDEST PUSH1 0xFF DUP3 DUP2 AND DUP3 DUP3 AND SUB SWAP1 DUP2 GT ISZERO PUSH2 0x3E1F JUMPI PUSH2 0x3E1F PUSH2 0x6444 JUMP JUMPDEST DUP1 DUP3 MUL DUP2 ISZERO DUP3 DUP3 DIV DUP5 EQ OR PUSH2 0x3E1F JUMPI PUSH2 0x3E1F PUSH2 0x6444 JUMP JUMPDEST PUSH4 0x4E487B71 PUSH1 0xE0 SHL PUSH1 0x0 MSTORE PUSH1 0x12 PUSH1 0x4 MSTORE PUSH1 0x24 PUSH1 0x0 REVERT JUMPDEST PUSH1 0x0 DUP3 PUSH2 0x652E JUMPI PUSH2 0x652E PUSH2 0x6509 JUMP JUMPDEST POP DIV SWAP1 JUMP JUMPDEST PUSH1 0x1F DUP3 GT ISZERO PUSH2 0x6579 JUMPI PUSH1 0x0 DUP2 DUP2 MSTORE PUSH1 0x20 DUP2 KECCAK256 PUSH1 0x1F DUP6 ADD PUSH1 0x5 SHR DUP2 ADD PUSH1 0x20 DUP7 LT ISZERO PUSH2 0x655A JUMPI POP DUP1 JUMPDEST PUSH1 0x1F DUP6 ADD PUSH1 0x5 SHR DUP3 ADD SWAP2 POP JUMPDEST DUP2 DUP2 LT ISZERO PUSH2 0x5846 JUMPI DUP3 DUP2 SSTORE PUSH1 0x1 ADD PUSH2 0x6566 JUMP JUMPDEST POP POP POP JUMP JUMPDEST DUP2 MLOAD PUSH8 0xFFFFFFFFFFFFFFFF DUP2 GT ISZERO PUSH2 0x6598 JUMPI PUSH2 0x6598 PUSH2 0x600E JUMP JUMPDEST PUSH2 0x65AC DUP2 PUSH2 0x65A6 DUP5 SLOAD PUSH2 0x63F4 JUMP JUMPDEST DUP5 PUSH2 0x6533 JUMP JUMPDEST PUSH1 0x20 DUP1 PUSH1 0x1F DUP4 GT PUSH1 0x1 DUP2 EQ PUSH2 0x65E1 JUMPI PUSH1 0x0 DUP5 ISZERO PUSH2 0x65C9 JUMPI POP DUP6 DUP4 ADD MLOAD JUMPDEST PUSH1 0x0 NOT PUSH1 0x3 DUP7 SWAP1 SHL SHR NOT AND PUSH1 0x1 DUP6 SWAP1 SHL OR DUP6 SSTORE PUSH2 0x5846 JUMP JUMPDEST PUSH1 0x0 DUP6 DUP2 MSTORE PUSH1 0x20 DUP2 KECCAK256 PUSH1 0x1F NOT DUP7 AND SWAP2 JUMPDEST DUP3 DUP2 LT ISZERO PUSH2 0x6610 JUMPI DUP9 DUP7 ADD MLOAD DUP3 SSTORE SWAP5 DUP5 ADD SWAP5 PUSH1 0x1 SWAP1 SWAP2 ADD SWAP1 DUP5 ADD PUSH2 0x65F1 JUMP JUMPDEST POP DUP6 DUP3 LT ISZERO PUSH2 0x662E JUMPI DUP8 DUP6 ADD MLOAD PUSH1 0x0 NOT PUSH1 0x3 DUP9 SWAP1 SHL PUSH1 0xF8 AND SHR NOT AND DUP2 SSTORE JUMPDEST POP POP POP POP POP PUSH1 0x1 SWAP1 DUP2 SHL ADD SWAP1 SSTORE POP JUMP JUMPDEST PUSH1 0x20 DUP1 DUP3 MSTORE PUSH1 0x14 SWAP1 DUP3 ADD MSTORE PUSH20 0x2CB7BA9030B932B713BA103A34329037BBB732B9 PUSH1 0x61 SHL PUSH1 0x40 DUP3 ADD MSTORE PUSH1 0x60 ADD SWAP1 JUMP JUMPDEST PUSH1 0x0 DUP3 PUSH2 0x667B JUMPI PUSH2 0x667B PUSH2 0x6509 JUMP JUMPDEST POP MOD SWAP1 JUMP JUMPDEST PUSH1 0x0 PUSH1 0xFF DUP3 AND PUSH1 0xFF DUP2 SUB PUSH2 0x6696 JUMPI PUSH2 0x6696 PUSH2 0x6444 JUMP JUMPDEST PUSH1 0x1 ADD SWAP3 SWAP2 POP POP JUMP JUMPDEST PUSH4 0xFFFFFFFF DUP2 DUP2 AND DUP4 DUP3 AND MUL DUP1 DUP3 AND SWAP2 SWAP1 DUP3 DUP2 EQ PUSH2 0x66BF JUMPI PUSH2 0x66BF PUSH2 0x6444 JUMP JUMPDEST POP POP SWAP3 SWAP2 POP POP JUMP JUMPDEST PUSH1 0x40 DUP2 MSTORE PUSH1 0x0 PUSH2 0x66DA PUSH1 0x40 DUP4 ADD DUP6 PUSH2 0x5E57 JUMP JUMPDEST SWAP1 POP DUP3 PUSH1 0x20 DUP4 ADD MSTORE SWAP4 SWAP3 POP POP POP JUMP JUMPDEST PUSH1 0x0 DUP3 MLOAD PUSH2 0x66FB DUP2 DUP5 PUSH1 0x20 DUP8 ADD PUSH2 0x5E33 JUMP JUMPDEST SWAP2 SWAP1 SWAP2 ADD SWAP3 SWAP2 POP POP JUMP JUMPDEST PUSH1 0x0 DUP6 MLOAD PUSH2 0x6717 DUP2 DUP5 PUSH1 0x20 DUP11 ADD PUSH2 0x5E33 JUMP JUMPDEST SWAP2 SWAP1 SWAP2 ADD SWAP4 DUP5 MSTORE POP PUSH1 0xE0 SWAP2 SWAP1 SWAP2 SHL PUSH1 0x1 PUSH1 0x1 PUSH1 0xE0 SHL SUB NOT AND PUSH1 0x20 DUP4 ADD MSTORE PUSH1 0x24 DUP3 ADD MSTORE PUSH1 0x44 ADD SWAP2 SWAP1 POP JUMP JUMPDEST PUSH1 0x0 DUP1 DUP4 SLOAD PUSH2 0x674F DUP2 PUSH2 0x63F4 JUMP JUMPDEST PUSH1 0x1 DUP3 DUP2 AND DUP1 ISZERO PUSH2 0x6767 JUMPI PUSH1 0x1 DUP2 EQ PUSH2 0x677C JUMPI PUSH2 0x67AB JUMP JUMPDEST PUSH1 0xFF NOT DUP5 AND DUP8 MSTORE DUP3 ISZERO ISZERO DUP4 MUL DUP8 ADD SWAP5 POP PUSH2 0x67AB JUMP JUMPDEST DUP8 PUSH1 0x0 MSTORE PUSH1 0x20 DUP1 PUSH1 0x0 KECCAK256 PUSH1 0x0 JUMPDEST DUP6 DUP2 LT ISZERO PUSH2 0x67A2 JUMPI DUP2 SLOAD DUP11 DUP3 ADD MSTORE SWAP1 DUP5 ADD SWAP1 DUP3 ADD PUSH2 0x6789 JUMP JUMPDEST POP POP POP DUP3 DUP8 ADD SWAP5 POP JUMPDEST POP SWAP3 SWAP7 SWAP6 POP POP POP POP POP POP JUMP JUMPDEST DUP2 DUP2 SUB PUSH2 0x67C2 JUMPI POP POP JUMP JUMPDEST PUSH2 0x67CC DUP3 SLOAD PUSH2 0x63F4 JUMP JUMPDEST PUSH8 0xFFFFFFFFFFFFFFFF DUP2 GT ISZERO PUSH2 0x67E4 JUMPI PUSH2 0x67E4 PUSH2 0x600E JUMP JUMPDEST PUSH2 0x67F2 DUP2 PUSH2 0x65A6 DUP5 SLOAD PUSH2 0x63F4 JUMP JUMPDEST PUSH1 0x0 PUSH1 0x1F DUP3 GT PUSH1 0x1 DUP2 EQ PUSH2 0x6826 JUMPI PUSH1 0x0 DUP4 ISZERO PUSH2 0x680E JUMPI POP DUP5 DUP3 ADD SLOAD JUMPDEST PUSH1 0x0 NOT PUSH1 0x3 DUP6 SWAP1 SHL SHR NOT AND PUSH1 0x1 DUP5 SWAP1 SHL OR DUP5 SSTORE PUSH2 0x5DBD JUMP JUMPDEST PUSH1 0x0 DUP6 DUP2 MSTORE PUSH1 0x20 SWAP1 KECCAK256 PUSH1 0x1F NOT DUP5 AND SWAP1 PUSH1 0x0 DUP7 DUP2 MSTORE PUSH1 0x20 SWAP1 KECCAK256 DUP5 JUMPDEST DUP4 DUP2 LT ISZERO PUSH2 0x6860 JUMPI DUP3 DUP7 ADD SLOAD DUP3 SSTORE PUSH1 0x1 SWAP6 DUP7 ADD SWAP6 SWAP1 SWAP2 ADD SWAP1 PUSH1 0x20 ADD PUSH2 0x6840 JUMP JUMPDEST POP DUP6 DUP4 LT ISZERO PUSH2 0x662E JUMPI SWAP4 ADD SLOAD PUSH1 0x0 NOT PUSH1 0xF8 PUSH1 0x3 DUP8 SWAP1 SHL AND SHR NOT AND SWAP1 SWAP3 SSTORE POP POP PUSH1 0x1 SWAP1 DUP2 SHL ADD SWAP1 SSTORE POP JUMP INVALID LOG2 PUSH5 0x6970667358 0x22 SLT KECCAK256 0xED BALANCE PUSH14 0x808BB31920152C5BBFD08E08D560 0xE2 SWAP8 0xC8 0xC0 SLT ISZERO PUSH28 0x3173077EAD560DE764736F6C63430008120033000000000000000000 "
		},
		"gasEstimates": {
			"creation": {
				"codeDepositCost": "5363200",
				"executionCost": "30685",
				"totalCost": "5393885"
			},
			"external": {
				"addProduct(string,uint256,uint256,uint32)": "infinite",
				"buyProducts(address,string,uint256,uint256)": "infinite",
				"changeRole(uint256)": "infinite",
				"checkDebts()": "4701",
				"getDiscount(uint256)": "33758",
				"getProductsHashesByTitle(address,string)": "infinite",
				"giveDiscount(address)": "infinite",
				"payOffDebt(uint256)": "infinite",
				"payOffDebts()": "infinite",
				"payOffReferal(uint256)": "infinite",
				"payOffReferals()": "infinite",
				"refund(uint256)": "infinite",
				"requestChangeRole(string)": "infinite",
				"requestRefund(uint256)": "134965",
				"showChangeRoleRequests()": "infinite",
				"showCredits()": "infinite",
				"showCreditsDebt()": "4598",
				"showDebtAddresses()": "infinite",
				"showDebtSum()": "infinite",
				"showHistory()": "infinite",
				"showProduct(address,string)": "infinite",
				"showProducts(address)": "infinite",
				"showProductsTitles(address)": "infinite",
				"showProfile()": "infinite",
				"showRefundRequests()": "infinite",
				"showRefundRequestsTime()": "infinite",
				"showStores()": "infinite",
				"showSuppliers()": "infinite",
				"showUsers()": "infinite",
				"signIn(uint16)": "245595"
			},
			"internal": {
				"addCredit()": "infinite",
				"decProduct(string memory,address,uint256,uint256,uint32,uint256)": "infinite",
				"generateHash(string memory)": "infinite",
				"generateHash(string memory,uint256,uint32,uint256)": "infinite",
				"incProduct(string memory,uint256,uint256,uint256,uint32)": "infinite",
				"randomNumber(uint32)": "infinite",
				"removeChangeRoleRequest(uint256)": "infinite",
				"removeCreditsElement(uint256)": "infinite",
				"removeProductTitle(address,string memory)": "infinite"
			}
		},
		"methodIdentifiers": {
			"addProduct(string,uint256,uint256,uint32)": "2fffffbb",
			"buyProducts(address,string,uint256,uint256)": "1af37578",
			"changeRole(uint256)": "429848d9",
			"checkDebts()": "48004b9a",
			"getDiscount(uint256)": "2336dbe4",
			"getProductsHashesByTitle(address,string)": "91c8d204",
			"giveDiscount(address)": "87aee8ad",
			"payOffDebt(uint256)": "ea77299d",
			"payOffDebts()": "13278cb8",
			"payOffReferal(uint256)": "bcc22c9a",
			"payOffReferals()": "a0ae3f1c",
			"refund(uint256)": "278ecde1",
			"requestChangeRole(string)": "57e425bc",
			"requestRefund(uint256)": "a4b2409e",
			"showChangeRoleRequests()": "b752a416",
			"showCredits()": "5af02dfa",
			"showCreditsDebt()": "279e56e4",
			"showDebtAddresses()": "569af213",
			"showDebtSum()": "695c92fb",
			"showHistory()": "040c4be8",
			"showProduct(address,string)": "8465d650",
			"showProducts(address)": "3e903270",
			"showProductsTitles(address)": "1a3c6b5c",
			"showProfile()": "279a6f4d",
			"showRefundRequests()": "9d7d2e8d",
			"showRefundRequestsTime()": "4e5a05df",
			"showStores()": "abe9f681",
			"showSuppliers()": "bdf13851",
			"showUsers()": "329dd364",
			"signIn(uint16)": "3d9d9a5c"
		}
	},
	"abi": [
		{
			"inputs": [
				{
					"internalType": "string",
					"name": "role",
					"type": "string"
				}
			],
			"name": "InvalidRole",
			"type": "error"
		},
		{
			"inputs": [
				{
					"internalType": "uint256",
					"name": "available",
					"type": "uint256"
				},
				{
					"internalType": "uint256",
					"name": "required",
					"type": "uint256"
				}
			],
			"name": "NotEnoughFunds",
			"type": "error"
		},
		{
			"inputs": [],
			"name": "PermissionDenied",
			"type": "error"
		},
		{
			"inputs": [
				{
					"internalType": "string",
					"name": "title",
					"type": "string"
				}
			],
			"name": "ProductDoesNotExists",
			"type": "error"
		},
		{
			"inputs": [],
			"name": "RoleNotSelected",
			"type": "error"
		},
		{
			"inputs": [
				{
					"internalType": "address",
					"name": "addr",
					"type": "address"
				}
			],
			"name": "UserDoesNotExists",
			"type": "error"
		},
		{
			"anonymous": false,
			"inputs": [
				{
					"indexed": false,
					"internalType": "uint256",
					"name": "id",
					"type": "uint256"
				}
			],
			"name": "refundApproved",
			"type": "event"
		},
		{
			"anonymous": false,
			"inputs": [
				{
					"indexed": false,
					"internalType": "uint256",
					"name": "id",
					"type": "uint256"
				}
			],
			"name": "refundRejected",
			"type": "event"
		},
		{
			"anonymous": false,
			"inputs": [
				{
					"indexed": false,
					"internalType": "address",
					"name": "addr",
					"type": "address"
				}
			],
			"name": "roleChanged",
			"type": "event"
		},
		{
			"inputs": [
				{
					"internalType": "string",
					"name": "_title",
					"type": "string"
				},
				{
					"internalType": "uint256",
					"name": "_cost_wei",
					"type": "uint256"
				},
				{
					"internalType": "uint256",
					"name": "_amount",
					"type": "uint256"
				},
				{
					"internalType": "uint32",
					"name": "_storage_life",
					"type": "uint32"
				}
			],
			"name": "addProduct",
			"outputs": [],
			"stateMutability": "nonpayable",
			"type": "function"
		},
		{
			"inputs": [
				{
					"internalType": "address payable",
					"name": "_seller",
					"type": "address"
				},
				{
					"internalType": "string",
					"name": "_title",
					"type": "string"
				},
				{
					"internalType": "uint256",
					"name": "_productHash",
					"type": "uint256"
				},
				{
					"internalType": "uint256",
					"name": "_amount",
					"type": "uint256"
				}
			],
			"name": "buyProducts",
			"outputs": [],
			"stateMutability": "payable",
			"type": "function"
		},
		{
			"inputs": [
				{
					"internalType": "uint256",
					"name": "_id",
					"type": "uint256"
				}
			],
			"name": "changeRole",
			"outputs": [],
			"stateMutability": "nonpayable",
			"type": "function"
		},
		{
			"inputs": [],
			"name": "checkDebts",
			"outputs": [
				{
					"internalType": "uint256",
					"name": "",
					"type": "uint256"
				}
			],
			"stateMutability": "view",
			"type": "function"
		},
		{
			"inputs": [
				{
					"internalType": "uint256",
					"name": "_code",
					"type": "uint256"
				}
			],
			"name": "getDiscount",
			"outputs": [],
			"stateMutability": "nonpayable",
			"type": "function"
		},
		{
			"inputs": [
				{
					"internalType": "address",
					"name": "_owner",
					"type": "address"
				},
				{
					"internalType": "string",
					"name": "_productTitle",
					"type": "string"
				}
			],
			"name": "getProductsHashesByTitle",
			"outputs": [
				{
					"internalType": "uint256[]",
					"name": "",
					"type": "uint256[]"
				}
			],
			"stateMutability": "view",
			"type": "function"
		},
		{
			"inputs": [
				{
					"internalType": "address",
					"name": "_target",
					"type": "address"
				}
			],
			"name": "giveDiscount",
			"outputs": [],
			"stateMutability": "nonpayable",
			"type": "function"
		},
		{
			"inputs": [
				{
					"internalType": "uint256",
					"name": "_id",
					"type": "uint256"
				}
			],
			"name": "payOffDebt",
			"outputs": [],
			"stateMutability": "payable",
			"type": "function"
		},
		{
			"inputs": [],
			"name": "payOffDebts",
			"outputs": [],
			"stateMutability": "payable",
			"type": "function"
		},
		{
			"inputs": [
				{
					"internalType": "uint256",
					"name": "_id",
					"type": "uint256"
				}
			],
			"name": "payOffReferal",
			"outputs": [],
			"stateMutability": "payable",
			"type": "function"
		},
		{
			"inputs": [],
			"name": "payOffReferals",
			"outputs": [],
			"stateMutability": "payable",
			"type": "function"
		},
		{
			"inputs": [
				{
					"internalType": "uint256",
					"name": "_id",
					"type": "uint256"
				}
			],
			"name": "refund",
			"outputs": [],
			"stateMutability": "nonpayable",
			"type": "function"
		},
		{
			"inputs": [
				{
					"internalType": "string",
					"name": "_role",
					"type": "string"
				}
			],
			"name": "requestChangeRole",
			"outputs": [],
			"stateMutability": "nonpayable",
			"type": "function"
		},
		{
			"inputs": [
				{
					"internalType": "uint256",
					"name": "_purchaseId",
					"type": "uint256"
				}
			],
			"name": "requestRefund",
			"outputs": [],
			"stateMutability": "nonpayable",
			"type": "function"
		},
		{
			"inputs": [],
			"name": "showChangeRoleRequests",
			"outputs": [
				{
					"internalType": "address[]",
					"name": "",
					"type": "address[]"
				}
			],
			"stateMutability": "view",
			"type": "function"
		},
		{
			"inputs": [],
			"name": "showCredits",
			"outputs": [
				{
					"internalType": "address payable[]",
					"name": "",
					"type": "address[]"
				}
			],
			"stateMutability": "view",
			"type": "function"
		},
		{
			"inputs": [],
			"name": "showCreditsDebt",
			"outputs": [
				{
					"internalType": "uint256",
					"name": "",
					"type": "uint256"
				}
			],
			"stateMutability": "view",
			"type": "function"
		},
		{
			"inputs": [],
			"name": "showDebtAddresses",
			"outputs": [
				{
					"internalType": "address payable[]",
					"name": "",
					"type": "address[]"
				}
			],
			"stateMutability": "view",
			"type": "function"
		},
		{
			"inputs": [],
			"name": "showDebtSum",
			"outputs": [
				{
					"internalType": "uint256",
					"name": "",
					"type": "uint256"
				}
			],
			"stateMutability": "view",
			"type": "function"
		},
		{
			"inputs": [],
			"name": "showHistory",
			"outputs": [
				{
					"components": [
						{
							"internalType": "address payable",
							"name": "buyer",
							"type": "address"
						},
						{
							"internalType": "address",
							"name": "seller",
							"type": "address"
						},
						{
							"internalType": "string",
							"name": "title",
							"type": "string"
						},
						{
							"internalType": "uint256",
							"name": "cost_wei",
							"type": "uint256"
						},
						{
							"internalType": "uint256",
							"name": "amount",
							"type": "uint256"
						},
						{
							"internalType": "uint256",
							"name": "production_date",
							"type": "uint256"
						},
						{
							"internalType": "uint32",
							"name": "storage_life_days",
							"type": "uint32"
						},
						{
							"internalType": "uint32",
							"name": "rand_nonce",
							"type": "uint32"
						},
						{
							"internalType": "bool",
							"name": "refunded",
							"type": "bool"
						},
						{
							"internalType": "bool",
							"name": "refund_rejected",
							"type": "bool"
						}
					],
					"internalType": "struct store.Record[]",
					"name": "",
					"type": "tuple[]"
				}
			],
			"stateMutability": "view",
			"type": "function"
		},
		{
			"inputs": [
				{
					"internalType": "address",
					"name": "_owner",
					"type": "address"
				},
				{
					"internalType": "string",
					"name": "_title",
					"type": "string"
				}
			],
			"name": "showProduct",
			"outputs": [
				{
					"components": [
						{
							"internalType": "string",
							"name": "title",
							"type": "string"
						},
						{
							"internalType": "uint256",
							"name": "cost_wei",
							"type": "uint256"
						},
						{
							"internalType": "uint256",
							"name": "amount",
							"type": "uint256"
						},
						{
							"internalType": "uint256",
							"name": "production_date",
							"type": "uint256"
						},
						{
							"internalType": "uint32",
							"name": "storage_life_days",
							"type": "uint32"
						}
					],
					"internalType": "struct store.Product[]",
					"name": "",
					"type": "tuple[]"
				}
			],
			"stateMutability": "view",
			"type": "function"
		},
		{
			"inputs": [
				{
					"internalType": "address",
					"name": "_owner",
					"type": "address"
				}
			],
			"name": "showProducts",
			"outputs": [
				{
					"components": [
						{
							"internalType": "string",
							"name": "title",
							"type": "string"
						},
						{
							"internalType": "uint256",
							"name": "cost_wei",
							"type": "uint256"
						},
						{
							"internalType": "uint256",
							"name": "amount",
							"type": "uint256"
						},
						{
							"internalType": "uint256",
							"name": "production_date",
							"type": "uint256"
						},
						{
							"internalType": "uint32",
							"name": "storage_life_days",
							"type": "uint32"
						}
					],
					"internalType": "struct store.Product[]",
					"name": "",
					"type": "tuple[]"
				}
			],
			"stateMutability": "view",
			"type": "function"
		},
		{
			"inputs": [
				{
					"internalType": "address",
					"name": "_owner",
					"type": "address"
				}
			],
			"name": "showProductsTitles",
			"outputs": [
				{
					"internalType": "string[]",
					"name": "",
					"type": "string[]"
				}
			],
			"stateMutability": "view",
			"type": "function"
		},
		{
			"inputs": [],
			"name": "showProfile",
			"outputs": [
				{
					"components": [
						{
							"internalType": "address",
							"name": "addr",
							"type": "address"
						},
						{
							"internalType": "enum store.Role",
							"name": "role",
							"type": "uint8"
						},
						{
							"internalType": "bool",
							"name": "registered",
							"type": "bool"
						},
						{
							"internalType": "uint8",
							"name": "discount",
							"type": "uint8"
						},
						{
							"internalType": "bool",
							"name": "requestedRoleChange",
							"type": "bool"
						},
						{
							"internalType": "enum store.Role",
							"name": "changeRoleTo",
							"type": "uint8"
						}
					],
					"internalType": "struct store.User",
					"name": "",
					"type": "tuple"
				}
			],
			"stateMutability": "view",
			"type": "function"
		},
		{
			"inputs": [],
			"name": "showRefundRequests",
			"outputs": [
				{
					"internalType": "uint256[]",
					"name": "",
					"type": "uint256[]"
				}
			],
			"stateMutability": "view",
			"type": "function"
		},
		{
			"inputs": [],
			"name": "showRefundRequestsTime",
			"outputs": [
				{
					"internalType": "uint256[]",
					"name": "",
					"type": "uint256[]"
				}
			],
			"stateMutability": "view",
			"type": "function"
		},
		{
			"inputs": [],
			"name": "showStores",
			"outputs": [
				{
					"internalType": "address[]",
					"name": "",
					"type": "address[]"
				}
			],
			"stateMutability": "view",
			"type": "function"
		},
		{
			"inputs": [],
			"name": "showSuppliers",
			"outputs": [
				{
					"internalType": "address[]",
					"name": "",
					"type": "address[]"
				}
			],
			"stateMutability": "view",
			"type": "function"
		},
		{
			"inputs": [],
			"name": "showUsers",
			"outputs": [
				{
					"internalType": "address[]",
					"name": "",
					"type": "address[]"
				}
			],
			"stateMutability": "view",
			"type": "function"
		},
		{
			"inputs": [
				{
					"internalType": "uint16",
					"name": "_code",
					"type": "uint16"
				}
			],
			"name": "signIn",
			"outputs": [],
			"stateMutability": "nonpayable",
			"type": "function"
		}
	]
}